S01700006275696C642F697269732F6D61696E2E7372656343
S11300000C9483010C94A2010C94A2010C94A201FF
S11300100C94A2010C94A2010C94A2010C94A201D0
S11300200C94A2010C94A2010C94A2010C94A201C0
S11300300C94A2010C94E9110C94A2010C942D12BD
S11300400C9440130C94F1120C942A130C94351351
S11300500C9479130C94A2010C94A2010C94A201A7
S11300600C9455120C94A4130C94A2010C9418141F
S11300700C94A2010C94A2010C94A2010C945A15A4
S11300800C9439150C9444150C944F150C946D155F
S11300900C941D150C94A2010C942E150C94A20121
S11300A00C94A2010C94A2010C94A2010C94A20140
S11300B00C94A2010C94A2010C94A2010C94A20130
S11300C00C94A2010C94A2010C94A201D00C590D21
S11300D0FC0D180E290EBD0ED40E480F910FF60F0D
S11300E0980FAB0F2010F010171119112411721171
S11300F07D1488149D14E614ED14F414FB140215F5
S113010000020E060C0400002110422063308440DB
S1130110A550C660E770088129914AA16BB18CC1D2
S1130120ADD1CEE1EFF13112100273325222B55249
S11301309442F772D662399318837BB35AA3BDD322
S11301409CC3FFF3DEE36224433420040114E66419
S1130150C774A44485546AA54BB528850995EEE572
S1130160CFF5ACC58DD55336722611163006D77629
S1130170F6669556B4465BB77AA719973887DFF7C2
S1130180FEE79DD7BCC7C448E5588668A7784008F1
S1130190611802282338CCC9EDD98EE9AFF9488912
S11301A069990AA92BB9F55AD44AB77A966A711A89
S11301B0500A333A122AFDDBDCCBBFFB9EEB799B62
S11301C0588B3BBB1AABA66C877CE44CC55C222CD9
S11301D0033C600C411CAEED8FFDECCDCDDD2AADB2
S11301E00BBD688D499D977EB66ED55EF44E133E69
S11301F0322E511E700E9FFFBEEFDDDFFCCF1BBF02
S11302003AAF599F788F8891A981CAB1EBA10CD1DB
S11302102DC14EF16FE18010A100C230E3200450E3
S1130220254046706760B9839893FBA3DAB33DC356
S11302301CD37FE35EF3B1029012F322D232354233
S1130240145277625672EAB5CBA5A89589856EF5E6
S11302504FE52CD50DC5E234C324A0148104667483
S1130260476424540544DBA7FAB79987B8975FE736
S11302707EF71DC73CD7D326F2369106B0165766D3
S11302807676154634564CD96DC90EF92FE9C899BE
S1130290E9898AB9ABA94458654806782768C01823
S11302A0E1088238A3287DCB5CDB3FEB1EFBF98B96
S11302B0D89BBBAB9ABB754A545A376A167AF10A73
S11302C0D01AB32A923A2EFD0FED6CDD4DCDAABDA6
S11302D08BADE89DC98D267C076C645C454CA23CC3
S11302E0832CE01CC10C1FEF3EFF5DCF7CDF9BAF76
S11302F0BABFD98FF89F176E367E554E745E932E13
S1130300B23ED10EF01E11241FBECFEFD1E2DEBFEC
S1130310CDBF12E0A0E0B2E0E4EAF0E300E00BBFFE
S113032002C007900D92A231B107D9F723E1A2E1EF
S1130330B2E001C01D92AB32B207E1F70E948A1508
S11303400C9450180C9400002F980895289A08953E
S1130350209A08950DB407FEFDCF8EB50895982F09
S11303600DB407FEFDCF8EB59EBD0895289808955F
S11303708627082E8295807F8025092E982F8295C6
S11303808F700826869598278927880F880F880FED
S1130390802508959FB7F894809155028F5F8093CC
S11303A055029FBF0895109261111092601184E06C
S11303B0809377021092E1041092741110927B02E0
S11303C01092C5031092C4030895809179118F3F50
S11303D071F0E82FF0E0EF5BFD4F9081909379117D
S11303E09F3F11F490931E139FEF908308958FEF16
S11303F008958091B0008093B0008091B60081FD93
S1130400FCCF08959FB7F89482B121E0822782B986
S11304109FBF08959FB7F894E82FF0E0EF5BFD4F7E
S113042020812F3FC9F421E030E0E0911E13E8174A
S113043011F020E030E0232B79F4209179112F3F43
S113044019F48093791104C0F0E0EF5BFD4F8083D1
S113045080931E1380E001C085E09FBF089584E06F
S11304600C940A028091DA048A3021F48091770294
S1130470843021F081E08093230208958EE00E946D
S11304800A02109223020895CF93CFB7F894809173
S11304901813811108C08CE00E940A02811103C064
S11304A081E080931813CFBFCF9108950F931F93CA
S11304B02FB7F8948091C0039091C103A091C20317
S11304C0B091C3030091840010918500B09B07C0D4
S11304D00196A11DB11D00918400109185002FBFCC
S11304E07727662720E030E0602B712B822B932B3B
S11304F01F910F910895EFB7F894209184003091E3
S113050085002D5F3F4FA901481B590B461757071C
S113051018F49C01260F371F2115310511F421E031
S113052030E021503109309389002093880082E023
S113053086BB80916F00826080936F00EFBF089547
S11305402FB7F89480910E0290910F022FBF089557
S11305500F931F93CF93DF938C012FB7F894C0911F
S1130560DE04D091DF04CE018F5E9E4F9093DF04B2
S11305708093DE042FBF86E00E940A02CE01B801F8
S11305800E94B9178A5D9E4FDF91CF911F910F9101
S113059008952FB7F8943091B20080913C02909165
S11305A03D02A0913E02B0913F02B99B0FC0409121
S11305B0B3003091B200BC01CD016F5F7F4F8F4F0C
S11305C09F4F640F711D811D911D02C0BC01CD019F
S11305D0630F711D811D911D2FBF0895CF92DF926E
S11305E0EF92FF920F931F93CF93CFB7F89420917C
S11305F0B3009091B20087B3291711F081FF02C0B4
S1130600CFBF78C080917C02811102C086EE3AC0CF
S11306100E94C902009134021091350220913602E1
S113062030913702C0907F11D0908011E0908111F9
S1130630F0908211601B710B820B930B6C157D057E
S11306408E059F0528F010927C0286EE31E01BC0D7
S1130650D701C601800F911FA21FB31F40913C0216
S113066050913D0260913E0270913F02841B950BB4
S1130670A60BB70B873E9105A105B10538F682306C
S113068008F482E030E02FEF280F9091B60093FD3C
S1130690FCCF9091B200291301C0282F80913C0215
S11306A090913D02A0913E02B0913F02AC01BD0188
S11306B04F5F5F4F6F4F7F4F420F511D611D711D83
S11306C0481759076A077B0710F4282F2095809153
S11306D0B60083FDFCCF2093B300CFBF332351F08A
S11306E087E0CF911F910F91FF90EF90DF90CF9013
S11306F00C940A02CF911F910F91FF90EF90DF901D
S1130700CF900895E6E0F1E06927660FF11DE60F4A
S1130710F11DC895982F802D3196C8959025089580
S1130720662319F00E9402021EC05FB7F89440913C
S11307302A13E42FF0E0EE0FFF1FE456FC4F208154
S113074031818217930771F481E0840F8C3018F49F
S113075080932A1302C010922A13809132028111CD
S1130760109232025FBF81E00C940A02CF93CFB79C
S1130770F8948091240281110BC081E080932402BB
S1130780109207028BE00E940A02CFBF80E01FC0D4
S1130790809188028F3FC9F481E090E0E0910802E3
S11307A0EE2311F080E090E0892B79F48091090226
S11307B08F3F19F41092090204C0F0E0E857FD4F8E
S11307C010821092080280E001C085E0CFBFCF9173
S11307D0089580918A0290918B02892BC1F581E062
S11307E090E0909369118093681183E592E090936F
S11307F08B0280938A02109279021092780281E02F
S113080080937A028091C00080648093C0008091BC
S1130810C10080648093C100809178029091790234
S11308209C012F5F3F4F3093790220937802FC01A3
S1130830ED5AFD4F80819FB7F8948093C600809154
S1130840C00080648093C0009FBF80E0089585E06D
S1130850089593E8980F923050F4909112029160A9
S11308609093120290E298279093E0048DE780938E
S113087053020C94E9039FB7F894809112028E7F7F
S1130880809312028EE7809353029FBF0C94E90376
S1130890FF920F931F93CF93DF9300D0CDB7DEB7B2
S11308A01FB7F89420918202211125C020913302B0
S11308B030E0F901EE0FFF1FE75AFD4FF080018190
S11308C080839183C90101966CE070E00E94CD178A
S11308D0809333029091DD04981303C081E08093E8
S11308E0820280917E1181110EC00E940A0281E071
S11308F080937E1108C089839A830E9402028981B1
S1130900F82E9A81092F1FBF8F2D902F0F900F90D3
S1130910DF91CF911F910F91FF900895CF93CFB79F
S1130920F89480912502823029F580910A02811180
S113093021C080910C028F3FB1F0E82FF0E0EF5816
S1130940FD4F908190930C029F3F11F490930B0202
S11309509FEF908380930A0281E08093250282E0D6
S11309600E940A0204C080930A0210922502CFBF9B
S113097080E002C0CFBF81E0CF910895CF93CFB77D
S1130980F89480912402823041F58091070281110C
S113099024C0809109028F3FB1F0E82FF0E0E857BE
S11309A0FD4F9081909309029F3F11F490930802A8
S11309B09FEF90838093070281E0809324028BE071
S11309C00E940A0204C080930702109224028CB58C
S11309D08F7B8CBDCFBF80E002C0CFBF81E0CF91C1
S11309E00895CF93DF931F92CDB7DEB789830E941A
S11309F0B601898180688EBD80E00E94AF010E94AB
S1130A00AA0189830E94A60189810F90DF91CF9169
S1130A100895BC0181E080938C028093D604809178
S1130A208400909185000C947B021F93CF93DF93F5
S1130A301F92CDB7DEB7182F69830E94B601912F9C
S1130A40906C9EBD89810E94AF010E94AA010F9003
S1130A50DF91CF911F910C94A601909117022091E0
S1130A60220291112FC081112DC041E04093170241
S1130A708091060280931602822F817080933A023D
S1130A8080910002909101029093150280931402C8
S1130A908091210280931302322F31703427267EF5
S1130AA0E32FF0E0EE0FFF1FEE5FFD4F8081918199
S1130AB09093010280930002232B2093220281E170
S1130AC00C940A0220FF02C02B7F01C02D7F2093CB
S1130AD022020895CF93DF93D82FC62F80917702F7
S1130AE0813061F028F0823099F0833019F1E4C04C
S1130AF0DD2309F423C10E94D301F5C0D1111EC125
S1130B00609374118CEB860F823008F0D5C0EDC071
S1130B10D111D2C060937B028091C4039091C5032C
S1130B200E9482039093C5038093C40383E080935F
S1130B30770204C18091E1048F3F09F4BDC0DD2335
S1130B4009F455C0823008F4B7C0E0916011EE2377
S1130B5011F0E15001C0E2E0AE2FB0E0A05ABE4E69
S1130B6012964C9150E0542F4427EE2311F0E1509B
S1130B7001C0E2E0F0E0E05AFE4E8281482B209171
S1130B80C4033091C5034217530709F095C080E0B0
S1130B900E942D05809174118434E1F420917B022C
S1130BA0E091B4033091B50381E08E0F863010F4E8
S1130BB0982F01C090E0931769F0F0E0EC54FC4FDB
S1130BC02283863018F48093B40302C01092B403D5
S1130BD00E9444020E94D301809112028D7F80936F
S1130BE0120280912302882309F4A8C073C08230C2
S1130BF008F44DC0E0916111F0E0E05AFE4E22810C
S1130C0030912202932F9695969596959370892FFD
S1130C1090E08130910519F0029781F01FC0832F75
S1130C20877E806180932202211102C085E001C089
S1130C3080E0809321022093060210C0809121025B
S1130C40853860F4E0910002F0910102E80FF11D93
S1130C502083809121028F5F809321028091611112
S1130C60E82FF0E0E05AFE4E62818F5F833018F483
S1130C708093611102C0109261118091C40390911C
S1130C80C5030E9482039093C5038093C40380919B
S1130C906011E82FF0E0E05AFE4EC2838F5F83308C
S1130CA018F48093601102C0109260118091E104E5
S1130CB08F5F8093E10442C00E94D30180911202AD
S1130CC08D7F8093120281E00E942D058091230282
S1130CD0882339F084E080937702DF91CF910C94DC
S1130CE03202DD2359F181E022CF8091C403909137
S1130CF0C5030E9482039093C5038093C403C43444
S1130D0011F482E001C083E0809377028091220293
S1130D1080FF04C082FDD0CF846003C081FDCCCFAE
S1130D2082608093220280912202877E8860809371
S1130D302202109221028FEF80930602DF91CF915D
S1130D400895CF93DF93FC01828190E0982F882748
S1130D502181822B85FF14C087749C7C8134984840
S1130D6079F4C781D0E0DC2FCC278681C82B0E9480
S1130D70A00221E0C817D90709F020E0822F01C0A2
S1130D8080E0DF91CF9108958CB58F7B8CBD229A42
S1130D902398219A0E94A8018CB580618CBD8CB5E2
S1130DA08F778CBD8CB5877F8CBD8CB58B7F8CBDCC
S1130DB08CB580648CBD8DB581608DBD8CB58C7F08
S1130DC08CBD0895CF938FB7F89490910702911139
S1130DD006C090912402923011F48FBF13C08FBFCC
S1130DE0CFB7F8948091240281110EC082E08093E1
S1130DF02402109207020E94C406CFBF0E94A801D9
S1130E000E94A60181E004C0CFBF0E94B60380E027
S1130E10CF9108953F924F925F926F927F928F92FB
S1130E209F92AF92BF92CF92DF92EF92FF920F9375
S1130E301F93CF93DF9300D000D0CDB7DEB79C8350
S1130E408B838091270281114BC0809115138530CB
S1130E5009F046C080916511811142C00E94E206EA
S1130E608823F1F1CB80DC8022E8C20ED11CF6018C
S1130E70808182FF07C0EB81FC81ED57FF4F6181C8
S1130E806F7001C060E080911603681731F06093C1
S1130E901603606885E00E941505EB81FC81828160
S1130EA090E0982F88272181822B87749C7C813441
S1130EB09848C1F486E00E94F1048F7190E040915B
S1130EC081022091720230E0240F311D43E03595F8
S1130ED027954A95E1F72817390724F40E94BE04A0
S1130EE085E0A8C069E082E00E9415050E945602D0
S1130EF02B013C010B811C810F5F1F4FEB81FC8197
S1130F00F080F60180819EEF392E3F0C84FF0AC0E9
S1130F108BEF882E8F0C2B813C81201B310B820E92
S1130F20381802C0832C312C81E00E94F1048F71A7
S1130F30893029F066E082E00E941505CFCF8FB793
S1130F40F8942F9AA0908400B09085008FBF0E94DF
S1130F50A4010E94B60180E68EBD8F2D0E94AF01D0
S1130F607801982C900EF70181917F010E94AF01C6
S1130F709E10F9CF8A94912C7801E80CF91CA401F5
S1130F804F5F5F4F400F511F95012E553F4F24195E
S1130F9035094901AA2497FCA094BA2C840C951C09
S1130FA0A61CB71C332059F1F70181814280512CD2
S1130FB0612C712C320155244424782A8481482AD6
S1130FC08381582AD301C20188199909AA09BB0946
S1130FD084839383A283B18310E0FA01E10FF11DAE
S1130FE0808149835A830E94AF011F5F49815A81DE
S1130FF01311F3CFF70144825382628271820E94FB
S1131000AA010E94A60166E082E00E941505F6018D
S1131010808182608083EB81FC81E258FF4F808273
S11310209182A282B38286E08093151384E0809338
S1131030270280E00F900F900F900F90DF91CF91D7
S11310401F910F91FF90EF90DF90CF90BF90AF90E2
S11310509F908F907F906F905F904F903F900895F6
S11310603F924F925F926F927F928F929F92AF9234
S1131070BF92CF92DF92EF92FF920F931F93CF9381
S1131080DF9300D01F92CDB7DEB749E0842E55E040
S1131090F52E64E0E62E72E0C72EDD24D394E8E05A
S11310A0BE2EF0E29F2EA0E8AA2E8091651188231F
S11310B009F4D3C080911513813009F4CEC00E9485
S11310C0E206882309F4C9C08FB7F89460908502BA
S11310D0709086028FBF109265118FE00E94F10418
S11310E0182F809127028B7F833021F4F0921513FF
S11310F0B092270212FF51C080912702863011F46A
S11311001092270280912702811147C01430D1F533
S113111086E00E94F1048F7190917202292F269526
S11311202695921B980F9093720220913802309169
S11311303902F901EE57FF4F90819B7F98609083AD
S1131140319681830E945602A30147505109461BE0
S1131150570B2A01662457FC6094762C20913802A0
S113116030913902F901EE57FF4F408142604083CC
S11311703497460E571E681E791E40825182628241
S1131180738209C0E0913802F0913902EE57FF4FA3
S11311908081857F8083F092270213FF5EC0809157
S11311A02702843009F048C0F092151310922702E8
S11311B080913B02833019F410923B024EC0E091BF
S11311C01F13F0912013828190E0982F88272181AA
S11311D0822B85FF26C087749C7C8134984809F54E
S11311E0878190E0982F88272681822B21E030E0A8
S11311F0019611F420E030E0232B99F08091D6047D
S113120081110FC0C0928C02D092D60480918400C8
S11312109091850069E973E00E947B02C0923B02D1
S11312201CC010923B021092760210928311E0923D
S113123075020E942F0211C0853079F486E00E9465
S1131240F10490918102292F26952695921B8F7186
S1131250980F90938102809227028091270288231D
S113126009F455C2893009F0C0C10E94B6019EBC80
S11312700DB407FEFDCF8EB51EBC0DB407FEFDCF29
S11312808EB59DEF980F9D3708F075C01EBCE09198
S11312903802F09139023F015FEF651A750A8083C5
S11312A09EEF492E480E86E0841518F487E0582EE8
S11312B001C0542C6A827B8200E010E0352C360C8D
S11312C080E00E94AF01AA81BB818D93BB83AA8376
S11312D0682FC8010E94B8018C01BA813B12F0CF7B
S11312E08FEF850D90E00196860D971DE0913802F1
S11312F0F091390221812770223029F420913B0298
S11313002230B9F50BC03FB7F89421E040911E0B91
S1131310433008F020E03FBF222359F1742C7518A4
S11313202C01780E80E0741459F00E94AF01F20190
S113133081932F01682FC8010E94B8018C01F2CF5C
S11313400E94AF01682FC8010E94B8018C0180E09F
S11313500E94AF01682FC8010E94B8018C010E944D
S1131360AA01E0913802F0913902ED57FF4F8083D2
S113137004C00E94AA0101E010E00E94A601F092BC
S1131380151310922702012B09F0B8C140903802BE
S113139050903902D20111968C91119787709091D7
S11313A03B02823039F5923009F01AC1E0911F13E3
S11313B0F091201313969C918381981311C180910D
S11313C06F008D7F80936F001092D604E0911F13FD
S11313D0F0912013EE57FF4F80818160808310923B
S11313E03B021092760210928311E09275020E94E1
S11313F02F02F6C0911118C0C2010E94A1068823D1
S113140099F0F0921703C092180310921903F20195
S1131410838180931A0387E193E00E940A07811174
S113142003C083E080933B02009184001091850007
S1131430C2010E94A106882311F0045E1C4F109380
S1131440BF030093BE0380918400909185009801AE
S1131450281B390BC9011816190684F42091760249
S1131460211109C02091D604211108C00E94090548
S1131470A092760203C0206820937602D2011996C6
S11314802C91199730E0322F222718968C91282B13
S113149080914002A82FB0E0FD01EE0FFF1FE65936
S11314A0FE4E408151816091D7044217530759F48D
S11314B0A75EBC4E9C91961709F460C06F5F609361
S11314C0D7046C931BC0EAE6F1E1A9E1B3E180E043
S11314D090E000E010E0782F4191519142175307BA
S11314E079F480934002FC01E75EFC4E20812617CC
S11314F009F444C06F5F6093D704608340E825C05B
S11315004D91562F541B452F151710F0702F412F56
S113151001968530910519F0072F142FDCCF7093B5
S11315204002872F90E0FC01EE0FFF1FE659FE4EAC
S1131530318320836F5F6093D704FC01E75EFC4E28
S11315406083FC01EB5DFC4E10828091D704982FE0
S11315509F779F3719F08091400210C04F37D8F31E
S1131560E9E1F3E1282F207890819F679813208385
S1131570319693E1EE31F907B9F7EDCFD201139625
S11315809C91E82FF0E0DF01AB5DBC4E8C91E15EF5
S1131590F44F80FF04C08081981303C021C0816090
S11315A08C9390831FB7F89480911E0B8330B8F40A
S11315B0E0917D11E80FE33008F0E350F0E0EE0F26
S11315C0FF1FE45DFD4F70800181518240828F5F77
S11315D080931E0B85E00E940A02472C502E1FBFE9
S11315E0509239024092380289C09FEF980F93308D
S11315F008F06FC09EEF980F9230E8F51091151324
S11316001130B1F48091D604811135C00E94A40137
S113161083E080938C021093D6048091840090918F
S113162085006BE273E00E947B02C09215133EC0FA
S1131630833009F51330F9F40E94E2068823D9F0C7
S11316408FE00E94F1048091810080648093810086
S113165096BA80916F00806280936F006091560209
S1131660606688E00E94150566E082E00E94150528
S1131670E09215131BC08091270281508230B0F490
S113168080911513853091F40E94E206882371F04D
S113169063E082E00E94150580916F008F7D809346
S11316A06F001092651183E08093151380912702D7
S11316B0813041F490911513933001F52F9A809362
S11316C015131AC08230D1F4809115138330B1F40C
S11316D013C0873099F40E94E206882379F0609160
S11316E05602606688E00E941505809115138530C6
S11316F019F4E092151302C0B092270280912702D8
S1131700883029F41092270283E00E940A02809113
S1131710270281111CC0809115138530C1F480917A
S11317206511811114C080913B02811110C0809118
S1131730760281110CC08091D604811108C0809179
S11317407502823021F4D09275020E942F0280919A
S11317502702811103C089E00E940A028091D60405
S1131760823009F08BC01092D60420918C02223072
S113177009F467C0233009F46FC0213009F07EC03A
S113178080918400909185006090BE037090BF03A7
S1131790681A790A80917602803851F410927602A0
S11317A080917502823009F069C02093750251C09E
S11317B087FF03C016141704F4F00091730210910C
S11317C0740280913B02811116C0C8010E940A076D
S11317D0282F811111C0F801EE57FF4F80818E7FB1
S11317E08083D0923B021093201300931F1383E055
S11317F08093760243C025E080917602982F9F77EC
S1131800913059F4807882608093760280E198E088
S11318100E94A8020E94090531C087FF0BC016145C
S1131820170444F4A0927602C30129830E94090597
S1131830298102C01092760220938311D0927502FE
S113184008C010923B021092760210928311E0922B
S113185075020E942F0212C080911513823019F470
S11318602093151309C080912702863029F4109221
S1131870270281E00E94F1040E94600C8FB7F89463
S1131880909155029130C1F4109255028FBF0F9080
S11318900F900F90DF91CF911F910F91FF90EF90D8
S11318A0DF90CF90BF90AF909F908F907F906F907C
S11318B05F904F903F900895D09255028FBFF5CB23
S11318C08FB7F89490915502992329F090689093DA
S11318D055028FBF089591E0909355028FBF0C94E9
S11318E030089FB7F8948091550281508093550237
S11318F0803811F09FBF089581E0809355029FBF07
S11319000C9430080F931F93CF93DF931F92CDB79E
S1131910DEB78C018FE3F8018287809126028F5F06
S11319208093260283830E94CA01809175028111EB
S11319300DC01093DC040093DB0481E080937502F6
S11319401092D8040E942F0280E001C085E08983B0
S11319500E94710C89810F90DF91CF911F910F919B
S113196008952F923F924F925F926F927F928F923F
S11319709F92AF92BF92CF92DF92EF92FF920F931A
S11319801F93CF93DF931F92CDB7DEB790E08231E0
S1131990910508F005C5FC01EA59FF4F0C940318A2
S11319A08FB7F894209133029091DD04291307C076
S11319B090918202911103C010927E1188C08FBF52
S11319C0E091DD04F0E0EE0FFF1FE75AFD4F0190B8
S11319D0F081E02D508143EF450F4093C8036385A8
S11319E077818681218530E0322F22279085292B2B
S11319F094817F01A5E0EA0EF11C17E0D7011D9246
S1131A001A95E9F7208737839287E091DD04F0E0A7
S1131A10EE0FFF1FE75AFD4F0190F081E02D433791
S1131A2008F029C490E0972B8683958363874187C8
S1131A3080911D0290911E02892B09F01CC42FB7BE
S1131A40F89485E080931B0210921A02F09320020E
S1131A50E0931F0282E090E090931E0280931D02A7
S1131A601092180210921902515050931C022FBF69
S1131A708FB7F8949091DA049A3011F48FBF8BC425
S1131A808FBF9FB7F89480918F02811106C081E0C7
S1131A9080938F021092900201C080E09FBF882340
S1131AA009F479C40E9444029FB7F89482B122E0F9
S1131AB062C08FB7F8942091280290912A132913B9
S1131AC008C090913202911104C010922B028FBF72
S1131AD067C48FBFE0912A13F0E0EE0FFF1FE456B6
S1131AE0FC4FC080D180F60141855581E680878115
S1131AF090E0982F88272085822B138521812073DD
S1131B0030E021643868218328E82283EE57FF4FB0
S1131B101082D60118968C93189719969C9319974E
S1131B20433708F065C0F12CF52A435F4C930E94BB
S1131B30A002F601808791879FB7F89480910D02E7
S1131B409FBF848315821387E682F7828FB7F89448
S1131B5090912502911112C092E090932502109267
S1131B600A028FBFC6010E94820C81111CC09FB75C
S1131B70F89482B124E0822782B90BC48FBFD0923B
S1131B805802C09257021FB7F89480912502811120
S1131B900DC081E08093250210920A0282E00E9427
S1131BA00A021FBFE4CF0E948E0422C080917102FA
S1131BB08F3FC9F481E090E0E0910B02EE2311F035
S1131BC080E090E0892B79F480910C028F3F19F426
S1131BD010920C0204C0F0E0EF58FD4F10821092F6
S1131BE00B0280E001C085E01FBF882309F4BFCF4A
S1131BF00E94020281E061C38FB7F89492E090934F
S1131C0025028FBF80910A028111CAC380915702B5
S1131C10909158020E94820C882309F4C1C38983DD
S1131C200E948E04698180915702909158025CC091
S1131C308091750210927502853019F41092320267
S1131C40AFC39AEF980F923008F4AAC38093750239
S1131C50A7C30E94CA0120917502213069F58091C1
S1131C60D8048F5F8093D804863030F58091DB04EC
S1131C709091DC0430917602311112C03091D60477
S1131C8031110EC0909374028093730220937602F4
S1131C908BED91E10E94A8020E94090580E001C039
S1131CA085E080938311811102C083E001C082E04A
S1131CB08093750210E003C01092750211E00E9437
S1131CC0710C112309F46CC360918311E090DB045F
S1131CD0F090DC04F70182858F3309F061C36983D6
S1131CE00E948E046981C7010F90DF91CF911F91EB
S1131CF00F91FF90EF90DF90CF90BF90AF909F90A7
S1131D008F907F906F905F904F903F902F900C94A6
S1131D109003E0917D11F0E0EE0FFF1FE45DFD4FB5
S1131D20C080D1808FBFD6011A969C911A971796BE
S1131D308C9117971696EC90F12CF82A9F3321F585
S1131D400E94A002C6010E9448043FB7F894209163
S1131D507D11E22FF0E0EE0FFF1FE45DFD4F808365
S1131D60918381E0820F8330E0F480937D11809130
S1131D701E0B815080931E0B3FBF8FB7F894909138
S1131D801E0B9111C6CFA3CE0E94A002E816F9063D
S1131D9019F0EF20E09419F48FB7F8948FBFC601BF
S1131DA0D4CF10927D11E3CFEFB7F89480917D02E8
S1131DB090917E02A0917F02B09180021C012D01BE
S1131DC09C01A20160E070E080E090E003E00E94EA
S1131DD0091851016201E12CF12C00E010E00E948D
S1131DE0401859016A017B01F82F192F03E00E9462
S1131DF009180F2F0E94401859016A017B01F82F1E
S1131E00192F03E00E9409180F2F0E94401859014E
S1131E106A017B01F82F192F03E00E9409180F2F84
S1131E200E94401859016A017B01F82F192F03E021
S1131E300E9409180F2F0E94401801E00E940918FF
S1131E4029013A0100E20E94241849015A01D301F0
S1131E50C201B695A79597958795880D991DAA1DDA
S1131E60BB1DB7FF04C0BF770196A11DB11D8093B0
S1131E707D0290937E02A0937F02B0938002EFBF15
S1131E802FB7F8949093DF048093DE042FBF88C2A9
S1131E9080915402811141C0409175115091761185
S1131EA060917711709178112FB7F89480917F1118
S1131EB090918011A0918111B0918211C09034024F
S1131EC0D0903502E0903602F09037028C0D9D1DC3
S1131ED0AE1DBF1D2FBF40937511509376116093B3
S1131EE0771170937811109254022FB7F89431E05F
S1131EF030937C028093340290933502A09336028F
S1131F00B093370240937F115093801160938111F5
S1131F10709382112FBF0E94EE020E94C90288E0D2
S1131F20CCC10E94C9028FB7F89410927C02CFCD25
S1131F308FB7F8941092D5041092D404109214130D
S1131F401092131310922A02109229021092BD03C8
S1131F501092BC03BCCD1FB7F89482E08093240296
S1131F600E94C4061FBF80910702811119C20E94FA
S1131F70A8010E94A6018091151381114CC08EEF17
S1131F8091E0019701960197E1F716980E94A40148
S1131F9086E090E0019701960197E1F7169A60E0D8
S1131FA083E00E94150568E082E00E9415058EEF2B
S1131FB091E0019701960197E1F76DE48EE00E94AC
S1131FC0150567EC89E00E94150560E885E00E942C
S1131FD01505109216038FE0809356026FE688E091
S1131FE00E9415052F9A81E0809315130F90DF91BD
S1131FF0CF911F910F91FF90EF90DF90CF90BF9002
S1132000AF909F908F907F906F905F904F903F9094
S11320102F900C94BE040F90DF91CF911F910F91DC
S1132020FF90EF90DF90CF90BF90AF909F908F90F4
S11320307F906F905F904F903F902F900C94600C26
S11320402FB7F894109218139091DA0488EF890F3F
S1132050823050F41092DA04E091C903F0E0EE0FFC
S1132060FF1FE357FD4F10822FBF823010F52FB7AB
S1132070F89480917C118F5F80937C118091890208
S1132080833481F48091B5039091B403981739F0A7
S11320908F5F8093B503863010F01092B50390E003
S11320A080E005C081E0983009F480E091E02FBF22
S11320B003C091115AC080E03FB7F89420912302E5
S11320C03FBF222339F02FB7F8943AE03093DA0473
S11320D02FBF3FC04FB7F89430918D0220918F02EB
S11320E04FBF6FB7F8945091B4034091B5036FBFDD
S11320F0541709F131111FC03FB7F89422E020931F
S11321008D025FB7F8944091B4032091B5035FBF8B
S1132110421739F0E091B503F0E0EC54FC4F228112
S113212001C020E020938E0223E4209389021092C0
S1132130C9033FBF0CC02150223058F42FB7F89484
S113214035E43093890231E03093C9032FBF11E0A5
S113215001C010E0992351F09FB7F89480931A02BC
S11321609FBF80E10E940A0201C010E0FFB6F8940C
S11321708091DA048A3021F40E943202FFBE10C139
S1132180FFBE112309F40CC18FB7F89410922213E7
S1132190109221131092870291E09093DA048FBF7A
S11321A00E943B04882309F4FBC08FB7F89499E09C
S11321B09093DA048FBF0F90DF91CF911F910F910D
S11321C0FF90EF90DF90CF90BF90AF909F908F9053
S11321D07F906F905F904F903F902F900C944402AB
S11321E08091C1008F7B8093C1008091C1008F7763
S11321F08093C1001092D90410927A028091C10098
S113220088608093C1008091C10080618093C10087
S11322108091C10080688093C1008FB7F8941092B8
S1132220DA04109277028FBF10928202B9C08FE055
S113223044C08091C100877F8093C1008091C10018
S11322408F7E8093C100ACC010921E0210921D02BA
S11322509FB7F89480911A029FBF9091190291112F
S113226083E020911F023091200290911802911175
S113227097C0882319F00E9402021EC05FB7F89429
S11322804091DD04E42FF0E0EE0FFF1FE75AFD4F0D
S1132290808191812817390771F481E0840F8C3093
S11322A018F48093DD0402C01092DD048091820250
S11322B08111109282025FBF80E00F90DF91CF9175
S11322C01F910F91FF90EF90DF90CF90BF90AF9050
S11322D09F908F907F906F905F904F903F902F9042
S11322E00C940A029FB7F89480911602B0901402DD
S11322F0C090150210913A029FBF811135C0DFB61C
S1132300F89480913202811128C080912802E82F2C
S1132310F0E0EE0FFF1FE456FC4FE080F180B08246
S1132320C1828F5F8C3018F48093280202C010920F
S113233028029091280280912A13981303C081E007
S11323408093320280912B0281110BC081E00E94A4
S11323500A0281E080932B0204C00E940202EB2C4B
S1132360FC2CDFBEBE2CCF2C9FB7F894E12FF0E0FD
S1132370EE0FFF1FEE5FFD4FB082C18280912202FB
S1132380112311F08B7F01C08D7F80932202109264
S113239017029FBF05C010921E0210921D026BCF40
S11323A00F90DF91CF911F910F91FF90EF90DF90ED
S11323B0CF90BF90AF909F908F907F906F905F90E1
S11323C04F903F902F9008958FB7F89408958FBF42
S11323D008951F920F920FB60F9211240BB60F920D
S11323E02F933F934F935F936F937F938F939F9319
S11323F0AF93BF93EF93FF930E94F9012091B30031
S113240030E02F5F3F4F80913C0290913D02A091BC
S11324103E02B0913F02820F931FA11DB11D809314
S11324203C0290933D02A0933E02B0933F02789405
S11324300E94EE02FF91EF91BF91AF919F918F9116
S11324407F916F915F914F913F912F910F900BBEB0
S11324500F900FBE0F901F9018951F920F920FB6FA
S11324600F9211240BB60F922F933F934F935F93C8
S11324706F937F938F939F93AF93BF93EF93FF9348
S11324800E94F901FF91EF91BF91AF919F918F91BC
S11324907F916F915F914F913F912F910F900BBE60
S11324A00F900FBE0F901F9018951F920F920FB6AA
S11324B00F9211240BB60F922F933F934F935F9378
S11324C06F937F938F939F93AF93BF93EF93FF93F8
S11324D02EB58091D4049091D504009739F0E09101
S11324E0BC03F091BD03E80FF91F20838091BC0366
S11324F09091BD0301969093BD038093BC038CB56A
S11325008F778CBD8091BC039091BD0360912902AB
S113251070912A028617970708F03FC02091131381
S113252030911413E091D404F091D504AC01465FCA
S11325305F4F6417750708F4AB01415051098417C4
S11325409507C8F42115310549F0D901A80FB91F21
S11325506C916EBD0DB407FEFDCF04C01EBC0DB45E
S113256007FEFDCF6EB5309721F0DF01A80FB91F2C
S11325706C930196E4CF4CB540684CBD21153105F0
S113258031F0F901E80FF91F20812EBD01C01EBCF6
S11325909093BD038093BC0311C01092D504109294
S11325A0D404109214131092131310922A0210924E
S11325B029021092BD031092BC038EB5FF91EF91D6
S11325C0BF91AF919F918F917F916F915F914F9147
S11325D03F912F910F900BBE0F900FBE0F901F9045
S11325E0189578941F920F920FB60F9211240BB680
S11325F00F922F933F934F935F936F937F938F9398
S11326009F93AF93BF93EF93FF9380916F008D7F60
S113261080936F0078948FB7F8949091D60491309A
S113262019F492E09093D6048FBF0E94600CFF913E
S1132630EF91BF91AF919F918F917F916F915F9136
S11326404F913F912F910F900BBE0F900FBE0F90A3
S11326501F90189578941F920F920FB60F92112421
S11326600F900FBE0F901F90189578941F920F92A1
S11326700FB60F9211240F900FBE0F901F90189554
S113268078941F920F920FB60F9211240BB60F92EB
S11326902F933F934F935F936F937F938F939F9366
S11326A0AF93BF93EF93FF93E6E8F0E080819181CD
S11326B0808191812FB7F89490938602809385024C
S11326C081E0809365112FBF0E94600CFF91EF9110
S11326D0BF91AF919F918F917F916F915F914F9136
S11326E03F912F910F900BBE0F900FBE0F901F9034
S11326F0189578941F920F920FB60F9211242F936E
S11327008F939F93AF93BF932FB7F8948091C00397
S11327109091C103A091C203B091C3030196A11D7E
S1132720B11D8093C0039093C103A093C203B093DF
S1132730C3032FBFBF91AF919F918F912F910F90A2
S11327400FBE0F901F9018951F920F920FB60F9205
S113275011240BB60F922F933F934F935F936F9374
S11327607F938F939F93AF93BF93EF93FF93809146
S1132770C00087FF4AC06091C6002091C603309113
S1132780C7032115310551F1809116139091171348
S1132790AC014F5F5F4F5093171340931613F90129
S11327A0E80FF91F6083209116133091171380915D
S11327B02313909124132817390738F11092C70373
S11327C01092C6038091D9048330F9F08091C1003E
S11327D08F778093C1001092D90417C06E3719F413
S11327E060E081E010C0809112026D3721F48260B4
S11327F0809312020AC081FF05C08D7F809312026C
S113280080E2682780E00E946A05FF91EF91BF9102
S1132810AF919F918F917F916F915F914F913F9174
S11328202F910F900BBE0F900FBE0F901F90189515
S113283078941F920F920FB60F9211240BB60F9239
S1132840FF920F931F932F933F934F935F936F9335
S11328507F938F939F93AF93BF93CF93DF93EF9324
S1132860FF938091780290917902209168113091C0
S1132870691182179307C8F4E0918A02F0918B02E0
S11328809C012F5F3F4F3093790220937802E80F29
S1132890F91F80819FB7F8948093C6008091C0008F
S11328A080648093C0009FBFB0C010928B021092CE
S11328B08A0210927A028091C1008F7B8093C100BA
S11328C01FB7F8948091120280FF0AC08E7F809314
S11328D012028091E004809353020E94E90394C0A1
S11328E08091DA0490E0FC013197E830F10508F0BA
S11328F086C0E858FF4F0C940318809189020E9407
S11329002904082F83E08093DA04609189020AC0C5
S113291080917C110E942904082F83E08093DA04BB
S113292060917C1180912113909122130E94820363
S1132930909322138093211360C0E091C903F0E0C7
S1132940EE0FFF1FE257FD4F80810E942904082FDC
S1132950F090C903CF2DD0E0CC0FDD1FFE01E2576C
S1132960FD4F608180912113909122130E94820374
S11329709093221380932113809187028F5F809319
S1132980870291E0F91220C020911B02E0911F02FE
S1132990F0912002E20FF11D90812F5F20931B0222
S11329A030911C02321720F492E090938F0290E051
S11329B0FE01E357FD4F2081223031F08F3F21F09B
S11329C0C257DD4F988319C084E012C0809121134F
S11329D00E942904082F85E00BC0809122130E94D5
S11329E02904082F86E004C00E943B04082F87E0D6
S11329F08093DA0402C088E003C0002329F089E050
S1132A008093DA040E9444021FBFFF91EF91DF918B
S1132A10CF91BF91AF919F918F917F916F915F9172
S1132A204F913F912F911F910F91FF900F900BBEEB
S1132A300F900FBE0F901F9018951F920F920FB614
S1132A400F9211248F938091C80087FD8091CE004E
S1132A508F910F900FBE0F901F90189578941F922E
S1132A600F920FB60F9211240F900FBE0F901F906C
S1132A70189578941F920F920FB60F9211240F900D
S1132A800FBE0F901F90189578941F920F920FB657
S1132A900F9211240F900FBE0F901F9018957894E9
S1132AA01F920F920FB60F9211240F900FBE0F902A
S1132AB01F90189578941F920F920FB60F921124BD
S1132AC08F939F9380919600909197009F918F91FF
S1132AD00F900FBE0F901F90189578941F920F922D
S1132AE00FB60F9211242F938F939F932FB7F894BF
S1132AF08091830290918402019690938402809342
S1132B0083022FBF9F918F912F910F900FBE0F9033
S1132B101F9018950FB7F89414BE88E10FB6F89477
S1132B2080936000109260000FBE42E150E06FEFAE
S1132B3070E081E492E00E9449188FEF809379114C
S1132B4080931E1356985E9854985C9880916F00F9
S1132B508F7D80936F000E94A8010E94A601279A8E
S1132B600E94A4010E9A169A81E992E09093390288
S1132B7080933802109281028AE58093720281E088
S1132B808093810080E28093B60083E08093B1005B
S1132B9080918400909185004AE7209184003091CF
S1132BA085002817390708F44150442311F0C9015E
S1132BB0F4CF8091B2009091B2009817E1F3209184
S1132BC08400309185008091B2009091B2009817F2
S1132BD0E1F380918400909185004096821B930BD1
S1132BE055E0969587955A95E1F790937B118093DC
S1132BF07A111092B100109281001092B6001092D6
S1132C00B20010928500109284008FEF87BB86BBC0
S1132C108091B6008571E1F70A9A099A089A129A86
S1132C20119A109A18B88FEF87B90C9814981092CB
S1132C3095001092940080917100816080937100DE
S1132C4080919100887F826080939100109285002A
S1132C501092840080916F00816080936F00809156
S1132C608100887F8260809381000E94E501C82FE3
S1132C708F3F19F00E94B10CF8CF12E0D6E06091BA
S1132C807A1170917B1180E090E02CE0660F771F41
S1132C90881F991F2A95D1F7C12C34E8D32E33E02D
S1132CA0E32EF12CA70196010E94E117215031096E
S1132CB02093C4003093C5001093C000D093C20089
S1132CC01092C10060917A1170917B1180E090E0C4
S1132CD04CE0660F771F881F991F4A95D1F7A7010B
S1132CE096010E94E117215031092093CC003093C2
S1132CF0CD001093C800D093CA001092C90010925E
S1132D008D0210928F028AE08093DA041092870277
S1132D101092890210927C111092221310922113A6
S1132D20109218131092C9030E94D3011092B50394
S1132D301092B403C09388020E94B6038091B60037
S1132D4080628093B6008091B60081FDFCCF82E062
S1132D508093B0008091B60080FDFCCF83E0809327
S1132D60B1008091B60083FDFCCF86EE8093B30062
S1132D70809170008260809370000E94EE02209126
S1132D80100230911102C9010196A0E0B0E08093D5
S1132D907D0290937E02A0937F02B093800284E828
S1132DA091E190932D0280932C0289E092E190931B
S1132DB02F0280932E028EE892E190933102809349
S1132DC030028FEF9FEF90936B1180936A11909371
S1132DD06D1180936C1190936F1180936E11909389
S1132DE071118093701190937311809372112295D5
S1132DF0207F20932602809371020E94E5018F3F79
S1132E0019F00E94B10CF9CF0FBF789484E29BE0D3
S1132E10E9E5F2E0819391938B579F4F21E180364E
S1132E209207C1F71092DD041092330210927E11C2
S1132E3081E08093820282EE94E0ECE9F3E08193F6
S1132E4091938B579F4F2BE08E319207C1F71092CD
S1132E502A131092280210922B0281E080933202EE
S1132E600E94CA0180917502811117C080912702C6
S1132E70811113C080911513813029F48091D604F7
S1132E8081110BC002C0853041F083E0809327029A
S1132E900E94600C85E0809375020E94710C8FB7CC
S1132EA0F8949091DA049A3031F09091770294304A
S1132EB011F08FBF04C08FBF8DE00E940A02CFB70C
S1132EC0F8940E94E5018F3F09F04FC08091700093
S1132ED0837099F08091B6008A71E1F78091B30014
S1132EE09091B200891B8C3010F492E007C080915D
S1132EF0B200853FD0F793E001C095E080916E0069
S1132F008670E9F480916F008E72C9F4809171002B
S1132F108E72A9F40CB407FC12C08091C1008871B0
S1132F2071F48091C900887151F48091BC0082FDD4
S1132F3006C080917A0087FF04C0E1E003C0E0E0AE
S1132F4001C0E5E083B79E1708F4E92FF0E0E050F4
S1132F50FF4FE491807F81608E2B83BF78948895A6
S1132F60F89483B78E7F83BFACCFCFBF0E94B10CE0
S1132F70A6CFAA1BBB1B51E107C0AA1FBB1FA617E4
S1132F80B70710F0A61BB70B881F991F5A95A9F70E
S1132F9080959095BC01CD01089597FB072E16F4FA
S1132FA0009407D077FD09D00E94B91707FC05D01B
S1132FB03EF4909581959F4F0895709561957F4F4C
S1132FC00895A1E21A2EAA1BBB1BFD010DC0AA1F66
S1132FD0BB1FEE1FFF1FA217B307E407F50720F07E
S1132FE0A21BB30BE40BF50B661F771F881F991FF9
S1132FF01A9469F760957095809590959B01AC0142
S1133000BD01CF010895EE0FFF1F0590F491E02D4F
S113301009940F93083090F0982F872F762F652FFF
S1133020542F432F322F22270850F4CF220F331F5F
S1133030441F551F661F771F881F991F0A95B2F7F3
S11330400F91089597FB10F8169400080F93083019
S113305098F00850232F342F452F562F672F782FA1
S1133060892F902DF4CF059497958795779567953B
S113307057954795379527950A95AAF70F9108957F
S11330802A193B094C095D096E097F09800B910BD4
S11330900895DC0101C06D9341505040E0F708955C
S10730A0F894FFCFCE
S11330A4CA03CA034F04FFFFFFFFFFFFFF2201000F
S10530B4010015
S9030000FC
