S01700006275696C642F697269732F6D61696E2E7372656343
S11300000C9484010C94A3010C94A3010C94A301FB
S11300100C94A3010C94A3010C94A3010C94A301CC
S11300200C94A3010C94A3010C94A3010C94A301BC
S11300300C94A3010C946D110C94A3010C94B111B4
S11300400C94C4120C9475120C94AE120C94B91244
S11300500C94FD120C94A3010C94A3010C94A30121
S11300600C94D9110C9428130C94A3010C949C1394
S11300700C94A3010C94A3010C94A3010C94DE141E
S11300800C94BD140C94C8140C94D3140C94F11453
S11300900C94A1140C94A3010C94B2140C94A30119
S11300A00C94A3010C94A3010C94A3010C94A3013C
S11300B00C94A3010C94A3010C94A3010C94A3012C
S11300C00C94A3010C94A3010C94A3013508C20859
S11300D08809A90DCD0DDB0D4E0E650ED90E220F2C
S11300E0870F290F3C0F9C0F6C1093109510A010D4
S11300F0DA1001140C1421146A14711478147F1486
S1130100861400020E060C04000021104220633005
S11301108440A550C660E770088129914AA16BB15B
S11301208CC1ADD1CEE1EFF1311210027332522203
S1130130B5529442F772D662399318837BB35AA3AB
S1130140BDD39CC3FFF3DEE36224433420040114D3
S1130150E664C774A44485546AA54BB528850995FB
S1130160EEE5CFF5ACC58DD55336722611163006A3
S1130170D776F6669556B4465BB77AA7199738874B
S1130180DFF7FEE79DD7BCC7C448E5588668A77863
S11301904008611802282338CCC9EDD98EE9AFF99B
S11301A0488969990AA92BB9F55AD44AB77A966A43
S11301B0711A500A333A122AFDDBDCCBBFFB9EEBEB
S11301C0799B588B3BBB1AABA66C877CE44CC55C13
S11301D0222C033C600C411CAEED8FFDECCDCDDD3B
S11301E02AAD0BBD688D499D977EB66ED55EF44EE3
S11301F0133E322E511E700E9FFFBEEFDDDFFCCF8B
S11302001BBF3AAF599F788F8891A981CAB1EBA1DE
S11302100CD12DC14EF16FE18010A100C230E3205A
S11302200450254046706760B9839893FBA3DAB302
S11302303DC31CD37FE35EF3B1029012F322D232AA
S11302403542145277625672EAB5CBA5A8958985D2
S11302506EF54FE52CD50DC5E234C324A0148104FA
S11302606674476424540544DBA7FAB79987B897A2
S11302705FE77EF71DC73CD7D326F2369106B0164A
S113028057667676154634564CD96DC90EF92FE962
S1130290C899E9898AB9ABA944586548067827689A
S11302A0C018E1088238A3287DCB5CDB3FEB1EFB42
S11302B0F98BD89BBBAB9ABB754A545A376A167AEA
S11302C0F10AD01AB32A923A2EFD0FED6CDD4DCD12
S11302D0AABD8BADE89DC98D267C076C645C454C3A
S11302E0A23C832CE01CC10C1FEF3EFF5DCF7CDFE2
S11302F09BAFBABFD98FF89F176E367E554E745E8A
S1130300932EB23ED10EF01E11241FBECFEFD1E2C8
S1130310DEBFCDBF12E0A0E0B2E0E6EBFFE200E01A
S11303200BBF02C007900D92A231B107D9F728E0A4
S1130330A2E1B2E001C01D92A13CB207E1F70E9424
S11303400E150C94D9170C9400002F980895289A30
S11303500895209A08950DB407FEFDCF8EB5089533
S1130360982F0DB407FEFDCF8EB59EBD0895289835
S113037008958627082E8295807F8025092E982F40
S113038082958F700826869598278927880F880F6D
S1130390880F802508951092F9071092F80784E0D9
S11303A0809377021092890310920C0810927B02BA
S11303B010921903109218030895809111088F3F29
S11303C071F0E82FF0E0EF5BFD4F908190931108FE
S11303D09F3F11F49093B4089FEF908308958FEF9B
S11303E008958091B0008093B0008091B60081FDA3
S11303F0FCCF08959FB7F89482B121E0822782B997
S11304009FBF08959FB7F894E82FF0E0EF5BFD4F8E
S113041020812F3FC9F421E030E0E091B408E817CF
S113042011F020E030E0232B79F4209111082F3FC4
S113043019F48093110804C0F0E0EF5BFD4F808352
S11304408093B40880E001C085E09FBF089585E0F3
S11304500C94020282E00C940202809182038A309E
S113046021F480917702843021F081E0809323028B
S113047008958FE00E940202109223020895CF9300
S1130480CFB7F8948091AE08811108C08DE00E9426
S11304900202811103C081E08093AE08CFBFCF91E7
S11304A008952FB7F8943091B20080913C02909156
S11304B03D02A0913E02B0913F02B99B0FC0409112
S11304C0B3003091B200BC01CD016F5F7F4F8F4FFD
S11304D09F4F640F711D811D911D02C0BC01CD0190
S11304E0630F711D811D911D2FBF089540918400DC
S11304F050918500EFB7F8942091840030918500E5
S11305002D5F3F4FB901641B750B6817790718F409
S11305109C01240F351F2115310511F421E030E031
S113052021503109309389002093880082E086BBF2
S113053080916F00826080936F00EFBF08950F93E6
S11305401F93CF93DF938C012FB7F894C091860348
S1130550D0918703CE018F5E9E4F90938703809343
S113056086032FBF87E00E940202CE01B8010E94D9
S113057042178A5D9E4FDF91CF911F910F9108958D
S11305802FB7F89480910E0290910F022FBF089517
S11305900F931F932FB7F894809114039091150330
S11305A0A0911603B0911703009184001091850067
S11305B0B09B07C00196A11DB11D0091840010914C
S11305C085002FBF7727662720E030E0602B712B52
S11305D0822B932B1F910F910895E8E0F1E0692796
S11305E0660FF11DE60FF11DC895982F802D3196E9
S11305F0C89590250895662319F00E94FA011EC03B
S11306005FB7F8944091C008E42FF0E0EE0FFF1FAD
S1130610E051FD4F208131818217930771F481E00D
S1130620840F8C3018F48093C00802C01092C00864
S1130630809132028111109232025FBF81E00C94EA
S11306400202CF93CFB7F8948091240281110BC09A
S113065081E080932402109207028CE00E9402023F
S1130660CFBF80E01FC0809188028F3FC9F481E032
S113067090E0E0910802EE2311F080E090E0892BF5
S113068079F4809109028F3F19F41092090204C091
S1130690F0E0E857FD4F10821092080280E001C09C
S11306A085E0CFBFCF91089580918A0290918B020B
S11306B0892BC1F581E090E09093010880930008B4
S11306C084E592E090938B0280938A0210927902DF
S11306D01092780281E080937A028091C000806455
S11306E08093C0008091C10080648093C100809198
S11306F07802909179029C012F5F3F4F30937902E9
S113070020937802FC01EC5AFD4F80819FB7F89446
S11307108093C6008091C00080648093C0009FBF16
S113072080E0089585E0089593E8980F923050F49E
S11307309091120291609093120290E29827909304
S113074088038DE7809354020C9454039FB7F89464
S1130750809112028E7F809312028EE7809354025E
S11307609FBF0C945403FF920F931F93CF93DF9377
S113077000D0CDB7DEB71FB7F894209182022111C3
S113078025C02091330230E0F901EE0FFF1FE75A34
S1130790FD4FF080018180839183C90101966CE053
S11307A070E00E945617809333029091850398134A
S11307B003C081E0809382028091160881110EC0EB
S11307C00E94020281E08093160808C089839A83FC
S11307D00E94FA018981F82E9A81092F1FBF8F2D5B
S11307E0902F0F900F90DF91CF911F910F91FF9059
S11307F00895CF93CFB7F89480912502823029F5DC
S113080080910A02811121C080910C028F3FB1F0C6
S1130810E82FF0E0EF58FD4F908190930C029F3F3A
S113082011F490930B029FEF908380930A0281E06E
S11308308093250283E00E94020204C080930A028E
S113084010922502CFBF80E002C0CFBF81E0CF91DC
S11308500895CF93CFB7F89480912402823041F564
S113086080910702811124C0809109028F3FB1F069
S1130870E82FF0E0E857FD4F9081909309029F3FE5
S113088011F4909308029FEF90838093070281E014
S1130890809324028CE00E94020204C08093070229
S11308A0109224028CB58F7B8CBDCFBF80E002C038
S11308B0CFBF81E0CF910895CF92DF92EF92FF9264
S11308C00F931F93CF93CFB7F8942091B3009091D7
S11308D0B20087B3291711F081FF02C0CFBF78C0DF
S11308E080917C02811102C086EE3AC00E945102BE
S11308F00091340210913502209136023091370272
S1130900C0901708D0901808E0901908F0901A08C1
S1130910601B710B820B930B6C157D058E059F0577
S113092028F010927C0286EE31E01BC0D701C6018C
S1130930800F911FA21FB31F40913C0250913D02B2
S113094060913E0270913F02841B950BA60BB70B7E
S1130950873E9105A105B10538F6823008F482E09E
S113096030E02FEF280F9091B60093FDFCCF9091CB
S1130970B200291301C0282F80913C0290913D02BE
S1130980A0913E02B0913F02AC01BD014F5F5F4FA9
S11309906F4F7F4F420F511D611D711D481759073D
S11309A06A077B0710F4282F20958091B60083FDF9
S11309B0FCCF2093B300CFBF332351F088E0CF9115
S11309C01F910F91FF90EF90DF90CF900C94020253
S11309D0CF911F910F91FF90EF90DF90CF900895EA
S11309E0CF93DF931F92CDB7DEB789830E94B701FF
S11309F0898180688EBD80E00E94B0010E94AB01B5
S1130A0089830E94A70189810F90DF91CF91089576
S1130A101F93CF93DF931F92CDB7DEB7182F69834F
S1130A200E94B701912F906C9EBD89810E94B001F4
S1130A300E94AB010F90DF91CF911F910C94A701FD
S1130A40909117022091220291112FC081112DC083
S1130A5041E0409317028091060280931602822F90
S1130A60817080933A0280910002909101029093E8
S1130A701502809314028091210280931302322F75
S1130A8031703427267EE32FF0E0EE0FFF1FEE5F78
S1130A90FD4F808191819093010280930002232B6A
S1130AA02093220282E10C94020220FF02C02B7FD9
S1130AB001C02D7F209322020895CF93DF93D82F76
S1130AC0C62F80917702813061F028F0823099F04E
S1130AD0833019F1E4C0DD2309F423C10E94CB0162
S1130AE0F5C0D1111EC160930C088CEB860F8230C7
S1130AF008F0D5C0EDC0D111D2C060937B028091C3
S1130B001803909119030E94ED02909319038093A6
S1130B10180383E08093770204C1809189038F3F97
S1130B2009F4BDC0DD2309F455C0823008F4B7C010
S1130B30E091F807EE2311F0E15001C0E2E0AE2F9E
S1130B40B0E0A850B84F12964C9150E0542F44276F
S1130B50EE2311F0E15001C0E2E0F0E0E850F84F7C
S1130B608281482B209118033091190342175307AF
S1130B7009F095C080E00E94200580910C0884341F
S1130B80E1F420917B02E09108033091090381E0B4
S1130B908E0F863010F4982F01C090E0931769F0FF
S1130BA0F0E0E85FFC4F2283863018F4809308035A
S1130BB002C0109208030E943F020E94CB01809160
S1130BC012028D7F8093120280912302882309F4FC
S1130BD0A8C073C0823008F44DC0E091F907F0E07A
S1130BE0E850F84F228130912202932F96959695E2
S1130BF096959370892F90E08130910519F00297B2
S1130C0081F01FC0832F877E80618093220221118F
S1130C1002C085E001C080E0809321022093060297
S1130C2010C0809121028F3260F4E0910002F091B3
S1130C300102E80FF11D2083809121028F5F8093D0
S1130C4021028091F907E82FF0E0E850F84F628123
S1130C508F5F833018F48093F90702C01092F9076C
S1130C6080911803909119030E94ED029093190347
S1130C70809318038091F807E82FF0E0E850F84FCC
S1130C80C2838F5F833018F48093F80702C01092F8
S1130C90F807809189038F5F8093890342C00E9483
S1130CA0CB01809112028D7F8093120281E00E9419
S1130CB0200580912302882339F084E08093770211
S1130CC0DF91CF910C942D02DD2359F181E022CFE5
S1130CD080911803909119030E94ED0290931903D7
S1130CE080931803C43411F482E001C083E080933C
S1130CF077028091220280FF04C082FDD0CF8460FD
S1130D0003C081FDCCCF82608093220280912202B5
S1130D10877E886080932202109221028FEF809355
S1130D200602DF91CF910895CF93DF93FC01828176
S1130D3090E0982F88272181822B85FF14C0877427
S1130D409C7C8134984879F4C781D0E0DC2FCC278F
S1130D508681C82B0E94C00221E0C817D90709F078
S1130D6020E0822F01C080E0DF91CF9108958CB5FF
S1130D708F7B8CBD229A2398219A0E94A9018CB55D
S1130D8080618CBD8CB58F778CBD8CB5877F8CBD15
S1130D908CB58B7F8CBD8CB580648CBD8DB581602A
S1130DA08DBD8CB58C7F8CBD0895CF938FB7F8948F
S1130DB090910702911106C090912402923011F48F
S1130DC08FBF13C08FBFCFB7F894809124028111D5
S1130DD00EC082E080932402109207020E94B7069C
S1130DE0CFBF0E94A9010E94A70181E004C0CFBF28
S1130DF00E94210380E0CF9108953F924F925F9229
S1130E006F927F928F929F92AF92BF92CF92DF9216
S1130E10EF92FF920F931F93CF93DF9300D000D0F4
S1130E20CDB7DEB78C0180912702811140C080913B
S1130E30AB088530E1F58091FD07811138C00E942F
S1130E40D5068823A1F1F80184A582FF03C066A515
S1130E506F7001C060E08091C002681731F0609348
S1130E60C002606885E00E940805F801828190E074
S1130E70982F88272181822B87749C7C8134984801
S1130E80C1F486E00E94F0048F7190E040918102E9
S1130E902091720230E0240F311D43E035952795EF
S1130EA04A95E1F72817390724F40E94290485E0BC
S1130EB0A6C069E082E00E9408050E94C8022B01D6
S1130EC03C0178012FEFE21AF20AF801B08084A500
S1130ED09EEF992E9B0C84FF0AC08BEFA82EAB0CBF
S1130EE098012E193F09A20E392C3A1802C0A92CD8
S1130EF0312C81E00E94F0048F71893029F066E082
S1130F0082E00E940805D1CF8FB7F8942F9AC09041
S1130F108400D09085008FBF0E94A5010E94B70174
S1130F2080E68EBD8B2D0E94B0014701BA2CBE0C09
S1130F30F40181914F010E94B001B810F9CFAA9435
S1130F40B12CB7016A0D7B1DA5014F5F5F4F4E0D9C
S1130F505F1D96012E553F4F241935094901AA24D6
S1130F6097FCA094BA2C840C951CA61CB71C3320A7
S1130F7079F1FB018181C280D12CE12CF12C760125
S1130F80DD24CC24F82A8481C82A8381D82AD70175
S1130F90C60188199909AA09BB0984839383A2838A
S1130FA0B183712CFA01E70DF11D808149835A83C5
S1130FB06B837C830E94B001739449815A816B8155
S1130FC07C817310EFCFFB01C482D382E282F18271
S1130FD00E94AB010E94A70166E082E00E9408051E
S1130FE0F80184A5826084A780A691A6A2A6B3A6D0
S1130FF086E08093AB0884E08093270280E00F9022
S11310000F900F900F90DF91CF911F910F91FF9050
S1131010EF90DF90CF90BF90AF909F908F907F9094
S11310206F905F904F903F9008952F923F924F9210
S11310305F926F927F928F929F92AF92BF92CF9264
S1131040DF92EF92FF920F931F93CF93DF931F9240
S1131050CDB7DEB790E08331910510F00C945411B4
S1131060FC01EA59FF4F0C948C178FB7F894209128
S1131070330290918503291307C090918202911144
S113108003C0109216088CC08FBFE0918503F0E076
S1131090EE0FFF1FE75AFD4F0190F081E02D5081C4
S11310A043EF450F40931C03638577818681218537
S11310B030E0322F22279085292B94818F010B5FFA
S11310C01F4FB7E0FB2ED8011D92FA94E9F7208751
S11310D037839287E0918503F0E0EE0FFF1FE75A14
S11310E0FD4F0190F081E02D4D3110F00C94B710BC
S11310F090E0972B868395836387418780911D02B7
S113110090911E02892B11F00C94B7102FB7F8940C
S113111085E080931B0210921A02F0932002E09360
S11311201F0282E090E090931E0280931D021092B1
S1131130180210921902515050931C022FBF8FB7FE
S1131140F894909182039A3019F48FBF0C94331160
S11311508FBF9FB7F89480918F02811106C081E000
S113116080938F021092900201C080E09FBF882379
S113117011F40C9433110E943F029FB7F89482B18A
S113118022E0A9C08FB7F894209128029091C0085A
S1131190291309C090913202911105C010922B02BB
S11311A08FBF0C9454118FBFE091C008F0E0EE0F94
S11311B0FF1FE051FD4FC080D180F601418555816C
S11311C0E680878190E0982F88272085822B1385DD
S11311D02181207330E021643868218328E8228348
S11311E014A6808791874D3108F07AC0F12CF52A36
S11311F0435F40830E94C002D60118968C931897CF
S113120019969C939FB7F89480910D029FBFF601A5
S1131210848315821387E682F7828FB7F8949091BE
S1131220250291111EC092E09093250210920A02A9
S11312308FBF8FE38287809126028F5F809326027F
S1131240838380917502811149C0D0928403C09236
S1131250830381E080937502109280030E94270229
S113126036C08FBFD0925802C09257021FB7F8946D
S11312708091250281110AC081E080932502109299
S11312800A0283E00E9402021FBF21C08091710202
S11312908F3FC9F481E090E0E0910B02EE2311F05E
S11312A080E090E0892B79F480910C028F3F19F44F
S11312B010920C0204C0F0E0EF58FD4F108210921F
S11312C00B0280E001C085E01FBF811109C09FB7F8
S11312D0F89482B124E0822782B9C3C70E94F9033B
S11312E00E94FA0181E00F90DF91CF911F910F913D
S11312F0FF90EF90DF90CF90BF90AF909F908F9032
S11313007F906F905F904F903F902F900C940202CB
S11313108091FD07882309F4CDC08091AB0881300A
S113132009F4C8C00E94D506882309F4C3C08FB746
S1131330F894E0908502F09086028FBF1092FD072A
S11313408FE00E94F004182F809127028B7F833056
S113135031F485E08093AB0888E08093270212FF84
S113136048C080912702863011F4109227028091A0
S1131370270281113EC0143091F586E00E94F004EA
S11313808F7190917202292F26952695921B980FA2
S113139090937202E0913802F091390294A59B7FF8
S11313A0986094A786A70E94C802A70147505109D4
S11313B0461B570B6A01EE24D7FCE094FE2CE09107
S11313C03802F091390224A5226024A7C60ED71E44
S11313D0E81EF91EC0A6D1A6E2A6F3A607C0E091B6
S11313E03802F091390284A5857F84A785E0809333
S11313F0270213FF5FC080912702843009F048C0A0
S113140085E08093AB081092270280913B028330E1
S113141019F410923B024EC0E091B508F091B60861
S1131420828190E0982F88272181822B85FF24C018
S113143087749C7C81349848F9F4878190E0982FD4
S113144088272681822B21E030E0019611F420E0E8
S113145030E0232B89F080917E0381110DC012E0CE
S113146010938C0281E080937E0389E993E00E94CB
S1131470760210933B021EC010923B021092760239
S113148010921B0884E0809375020E94270212C008
S1131490853081F486E00E94F00490918102292F26
S11314A026952695921B8F71980F9093810289E05F
S11314B08093270280912702882309F453C289303C
S11314C009F0C1C10E94B70180E28EBD0DB407FED0
S11314D0FDCF8EB51EBC0DB407FEFDCF0EB58DEF4E
S11314E0800F873208F06CC01EBCE0913802F09186
S11314F039026F012FEFC21AD20A0083025007305B
S113150010F017E001C0102F4601E12CF12CB12E90
S1131510BC0C80E00E94B001D4018D934D01682F72
S1131520C7010E94B9017C01B810F3CF2FEF210F3E
S113153030E02F5F3F4F2C0D3D1DE0913802F091BC
S1131540390281818770823029F480913B02823094
S1131550A9F50BC09FB7F89481E04091BE054330D4
S113156008F080E09FBF882349F1011B102F690117
S1131570120F80E01C1559F00E94B001F60181930E
S11315806F01682FC7010E94B9017C01F2CF0E944C
S1131590B001682FC7010E94B9018C0180E00E944C
S11315A0B001682FC8010E94B9017C010E94AB01FF
S11315B0E0913802F091390285A705C00E94AB0181
S11315C0EE24E394F12C0E94A70115E01093AB08DC
S11315D010922702EF2809F0BCC1C0903802D090C5
S11315E03902D60111968C911197877090913B0224
S11315F0823031F5923009F021C1E091B508F091C3
S1131600B60813969C918381981318C180916F003A
S11316108D7F80936F0010927E03E091B508F09166
S1131620B60884A5816084A710923B0210927602CA
S113163010921B0884E0809375020E942702FEC06A
S1131640911119C0C6010E9494068823A1F0109339
S1131650C10282E08093C2021092C302F601838128
S11316608093C40281EC92E00E94FD06811103C0C4
S113167083E080933B02E0908400F0908500C601F3
S11316800E949406882321F0F4EEEF1AFCEFFF0A7F
S1131690F0921303E09212038091840090918500EC
S11316A09701281B390BC90118161906B4F42091A7
S11316B0760221110FC020917E0321110EC021E07A
S11316C020938C0220937E030E94760280E880930C
S11316D0760203C0206820937602D60119962C91D5
S11316E0199730E0322F222718968C91282B80915D
S11316F04002A82FB0E0FD01EE0FFF1FEE5FF74F91
S11317004081518160917F034217530759F4A155D9
S1131710B74F9C91961709F45FC06F5F60937F0386
S11317206C931BC0A2E0B8E0EFEAF8E080E090E040
S113173000E070E0182F4D915D914217530779F442
S113174080934002FC01E155F74F2081261709F4EC
S113175043C06F5F60937F03608370E824C041914E
S1131760562F541B751710F0102F01C0752F0196BA
S11317708530910511F0012FDDCF10934002812FA8
S113178090E0FC01EE0FFF1FEE5FF74F31832083E3
S11317906F5F60937F03FC01E155F74F6083FC01A9
S11317A0E554F74F108280917F03982F9F779F37DE
S11317B019F08091400210C07F37D8F3EFEAF8E0C7
S11317C0282F207890819F6798132083319698E082
S11317D0E43BF907B9F7EDCFD60113969C91E82FB6
S11317E0F0E0DF01A554B74F8C91E154FA4F80FF2C
S11317F004C08081981303C021C081608C939083BE
S11318001FB7F8948091BE058330B8F4E0911508B1
S1131810E80FE33008F0E350F0E0EE0FFF1FE45D63
S1131820FD4FF0800181D182C0828F5F8093BE051D
S113183086E00E940202CF2CD02E1FBFD092390224
S1131840C092380286C09FEF980F933008F06AC0A8
S11318509EEF980F9230C0F51091AB08113089F4C7
S113186080917E03811130C00E94A50183E08093A2
S11318708C0210937E038BE293E00E94760282E056
S11318803CC0833009F51330F9F40E94D50688234F
S1131890D9F08FE00E94F0048091810080648093ED
S11318A0810080E286BB80916F00806280936F002C
S11318B060915602606688E00E94080566E082E056
S11318C00E94080584E019C080912702815082306B
S11318D0B0F48091AB08853091F40E94D50688233A
S11318E071F063E082E00E94080580916F008F7DB3
S11318F080936F001092FD0783E08093AB08809182
S11319002702813041F49091AB08933011F52F9A5E
S11319108093AB081BC08230E1F48091AB08833024
S1131920C1F414C08730A9F40E94D506882389F035
S113193060915602606688E00E9408058091AB08B9
S1131940853021F484E08093AB0803C088E0809361
S1131950270280912702883029F41092270284E01C
S11319600E9402028091270281111DC08091AB0860
S11319708530C9F48091FD07811115C080913B0227
S1131980811111C08091760281110DC080917E0376
S1131990811109C080917502823029F481E080931D
S11319A075020E94270280912702811103C08AE0F8
S11319B00E94020280917E03823009F075C4109265
S11319C07E0320918C02223009F496C0233009F45E
S11319D09BC0213009F068C48091840090918500F7
S11319E0C0901203D0901303C81AD90A80917602CA
S11319F0803851F41092760280917502823009F099
S1131A0053C42093750263C087FF03C01C141D04D4
S1131A10ECF0E0907302F090740280913B0281112B
S1131A2015C0C7010E94FD06182F811110C0F701CF
S1131A3084A58E7F84A781E080933B02F092B60850
S1131A40E092B50883E0809376022EC415E080917D
S1131A507602982F9F77913011F580788260809379
S1131A60760280E198E00E949F0221E020938C029C
S1131A7020937E030F90DF91CF911F910F91FF90E0
S1131A80EF90DF90CF90BF90AF909F908F907F901A
S1131A906F905F904F903F902F900C94760287FF49
S1131AA00FC01C141D0464F480E88093760281E066
S1131AB080938C0280937E03C6010E94760202C04A
S1131AC01092760210931B0881E0809375020F90A8
S1131AD0DF91CF911F910F91FF90EF90DF90CF9006
S1131AE0BF90AF909F908F907F906F905F904F903A
S1131AF03F902F900C94270210923B021092760292
S1131B0010921B0884E0E1CF8091AB08823019F475
S1131B102093AB0809C080912702863029F41092E3
S1131B20270281E00E94F0040F90DF91CF911F9172
S1131B300F91FF90EF90DF90CF90BF90AF909F9068
S1131B408F907F906F905F904F903F902F900C9468
S1131B502A028FB7F89492E0909325028FBF809168
S1131B600A028111A1C3E0915702F09158028FE358
S1131B708287809126028F5F8093260283838091DF
S1131B807502811175C3F0938403E093830381E0AC
S1131B9080937502109280039ACF809175021092FF
S1131BA07502853019F4109232027EC39AEF980FB1
S1131BB0923080F579C310917502E0908303F09020
S1131BC08403113061F5809180038F5F80938003DB
S1131BD0863028F580917602811116C080917E03AB
S1131BE0811112C0F0927402E09273021093760293
S1131BF08BED91E10E949F0210938C0210937E035F
S1131C000E94760280E001C085E080931B08811168
S1131C1004C083E08093750247C382E0FBCF109237
S1131C20750260911B08D7011A968C918F3309F0C5
S1131C303BC369830E94F9036981C70120C3E09112
S1131C401508F0E0EE0FFF1FE45DFD4F00811181E8
S1131C508FBFF80192858781E680F12CF82A9F33A3
S1131C6021F50E94C002C8010E94B3033FB7F89453
S1131C7020911508E22FF0E0EE0FFF1FE45DFD4F09
S1131C808083918381E0820F8330E0F48093150890
S1131C908091BE0581508093BE053FBF8FB7F894F5
S1131CA09091BE059111CBCF7BCA0E94C002E81669
S1131CB0F90619F0EF20E09419F48FB7F8948FBF68
S1131CC0C801D4CF10921508E3CFEFB7F8948091F0
S1131CD07D0290917E02A0917F02B09180021C014E
S1131CE02D019C01A20160E070E080E090E003E03F
S1131CF00E94921751016201E12CF12C00E010E0E6
S1131D000E94C91759016A017B01F82F192F03E0BA
S1131D100E9492170F2F0E94C91759016A017B0173
S1131D20F82F192F03E00E9492170F2F0E94C91752
S1131D3059016A017B01F82F192F03E00E949217C1
S1131D400F2F0E94C91759016A017B01F82F192F1F
S1131D5003E00E9492170F2F0E94C91701E00E940E
S1131D60921729013A0100E20E94AD1749015A0174
S1131D70D301C201B695A79597958795880D991DAE
S1131D80AA1DBB1DB7FF04C0BF770196A11DB11DDD
S1131D9080937D0290937E02A0937F02B093800291
S1131DA0EFBF2FB7F89490938703809386032FBFD8
S1131DB07BC280915502811141C040910D08509120
S1131DC00E0860910F08709110082FB7F894809155
S1131DD0170890911808A0911908B0911A08C0909A
S1131DE03402D0903502E0903602F09037028C0D28
S1131DF09D1DAE1DBF1D2FBF40930D0850930E08AF
S1131E0060930F0870931008109255022FB7F8943E
S1131E1031E030937C028093340290933502A09396
S1131E203602B09337024093170850931808609312
S1131E30190870931A082FBF0E945C040E94510273
S1131E4089E051CA0E9451028FB7F89410927C0223
S1131E50A7C98FB7F89410927D0310927C03109257
S1131E60AA081092A90810922A021092290210922C
S1131E7011031092100394C91FB7F89482E0809361
S1131E8024020E94B7061FBF8091070281110CC271
S1131E900E94A9010E94A7018091AB08811144CE40
S1131EA08EEF91E0019701960197E1F716980E9451
S1131EB0A50186E090E0019701960197E1F7169A53
S1131EC060E083E00E94080568E082E00E94080563
S1131ED08EEF91E0019701960197E1F76DE48EE0B2
S1131EE00E94080567EC89E00E94080560E885E027
S1131EF00E9408051092C0028BE0809356026BE6A4
S1131F0088E00E9408052F9A81E08093AB080F9027
S1131F10DF91CF911F910F91FF90EF90DF90CF90C1
S1131F20BF90AF909F908F907F906F905F904F90F5
S1131F303F902F900C9429042FB7F8941092AE0878
S1131F409091820388EF890F823050F410928203BB
S1131F50E0911D03F0E0EE0FFF1FE357FD4F1082E9
S1131F602FBF823010F52FB7F894809114088F5F3B
S1131F708093140880918902833481F48091090349
S1131F8090910803981739F08F5F80930903863086
S1131F9010F01092090390E080E005C081E09830D1
S1131FA009F480E091E02FBF03C091115AC080E092
S1131FB03FB7F894209123023FBF222339F02FB773
S1131FC0F8943AE0309382032FBF3FC04FB7F894A0
S1131FD030918D0220918F024FBF6FB7F8945091CA
S1131FE00803409109036FBF541709F131111FC051
S1131FF03FB7F89422E020938D025FB7F8944091A4
S11320000803209109035FBF421739F0E0910903E7
S1132010F0E0E85FFC4F228101C020E020938E02B3
S113202023E42093890210921D033FBF0CC021506A
S1132030223058F42FB7F89435E43093890231E014
S113204030931D032FBF11E001C010E0992351F01C
S11320509FB7F89480931A029FBF81E10E94020205
S113206001C010E00FB7F894809182038A3021F404
S11320700E942D020FBF18C10FBF112309F414C110
S11320808FB7F8941092B8081092B708109287028C
S113209091E0909382038FBF0E94A603882309F4E2
S11320A003C18FB7F89499E0909382038FBF0F9088
S11320B0DF91CF911F910F91FF90EF90DF90CF9020
S11320C0BF90AF909F908F907F906F905F904F9054
S11320D03F902F900C943F028091C1008F7B80939E
S11320E0C1008091C1008F778093C1001092810359
S11320F010927A028091C10088608093C10080911F
S1132100C10080618093C1008091C1008068809388
S1132110C1008FB7F89410928203109277028FBF98
S113212010928202C1C080E1DEC88091C100877F25
S11321308093C1008091C1008F7E8093C100B4C0A0
S113214010921E0210921D029FB7F89480911A02F9
S11321509FBF90911902911183E020911F02309149
S113216020029091180291119FC0882319F00E94B7
S1132170FA011EC05FB7F89440918503E42FF0E0A4
S1132180EE0FFF1FE75AFD4F808191812817390711
S113219071F481E0840F8C3018F48093850302C0BD
S11321A010928503809182028111109282025FBF96
S11321B080E099C89FB7F89480911602C0901402E9
S11321C0D090150210913A029FBF811135C0EFB62D
S11321D0F89480913202811128C080912802E82F5E
S11321E0F0E0EE0FFF1FE051FD4FF0800181C0824F
S11321F0D1828F5F8C3018F48093280202C0109231
S11322002802909128028091C008981303C081E0AD
S11322108093320280912B0281110BC081E00E94D5
S1132220020281E080932B0204C00E94FA01FC2C7C
S11322300D2DEFBECF2CD02E9FB7F894E12FF0E0F8
S1132240EE0FFF1FEE5FFD4FC082D182809122020C
S1132250112311F08B7F01C08D7F80932202109295
S113226017029FBF21C010921E0210921D027FCF41
S11322700E94F90365E080915702909158020F90F3
S1132280DF91CF911F910F91FF90EF90DF90CF904E
S1132290BF90AF909F908F907F906F905F904F9082
S11322A03F902F900C94FB020F90DF91CF911F91E0
S11322B00F91FF90EF90DF90CF90BF90AF909F90E1
S11322C08F907F906F905F904F903F902F900895E4
S11322D08FB7F89408958FBF08951F920F920FB689
S11322E00F9211240BB60F922F933F934F935F934A
S11322F06F937F938F939F93AF93BF93EF93FF93CA
S11323000E94F1012091B30030E02F5F3F4F809194
S11323103C0290913D02A0913E02B0913F02820F97
S1132320931FA11DB11D80933C0290933D02A09385
S11323303E02B0933F0278940E945C04FF91EF91B7
S1132340BF91AF919F918F917F916F915F914F91C9
S11323503F912F910F900BBE0F900FBE0F901F90C7
S113236018951F920F920FB60F9211240BB60F926D
S11323702F933F934F935F936F937F938F939F9389
S1132380AF93BF93EF93FF930E94F101FF91EF91FD
S1132390BF91AF919F918F917F916F915F914F9179
S11323A03F912F910F900BBE0F900FBE0F901F9077
S11323B018951F920F920FB60F9211240BB60F921D
S11323C02F933F934F935F936F937F938F939F9339
S11323D0AF93BF93EF93FF932EB580917C039091BD
S11323E07D03009739F0E0911003F0911103E80F99
S11323F0F91F20838091100390911103019690930B
S11324001103809310038CB58F778CBD80911003DA
S1132410909111036091290270912A0286179707FF
S113242008F03FC02091A9083091AA08E0917C03EC
S1132430F0917D03AC01465F5F4F6417750708F4A4
S1132440AB014150510984179507C8F42115310592
S113245049F0D901A80FB91F6C916EBD0DB407FEE8
S1132460FDCF04C01EBC0DB407FEFDCF6EB5309782
S113247021F0DF01A80FB91F6C930196E4CF4CB58E
S113248040684CBD2115310531F0F901E80FF91F01
S113249020812EBD01C01EBC9093110380931003B4
S11324A011C010927D0310927C031092AA0810921E
S11324B0A90810922A021092290210921103109274
S11324C010038EB5FF91EF91BF91AF919F918F91C2
S11324D07F916F915F914F913F912F910F900BBE20
S11324E00F900FBE0F901F90189578941F920F9223
S11324F00FB60F9211240BB60F922F933F934F9365
S11325005F936F937F938F939F93AF93BF93EF9357
S1132510FF9380916F008D7F80936F0078948FB7C5
S1132520F89490917E03913019F492E090937E0395
S11325308FBF0E942A02FF91EF91BF91AF919F91AB
S11325408F917F916F915F914F913F912F910F9058
S11325500BBE0F900FBE0F901F90189578941F928A
S11325600F920FB60F9211240F900FBE0F901F9071
S1132570189578941F920F920FB60F9211240F9012
S11325800FBE0F901F90189578941F920F920FB65C
S11325900F9211240BB60F922F933F934F935F9397
S11325A06F937F938F939F93AF93BF93EF93FF9317
S11325B0E6E8F0E080819181808191812FB7F894E1
S11325C0909386028093850281E08093FD072FBF5C
S11325D00E942A02FF91EF91BF91AF919F918F9139
S11325E07F916F915F914F913F912F910F900BBE0F
S11325F00F900FBE0F901F90189578941F920F9212
S11326000FB60F9211242F938F939F93AF93BF9381
S11326102FB7F8948091140390911503A091160399
S1132620B09117030196A11DB11D809314039093DB
S11326301503A0931603B09317032FBFBF91AF9157
S11326409F918F912F910F900FBE0F901F9018950F
S11326501F920F920FB60F9211240BB60F922F9365
S11326603F934F935F936F937F938F939F93AF9316
S1132670BF93EF93FF938091C00087FF4AC060919E
S1132680C60020911A0330911B032115310551F125
S11326908091AC089091AD08AC014F5F5F4F5093AF
S11326A0AD084093AC08F901E80FF91F608320914D
S11326B0AC083091AD088091B9089091BA082817F8
S11326C0390738F110921B0310921A038091810389
S11326D08330F9F08091C1008F778093C10010920C
S11326E0810317C06E3719F460E081E010C0809157
S11326F012026D3721F48260809312020AC081FFB6
S113270005C08D7F8093120280E2682780E00E94DA
S11327105D05FF91EF91BF91AF919F918F917F9153
S11327206F915F914F913F912F910F900BBE0F903E
S11327300FBE0F901F90189578941F920F920FB6AA
S11327400F9211240BB60F92FF920F931F932F93A6
S11327503F934F935F936F937F938F939F93AF9325
S1132760BF93CF93DF93EF93FF938091780290917F
S11327707902209100083091010882179307C8F468
S1132780E0918A02F0918B029C012F5F3F4F3093BE
S1132790790220937802E80FF91F80819FB7F8949B
S11327A08093C6008091C00080648093C0009FBF66
S11327B0B0C010928B0210928A0210927A02809119
S11327C0C1008F7B8093C1001FB7F89480911202DF
S11327D080FF0AC08E7F80931202809188038093C9
S11327E054020E94540394C08091820390E0FC013F
S11327F03197E830F10508F086C0E758FF4F0C9494
S11328008C17809189020E949403082F83E080939F
S11328108203609189020AC0809114080E94940383
S1132820082F83E080938203609114088091B70895
S11328309091B8080E94ED029093B8088093B7086D
S113284060C0E0911D03F0E0EE0FFF1FE257FD4F63
S113285080810E949403082FF0901D03CF2DD0E0B7
S1132860CC0FDD1FFE01E257FD4F60818091B70858
S11328709091B8080E94ED029093B8088093B7082D
S1132880809187028F5F8093870291E0F91220C0C4
S113289020911B02E0911F02F0912002E20FF11D32
S11328A090812F5F20931B0230911C02321720F479
S11328B092E090938F0290E0FE01E357FD4F208158
S11328C0223031F08F3F21F0C257DD4F988319C079
S11328D084E012C08091B7080E949403082F85E019
S11328E00BC08091B8080E949403082F86E004C0AE
S11328F00E94A603082F87E08093820302C088E029
S113290003C0002329F089E0809382030E943F02E0
S11329101FBFFF91EF91DF91CF91BF91AF919F9135
S11329208F917F916F915F914F913F912F911F9163
S11329300F91FF900F900BBE0F900FBE0F901F9042
S113294018951F920F920FB60F9211248F938091B6
S1132950C80087FD8091CE008F910F900FBE0F901D
S11329601F90189578941F920F920FB60F9211240E
S11329700F900FBE0F901F90189578941F920F928E
S11329800FB60F9211240F900FBE0F901F90189541
S113299078941F920F920FB60F9211240F900FBECE
S11329A00F901F90189578941F920F920FB60F9264
S11329B011240F900FBE0F901F90189578941F92BA
S11329C00F920FB60F9211248F939F9380919600CC
S11329D0909197009F918F910F900FBE0F901F9031
S11329E0189578941F920F920FB60F9211242F937B
S11329F08F939F932FB7F8948091830290918402D0
S1132A00019690938402809383022FBF9F918F91AC
S1132A102F910F900FBE0F901F9018950FB7F89439
S1132A2014BE88E10FB6F8948093600010926000A1
S1132A300FBE43E150E06FEF70E081E492E00E944A
S1132A40D2178FEF809311088093B40856985E983C
S1132A5054985C9880916F008F7D80936F000E94E2
S1132A60A9010E94A701279A0E94A5010E9A169A0D
S1132A7081E992E0909339028093380210928102A6
S1132A808AE58093720281E08093810080E28093E2
S1132A90B60083E08093B10080918400909185001A
S1132AA04AE720918400309185002817390708F4FB
S1132AB04150442311F0C901F4CF8091B2009091A8
S1132AC0B2009817E1F32091840030918500809141
S1132AD0B2009091B2009817E1F380918400909134
S1132AE085004096821B930B55E0969587955A95E1
S1132AF0E1F790931308809312081092B10010929A
S1132B0081001092B6001092B200109285001092CB
S1132B1084008FEF87BB86BB8091B6008571E1F797
S1132B200A9A099A089A129A119A109A18B88FEF69
S1132B3087B90C9814981092950010929400809183
S1132B40710081608093710080919100887F826020
S1132B5080939100109285001092840080916F0000
S1132B60816080936F0080918100887F8260809370
S1132B7081000E94DD01C82F8F3F19F00E941508C3
S1132B80F8CF12E0D6E0609112087091130880E04B
S1132B9090E02CE0660F771F881F991F2A95D1F7C4
S1132BA0C12C31EED32EE12CF12CA70196010E9409
S1132BB06A17215031092093C4003093C500109343
S1132BC0C000D093C2001092C100609112087091AD
S1132BD0130880E090E04CE0660F771F881F991F70
S1132BE04A95D1F7A70196010E946A17215031092D
S1132BF02093CC003093CD001093C800D093CA002A
S1132C001092C90084E490E09093FF078093FE073C
S1132C1010928D0210928F028AE0809382031092A8
S1132C20870210928902109214081092B808109228
S1132C30B7081092AE0810921D030E94CB011092A7
S1132C40090310920803C09388020E942103809113
S1132C50B60080628093B6008091B60081FDFCCFFF
S1132C6082E08093B0008091B60080FDFCCF83E0C9
S1132C708093B1008091B60083FDFCCF86EE8093F3
S1132C80B300809170008260809370000E945C04A5
S1132C902091100230911102C9010196A0E0B0E028
S1132CA080937D0290937E02A0937F02B093800272
S1132CB08CE198E090932D0280932C028BE498E0B1
S1132CC090932F0280932E028AE798E0909331022A
S1132CD0809330028FEF9FEF909303088093020854
S1132CE0909305088093040890930708809306083E
S1132CF0909309088093080890930B0880930A081E
S1132D002295207F20932602809371020E94DD0188
S1132D108F3F19F00E941508F9CF0FBF789484EC07
S1132D2095E0E9E5F2E0819391938F9627E0883F5F
S1132D309207C9F710928503109233021092160875
S1132D4081E0809382028AE893E0E0EFF2E08193ED
S1132D5091938F9625E08E3B9207C9F71092C00895
S1132D601092280210922B0281E08093320280910B
S1132D707502811118C080912702811114C08091BD
S1132D80AB08813029F480917E0381110CC003C00B
S1132D90853009F474C083E0809327020E942A02DC
S1132DA085E0809375028FB7F894909182039A30EE
S1132DB041F090917702943021F08FBF10928202FB
S1132DC004C08FBF8EE00E940202CFB7F8940E9425
S1132DD0DD018F3F09F04FC080917000837099F03E
S1132DE08091B6008A71E1F78091B3009091B200AE
S1132DF0891B8C3010F492E007C08091B200853FAB
S1132E00D0F793E001C095E080916E008670E9F4FC
S1132E1080916F008E72C9F4809171008E72A9F452
S1132E200CB407FC12C08091C100887171F48091C8
S1132E30C900887151F48091BC0082FD06C0809164
S1132E407A0087FF04C0E1E003C0E0E001C0E5E0F0
S1132E5083B79E1708F4E92FF0E0EE5FFE4FE4918C
S1132E60807F81608E2B83BF78948895F89483B794
S1132E708E7F83BFACCFCFBF0E941508A6CF109220
S1132E80320291CFAA1BBB1B51E107C0AA1FBB1F73
S1132E90A617B70710F0A61BB70B881F991F5A95E2
S1132EA0A9F780959095BC01CD01089597FB072E55
S1132EB016F4009407D077FD09D00E94421707FC4E
S1132EC005D03EF4909581959F4F08957095619536
S1132ED07F4F0895A1E21A2EAA1BBB1BFD010DC052
S1132EE0AA1FBB1FEE1FFF1FA217B307E407F507B6
S1132EF020F0A21BB30BE40BF50B661F771F881F92
S1132F00991F1A9469F760957095809590959B0127
S1132F10AC01BD01CF010895EE0FFF1F0590F491A0
S1132F20E02D09940F93083090F0982F872F762F77
S1132F30652F542F432F322F22270850F4CF220F0E
S1132F40331F441F551F661F771F881F991F0A953B
S1132F50B2F70F91089597FB10F8169400080F9399
S1132F60083098F00850232F342F452F562F672F01
S1132F70782F892F902DF4CF059497958795779581
S1132F80679557954795379527950A95AAF70F9111
S1132F9008952A193B094C095D096E097F09800BC4
S1132FA0910B0895DC0101C06D9341505040E0F74E
S1092FB00895F894FFCF20
S1132FB61E031E034D03FFFFFFFFFFFFFF22010059
S1052FC6010004
S9030000FC
