S01700006275696C642F697269732F6D61696E2E7372656343
S11300000C947B000C9474150C947E150C94881538
S11300100C9492150C949C150C94A6150C94B01584
S11300200C94BA150C949A000C949A000C949A00AF
S11300300C949A000C94B9130C949A000C94FD132C
S11300400C9410150C94C1140C94FA140C9405150A
S11300500C9449150C949A000C949A000C949A00F0
S11300600C9425140C949A000C949A000C949A0005
S11300700C949A000C9440160C949A000C94531708
S11300800C94FA160C943D170C9448170C946617AC
S11300900C949A000C949A000C949A000C94C41535
S11300A00C949A000C949A000C949A000C949A0064
S11300B00C949A000C949A000C949A000C949A0054
S11300C00C949A000C949A000C949A00650E810E7C
S11300D0DA0E620F7F0FF30F3B10DD107E109210CB
S11300E007115611B711CC11DC114C126A12AA1265
S11300F000020E060C0411241FBECFEFD1E2DEBFB6
S1130100CDBF12E0A0E0B2E0E2E8F3E300E00BBF11
S113011002C007900D92A431B107D9F728E0A4E1F9
S1130120B2E001C01D92A331B207E1F70E94831728
S11301300C94BF190C9400002F980895289A0895E0
S1130140209A08959FB7F8948091D9028F5F809385
S1130150D9029FBF08950DB407FEFDCF8EB5089553
S1130160982F0DB407FEFDCF8EB59EBD0895289837
S113017008958627082E8295807F8025092E982F42
S113018082958F700826869598278927880F880F6F
S1130190880F80250895809126048093BC000895DB
S11301A0809151048F3F71F0E82FF0E0E15CFD4F46
S11301B09081909351049F3F11F490930A089FEF0C
S11301C0908308958FEF08958091B0008093B000DC
S11301D08091B60081FDFCCF08952FB7F8948091EB
S11301E00F02909110022FBF08959FB7F894E82F43
S11301F0F0E0E15CFD4F20812F3FC9F421E030E0C5
S1130200E0910A08E81711F020E030E0232B79F49C
S1130210209151042F3F19F48093510404C0F0E05D
S1130220E15CFD4F808380930A0880E001C085E093
S11302309FBF089582E00C94F5000F931F932FB78E
S1130240F8948091140490911504A0911604B0912F
S113025017040091840010918500B09B07C001969B
S1130260A11DB11D00918400109185002FBF772737
S1130270662720E030E0602B712B822B932B1F919B
S11302800F910895EFB7F894209184003091850080
S11302902D5F3F4FA901481B590B4617570718F408
S11302A09C01260F371F2115310511F421E030E0A0
S11302B021503109309389002093880082E086BB65
S11302C080916F00826080936F00EFBF08958FB7B5
S11302D0F8949091BC00909326048FBF08952FB793
S11302E0F8943091B20080913A0290913B02A0912F
S11302F03C02B0913D02B99B0FC04091B3003091D4
S1130300B200BC01CD016F5F7F4F8F4F9F4F640FD1
S1130310711D811D911D02C0BC01CD01630F711DB2
S1130320811D911D2FBF08950F931F938FB7F894CC
S11303306091F7027091F802009194001091950079
S1130340C09B06C06F5F7F4F009194001091950091
S11303508FBFCB01A0E0B0E07727662720E030E034
S1130360602B712B822B932B1F910F910895CF92A9
S1130370DF92EF92FF920F931F930E949401C0901B
S11303800003D0900103E0900203F0900303009176
S1130390FB021091FC022091FD023091FE020C0D33
S11303A01D1D2E1D3F1D6C157D058E059F0530F00E
S11303B00C151D052E053F0558F005C00C151D052F
S11303C02E053F0590F5601771078207930768F5BE
S11303D068017901C61AD70AE80AF90A41E0C41685
S11303E040E8D406E104F10418F18B019C01105893
S11303F02F4F3F4F009300031093010320930203F8
S113040030930303970186011058210931090093A1
S1130410FB021093FC022093FD023093FE02C12CD8
S113042040E8D42EE12CF12C13C0C12CD12C760140
S113043000930003109301032093020330930303FA
S11304401092FB021092FC021092FD021092FE0226
S113045040919400509195004C595F4F9A01261B8E
S1130460370B2C153D0518F4AB014C0D5D1D4115E2
S1130470510511F441E050E0415051095093990065
S11304804093980082E088BB8091710082608093E1
S113049071001F910F91FF90EF90DF90CF9008951E
S11304A0CF938091280490912904A0912A04B091BB
S11304B02B044091FE075091FF0760910008709152
S11304C00108CFB7F894409300035093010360935D
S11304D00203709303038093FB029093FC02A093A6
S11304E0FD02B093FE020E94B701CFBF8091FE07C8
S11304F09091FF07A0910008B09101084091280451
S11305005091290460912A0470912B04840F951F43
S1130510A61FB71F8093FE079093FF07A0930008C0
S1130520B0930108CF9108951F93CF93DF931FB722
S1130530F8948091000290E0880F991FDC01AA5C76
S1130540BD4FED91FC911197309749F4FC01EC5AA1
S1130550FB4F118210828FE00E94F5001CC02281A3
S1130560338111963C932E93232B29F48C5A9B4F61
S1130570EC01B983A88380819181909333048093A3
S11305803204F0934C04E0934B04F0933502E0936F
S113059034020E9450021FBFDF91CF911F91089532
S11305A0813049F4662339F09FB7F89482B122E090
S11305B0822782B99FBF0895CF93CFB7F8948091D3
S11305C01D0281110BC081E080931D02109208026C
S11305D089E00E94F500CFBF80E01FC08091FF0238
S11305E08F3FC9F481E090E0E0910902EE2311F01D
S11305F080E090E0892B79F480910A028F3F19F40E
S113060010920A0204C0F0E0E150FD4F10821092F3
S1130610090280E001C085E0CFBFCF910895CF9358
S1130620DF932FB7F894C0913004D0913104CE01F8
S11306308F5E9E4F90933104809330042FBF84E0EB
S11306400E94F500CE0168EB70E00E9422198259E5
S11306509F4FDF91CF91089564307105E8F02FB773
S1130660F894E0915404F0915504309719F42FBF95
S113067081E00895DC0111967C936E9313961C928D
S11306801E921297918380830296909355048093CF
S113069054042FBF80E0089582E008958091000201
S11306A0811103C088E022E002C080E02FE14FB74F
S11306B0F8949091D8029E7F9093D80290917C00F8
S11306C0592F5F71929596959695937011F431E038
S11306D0251330E09091D80230FB91F92F71322F1D
S11306E0330F330F9378932B9093D80220937C008D
S11306F02091D8022170883019F58091520490918C
S11307005304863831E0930780F4833C910578F4F0
S11307108136910570F48033910568F48831910530
S113072060F40C9760F082E00BC087E009C086E0BB
S113073007C085E005C084E003C083E001C080E019
S113074087708860806120FB85F98064806880936D
S11307507A004FBF0895CF93CFB7F89480911E02CB
S1130760823029F580910B02811121C080910D0204
S11307708F3FB1F0E82FF0E0EF51FD4F908190935F
S11307800D029F3F11F490930C029FEF908380938E
S11307900B0281E080931E0280E00E94F50004C0F9
S11307A080930B0210921E02CFBF80E002C0CFBF25
S11307B081E0CF910895CF93CFB7F89480911D0233
S11307C0823041F580910802811124C080910A028F
S11307D08F3FB1F0E82FF0E0E150FD4F908190930E
S11307E00A029F3F11F4909309029FEF9083809334
S11307F0080281E080931D0289E00E94F50004C094
S11308008093080210921D028CB58F7B8CBDCFBFE4
S113081080E002C0CFBF81E0CF9108950F931F9372
S1130820CF93CFB7F89480911402833009F042C07B
S11308308091010281113EC0809139028823E9F13F
S11308402091150230E0C901019661E070E0813029
S1130850910511F480E090E0E82FE695E695E695A1
S1130860F0E0E75CFD4FA081482F47708B0102C088
S1130870000F111F4A95E2F7A801BA2FB02331F0F7
S113088040954A2340838093150206C0821793073C
S113089011F00196DCCF8FEF809351028FEF80939C
S11308A0010281E0809314028EE00E94F500CFBF24
S11308B080E00EC0CFBF81E00BC081E080930102D5
S11308C01092140280917A008F7780937A00EFCF90
S11308D0CF911F910F9108950F931F93CF93CFB78B
S11308E0F89480911802833009F042C0809102028A
S11308F081113EC080911A048823E9F120911902E4
S113090030E0C901019661E070E08130910511F495
S113091080E090E0E82FE695E695E695F0E0E65E67
S1130920FB4FA081482F47708B0102C0000F111F9D
S11309304A95E2F7A801BA2FB02331F040954A2333
S113094040838093190206C08217930711F0019621
S1130950DCCF8FEF8093ED028FEF8093020281E072
S1130960809318028BE00E94F500CFBF80E00CC09A
S1130970CFBF81E009C081E0809302021092180287
S1130980809317028DE0EFCFCF911F910F910895BF
S1130990CF92DF92EF92FF920F931F93CF93CFB733
S11309A0F8942091B3009091B20087B3291711F005
S11309B081FF02C0CFBF78C08091EC02811102C0D8
S11309C086EE3AC00E946F0100912C0210912D0214
S11309D020912E0230912F02C0905A04D0905B04D3
S11309E0E0905C04F0905D04601B710B820B930B30
S11309F06C157D058E059F0528F01092EC0286EE9D
S1130A0031E01BC0D701C601800F911FA21FB31F85
S1130A1040913A0250913B0260913C0270913D0238
S1130A20841B950BA60BB70B873E9105A105B10559
S1130A3038F6823008F482E030E02FEF280F9091EE
S1130A40B60093FDFCCF9091B200291301C0282F6A
S1130A5080913A0290913B02A0913C02B0913D02F8
S1130A60AC01BD014F5F5F4F6F4F7F4F420F511D70
S1130A70611D711D481759076A077B0710F4282F59
S1130A8020958091B60083FDFCCF2093B300CFBFA7
S1130A90332351F085E0CF911F910F91FF90EF9098
S1130AA0DF90CF900C94F500CF911F910F91FF90A0
S1130AB0EF90DF90CF900895BC0181E08093040310
S1130AC08093270480918400909185000C944201C6
S1130AD00E946701809126048E7F8069809326049A
S1130AE00C94CB00CF93DF931F92CDB7DEB78983ED
S1130AF00E94B700898180688EBD80E00E94B000AA
S1130B000E94AB0089830E949E0089810F90DF912F
S1130B10CF9108951F93CF93DF931F92CDB7DEB784
S1130B20182F69830E94B700912F906C9EBD898114
S1130B300E94B0000E94AB000F90DF91CF911F91F3
S1130B400C949E00811110C08091BB0090914604CA
S1130B50E091DC02F091DD02E90FF11D80838091C8
S1130B6046048F5F809346042091460480912502B9
S1130B70281788F430E090E001972817390749F4E2
S1130B8080910D0882FD05C0809126048F7B80939F
S1130B9026040C94CB0080912604282F2E7F90915C
S1130BA00D0891FF0AC09D7F90930D08822F8061EC
S1130BB0809326048091B90003C08E778093260425
S1130BC00E94CB0081E080931B0208958F929F9234
S1130BD0AF92BF92CF92DF92EF92FF920F931F9347
S1130BE0E0912304E1FF5BC0C0901B04D0901C047F
S1130BF0E0901D04F0901E0480901F049090200447
S1130C00A0902104B09022048B019C010C191D09B1
S1130C102E093F09081519052A053B0508F43FC0AC
S1130C20E0FF04C0ED7FE09323040EC0D501C401AE
S1130C308C0D9D1DAE1DBF1D80931B0490931C0441
S1130C40A0931D04B0931E049FB7F89480911802DA
S1130C50882349F020910202213011F080E004C081
S1130C6081508230D8F781E09FBF8823C1F01FB73D
S1130C70F89480910202813089F4809118028130C5
S1130C8021F48BE00E94F50009C0823039F4809190
S1130C90ED028093020283E0809318021FBF86E076
S1130CA01F910F91FF90EF90DF90CF90BF90AF9086
S1130CB09F908F900C94F500CF93DF93FC01828179
S1130CC090E0982F88272181822B85FF14C0877498
S1130CD09C7C8134984879F4C781D0E0DC2FCC2700
S1130CE08681C82B0E94ED0021E0C817D90709F0BE
S1130CF020E0822F01C080E0DF91CF9108958CB570
S1130D008F7B8CBD229A2398219A0E94A0008CB5D7
S1130D1080618CBD8CB58F778CBD8CB5877F8CBD85
S1130D208CB58B7F8CBD8CB580648CBD8DB581609A
S1130D308DBD8CB58C7F8CBD0895CF938FB7F894FF
S1130D4090910802911106C090911D02923011F405
S1130D508FBF13C08FBFCFB7F89480911D0281114C
S1130D600EC082E080931D02109208020E947F064A
S1130D70CFBF0E94A0000E949E0081E004C0CFBFAC
S1130D800E94DC0280E0CF91089580911C028330A0
S1130D90B9F580910402811133C0809106028F3F1E
S1130DA0C1F0E82FF0E0E95AFB4F908190930602DE
S1130DB09F3F11F4909305029FEF90838093340436
S1130DC09093040281E080931C028AE00E94F50063
S1130DD019C081E08093040210921C0280911B02CE
S1130DE0813081F40E946701809126048A76809381
S1130DF026040E94CB005898599810921B0202C0F6
S1130E0081E0089580E008950E946701809126049E
S1130E108A7F809326040E94CB000E946701809100
S1130E2026048460809326040E94CB0081E0809392
S1130E301B0280911A02811108C080910302811162
S1130E4004C00E9468050C94C50608958091460468
S1130E5090912502891780F4E091DC02F091DD0283
S1130E60E80FF11D80818093BB00809146048F5F61
S1130E70809346040C94CB0080912604282F2E7F67
S1130E8090910D0891FF06C09D7F90930D08822FCD
S1130E90806101C08E77809326040E94CB0081E09C
S1130EA080931B0280910302811104C00E94680593
S1130EB00C94C5060895CF93EF983B9A439A3E9AB3
S1130EC04698469A809107021092DA028093DB02D8
S1130ED02FB7F89480911C02811140C081E0809367
S1130EE01C02109234042FBFCFB7F89480911B02D8
S1130EF081111AC0589A599A509851981092B90071
S1130F0081E48093B8001092BA001092BC000E9451
S1130F106701809126048E7F8460809326040E945A
S1130F20CB0081E080931B02CFBFCFB7F8948091B0
S1130F300402813089F480911C02813021F48AE01A
S1130F400E94F50009C0823039F480913404809302
S1130F50040283E080931C02CFBF20C0809134043C
S1130F608823D9F0809157048F3FB9F481E090E051
S1130F70E0910502EE2311F080E090E0892B69F402
S1130F80809106028F3F19F41092060204C0F0E02B
S1130F90E95AFB4F1082109205022FBF0E946F0185
S1130FA060931B0470931C0480931D0490931E048F
S1130FB080EB94E0A0E0B0E080931F0490932004C1
S1130FC0A0932104B0932204809123048160826061
S1130FD08093230486E00E94F50080E0CF91089579
S1130FE03F924F925F926F927F928F929F92AF92B5
S1130FF0BF92CF92DF92EF92FF920F931F93CF9302
S1131000DF9300D000D0CDB7DEB79C838B83809173
S1131010220281114BC080910408853009F046C03A
S113102080913B04811142C00E949D068823F1F106
S1131030CB80DC8022E8C20ED11CF601808182FFC5
S113104007C0EB81FC81ED57FF4F61816F7001C0D8
S113105060E080918A03681731F060938A036068C6
S113106085E00E948A05EB81FC81828190E0982FC3
S113107088272181822B87749C7C81349848C1F411
S113108086E00E9472058F7190E04091F6022091F3
S1131090E20230E0240F311D43E0359527954A954F
S11310A0E1F72817390724F40E94DB0385E0A8C080
S11310B069E082E00E948A050E941D012B013C0127
S11310C00B811C810F5F1F4FEB81FC81F080F601C7
S11310D080819EEF392E3F0C84FF0AC0BBEF8B2E1C
S11310E08F0C2B813C81201B310B820E381802C0DF
S11310F0832C312C81E00E9472058F71893029F094
S113110066E082E00E948A05CFCF8FB7F8942F9AC9
S1131110A0908400B09085008FBF0E949C000E9424
S1131120B70080E68EBD8F2D0E94B0007801982C08
S1131130900EF70181917F010E94B0009E10F9CFBB
S11311408A94912C7801E80CF91CA4014F5F5F4F3D
S1131150400F511F95012E553F4F24193509490160
S1131160AA2497FCA094BA2C840C951CA61CB71C2A
S1131170332059F1F70181814280512C612C712C6B
S1131180320155244424782A8481482A8381582AA8
S1131190D301C20188199909AA09BB0984839383DD
S11311A0A283B18310E0FA01E10FF11D808149832C
S11311B05A830E94B0001F5F49815A811311F3CFF3
S11311C0F70144825382628271820E94AB000E94C2
S11311D09E0066E082E00E948A05F60180818260BA
S11311E08083EB81FC81E258FF4F80829182A2824E
S11311F0B38286E08093040884E08093220280E036
S11312000F900F900F900F90DF91CF911F910F913E
S1131210FF90EF90DF90CF90BF90AF909F908F9012
S11312207F906F905F904F903F9008953F924F92C0
S11312305F926F927F928F929F92AF92BF92CF9262
S1131240DF92EF92FF920F931F93CF93DF9300D01F
S11312501F92CDB7DEB749E0842E55E0F52E64E049
S1131260E62E72E0C72EDD24D394E8E0BE2EF0E231
S11312709F2EA0E8AA2E80913B04882309F4D3C0B2
S113128080910408813009F4CEC00E949D06882311
S113129009F4C9C08FB7F8946090F9027090FA020B
S11312A08FBF10923B048FE00E947205182F80912B
S11312B022028B7F833021F4F0920408B092220240
S11312C012FF51C080912202863011F41092220242
S11312D080912202811147C01430D1F586E00E942A
S11312E072058F719091E202292F26952695921B03
S11312F0980F9093E2022091300230913102F9016B
S1131300EE57FF4F90819B7F986090833196818345
S11313100E941D01A30147505109461B570B2A0186
S1131320662457FC6094762C20913002309131026F
S1131330F901EE57FF4F4081426040833497460ED7
S1131340571E681E791E408251826282738209C0D0
S1131350E0913002F0913102EE57FF4F8081857F9A
S11313608083F092220213FF5EC0809122028430B7
S113137009F048C0F09204081092220280913802C9
S1131380833019F4109238024EC0E0910B08F091AA
S11313900C08828190E0982F88272181822B85FF79
S11313A026C087749C7C8134984809F5878190E035
S11313B0982F88272681822B21E030E0019611F4B2
S11313C020E030E0232B99F08091270481110FC095
S11313D0C0920403D09227048091840090918500E8
S11313E069E973E00E944201C09238021CC0109265
S11313F038021092EB0210925E04E092EA020E941C
S11314001A0111C0853079F486E00E94720590912A
S1131410F602292F26952695921B8F71980F90938B
S1131420F6028092220280912202882309F455C296
S1131430893009F0C0C10E94B7009EBC0DB407FEFC
S1131440FDCF8EB51EBC0DB407FEFDCF8EB59DEF4E
S1131450980F9D3708F075C01EBCE0913002F091E2
S113146031023F015FEF651A750A80839EEF492EB2
S1131470480E86E0841518F487E0582E01C0542CD9
S11314806A827B8200E010E0352C360C80E00E94FA
S1131490B000AA81BB818D93BB83AA83682FC80146
S11314A00E94B9008C01BA813B12F0CF8FEF850DF9
S11314B090E00196860D971DE0913002F091310283
S11314C021812770223029F4209138022230B9F585
S11314D00BC03FB7F89421E040913504433008F045
S11314E020E03FBF222359F1742C75182C01780E8B
S11314F080E0741459F00E94B000F20181932F012E
S1131500682FC8010E94B9008C01F2CF0E94B0007C
S1131510682FC8010E94B9008C0180E00E94B000CD
S1131520682FC8010E94B9008C010E94AB00E091B1
S11315303002F0913102ED57FF4F808304C00E94C6
S1131540AB0001E010E00E949E00F09204081092AB
S11315502202012B09F0B8C14090300250903102B0
S1131560D20111968C911197877090913802823034
S113157039F5923009F01AC1E0910B08F0910C088A
S113158013969C918381981311C180916F008D7F74
S113159080936F0010922704E0910B08F0910C08DF
S11315A0EE57FF4F80818160808310923802109241
S11315B0EB0210925E04E092EA020E941A01F6C065
S11315C0911118C0C2010E945C06882399F0F09220
S11315D08B03C0928C0310928D03F201838180935C
S11315E08E038BE893E00E94F007811103C083E02F
S11315F0809338020091840010918500C2010E94FA
S11316005C06882311F0045E1C4F109313040093AE
S1131610120480918400909185009801281B390B55
S1131620C9011816190684F42091EB02211109C08E
S113163020912704211108C00E945C05A092EB02AE
S113164003C020682093EB02D20119962C911997BC
S113165030E0322F222718968C91282B80913E025D
S1131660A82FB0E0FD01EE0FFF1FE45CFB4F4081AB
S1131670518160912C044217530759F4AB5FB74F63
S11316809C91961709F460C06F5F60932C046C936F
S11316901BC0ECE3F4E0A5E0B8E080E090E000E0FB
S11316A010E0782F419151914217530779F48093B8
S11316B03E02FC01EB5FF74F2081261709F444C07A
S11316C06F5F60932C04608340E825C04D91562FD2
S11316D0541B452F151710F0702F412F019685309C
S11316E0910519F0072F142FDCCF70933E02872F3A
S11316F090E0FC01EE0FFF1FE45CFB4F318320837D
S11317006F5F60932C04FC01EB5FF74F6083FC0177
S1131710E25FF74F108280912C04982F9F779F37B8
S113172019F080913E0210C04F37D8F3E5E0F8E09D
S1131730282F207890819F6798132083319698E012
S1131740EA30F907B9F7EDCFD20113969C91E82F4F
S1131750F0E0DF01A25FB74F8C91EA5CFB4F80FFA2
S113176004C08081981303C021C081608C9390834E
S11317701FB7F894809135048330B8F4E09156048F
S1131780E80FE33008F0E350F0E0EE0FFF1FEA5DEE
S1131790FD4F70800181518240828F5F80933504B8
S11317A083E00E94F500472C502E1FBF5092310257
S11317B04092300289C09FEF980F933008F06FC0B9
S11317C09EEF980F9230E8F5109104081130B1F4AF
S11317D080912704811135C00E949C0083E080938E
S11317E004031093270480918400909185006BE298
S11317F073E00E944201C09204083EC0833009F5A0
S11318001330F9F40E949D068823D9F08FE00E94DA
S113181072058091810080648093810096BA8091E2
S11318206F00806280936F006091DE02606688E0E2
S11318300E948A0566E082E00E948A05E09204081C
S11318401BC08091220281508230B0F48091040840
S1131850853091F40E949D06882371F063E082E054
S11318600E948A0580916F008F7D80936F00109293
S11318703B0483E08093040880912202813041F488
S113188090910408933001F52F9A809304081AC0AC
S11318908230D1F4809104088330B1F413C08730CE
S11318A099F40E949D06882379F06091DE026066B7
S11318B088E00E948A0580910408853019F4E0923A
S11318C0040802C0B092220280912202883029F4D6
S11318D01092220281E00E94F5008091220281117F
S11318E01CC0809104088530C1F480913B048111AF
S11318F014C080913802811110C08091EB028111D3
S11319000CC080912704811108C08091EA028230C2
S113191021F4D092EA020E941A01809122028111DC
S113192003C087E00E94F50080912704823009F00B
S113193089C01092270420910403223009F465C061
S1131940233009F46DC0213009F07CC080918400FB
S1131950909185006090120470901304681A790ABB
S11319608091EB02803851F41092EB028091EA02EC
S1131970823009F067C02093EA024FC087FF03C09A
S113198016141704F4F00091E7021091E802809114
S11319903802811116C0C8010E94F007282F811156
S11319A011C0F801EE57FF4F80818E7F8083D09263
S11319B0380210930C0800930B0883E08093EB0229
S11319C041C025E08091EB02982F9F77913049F434
S11319D0807882608093EB020E940F030E945C0572
S11319E031C087FF0BC01614170444F4A092EB0215
S11319F0C30129830E945C05298102C01092EB0275
S1131A0020935E04D092EA0208C010923802109229
S1131A10EB0210925E04E092EA020E941A0112C0E4
S1131A2080910408823019F42093040809C080913D
S1131A302202863029F41092220281E00E9472056B
S1131A400E94440D8FB7F8949091D9029130C1F45B
S1131A501092D9028FBF0F900F900F90DF91CF910A
S1131A601F910F91FF90EF90DF90CF90BF90AF90B8
S1131A709F908F907F906F905F904F903F900895CC
S1131A80D092D9028FBFF7CB8FB7F8949091D90237
S1131A90992329F090689093D9028FBF089591E01B
S1131AA09093D9028FBF0C9416099FB7F894809134
S1131AB0D90281508093D902803811F09FBF0895D4
S1131AC081E08093D9029FBF0C9416090F931F9352
S1131AD0CF93DF931F92CDB7DEB78C018FE3F8016C
S1131AE08287809121028F5F8093210283830E94E9
S1131AF0A2008091EA0281110DC010932F0400937B
S1131B002E0481E08093EA0210922D040E941A01AF
S1131B1080E001C085E089830E94550D89810F9082
S1131B20DF91CF911F910F910895CF93809154022B
S1131B3090E0982F882720915302822B9C012774D0
S1131B403C7C2134384849F0807399278164986833
S1131B508093530288E8809354028FE78093520263
S1131B600E94ED0080935A0290935B029FB7F89411
S1131B7080910E029FBF809356021092570281E01B
S1131B8080935D028FEF80935802809359028FB740
S1131B90F89490911E02911111C092E090931E024C
S1131BA010920B028FBF82E592E00E94660DC82F4F
S1131BB08823D1F00E94AB038C2F37C08FBF82E5FE
S1131BC092E09093E0028093DF02CFB7F894809183
S1131BD01E0281110BC081E080931E0210920B0241
S1131BE080E00E94F500CFBF80E01FC08091E10239
S1131BF08F3FC9F481E090E0E0910C02EE2311F0F4
S1131C0080E090E0892B79F480910D028F3F19F4E4
S1131C1010920D0204C0F0E0EF51FD4F10821092BB
S1131C200C0280E001C085E0CFBFCF910895CF932F
S1131C30DF931F92CDB7DEB70E94A2008091EA0223
S1131C40811119C080912202811115C0809104086C
S1131C50813029F48091270481110DC002C08530A0
S1131C6099F083E0809322020E94440D85E08093E2
S1131C70EA0280E001C085E089830E94550D8981D4
S1131C800F90DF91CF91089589E0F6CF2F923F9284
S1131C904F925F926F927F928F929F92AF92BF9278
S1131CA0CF92DF92EF92FF920F931F93CF93DF9324
S1131CB01F92CDB7DEB790E08231910508F040C5A0
S1131CC0FC01EA59FF4F0C9458198FB7F89492E02D
S1131CD090931E028FBF80910B02811131C58091B8
S1131CE0DF029091E0020E94660D882309F428C562
S1131CF089830E94AB03E091DF02F091E0026981E5
S1131D00A3C08091EA021092EA02853009F04AC029
S1131D1068E570E08EEE95E00E942C0368E570E0C3
S1131D208EE996E00E942C0368E570E08EE497E06B
S1131D300E942C038FB7F89490911802911112C04D
S1131D4091E0909318021092ED028FBF80911702D8
S1131D50811104C08CE00E94F50017C081E08093DB
S1131D60160213C09091ED02911102C08FBF0DC0F5
S1131D7090911A0490FD05C0916090931A0490E02C
S1131D8001C095E08FBF9111DBC480E890E0A0E032
S1131D90B0E08093E3029093E402A093E502B09351
S1131DA0E602CEC49AEF980F923008F4C9C4809327
S1131DB0EA02C6C40E94A2002091EA02213059F529
S1131DC080912D048F5F80932D04863020F58091BF
S1131DD02E0490912F043091EB02311110C03091F8
S1131DE0270431110CC09093E8028093E7022093FA
S1131DF0EB020E940F030E945C0580E001C085E0B5
S1131E0080935E04811102C083E001C082E080936C
S1131E10EA0210E003C01092EA0211E00E94550D9C
S1131E20112309F48DC460915E04E0902E04F090B7
S1131E302F04D7011A968C918F3309F081C46983DA
S1131E400E94AB036981F70183850F90DF91CF91E5
S1131E501F910F91FF90EF90DF90CF90BF90AF90C4
S1131E609F908F907F906F905F904F903F902F90B6
S1131E700C94D002E0915604F0E0EE0FFF1FEA5DEF
S1131E80FD4FC080D1808FBFD6011A968C918F33BD
S1131E9001F50E94ED009FB7F89480915604E82F55
S1131EA0F0E0EE0FFF1FEA5DFD4FD182C0828F5F2D
S1131EB0833010F5809356048091350481508093CB
S1131EC035049FBF8FB7F894909135049111D2CF08
S1131ED027C1F601E780F12CFE2CEE248681E82A46
S1131EE00E94ED00E816F90619F0EF20E09499F647
S1131EF08FB7F8948FBFCFCF10925604DDCFEFB7D2
S1131F00F8948091F0029091F102A091F202B091C4
S1131F10F3021C012D019C01A20160E070E080E04D
S1131F2090E003E00E94691951016201E12CF12C57
S1131F3000E010E00E94A01959016A017B01F82F0A
S1131F40192F03E00E9469190F2F0E94A01959014B
S1131F506A017B01F82F192F03E00E9469190F2FE2
S1131F600E94A01959016A017B01F82F192F03E07F
S1131F700E9469190F2F0E94A01959016A017B015F
S1131F80F82F192F03E00E9469190F2F0E94A0193E
S1131F9001E00E94691929013A0100E20E948419B2
S1131FA049015A01D301C201B695A7959795879522
S1131FB0880D991DAA1DBB1DB7FF04C0BF770196EC
S1131FC0A11DB11D8093F0029093F102A093F2023F
S1131FD0B093F302EFBF2FB7F8949093310480933A
S1131FE030042FBFADC38091D702811141C040910D
S1131FF04704509148046091490470914A042FB7F2
S1132000F89480915A0490915B04A0915C04B0917F
S11320105D04C0902C02D0902D02E0902E02F0902E
S11320202F028C0D9D1DAE1DBF1D2FBF4093470475
S1132030509348046093490470934A041092D70261
S11320402FB7F89431E03093EC0280932C029093F4
S11320502D02A0932E02B0932F0240935A04509362
S11320605B0460935C0470935D042FBF0E94C804FA
S11320700E946F012EC00E946F012FB7F894109236
S1132080EC022FBF2091230421FF5AC3C0901B04EC
S1132090D0901C04E0901D04F0901E049B01AC0140
S11320A02C193D094E095F0980901F04909020046B
S11320B0A0902104B0902204821A930AA40AB50ABB
S11320C03FEF83169306A3063FE7B30609F0FCC26D
S11320D037C30F90DF91CF911F910F91FF90EF9035
S11320E0DF90CF90BF90AF909F908F907F906F9034
S11320F05F904F903F902F900C94E6058FB7F89423
S113210010922504109224041092030810920208DD
S113211010922402109223021092110410921004BF
S11321208FBF0EC31FB7F89482E080931D020E94F4
S11321307F061FBF80910802811102C30E94A00084
S11321400E949E008091040881114CC08EEF91E0A2
S1132150019701960197E1F716980E949C0086E08A
S113216090E0019701960197E1F7169A60E083E009
S11321700E948A0568E082E00E948A058EEF91E061
S1132180019701960197E1F76DE48EE00E948A05BC
S113219067EC89E00E948A0560E885E00E948A0570
S11321A010928A038FE08093DE026FE688E00E943B
S11321B08A052F9A81E0809304080F90DF91CF91D4
S11321C01F910F91FF90EF90DF90CF90BF90AF9051
S11321D09F908F907F906F905F904F903F902F9043
S11321E00C94DB030F90DF91CF911F910F91FF901F
S11321F0EF90DF90CF90BF90AF909F908F907F90A3
S11322006F905F904F903F902F900C94440D8FB738
S1132210F894909134049093040293E090931C02F8
S11322208FBF809104029FB7F894809303029FBFED
S1132230811186C28FB7F89490910302911170CFE7
S11322408FBF8FB7F89490911B02913009F068CF3B
S113225092E090931B028FBF2FB7F8948DE290E029
S11322609093EF028093EE028AED92E09093DD0268
S11322708093DC0282E08093250283E080930D0842
S11322801092460410921A022FBF0E9467011FB7D2
S1132290F894809126048F7E816E8093260484E0D6
S11322A080931B020E94CB001FBF4AC28FB7F894D1
S11322B09091ED029093020293E0909318028FBFE5
S11322C08091020244E0849FF0011124ED51FD4FFE
S11322D0C080D180E280F380811132C28FB7F8943C
S11322E090911402911127C091E0909314021092DE
S11322F051028FBF9FB7F89480917A0080688093D1
S11323007A009FBF1FB7F89480910102813089F44D
S113231080911402813021F48EE00E94F50009C0FE
S1132320823039F4809151028093010283E08093DA
S113233014021FBF13C090915102911102C08FBFAC
S11323400DC09091390290FD05C0916090933902BF
S113235090E001C095E08FBF9111F2C1C0924D048D
S1132360D0924E04E0924F04F0925004E9C10F90D1
S1132370DF91CF911F910F91FF90EF90DF90CF905D
S1132380BF90AF909F908F907F906F905F904F9091
S11323903F902F900C945B07EF9843983B98809163
S11323A01602813011F40E945B078FB7F8941092E3
S11323B0160210921702B4CE8FB7F894909151027E
S11323C09093010293E0909314028FBF80910102D5
S11323D08111B6C160914D0470914E0480914F04F7
S11323E090915004109235021092340210924C04D1
S11323F010924B04109233041092320480905204D1
S113240090905304A12CB12C66587F4F8F4F9F4F4F
S1132410E4EFCE2ED12CE12CF12CA70196010E94E1
S1132420361929013A019B01AC01C501B4010E948E
S1132430121966587F4F8F4F9F4FA70196010E9434
S1132440361969017A01A3019201C501B4010E9400
S11324501219C60ED71EE81EF91EC0922804D09287
S11324602904E0922A04F0922B04109200020F90A7
S1132470DF91CF911F910F91FF90EF90DF90CF905C
S1132480BF90AF909F908F907F906F905F904F9090
S11324903F902F900C944E03209100023FB7F89484
S11324A0822F90E0880F991FFC01EA5CFD4F118296
S11324B01082DC01AC5ABB4FED93FC933FBF81E02B
S11324C08093000221113CC10E940E040E946C04FE
S11324D0109836C1209100023FB7F894822F90E003
S11324E0FC01EE0FFF1FEA5CFD4F0190F081E02D2F
S11324F03FBF880F991F309721F00280F381E02DB0
S1132500FACF3FB7F894FC01EA5CFD4F11821082C8
S1132510DC01AC5ABB4FED93FC933FBF81E0809349
S1132520000221110DC10E940E040F90DF91CF9182
S11325301F910F91FF90EF90DF90CF90BF90AF90DD
S11325409F908F907F906F905F904F903F902F90CF
S11325500C946C048FB7F894E090F402F090F502B8
S1132560C0905804D09059041092F5021092F402CD
S11325708FBF809100028111E3C020911804309133
S113258019042F5F3F4F3093190420931804F70167
S113259062E672E0CB0104974081DC014C93019622
S11325A04281DC014C9301964481DC014C930196F9
S11325B04681DC014C934281538116E05695479540
S11325C01A95E1F7842F8C7091819370892B448143
S11325D0558104E0569547950A95E1F74073842B9D
S11325E0468157815695479556954795407C842B4F
S11325F0DB018C9338966B5F7F4FB2E0603D7B07C5
S113260049F6C90164E670E00E942219892B61F43D
S11326104FEF50E08091320290913302481B590BE6
S113262050933302409332022093CD023093CC0274
S113263090913202809133029093CF028093CE0224
S11326400E94950D882349F18091320290913302C2
S11326508739910550F020911F02309120022F5F9D
S11326603F4F3093200220931F02809118049091D1
S1132670190468EC70E00E942219892B71F480918E
S11326801F02909120028536910514F0119801C023
S1132690119A1092200210921F02B601C7010F90E6
S11326A0DF91CF911F910F91FF90EF90DF90CF902A
S11326B0BF90AF909F908F907F906F905F904F905E
S11326C03F902F900C942C03181419041A041B0423
S11326D00CF0FFCC8092470490924804A0924904E5
S11326E0B0924A0421E02093D7022FB7F89431E046
S11326F03093EC0260932C0270932D0280932E028F
S113270090932F0280925A0490925B04A0925C04EE
S1132710B0925D042FBF0F90DF91CF911F910F9165
S1132720FF90EF90DF90CF90BF90AF909F908F90ED
S11327307F906F905F904F903F902F900C94C804BF
S11327400F90DF91CF911F910F91FF90EF90DF9049
S1132750CF90BF90AF909F908F907F906F905F903D
S11327604F903F902F9008958FB7F89408958FBF9E
S113277008951F920F920FB60F9211240BB60F9269
S11327802F933F934F935F936F937F938F939F9375
S1132790AF93BF93EF93FF930E94E4002091B300A3
S11327A030E02F5F3F4F80913A0290913B02A0911D
S11327B03C02B0913D02820F931FA11DB11D809375
S11327C03A0290933B02A0933C02B0933D0278946A
S11327D00E94C804FF91EF91BF91AF919F918F9197
S11327E07F916F915F914F913F912F910F900BBE0D
S11327F00F900FBE0F901F9018951F920F920FB657
S11328000F9211240BB60F922F933F934F935F9324
S11328106F937F938F939F93AF93BF93EF93FF93A4
S11328200E94E400FF91EF91BF91AF919F918F912E
S11328307F916F915F914F913F912F910F900BBEBC
S11328400F900FBE0F901F9018951F920F920FB606
S11328500F9211240BB60F922F933F934F935F93D4
S11328606F937F938F939F93AF93BF93EF93FF9354
S11328702EB58091240490912504009739F0E091BD
S11328801004F0911104E80FF91F208380911004C3
S113289090911104019690931104809310048CB5C7
S11328A08F778CBD80911004909111046091230264
S11328B0709124028617970708F03FC02091020800
S11328C030910308E0912404F0912504AC01465FA3
S11328D05F4F6417750708F4AB0141505109841721
S11328E09507C8F42115310549F0D901A80FB91F7E
S11328F06C916EBD0DB407FEFDCF04C01EBC0DB4BB
S113290007FEFDCF6EB5309721F0DF01A80FB91F88
S11329106C930196E4CF4CB540684CBD211531054C
S113292031F0F901E80FF91F20812EBD01C01EBC52
S1132930909311048093100411C0109225041092F6
S11329402404109203081092020810922402109298
S1132950230210921104109210048EB5FF91EF918E
S1132960BF91AF919F918F917F916F915F914F91A3
S11329703F912F910F900BBE0F900FBE0F901F90A1
S1132980189578941F920F920FB60F9211240BB6DC
S11329900F922F933F934F935F936F937F938F93F4
S11329A09F93AF93BF93EF93FF9380916F008D7FBD
S11329B080936F0078948FB7F894909127049130A6
S11329C019F492E0909327048FBF0E94440DFF9165
S11329D0EF91BF91AF919F918F917F916F915F9193
S11329E04F913F912F910F900BBE0F900FBE0F9000
S11329F01F90189578941F920F920FB60F9211247E
S1132A000F900FBE0F901F90189578941F920F92FD
S1132A100FB60F9211240F900FBE0F901F901895B0
S1132A2078941F920F920FB60F9211240BB60F9247
S1132A302F933F934F935F936F937F938F939F93C2
S1132A40AF93BF93EF93FF93E6E8F0E08081918129
S1132A50808191812FB7F8949093FA028093F902C0
S1132A6081E080933B042FBF0E94440DFF91EF91BE
S1132A70BF91AF919F918F917F916F915F914F9192
S1132A803F912F910F900BBE0F900FBE0F901F9090
S1132A90189578941F920F920FB60F9211242F93CA
S1132AA08F939F93AF93BF932FB7F894809114049F
S1132AB090911504A0911604B09117040196A11DDC
S1132AC0B11D8093140490931504A0931604B0933D
S1132AD017042FBFBF91AF919F918F912F910F90AA
S1132AE00FBE0F901F9018951F920F920FB60F9262
S1132AF011240F900FBE0F901F9018951F920F92E4
S1132B000FB60F9211240F900FBE0F901F901895BF
S1132B101F920F920FB60F9211240F900FBE0F90B9
S1132B201F9018951F920F920FB60F9211240F90B9
S1132B300FBE0F901F9018951F920F920FB60F9211
S1132B4011240F900FBE0F901F9018951F920F9293
S1132B500FB60F9211240F900FBE0F901F9018956F
S1132B601F920F920FB60F9211240F900FBE0F9069
S1132B701F9018951F920F920FB60F9211240F9069
S1132B800FBE0F901F9018951F920F920FB60F92C1
S1132B9011240BB60F922F933F934F935F936F9330
S1132BA07F938F939F93AF93BF93EF93FF930E9471
S1132BB0670180911B028430A1F0863021F08330BC
S1132BC009F04BC02BC08091B900887F90911A0204
S1132BD09130F1F48034C9F483E080931B0281E0E6
S1132BE022C080910D088E7F80930D088091260469
S1132BF08F7D809326049091B900987F9830C9F016
S1132C009091B900987F9031A1F00E94040725C0EB
S1132C108831D9F783E080931B0208C080911A029F
S1132C20813021F480E00E94A20517C00E9426078B
S1132C3014C080648093260491E080911A0281304C
S1132C4009F090E08091EE02880F892B8093BB00FD
S1132C5086E080931B020E94CB00FF91EF91BF910D
S1132C60AF919F918F917F916F915F914F913F9120
S1132C702F910F900BBE0F900FBE0F901F901895C1
S1132C801F920F920FB60F9211240BB60F922F932F
S1132C903F934F935F936F937F938F939F93AF93E0
S1132CA0BF93CF93EF93FF93809178009091790035
S1132CB078943FB7F8942091D80221703FBF211136
S1132CC067C020917A00277F20937A002091000228
S1132CD0213009F47BC02091320430913304232B3A
S1132CE059F40E9494016093FE077093FF07809348
S1132CF000089093010846C0E0913402F091350237
S1132D00AF014E5F5F4F509335024093340291837D
S1132D1080832091320430913304220F331F809139
S1132D204B0490914C04820F931F4817590769F57F
S1132D30CFB7F8948091F4029091F502892B71F049
S1132D40E0910002F0E0EE0FFF1FEC5AFB4F1182FE
S1132D50108280E10E94F500CFBF38C08091320418
S1132D6090913304909359048093580480914B04B8
S1132D7090914C049093F5028093F402CFBF81E1CB
S1132D800E94F5000E94940221C00E9450021EC0BD
S1132D908FB7F8948FBF2FB7F89480917A0086FB91
S1132DA0992790F9877F806190FB86F98F778093CC
S1132DB07A00877F80618F7B8F7780937A00877F0B
S1132DC080618F7B806880937A002FBFFF91EF91A1
S1132DD0CF91BF91AF919F918F917F916F915F91AF
S1132DE04F913F912F910F900BBE0F900FBE0F90FC
S1132DF01F90189578941F920F920FB60F9211247A
S1132E000BB60F922F933F934F935F936F937F93E0
S1132E108F939F93AF93BF93CF93EF93FF9380913F
S1132E2071008D7F809371007894CFB7F89480916E
S1132E30FB029091FC02A091FD02B091FE02892B4D
S1132E408A2B8B2B19F40E944E0302C00E94B701F7
S1132E50CFBFFF91EF91CF91BF91AF919F918F9190
S1132E607F916F915F914F913F912F910F900BBE86
S1132E700F900FBE0F901F90189578941F920F9289
S1132E800FB60F9211240F900FBE0F901F9018953C
S1132E9078941F920F920FB60F9211240F900FBEC9
S1132EA00F901F90189578941F920F920FB60F925F
S1132EB011248F939F9380919600909197009F91F6
S1132EC08F910F900FBE0F901F90189578941F92BA
S1132ED00F920FB60F9211242F938F939F932FB7B6
S1132EE0F8948091F7029091F80201969093F80279
S1132EF08093F7022FBF9F918F912F910F900FBE58
S1132F000F901F901895CFB7F89414BE88E10FB6B0
S1132F10F89480936000109260000FBE42E150E08C
S1132F206FEF70E08FE392E00E94B8198FEF809307
S1132F30510480930A0856985E9854985C9880913E
S1132F406F008F7D80936F000E94A0000E949E00FE
S1132F50279A0E949C000E9A169A85E093E090931B
S1132F603102809330021092F6028AE58093E202E5
S1132F7081E08093810080E28093B60083E08093B7
S1132F80B10080918400909185004AE720918400EB
S1132F90309185002817390708F44150442311F073
S1132FA0C901F4CF8091B2009091B2009817E1F377
S1132FB020918400309185008091B2009091B200FC
S1132FC09817E1F380918400909185004096821BCC
S1132FD0930B25E0969587952A95E1F790935304F2
S1132FE0809352041092B100109281001092B600A6
S1132FF01092B20010928500109284008FEF87BB6C
S113300086BB8091B6008571E1F70A9A099A089AFD
S1133010129A119A109A18B88FEF87B90C981498CD
S113302010929500109294008091710081608093B9
S1133030710080919100887F82608093910080E08C
S1133040877F8F7E8F7D8F7B8F7780937A0010921E
S113305085001092840080916F00816080936F00DE
S113306080918100887F8260809381000E94D000DB
S11330708F3F19F00E94460EF9CF1092390226E3D1
S113308032E0309355042093540410921A04809330
S113309057048093FF020E94DC028091B600806294
S11330A08093B6008091B60081FDFCCF82E08093CE
S11330B0B0008091B60080FDFCCF83E08093B10026
S11330C08091B60083FDFCCF86EE8093B30080919F
S11330D070008260809370000E94C80420911102E5
S11330E030911202C9010196A0E0B0E08093F00291
S11330F09093F102A093F202B093F3028FE594E06F
S1133100909327028093260284EE94E09093290200
S11331108093280289E695E090932B0280932A02FB
S11331208FEF9FEF90933D0480933C0490933F0472
S113313080933E049093410480934004909343040D
S11331408093420490934504809344042295207F05
S1133150209321028093E1020E94D0008F3F19F056
S11331600E94460EF9CFCFBF78940E94170E129892
S1133170CFB7F8940E94D0008F3F09F04FC08091E0
S11331807000837099F08091B6008A71E1F78091A4
S1133190B3009091B200891B8C3010F492E007C008
S11331A08091B200853FD0F793E001C095E0809113
S11331B06E008670E9F480916F008E72C9F480917C
S11331C071008E72A9F40CB407FC12C08091C10086
S11331D0887171F48091C900887151F48091BC00A8
S11331E082FD06C080917A0087FF04C0E1E003C03D
S11331F0E0E001C0E5E083B79E1708F4E92FF0E0B2
S1133200E051FF4FE491807F81608E2B83BF7894DF
S11332108895F89483B78E7F83BFACCFCFBF0E94CD
S1133220460EA6CFDB018F939F930E945E19BF9138
S1133230AF91A29F800D911DA39F900DB29F900D01
S113324011240895AA1BBB1B51E107C0AA1FBB1F71
S1133250A617B70710F0A61BB70B881F991F5A951E
S1133260A9F780959095BC01CD010895A1E21A2E8D
S1133270AA1BBB1BFD010DC0AA1FBB1FEE1FFF1F16
S1133280A217B307E407F50720F0A21BB30BE40B66
S1133290F50B661F771F881F991F1A9469F76095AD
S11332A07095809590959B01AC01BD01CF01089567
S11332B0EE0FFF1F0590F491E02D09940E94A919C7
S11332C0A59F900DB49F900DA49F800D911D112476
S11332D008950F93083090F0982F872F762F652F3D
S11332E0542F432F322F22270850F4CF220F331F9D
S11332F0441F551F661F771F881F991F0A95B2F731
S11333000F91089597FB10F8169400080F93083056
S113331098F00850232F342F452F562F672F782FDE
S1133320892F902DF4CF0594979587957795679578
S113333057954795379527950A95AAF70F910895BC
S11333402A193B094C095D096E097F09800B910B11
S11333500895A29FB001B39FC001A39F700D811D6A
S11333601124911DB29F700D811D1124911D08958A
S1133370DC0101C06D9341505040E0F70895F8948A
S1053380FFCF79
S1133382010101FF01FFFF40FFFFFFFFFFFF2201D9
S10733920001000032
S9030000FC
