:100000000C947B000C9454150C945E150C9468159C
:100010000C9472150C947C150C9486150C94901508
:100020000C949A150C949A000C949A000C949A00D3
:100030000C949A000C9499130C949A000C94DD1370
:100040000C94F0140C94A1140C94DA140C94E51490
:100050000C9429150C949A000C949A000C949A0014
:100060000C9405140C949A000C949A000C949A0029
:100070000C949A000C9420160C949A000C9433174C
:100080000C94DA160C941D170C9428170C94461730
:100090000C949A000C949A000C949A000C94A41559
:1000A0000C949A000C949A000C949A000C949A0068
:1000B0000C949A000C949A000C949A000C949A0058
:1000C0000C949A000C949A000C949A006D0E890E70
:1000D000E20E6A0F870FFB0F4310E51086109A108F
:1000E0000F115E11BF11D411E41154127212B21229
:1000F00000020E060C0411241FBECFEFD1E2DEBFBA
:10010000CDBF12E0A0E0B2E0E0E4F3E300E00BBF1B
:1001100002C007900D92A431B107D9F728E0A4E1FD
:10012000B2E001C01D92A131B207E1F70E9463174E
:100130000C949E190C9400002F980895289A089505
:10014000209A08959FB7F8948091D7028F5F80938B
:10015000D7029FBF08950DB407FEFDCF8EB5089559
:10016000982F0DB407FEFDCF8EB59EBD089528983B
:1001700008958627082E8295807F8025092E982F46
:1001800082958F700826869598278927880F880F73
:10019000880F802508959FB7F89482B124E08227C4
:1001A00082B99FBF0895809124048093BC00089574
:1001B00080914F048F3F71F0E82FF0E0E35CFD4F3A
:1001C000908190934F049F3F11F4909308089FEF04
:1001D000908308958FEF08958091B0008093B000D0
:1001E0008091B60081FDFCCF08952FB7F8948091DF
:1001F0000F02909110022FBF08959FB7F894E82F37
:10020000F0E0E35CFD4F20812F3FC9F421E030E0B6
:10021000E0910808E81711F020E030E0232B79F492
:1002200020914F042F3F19F480934F0404C0F0E055
:10023000E35CFD4F80838093080880E001C085E087
:100240009FBF089582E00C94FD000F931F932FB77A
:10025000F8948091120490911304A0911404B09129
:1002600015040091840010918500B09B07C0019691
:10027000A11DB11D00918400109185002FBF77272B
:10028000662720E030E0602B712B822B932B1F918F
:100290000F910895EFB7F894209184003091850074
:1002A0002D5F3F4FA901481B590B4617570718F4FC
:1002B0009C01260F371F2115310511F421E030E094
:1002C00021503109309389002093880082E086BB59
:1002D00080916F00826080936F00EFBF08958FB7A9
:1002E000F8949091BC00909324048FBF08952FB789
:1002F000F8943091B2008091380290913902A09127
:100300003A02B0913B02B99B0FC04091B3003091CB
:10031000B200BC01CD016F5F7F4F8F4F9F4F640FC5
:10032000711D811D911D02C0BC01CD01630F711DA6
:10033000811D911D2FBF0895CF92DF92EF92FF9202
:100340000F931F93CF93CFB7F8942091B300909160
:10035000B20087B3291711F081FF02C0CFBF78C068
:100360008091EA02811102C086EE3AC00E947701B4
:1003700000912A0210912B0220912C0230912D0223
:10038000C0905804D0905904E0905A04F0905B0457
:10039000601B710B820B930B6C157D058E059F0501
:1003A00028F01092EA0286EE31E01BC0D701C601A8
:1003B000800F911FA21FB31F409138025091390244
:1003C00060913A0270913B02841B950BA60BB70B10
:1003D000873E9105A105B10538F6823008F482E028
:1003E00030E02FEF280F9091B60093FDFCCF909155
:1003F000B200291301C0282F809138029091390250
:10040000A0913A02B0913B02AC01BD014F5F5F4F3A
:100410006F4F7F4F420F511D611D711D48175907C6
:100420006A077B0710F4282F20958091B60083FD82
:10043000FCCF2093B300CFBF332351F085E0CF91A1
:100440001F910F91FF90EF90DF90CF900C94FD00E3
:10045000CF911F910F91FF90EF90DF90CF90089573
:100460000F931F938FB7F8946091F5027091F60285
:100470000091940010919500C09B06C06F5F7F4F64
:1004800000919400109195008FBFCB01A0E0B0E0E7
:100490007727662720E030E0602B712B822B932B8F
:1004A0001F910F910895CF92DF92EF92FF920F93D9
:1004B0001F930E943002C090FE02D090FF02E09095
:1004C0000003F09001030091F9021091FA022091CB
:1004D000FB023091FC020C0D1D1D2E1D3F1D6C15E5
:1004E0007D058E059F0530F00C151D052E053F0579
:1004F00058F005C00C151D052E053F0590F5601739
:1005000071078207930768F568017901C61AD70A4F
:10051000E80AF90A41E0C41640E8D406E104F1040F
:1005200018F18B019C0110582F4F3F4F0093FE0292
:100530001093FF022093000330930103970186017B
:100540001058210931090093F9021093FA022093FF
:10055000FB023093FC02C12C40E8D42EE12CF12C9C
:1005600013C0C12CD12C76010093FE021093FF0220
:1005700020930003309301031092F9021092FA02C3
:100580001092FB021092FC02409194005091950051
:100590004C595F4F9A01261B370B2C153D0518F45B
:1005A000AB014C0D5D1D4115510511F441E050E0CA
:1005B00041505109509399004093980082E088BBC4
:1005C000809171008260809371001F910F91FF9064
:1005D000EF90DF90CF900895CF9380912604909173
:1005E0002704A0912804B09129044091FC07509160
:1005F000FD076091FE077091FF07CFB7F894409315
:10060000FE025093FF0260930003709301038093F6
:10061000F9029093FA02A093FB02B093FC020E94AD
:100620005302CFBF8091FC079091FD07A091FE0778
:10063000B091FF074091260450912704609128044F
:1006400070912904840F951FA61FB71F8093FC0784
:100650009093FD07A093FE07B093FF07CF910895F5
:100660001F93CF93DF931FB7F8948091000290E01F
:10067000880F991FDC01AC5CBD4FED91FC91119787
:10068000309749F4FC01EE5AFB4F118210828FE043
:100690000E94FD001CC02281338111963C932E9351
:1006A000232B29F48E5A9B4FEC01B983A8838081B8
:1006B00091819093310480933004F0934A04E09345
:1006C0004904F0933302E09332020E94EC021FBF10
:1006D000DF91CF911F910895813049F4662339F05D
:1006E0009FB7F89482B122E0822782B99FBF089514
:1006F000CF93CFB7F89480911D0281110BC081E098
:1007000080931D021092080289E00E94FD00CFBF75
:1007100080E01FC08091FD028F3FC9F481E090E02E
:10072000E0910902EE2311F080E090E0892B79F44A
:1007300080910A028F3F19F410920A0204C0F0E07F
:10074000E350FD4F10821092090280E001C085E065
:10075000CFBFCF910895CF93DF932FB7F894C09177
:100760002E04D0912F04CE018F5E9E4F90932F04C4
:1007700080932E042FBF84E00E94FD00CE0168EB21
:1007800070E00E94011982599F4FDF91CF91089527
:1007900064307105E8F02FB7F894E0915204F091BD
:1007A0005304309719F42FBF81E00895DC011196AE
:1007B0007C936E9313961C921E9212979183808362
:1007C000029690935304809352042FBF80E00895C3
:1007D00082E0089580910002811103C088E022E048
:1007E00002C080E02FE14FB7F8949091D6029E7F2F
:1007F0009093D60290917C00592F5F7192959695B7
:100800009695937011F431E0251330E09091D60263
:1008100030FB91F92F71322F330F330F9378932BD5
:100820009093D60220937C002091D60221708830CC
:1008300019F58091500490915104863831E0930766
:1008400080F4833C910578F48136910570F480330F
:10085000910568F48831910560F40C9760F082E0AE
:100860000BC087E009C086E007C085E005C084E0D2
:1008700003C083E001C080E087708860806120FB56
:1008800085F98064806880937A004FBF0895CF9384
:10089000CFB7F89480911E02823029F580910B0227
:1008A000811121C080910D028F3FB1F0E82FF0E05F
:1008B000E152FD4F908190930D029F3F11F4909370
:1008C0000C029FEF908380930B0281E080931E02C5
:1008D00080E00E94FD0004C080930B0210921E0273
:1008E000CFBF80E002C0CFBF81E0CF910895CF930A
:1008F000CFB7F89480911D02823041F580910802B3
:10090000811124C080910A028F3FB1F0E82FF0E0FE
:10091000E350FD4F908190930A029F3F11F4909312
:1009200009029FEF90838093080281E080931D026B
:1009300089E00E94FD0004C08093080210921D020D
:100940008CB58F7B8CBDCFBF80E002C0CFBF81E074
:10095000CF9108950F931F93CF93CFB7F8948091C1
:100960001802833009F042C08091020281113EC01A
:10097000809118048823E9F12091190230E0C9011F
:10098000019661E070E08130910511F480E090E023
:10099000E82FE695E695E695F0E0E85EFB4FA0814E
:1009A000482F47708B0102C0000F111F4A95E2F7D4
:1009B000A801BA2FB02331F040954A234083809399
:1009C000190206C08217930711F00196DCCF8FEF52
:1009D0008093EB028FEF8093020281E080931802F4
:1009E0008BE00E94FD00CFBF80E00CC0CFBF81E054
:1009F00009C081E0809302021092180280931702CE
:100A00008DE0EFCFCF911F910F9108950F931F931A
:100A1000CF93CFB7F89480911402833009F042C08D
:100A20008091010281113EC0809137028823E9F153
:100A30002091150230E0C901019661E070E081303B
:100A4000910511F480E090E0E82FE695E695E695B3
:100A5000F0E0E95CFD4FA081482F47708B0102C098
:100A6000000F111F4A95E2F7A801BA2FB02331F009
:100A700040954A2340838093150206C0821793074E
:100A800011F00196DCCF8FEF80934F028FEF8093B0
:100A9000010281E0809314028EE00E94FD00CFBF2E
:100AA00080E00EC0CFBF81E00BC081E080930102E7
:100AB0001092140280917A008F7780937A00EFCFA2
:100AC000CF911F910F9108950E946F01809124048E
:100AD0008E7F8069809324040C94D300CF93DF939E
:100AE0001F92CDB7DEB789830E94B70089818068E5
:100AF0008EBD80E00E94B0000E94AB0089830E94FE
:100B00009E0089810F90DF91CF910895BC0181E013
:100B10008093020380932504809184009091850046
:100B20000C944A011F93CF93DF931F92CDB7DEB78A
:100B3000182F69830E94B700912F906C9EBD898108
:100B40000E94B0000E94AB000F90DF91CF911F91E7
:100B50000C949E00811110C08091BB0090914404C0
:100B6000E091DA02F091DB02E90FF11D80838091C0
:100B700044048F5F809344042091440480912302B5
:100B8000281788F430E090E001972817390749F4D6
:100B900080910B0882FD05C0809124048F7B809397
:100BA00024040C94D30080912404282F2E7F90914C
:100BB0000B0891FF0AC09D7F90930B08822F8061E4
:100BC000809324048091B90003C08E77809324041D
:100BD0000E94D30081E080931B0208958F929F9220
:100BE000AF92BF92CF92DF92EF92FF920F931F933B
:100BF000E0912104E1FF5BC0C0901904D0901A0479
:100C0000E0901B04F0901C0480901D0490901E0442
:100C1000A0901F04B09020048B019C010C191D09A9
:100C20002E093F09081519052A053B0508F43FC0A0
:100C3000E0FF04C0ED7FE09321040EC0D501C401A4
:100C40008C0D9D1DAE1DBF1D8093190490931A0439
:100C5000A0931B04B0931C049FB7F89480911802D2
:100C6000882349F020910202213011F080E004C075
:100C700081508230D8F781E09FBF8823C1F01FB731
:100C8000F89480910202813089F4809118028130B9
:100C900021F48BE00E94FD0009C0823039F480917C
:100CA000EB028093020283E0809318021FBF86E06C
:100CB0001F910F91FF90EF90DF90CF90BF90AF907A
:100CC0009F908F900C94FD00CF93DF93FC01828165
:100CD00090E0982F88272181822B85FF14C087748C
:100CE0009C7C8134984879F4C781D0E0DC2FCC27F4
:100CF0008681C82B0E94F50021E0C817D90709F0AA
:100D000020E0822F01C080E0DF91CF9108958CB563
:100D10008F7B8CBD229A2398219A0E94A0008CB5CB
:100D200080618CBD8CB58F778CBD8CB5877F8CBD79
:100D30008CB58B7F8CBD8CB580648CBD8DB581608E
:100D40008DBD8CB58C7F8CBD0895CF938FB7F894F3
:100D500090910802911106C090911D02923011F4F9
:100D60008FBF13C08FBFCFB7F89480911D02811140
:100D70000EC082E080931D02109208020E94870636
:100D8000CFBF0E94A0000E949E0081E004C0CFBFA0
:100D90000E94780380E0CF91089580911C028330F7
:100DA000B9F580910402811133C0809106028F3F12
:100DB000C1F0E82FF0E0EB5AFB4F908190930602D0
:100DC0009F3F11F4909305029FEF9083809332042C
:100DD0009093040281E080931C028AE00E94FD004F
:100DE00019C081E08093040210921C0280911B02C2
:100DF000813081F40E946F01809124048A7680936F
:100E000024040E94D3005898599810921B0202C0E3
:100E100081E0089580E008950E946F01809124048C
:100E20008A7F809324040E94D3000E946F018091E6
:100E300024048460809324040E94D30081E0809382
:100E40001B0280911A02811108C080910302811156
:100E500004C00E9464050C94CD060895809144045A
:100E600090912302891780F4E091DA02F091DB027D
:100E7000E80FF11D80818093BB00809144048F5F57
:100E8000809344040C94D30080912404282F2E7F57
:100E900090910B0891FF06C09D7F90930B08822FC5
:100EA000806101C08E77809324040E94D30081E08A
:100EB00080931B0280910302811104C00E9464058B
:100EC0000C94CD060895CF93EF983B9A439A3E9A9F
:100ED0004698469A809107021092D8028093D902D0
:100EE0002FB7F89480911C02811140C081E080935B
:100EF0001C02109232042FBFCFB7F89480911B02CE
:100F000081111AC0589A599A509851981092B90064
:100F100081E48093B8001092BA001092BC000E9445
:100F20006F01809124048E7F8460809324040E944A
:100F3000D30081E080931B02CFBFCFB7F89480919C
:100F40000402813089F480911C02813021F48AE00E
:100F50000E94FD0009C0823039F4809132048093F0
:100F6000040283E080931C02CFBF20C08091320432
:100F70008823D9F0809155048F3FB9F481E090E047
:100F8000E0910502EE2311F080E090E0892B69F4F6
:100F9000809106028F3F19F41092060204C0F0E01F
:100FA000EB5AFB4F1082109205022FBF0E9477016F
:100FB0006093190470931A0480931B0490931C048B
:100FC00080EB94E0A0E0B0E080931D0490931E04B9
:100FD000A0931F04B093200480912104816082605B
:100FE0008093210486E00E94FD0080E0CF91089567
:100FF0003F924F925F926F927F928F929F92AF92A9
:10100000BF92CF92DF92EF92FF920F931F93CF93F5
:10101000DF9300D000D0CDB7DEB79C838B83809167
:10102000200281114BC080910208853009F046C032
:1010300080913904811142C00E94A5068823F1F1F4
:10104000CB80DC8022E8C20ED11CF601808182FFB9
:1010500007C0EB81FC81ED57FF4F61816F7001C0CC
:1010600060E080918803681731F0609388036068BE
:1010700085E00E949205EB81FC81828190E0982FAF
:1010800088272181822B87749C7C81349848C1F405
:1010900086E00E946E058F7190E04091F4022091ED
:1010A000E00230E0240F311D43E0359527954A9545
:1010B000E1F72817390724F40E94770485E0A8C0D7
:1010C00069E082E00E9492050E9425012B013C010B
:1010D0000B811C810F5F1F4FEB81FC81F080F601BB
:1010E00080819EEF392E3F0C84FF0AC0BBEF8B2E10
:1010F0008F0C2B813C81201B310B820E381802C0D3
:10110000832C312C81E00E946E058F71893029F08B
:1011100066E082E00E949205CFCF8FB7F8942F9AB5
:10112000A0908400B09085008FBF0E949C000E9418
:10113000B70080E68EBD8F2D0E94B0007801982CFC
:10114000900EF70181917F010E94B0009E10F9CFAF
:101150008A94912C7801E80CF91CA4014F5F5F4F31
:10116000400F511F95012E553F4F24193509490154
:10117000AA2497FCA094BA2C840C951CA61CB71C1E
:10118000332059F1F70181814280512C612C712C5F
:10119000320155244424782A8481482A8381582A9C
:1011A000D301C20188199909AA09BB0984839383D1
:1011B000A283B18310E0FA01E10FF11D8081498320
:1011C0005A830E94B0001F5F49815A811311F3CFE7
:1011D000F70144825382628271820E94AB000E94B6
:1011E0009E0066E082E00E949205F60180818260A6
:1011F0008083EB81FC81E258FF4F80829182A28242
:10120000B38286E08093020884E08093200280E02D
:101210000F900F900F900F90DF91CF911F910F9132
:10122000FF90EF90DF90CF90BF90AF909F908F9006
:101230007F906F905F904F903F9008953F924F92B4
:101240005F926F927F928F929F92AF92BF92CF9256
:10125000DF92EF92FF920F931F93CF93DF9300D013
:101260001F92CDB7DEB749E0842E55E0F52E64E03D
:10127000E62E72E0C72EDD24D394E8E0BE2EF0E225
:101280009F2EA0E8AA2E80913904882309F4D3C0A8
:1012900080910208813009F4CEC00E94A5068823FF
:1012A00009F4C9C08FB7F8946090F7027090F80203
:1012B0008FBF109239048FE00E946E05182F809125
:1012C00020028B7F833021F4F0920208B09220023A
:1012D00012FF51C080912002863011F4109220023A
:1012E00080912002811147C01430D1F586E00E9420
:1012F0006E058F719091E002292F26952695921BFD
:10130000980F9093E00220912E0230912F02F90164
:10131000EE57FF4F90819B7F986090833196818339
:101320000E942501A30147505109461B570B2A0172
:10133000662457FC6094762C20912E0230912F0267
:10134000F901EE57FF4F4081426040833497460ECB
:10135000571E681E791E408251826282738209C0C4
:10136000E0912E02F0912F02EE57FF4F8081857F92
:101370008083F092200213FF5EC0809120028430AF
:1013800009F048C0F09202081092200280913602C3
:10139000833019F4109236024EC0E0910908F091A2
:1013A0000A08828190E0982F88272181822B85FF6F
:1013B00026C087749C7C8134984809F5878190E029
:1013C000982F88272681822B21E030E0019611F4A6
:1013D00020E030E0232B99F08091250481110FC08B
:1013E000C0920203D09225048091840090918500E0
:1013F00069E973E00E944A01C09236021CC0109253
:1014000036021092E90210925C04E092E8020E9417
:10141000220111C0853079F486E00E946E0590911A
:10142000F402292F26952695921B8F71980F909381
:10143000F4028092200280912002882309F455C290
:10144000893009F0C0C10E94B7009EBC0DB407FEF0
:10145000FDCF8EB51EBC0DB407FEFDCF8EB59DEF42
:10146000980F9D3708F075C01EBCE0912E02F091D8
:101470002F023F015FEF651A750A80839EEF492EA8
:10148000480E86E0841518F487E0582E01C0542CCD
:101490006A827B8200E010E0352C360C80E00E94EE
:1014A000B000AA81BB818D93BB83AA83682FC8013A
:1014B0000E94B9008C01BA813B12F0CF8FEF850DED
:1014C00090E00196860D971DE0912E02F0912F027B
:1014D00021812770223029F4209136022230B9F57B
:1014E0000BC03FB7F89421E040913304433008F03B
:1014F00020E03FBF222359F1742C75182C01780E7F
:1015000080E0741459F00E94B000F20181932F0121
:10151000682FC8010E94B9008C01F2CF0E94B00070
:10152000682FC8010E94B9008C0180E00E94B000C1
:10153000682FC8010E94B9008C010E94AB00E091A5
:101540002E02F0912F02ED57FF4F808304C00E94BE
:10155000AB0001E010E00E949E00F09202081092A1
:101560002002012B09F0B8C140902E0250902F02AA
:10157000D20111968C91119787709091360282302A
:1015800039F5923009F01AC1E0910908F0910A0882
:1015900013969C918381981311C180916F008D7F68
:1015A00080936F0010922504E0910908F0910A08D9
:1015B000EE57FF4F80818160808310923602109237
:1015C000E90210925C04E092E8020E942201F6C057
:1015D000911118C0C2010E946406882399F0F0920C
:1015E0008903C0928A0310928B03F2018381809356
:1015F0008C0389E893E00E94F807811103C083E01F
:10160000809336020091840010918500C2010E94EF
:101610006406882311F0045E1C4F1093110400939C
:10162000100480918400909185009801281B390B4B
:10163000C9011816190684F42091E902211109C084
:1016400020912504211108C00E948605A092E9027C
:1016500003C020682093E902D20119962C911997B2
:1016600030E0322F222718968C91282B80913C0253
:10167000A82FB0E0FD01EE0FFF1FE65CFB4F40819D
:10168000518160912A044217530759F4AD5FB74F57
:101690009C91961709F460C06F5F60932A046C9365
:1016A0001BC0EAE3F4E0A3E0B8E080E090E000E0F3
:1016B00010E0782F419151914217530779F48093AC
:1016C0003C02FC01ED5FF74F2081261709F444C06E
:1016D0006F5F60932A04608340E825C04D91562FC8
:1016E000541B452F151710F0702F412F0196853090
:1016F000910519F0072F142FDCCF70933C02872F30
:1017000090E0FC01EE0FFF1FE65CFB4F318320836E
:101710006F5F60932A04FC01ED5FF74F6083FC016B
:10172000E45FF74F108280912A04982F9F779F37AC
:1017300019F080913C0210C04F37D8F3E3E0F8E095
:10174000282F207890819F6798132083319698E006
:10175000E830F907B9F7EDCFD20113969C91E82F45
:10176000F0E0DF01A45FB74F8C91EC5CFB4F80FF92
:1017700004C08081981303C021C081608C93908342
:101780001FB7F894809133048330B8F4E091540487
:10179000E80FE33008F0E350F0E0EE0FFF1FEC5DE0
:1017A000FD4F70800181518240828F5F80933304AE
:1017B00083E00E94FD00472C502E1FBF50922F0245
:1017C00040922E0289C09FEF980F933008F06FC0AF
:1017D0009EEF980F9230E8F5109102081130B1F4A5
:1017E00080912504811135C00E949C0083E0809384
:1017F00002031093250480918400909185006BE290
:1018000073E00E944A01C09202083EC0833009F58D
:101810001330F9F40E94A5068823D9F08FE00E94C6
:101820006E058091810080648093810096BA8091DA
:101830006F00806280936F006091DC02606688E0D8
:101840000E94920566E082E00E949205E092020802
:101850001BC08091200281508230B0F48091020838
:10186000853091F40E94A506882371F063E082E040
:101870000E94920580916F008F7D80936F0010927F
:10188000390483E08093020880912002813041F482
:1018900090910208933001F52F9A809302081AC0A4
:1018A0008230D1F4809102088330B1F413C08730C4
:1018B00099F40E94A506882379F06091DC026066A5
:1018C00088E00E94920580910208853019F4E09228
:1018D000020802C0B092200280912002883029F4D0
:1018E0001092200281E00E94FD008091200281116F
:1018F0001CC0809102088530C1F4809139048111A7
:1019000014C080913602811110C08091E9028111CA
:101910000CC080912504811108C08091E8028230BA
:1019200021F4D092E8020E942201809120028111CC
:1019300003C087E00E94FD0080912504823009F0F9
:1019400089C01092250420910203223009F465C059
:10195000233009F46DC0213009F07CC080918400EF
:10196000909185006090100470901104681A790AB3
:101970008091E902803851F41092E9028091E802E6
:10198000823009F067C02093E8024FC087FF03C090
:1019900016141704F4F00091E5021091E60280910C
:1019A0003602811116C0C8010E94F807282F811144
:1019B00011C0F801EE57FF4F80818E7F8083D09257
:1019C000360210930A080093090883E08093E90225
:1019D00041C025E08091E902982F9F77913049F42A
:1019E000807882608093E9020E94AB030E948605A2
:1019F00031C087FF0BC01614170444F4A092E9020B
:101A0000C30129830E948605298102C01092E90240
:101A100020935C04D092E80208C010923602109223
:101A2000E90210925C04E092E8020E94220112C0D6
:101A300080910208823019F42093020809C0809135
:101A40002002863029F41092200281E00E946E0567
:101A50000E944C0D8FB7F8949091D7029130C1F449
:101A60001092D7028FBF0F900F900F90DF91CF9100
:101A70001F910F91FF90EF90DF90CF90BF90AF90AC
:101A80009F908F907F906F905F904F903F900895C0
:101A9000D092D7028FBFF7CB8FB7F8949091D7022F
:101AA000992329F090689093D7028FBF089591E011
:101AB0009093D7028FBF0C941E099FB7F894809122
:101AC000D70281508093D702803811F09FBF0895CC
:101AD00081E08093D7029FBF0C941E090F931F9340
:101AE000CF93DF931F92CDB7DEB78C018FE3F80160
:101AF000828780911F028F5F80931F0283830E94E1
:101B0000A2008091E80281110DC010932D04009372
:101B10002C0481E08093E80210922B040E942201A1
:101B200080E001C085E089830E945D0D89810F906E
:101B3000DF91CF911F910F910895CF938091520221
:101B400090E0982F882720915102822B9C012774C6
:101B50003C7C2134384849F0807399278164986827
:101B60008093510288E8809352028FE7809350025D
:101B70000E94F50080935802909359029FB7F89401
:101B800080910E029FBF809354021092550281E013
:101B900080935B028FEF80935602809357028FB73A
:101BA000F89490911E02911111C092E090931E0240
:101BB00010920B028FBF80E592E00E946E0DC82F3D
:101BC0008823D1F00E9447048C2F37C08FBF80E557
:101BD00092E09093DE028093DD02CFB7F89480917B
:101BE0001E0281110BC081E080931E0210920B0235
:101BF00080E00E94FD00CFBF80E01FC08091DF0227
:101C00008F3FC9F481E090E0E0910C02EE2311F0E7
:101C100080E090E0892B79F480910D028F3F19F4D8
:101C200010920D0204C0F0E0E152FD4F10821092BC
:101C30000C0280E001C085E0CFBFCF910895CF9323
:101C4000DF931F92CDB7DEB70E94A2008091E80219
:101C5000811119C080912002811115C08091020864
:101C6000813029F48091250481110DC002C0853096
:101C700099F083E0809320020E944C0D85E08093D0
:101C8000E80280E001C085E089830E945D0D8981C2
:101C90000F90DF91CF91089589E0F6CF2F923F9278
:101CA0004F925F926F927F928F929F92AF92BF926C
:101CB000CF92DF92EF92FF920F931F93CF93DF9318
:101CC0001F92CDB7DEB790E08231910508F018C5BC
:101CD000FC01EA59FF4F0C9437198FB7F89492E042
:101CE00090931E028FBF80910B02811109C58091D4
:101CF000DD029091DE020E946E0D882309F400C57A
:101D000089830E944704E091DD02F091DE0269813F
:101D1000A3C08091E8021092E802853009F04AC021
:101D200068E570E08CEE95E00E94C80368E570E01D
:101D30008CE996E00E94C80368E570E08CE497E0C7
:101D40000E94C8038FB7F89490911802911112C0A5
:101D500091E0909318021092EB028FBF80911702CE
:101D6000811104C08CE00E94FD0017C081E08093C7
:101D7000160213C09091EB02911102C08FBF0DC0EB
:101D80009091180490FD05C091609093180490E024
:101D900001C095E08FBF9111B3C480E890E0A0E04E
:101DA000B0E08093E1029093E202A093E302B0934B
:101DB000E402A6C49AEF980F923008F4A1C480936D
:101DC000E8029EC40E94A2002091E802213059F549
:101DD00080912B048F5F80932B04863020F58091B7
:101DE0002C0490912D043091E902311110C03091F2
:101DF000250431110CC09093E6028093E5022093F4
:101E0000E9020E94AB030E94860580E001C085E0E4
:101E100080935C04811102C083E001C082E0809362
:101E2000E80210E003C01092E80211E00E945D0D8C
:101E3000112309F465C460915C04E0902C04F090D7
:101E40002D04D7011A968C918F3309F059C46983F8
:101E50000E9447046981F70183850F90DF91CF913C
:101E60001F910F91FF90EF90DF90CF90BF90AF90B8
:101E70009F908F907F906F905F904F903F902F90AA
:101E80000C946C03E0915404F0E0EE0FFF1FEC5D46
:101E9000FD4FC080D1808FBFD6011A968C918F33B1
:101EA00001F50E94F5009FB7F89480915404E82F43
:101EB000F0E0EE0FFF1FEC5DFD4FD182C0828F5F1F
:101EC000833010F5809354048091330481508093C3
:101ED00033049FBF8FB7F894909133049111D2CF00
:101EE00027C1F601E780F12CFE2CEE248681E82A3A
:101EF0000E94F500E816F90619F0EF20E09499F633
:101F00008FB7F8948FBFCFCF10925404DDCFEFB7C7
:101F1000F8948091EE029091EF02A091F002B091BE
:101F2000F1021C012D019C01A20160E070E080E043
:101F300090E003E00E94481951016201E12CF12C6C
:101F400000E010E00E947F1959016A017B01F82F1F
:101F5000192F03E00E9448190F2F0E947F19590181
:101F60006A017B01F82F192F03E00E9448190F2FF7
:101F70000E947F1959016A017B01F82F192F03E094
:101F80000E9448190F2F0E947F1959016A017B0195
:101F9000F82F192F03E00E9448190F2F0E947F1974
:101FA00001E00E94481929013A0100E20E946319E8
:101FB00049015A01D301C201B695A7959795879516
:101FC000880D991DAA1DBB1DB7FF04C0BF770196E0
:101FD000A11DB11D8093EE029093EF02A093F00239
:101FE000B093F102EFBF2FB7F89490932F04809332
:101FF0002E042FBF85C38091D502811141C040912D
:1020000045045091460460914704709148042FB7ED
:10201000F8948091580490915904A0915A04B09179
:102020005B04C0902A02D0902B02E0902C02F0902A
:102030002D028C0D9D1DAE1DBF1D2FBF409345046D
:102040005093460460934704709348041092D5025D
:102050002FB7F89431E03093EA0280932A029093EC
:102060002B02A0932C02B0932D024093580450935E
:10207000590460935A0470935B042FBF0E949C0123
:102080000E9477012EC00E9477012FB7F89410921A
:10209000EA022FBF2091210421FF32C3C09019040E
:1020A000D0901A04E0901B04F0901C049B01AC013A
:1020B0002C193D094E095F0980901D0490901E0463
:1020C000A0901F04B0902004821A930AA40AB50AB3
:1020D0003FEF83169306A3063FE7B30609F0D4C289
:1020E0000FC30F90DF91CF911F910F91FF90EF9051
:1020F000DF90CF90BF90AF909F908F907F906F9028
:102100005F904F903F902F900C94EE058FB7F8940E
:1021100010922304109222041092010810920008D9
:10212000109222021092210210920F0410920E04BB
:102130008FBFE6C21FB7F89482E080931D020E9411
:1021400087061FBF809108028111DAC20E94A00099
:102150000E949E008091020881114CC08EEF91E098
:10216000019701960197E1F716980E949C0086E07E
:1021700090E0019701960197E1F7169A60E083E0FD
:102180000E94920568E082E00E9492058EEF91E045
:10219000019701960197E1F76DE48EE00E949205A8
:1021A00067EC89E00E94920560E885E00E94920554
:1021B000109288038FE08093DC026FE688E00E9433
:1021C00092052F9A81E0809302080F90DF91CF91C2
:1021D0001F910F91FF90EF90DF90CF90BF90AF9045
:1021E0009F908F907F906F905F904F903F902F9037
:1021F0000C9477040F90DF91CF911F910F91FF9076
:10220000EF90DF90CF90BF90AF909F908F907F9096
:102210006F905F904F903F902F900C944C0D8FB724
:10222000F894909132049093040293E090931C02EE
:102230008FBF809104029FB7F894809303029FBFE1
:1022400081115EC28FB7F89490910302911170CF03
:102250008FBF8FB7F89490911B02913009F068CF2F
:1022600092E090931B028FBF2FB7F8948DE290E01D
:102270009093ED028093EC0288ED92E09093DB0264
:102280008093DA0282E08093230283E080930B083C
:102290001092440410921A022FBF0E946F011FB7C0
:1022A000F894809124048F7E816E8093240484E0CE
:1022B00080931B020E94D3001FBF22C28FB7F894E5
:1022C0009091EB029093020293E0909318028FBFDB
:1022D0008091020244E0849FF0011124EF51FD4FF0
:1022E000C080D180E280F38081110AC28FB7F89458
:1022F00090911402911127C091E0909314021092D2
:102300004F028FBF9FB7F89480917A0080688093C6
:102310007A009FBF1FB7F89480910102813089F441
:1023200080911402813021F48EE00E94FD0009C0EA
:10233000823039F480914F028093010283E08093D0
:1023400014021FBF13C090914F02911102C08FBFA2
:102350000DC09091370290FD05C0916090933702B7
:1023600090E001C095E08FBF9111CAC1C0924B04AB
:10237000D0924C04E0924D04F0924E04C1C10F90F3
:10238000DF91CF911F910F91FF90EF90DF90CF9051
:10239000BF90AF909F908F907F906F905F904F9085
:1023A0003F902F900C946307EF9843983B9880914F
:1023B0001602813011F40E9463078FB7F8941092CF
:1023C000160210921702B4CE8FB7F89490914F0274
:1023D0009093010293E0909314028FBF80910102C9
:1023E00081118EC160914B0470914C0480914D0419
:1023F00090914E04109233021092320210924A04CD
:1024000010924904109231041092300480905004CC
:1024100090905104A12CB12C66587F4F8F4F9F4F45
:10242000E4EFCE2ED12CE12CF12CA70196010E94D5
:10243000151929013A019B01AC01C501B4010E94A3
:10244000F11866587F4F8F4F9F4FA70196010E944A
:10245000151969017A01A3019201C501B4010E9415
:10246000F118C60ED71EE81EF91EC0922604D0929F
:102470002704E0922804F0922904109200020F90A1
:10248000DF91CF911F910F91FF90EF90DF90CF9050
:10249000BF90AF909F908F907F906F905F904F9084
:1024A0003F902F900C94EA03209100023FB7F894DC
:1024B000822F90E0880F991FFC01EC5CFD4F118288
:1024C0001082DC01AE5ABB4FED93FC933FBF81E01D
:1024D00080930002211114C10E9406050E94AA04E3
:1024E00010980EC1209100023FB7F894822F90E01F
:1024F000FC01EE0FFF1FEC5CFD4F0190F081E02D21
:102500003FBF880F991F309721F00280F381E02DA3
:10251000FACF3FB7F894FC01EC5CFD4F11821082BA
:10252000DC01AE5ABB4FED93FC933FBF81E080933B
:1025300000022111E5C00E9406050F90DF91CF91A6
:102540001F910F91FF90EF90DF90CF90BF90AF90D1
:102550009F908F907F906F905F904F903F902F90C3
:102560000C94AA048FB7F894E090F202F090F30272
:10257000C0905604D09057041092F3021092F202C9
:102580008FBF809100028111BBC020911604309151
:1025900017042F5F3F4F3093170420931604F70161
:1025A00060E672E0CB0104974081DC014C93019618
:1025B0004281DC014C9301964481DC014C930196ED
:1025C0004681DC014C934281538116E05695479534
:1025D0001A95E1F7842F8C7091819370892B448137
:1025E000558104E0569547950A95E1F74073842B91
:1025F000468157815695479556954795407C842B43
:10260000DB018C9338966B5F7F4FB2E06E3C7B07AB
:1026100049F6C90164E670E00E940119892B61F452
:102620004FEF50E08091300290913102481B590BDE
:1026300050933102409330022093CB023093CA0270
:1026400090913002809131029093CD028093CC0220
:102650000E949D0D81110E94CB00B601C7010F9011
:10266000DF91CF911F910F91FF90EF90DF90CF906E
:10267000BF90AF909F908F907F906F905F904F90A2
:102680003F902F900C94C803181419041A041B04CB
:102690000CF027CD8092450490924604A092470406
:1026A000B092480421E02093D5022FB7F89431E08E
:1026B0003093EA0260932A0270932B0280932C02DB
:1026C00090932D028092580490925904A0925A043B
:1026D000B0925B042FBF0F90DF91CF911F910F91AC
:1026E000FF90EF90DF90CF90BF90AF909F908F9032
:1026F0007F906F905F904F903F902F900C949C0133
:102700000F90DF91CF911F910F91FF90EF90DF908D
:10271000CF90BF90AF909F908F907F906F905F9081
:102720004F903F902F9008958FB7F89408958FBFE2
:1027300008951F920F920FB60F9211240BB60F92AD
:102740002F933F934F935F936F937F938F939F93B9
:10275000AF93BF93EF93FF930E94EC002091B300DF
:1027600030E02F5F3F4F8091380290913902A09165
:102770003A02B0913B02820F931FA11DB11D8093BD
:10278000380290933902A0933A02B0933B027894B6
:102790000E949C01FF91EF91BF91AF919F918F910A
:1027A0007F916F915F914F913F912F910F900BBE51
:1027B0000F900FBE0F901F9018951F920F920FB69B
:1027C0000F9211240BB60F922F933F934F935F9369
:1027D0006F937F938F939F93AF93BF93EF93FF93E9
:1027E0000E94EC00FF91EF91BF91AF919F918F916B
:1027F0007F916F915F914F913F912F910F900BBE01
:102800000F900FBE0F901F9018951F920F920FB64A
:102810000F9211240BB60F922F933F934F935F9318
:102820006F937F938F939F93AF93BF93EF93FF9398
:102830002EB58091220490912304009739F0E09105
:102840000E04F0910F04E80FF91F208380910E040D
:1028500090910F04019690930F0480930E048CB511
:102860008F778CBD80910E0490910F0460912102AE
:10287000709122028617970708F03FC02091000848
:1028800030910108E0912204F0912304AC01465FED
:102890005F4F6417750708F4AB0141505109841765
:1028A0009507C8F42115310549F0D901A80FB91FC2
:1028B0006C916EBD0DB407FEFDCF04C01EBC0DB4FF
:1028C00007FEFDCF6EB5309721F0DF01A80FB91FCD
:1028D0006C930196E4CF4CB540684CBD2115310591
:1028E00031F0F901E80FF91F20812EBD01C01EBC97
:1028F00090930F0480930E0411C010922304109241
:1029000022041092010810920008109222021092E4
:10291000210210920F0410920E048EB5FF91EF91D8
:10292000BF91AF919F918F917F916F915F914F91E7
:102930003F912F910F900BBE0F900FBE0F901F90E5
:10294000189578941F920F920FB60F9211240BB620
:102950000F922F933F934F935F936F937F938F9338
:102960009F93AF93BF93EF93FF9380916F008D7F01
:1029700080936F0078948FB7F894909125049130EC
:1029800019F492E0909325048FBF0E944C0DFF91A3
:10299000EF91BF91AF919F918F917F916F915F91D7
:1029A0004F913F912F910F900BBE0F900FBE0F9044
:1029B0001F90189578941F920F920FB60F921124C2
:1029C0000F900FBE0F901F90189578941F920F9242
:1029D0000FB60F9211240F900FBE0F901F901895F5
:1029E00078941F920F920FB60F9211240BB60F928C
:1029F0002F933F934F935F936F937F938F939F9307
:102A0000AF93BF93EF93FF93E6E8F0E0808191816D
:102A1000808191812FB7F8949093F8028093F70208
:102A200081E0809339042FBF0E944C0DFF91EF91FC
:102A3000BF91AF919F918F917F916F915F914F91D6
:102A40003F912F910F900BBE0F900FBE0F901F90D4
:102A5000189578941F920F920FB60F9211242F930E
:102A60008F939F93AF93BF932FB7F89480911204E5
:102A700090911304A0911404B09115040196A11D26
:102A8000B11D8093120490931304A0931404B09387
:102A900015042FBFBF91AF919F918F912F910F90F0
:102AA0000FBE0F901F9018951F920F920FB60F92A6
:102AB00011240F900FBE0F901F9018951F920F9228
:102AC0000FB60F9211240F900FBE0F901F90189504
:102AD0001F920F920FB60F9211240F900FBE0F90FE
:102AE0001F9018951F920F920FB60F9211240F90FE
:102AF0000FBE0F901F9018951F920F920FB60F9256
:102B000011240F900FBE0F901F9018951F920F92D7
:102B10000FB60F9211240F900FBE0F901F901895B3
:102B20001F920F920FB60F9211240F900FBE0F90AD
:102B30001F9018951F920F920FB60F9211240F90AD
:102B40000FBE0F901F9018951F920F920FB60F9205
:102B500011240BB60F922F933F934F935F936F9374
:102B60007F938F939F93AF93BF93EF93FF930E94B5
:102B70006F0180911B028430A1F0863021F08330F8
:102B800009F04BC02BC08091B900887F90911A0248
:102B90009130F1F48034C9F483E080931B0281E02A
:102BA00022C080910B088E7F80930B0880912404B3
:102BB0008F7D809324049091B900987F9830C9F05C
:102BC0009091B900987F9031A1F00E940C0725C028
:102BD0008831D9F783E080931B0208C080911A02E4
:102BE000813021F480E00E94AA0517C00E942E07C0
:102BF00014C080648093240491E080911A02813093
:102C000009F090E08091EC02880F892B8093BB0043
:102C100086E080931B020E94D300FF91EF91BF9149
:102C2000AF919F918F917F916F915F914F913F9164
:102C30002F910F900BBE0F900FBE0F901F90189505
:102C40001F920F920FB60F9211240BB60F922F9373
:102C50003F934F935F936F937F938F939F93AF9324
:102C6000BF93CF93EF93FF93809178009091790079
:102C700078943FB7F8942091D60221703FBF21117C
:102C800067C020917A00277F20937A00209100026C
:102C9000213009F47BC02091300430913104232B82
:102CA00059F40E9430026093FC077093FD078093F3
:102CB000FE079093FF0746C0E0913202F091330285
:102CC000AF014E5F5F4F50933302409332029183C6
:102CD00080832091300430913104220F331F809182
:102CE000490490914A04820F931F4817590769F5C8
:102CF000CFB7F8948091F2029091F302892B71F092
:102D0000E0910002F0E0EE0FFF1FEE5AFB4F118240
:102D1000108280E10E94FD00CFBF38C08091300456
:102D20009091310490935704809356048091490404
:102D300090914A049093F3028093F202CFBF81E115
:102D40000E94FD000E94300321C00E94EC021EC0C0
:102D50008FB7F8948FBF2FB7F89480917A0086FBD5
:102D6000992790F9877F806190FB86F98F77809310
:102D70007A00877F80618F7B8F7780937A00877F4F
:102D800080618F7B806880937A002FBFFF91EF91E5
:102D9000CF91BF91AF919F918F917F916F915F91F3
:102DA0004F913F912F910F900BBE0F900FBE0F9040
:102DB0001F90189578941F920F920FB60F921124BE
:102DC0000BB60F922F933F934F935F936F937F9325
:102DD0008F939F93AF93BF93CF93EF93FF93809184
:102DE00071008D7F809371007894CFB7F8948091B3
:102DF000F9029091FA02A091FB02B091FC02892B9A
:102E00008A2B8B2B19F40E94EA0302C00E94530202
:102E1000CFBFFF91EF91CF91BF91AF919F918F91D4
:102E20007F916F915F914F913F912F910F900BBECA
:102E30000F900FBE0F901F90189578941F920F92CD
:102E40000FB60F9211240F900FBE0F901F90189580
:102E500078941F920F920FB60F9211240F900FBE0D
:102E60000F901F90189578941F920F920FB60F92A3
:102E700011248F939F9380919600909197009F913A
:102E80008F910F900FBE0F901F90189578941F92FE
:102E90000F920FB60F9211242F938F939F932FB7FA
:102EA000F8948091F5029091F60201969093F602C3
:102EB0008093F5022FBF9F918F912F910F900FBE9E
:102EC0000F901F901895CFB7F89414BE88E10FB6F5
:102ED000F89480936000109260000FBE42E150E0D1
:102EE0006FEF70E08DE392E00E9497198FEF80936F
:102EF0004F048093080856985E9854985C98809187
:102F00006F008F7D80936F000E94A0000E949E0042
:102F1000279A0E949C000E9A169A83E093E0909361
:102F20002F0280932E021092F4028AE58093E00231
:102F300081E08093810080E28093B60083E08093FB
:102F4000B10080918400909185004AE7209184002F
:102F5000309185002817390708F44150442311F0B7
:102F6000C901F4CF8091B2009091B2009817E1F3BB
:102F700020918400309185008091B2009091B20040
:102F80009817E1F380918400909185004096821B10
:102F9000930B25E0969587952A95E1F79093510438
:102FA000809350041092B100109281001092B600EC
:102FB0001092B20010928500109284008FEF87BBB0
:102FC00086BB8091B6008571E1F70A9A099A089A42
:102FD000129A119A109A18B88FEF87B90C98149812
:102FE00010929500109294008091710081608093FE
:102FF000710080919100887F82608093910080E0D1
:10300000877F8F7E8F7D8F7B8F7780937A00109262
:1030100085001092840080916F00816080936F0022
:1030200080918100887F8260809381000E94D80017
:103030008F3F19F00E944E0EF9CF1092370224E311
:1030400032E030935304209352041092180480937A
:1030500055048093FD020E9478038091B60080623F
:103060008093B6008091B60081FDFCCF82E0809312
:10307000B0008091B60080FDFCCF83E08093B1006A
:103080008091B60083FDFCCF86EE8093B3008091E3
:1030900070008260809370000E949C012091110258
:1030A00030911202C9010196A0E0B0E08093EE02D7
:1030B0009093EF02A093F002B093F1028DE594E0BB
:1030C000909325028093240282EE94E0909327024D
:1030D0008093260287E695E0909329028093280248
:1030E0008FEF9FEF90933B0480933A0490933D04BD
:1030F00080933C0490933F0480933E04909341045A
:103100008093400490934304809342042295207F4F
:1031100020931F028093DF020E94D8008F3F19F096
:103120000E944E0EF9CFCFBF78940E941F0ECFB7EA
:10313000F8940E94D8008F3F09F04FC08091700032
:10314000837099F08091B6008A71E1F78091B300A5
:103150009091B200891B8C3010F492E007C08091EE
:10316000B200853FD0F793E001C095E080916E00FA
:103170008670E9F480916F008E72C9F480917100BD
:103180008E72A9F40CB407FC12C08091C100887142
:1031900071F48091C900887151F48091BC0082FD66
:1031A00006C080917A0087FF04C0E1E003C0E0E040
:1031B00001C0E5E083B79E1708F4E92FF0E0E05185
:1031C000FF4FE491807F81608E2B83BF7894889538
:1031D000F89483B78E7F83BFACCFCFBF0E944E0ED3
:1031E000A6CFDB018F939F930E943D19BF91AF91B2
:1031F000A29F800D911DA39F900DB29F900D112451
:103200000895AA1BBB1B51E107C0AA1FBB1FA6172D
:10321000B70710F0A61BB70B881F991F5A95A9F77F
:1032200080959095BC01CD010895A1E21A2EAA1BAC
:10323000BB1BFD010DC0AA1FBB1FEE1FFF1FA21766
:10324000B307E407F50720F0A21BB30BE40BF50B63
:10325000661F771F881F991F1A9469F760957095EC
:10326000809590959B01AC01BD01CF010895EE0FB3
:10327000FF1F0590F491E02D09940E948819A59FE5
:10328000900DB49F900DA49F800D911D1124089561
:103290000F93083090F0982F872F762F652F542F9B
:1032A000432F322F22270850F4CF220F331F441F01
:1032B000551F661F771F881F991F0A95B2F70F9138
:1032C000089597FB10F8169400080F93083098F0B3
:1032D0000850232F342F452F562F672F782F892FF3
:1032E000902DF4CF05949795879577956795579589
:1032F0004795379527950A95AAF70F9108952A19AA
:103300003B094C095D096E097F09800B910B0895FB
:10331000A29FB001B39FC001A39F700D811D112416
:10332000911DB29F700D811D1124911D0895DC0126
:1033300001C06D9341505040E0F70895F894FFCFDD
:10334000010101FF01FFFF40FFFFFFFFFFFF22011F
:043350000001000078
:00000001FF
