S01700006275696C642F697269732F6D61696E2E7372656343
S11300000C9408020C9427020C9427020C942702E7
S11300100C9427020C9427020C9427020C942702B8
S11300200C9427020C9427020C9427020C942702A8
S11300300C9427020C94BB2B0C9427020C94FF2BDA
S11300400C94122D0C94C32C0C94FC2C0C94072DA2
S11300500C944B2D0C9427020C9427020C94270229
S11300600C94272C0C94762D0C9427020C94EA2DD6
S11300700C9427020C9427020C9427020C942C2F26
S11300800C940B2F0C94162F0C94212F0C943F2FAF
S11300900C94EF2E0C9427020C94002F0C9427023E
S11300A00C9427020C9427020C9427020C94270228
S11300B00C9427020C9427020C9427020C94270218
S11300C00C9427020C9427020C942702F00BF00BDB
S11300D0F00BF40BF40BF40BF40BF40BF40BF40B28
S11300E0F40BF40BF40BF40BF40BF40BF40BF40B14
S11300F0F20BF20BF20BF20B7419741974197C19CC
S11301007C197C197C197C197C197C197C197C1943
S11301107C197C197C197C197C197C19781978193B
S113012078197819911C911C911CB61CB61CB61C2C
S1130130B61C931C961C9A1C9D1CA01CA41CA81CD9
S1130140B61CB61CB61CB61CAD1CAF1CB11CB31C33
S1130150761D761D761D9B1D9B1D9B1D7E1D821D80
S1130160861D8A1D9B1D9B1D9B1D9B1D9B1D9B1DF1
S11301709B1D941D941D941D941D111E111E111E72
S1130180111E191E191E191E191E191E191E191EBB
S1130190151E151E151E151E9F20BD20DB200B20CD
S11301A04E206D206D207B207B20F92125226D229D
S11301B0EF221423352351239223ED2338269B2643
S11301C0422656263728C126D8262F2748287428A1
S11301D0A028B328C928DC28AA29CE29E229ED2998
S11301E00D2A6B2B832B3728C6273B28A42BA42B43
S11301F0A42BCA27E52703281C284F2E5A2E6F2E1E
S1130200B82EBF2EC62ECD2ED42E00020E060C0400
S113021000002110422063308440A550C660E7707E
S1130220088129914AA16BB18CC1ADD1CEE1EFF126
S11302303112100273325222B5529442F772D662CE
S1130240399318837BB35AA3BDD39CC3FFF3DEE376
S11302506224433420040114E664C774A44485541E
S11302606AA54BB528850995EEE5CFF5ACC58DD5C6
S11302705336722611163006D776F6669556B4466E
S11302805BB77AA719973887DFF7FEE79DD7BCC716
S1130290C448E5588668A7784008611802282338BE
S11302A0CCC9EDD98EE9AFF9488969990AA92BB966
S11302B0F55AD44AB77A966A711A500A333A122A0E
S11302C0FDDBDCCBBFFB9EEB799B588B3BBB1AABB6
S11302D0A66C877CE44CC55C222C033C600C411C5E
S11302E0AEED8FFDECCDCDDD2AAD0BBD688D499D06
S11302F0977EB66ED55EF44E133E322E511E700EAE
S11303009FFFBEEFDDDFFCCF1BBF3AAF599F788F55
S11303108891A981CAB1EBA10CD12DC14EF16FE135
S11303208010A100C230E32004502540467067606D
S1130330B9839893FBA3DAB33DC31CD37FE35EF385
S1130340B1029012F322D2323542145277625672BD
S1130350EAB5CBA5A89589856EF54FE52CD50DC5D5
S1130360E234C324A014810466744764245405440D
S1130370DBA7FAB79987B8975FE77EF71DC73CD725
S1130380D326F2369106B01657667676154634565D
S11303904CD96DC90EF92FE9C899E9898AB9ABA975
S11303A04458654806782768C018E1088238A328AD
S11303B07DCB5CDB3FEB1EFBF98BD89BBBAB9ABBC5
S11303C0754A545A376A167AF10AD01AB32A923AFD
S11303D02EFD0FED6CDD4DCDAABD8BADE89DC98D15
S11303E0267C076C645C454CA23C832CE01CC10C4D
S11303F01FEF3EFF5DCF7CDF9BAFBABFD98FF89F65
S1130400176E367E554E745E932EB23ED10EF01E9C
S113041011241FBECFEFD1E2DEBFCDBF12E0A0E0BA
S1130420B2E0E2EBF5E600E00BBF02C007900D92EC
S1130430A435B107D9F726E0A4E5B2E001C01D92C6
S1130440A43EB207E1F70E948C2F0C94D7320C948F
S113045000005D980895139A0895119A08952F98AD
S11304600895289A0895209A0895FC01CB014383A6
S1130470528361839083BA010895FC0120816181D4
S1130480862F90E0A0E0B0E077276627922B2381A7
S1130490622B2281722B08959FB7F8948091820376
S11304A08F5F809382039FBF08950DB407FEFDCF35
S11304B08EB50895982F0DB407FEFDCF8EB59EBD61
S11304C00895289808958627082E8295807F802590
S11304D0092E982F82958F7008268695982789274C
S11304E0880F880F880F802508951092B405109204
S11304F0B30584E08093AA03109298051092D30563
S11305001092AF031092E5041092E40408958091D0
S1130510DA058F3F71F0E82FF0E0ED52FD4F908146
S11305209093DA059F3F11F49093BC069FEF90835C
S113053008958FEF08958091B0008093B00080916A
S1130540B60081FDFCCF08959FB7F894E82FF0E042
S1130550ED52FD4F20812F3FC9F421E030E0E091BE
S1130560BC06E81711F020E030E0232B79F4209149
S1130570DA052F3F19F48093DA0504C0F0E0ED5258
S1130580FD4F80838093BC0680E001C085E09FBF5F
S1130590089587E00C94A402CF93CFB7F894809188
S11305A0B506811108C086E10E94A402811103C02E
S11305B081E08093B506CFBFCF9108959FB7F8949B
S11305C020910902281307C080916D02823019F42A
S11305D09FBF81E008959FBF80E008952FB7F894EE
S11305E03091B2008091CE029091CF02A091D002BE
S11305F0B091D102B99B0FC04091B3003091B200C9
S1130600BC01CD016F5F7F4F8F4F9F4F640F711DF2
S1130610811D911D02C0BC01CD01630F711D811D9F
S1130620911D2FBF0895CF939FB7F89420916E0228
S113063021111FC021E020936E028093AC059FBF5F
S1130640CFB7F89480910C02843089F480916E02C3
S1130650813021F481E10E94A40209C0823039F47E
S11306608091AC0580930C0283E080936E02CFBF2F
S113067005C02091AC05281303C09FBF80E022C0B1
S1130680E82FF0E0EF51FA4F20812F3FC9F421E029
S113069030E0E0910D02E81711F020E030E0232B68
S11306A079F420910E022F3F19F480930E0204C0B6
S11306B0F0E0EF51FA4F808380930D0280E001C097
S11306C085E09FBFCF91089580918C058A3021F4F5
S11306D08091AA03843021F081E08093660208951A
S11306E088E10E94A4021092660208952F923F921C
S11306F04F925F926F927F928F929F92AF92BF922E
S1130700CF92DF92EF92FF920F931F93EFB7F8947B
S11307108091BF039091C003A091C103B091C20323
S11307201C012D019C01A20160E070E080E090E0DA
S113073003E00E94713251016201E12CF12C00E0CE
S113074010E00E94A83259016A017B01F82F192F89
S113075003E00E9471320F2F0E94A83259016A01EE
S11307607B01F82F192F03E00E9471320F2F0E9492
S1130770A83259016A017B01F82F192F03E00E9466
S113078071320F2F0E94A83259016A017B01F82FA0
S1130790192F03E00E9471320F2F0E94A83201E04A
S11307A00E94713229013A0100E20E948C3249010F
S11307B05A01C301B2019695879577956795680D9F
S11307C0791D8A1D9B1D97FF05C09F776F5F7F4F23
S11307D08F4F9F4F6093BF037093C0038093C103F7
S11307E09093C203EFBF1F910F91FF90EF90DF90A2
S11307F0CF90BF90AF909F908F907F906F905F90BD
S11308004F903F902F9008952FB7F894809117023E
S1130810909118022FBF08950F931F932FB7F89448
S11308208091DE049091DF04A091E004B091E10492
S11308300091840010918500B09B07C00196A11D12
S1130840B11D00918400109185002FBF7727662782
S113085020E030E0602B712B822B932B1F910F91A2
S11308600895EFB7F89420918400309185002D5FAE
S11308703F4FA901481B590B4617570718F49C0111
S1130880260F371F2115310511F421E030E02150E6
S11308903109309389002093880082E086BB8091DF
S11308A06F00826080936F00EFBF08950F931F93D2
S11308B0CF93DF938C012FB7F894C0918F05D0911B
S11308C09005CE018F5E9E4F9093900580938F0587
S11308D02FBF89E00E94A402CE01B8010E94123207
S11308E08A5D9E4FDF91CF911F910F910895E0E1B2
S11308F0F2E06927660FF11DE60FF11DC895982FE8
S1130900802D3196C89590250895CF93CFB7F8944C
S113091090916D0291110BC091E090936D028093C0
S1130920090282E10E94A402CFBF80E022C0E82F26
S1130930F0E0E557FC4F90819F3FC9F421E030E09F
S1130940E0910A02E81711F020E030E0232B79F45B
S113095090910B029F3F19F480930B0204C0F0E0C6
S1130960E557FC4F808380930A0280E001C085E054
S1130970CFBFCF91089581E10E94DE02882319F050
S113098085E10C94A40281E10C948504CF92DF925A
S1130990EF92FF920F931F9380936F026093CA05A7
S11309A0C901880F892F881F990B91958093CB05D6
S11309B0220F212B2093CC050093CD05D0928105E5
S11309C0C0928005F092CF03E092CE034093CA0315
S11309D080E11F910F91FF90EF90DF90CF900C94E6
S11309E0A402282F3FB7F8949BB1977D9BB980E070
S11309F027FD5B9A5D9A4A9980689BB926FD5B9AAC
S1130A005D9A4A9980649BB925FD5B9A5D9A4A99DF
S1130A1080629BB924FD5B9A5D9A4A9980619BB977
S1130A2023FD5B9A5D9A4A9988609BB922FD5B9A83
S1130A305D9A4A9984609BB921FD5B9A5D9A4A99B3
S1130A4082609BB920FD5B9A5D9A4A9981603FBFA1
S1130A500895CF92DF92EF92FF92CF93DF93282FE6
S1130A6030E04BE0849FF0011124E858FD4F4281AF
S1130A70538164817581452B462B472B69F0808116
S1130A809181880F991F918380838130944020F055
S1130A9080E094E0918380838BE0829FE001839FD8
S1130AA0D00D1124C858DD4F8E819F81A885B9854A
S1130AB08A839B83AC83BD83C880D980E12CF12CCD
S1130AC079E0CC0CDD1CEE1CFF1C7A95D1F70E945A
S1130AD0760328813981422F440FCB0160E0742FC3
S1130AE00E941232C80ED91EE11CF11CC901A0E0FB
S1130AF0B0E0EAE0880F991FAA1FBB1FEA95D1F75F
S1130B008C199D09AE09BF098E839F83A887B98775
S1130B108A819B81AC81BD818C0D9D1DAE1DBF1D45
S1130B208A839B83AC83BD83DF91CF91FF90EF9049
S1130B30DF90CF9008954FB7F894FC01B3E0F69599
S1130B40E795BA95E1F7ED57FA4F8770992721E0B9
S1130B5030E001C0220F8A95EAF78081822B8083DE
S1130B604FBF0895019701960197E1F70895909179
S1130B706702992311F081E00895823031F08330C7
S1130B8031F0813041F480E103C08EE001C08FE098
S1130B900E94850401C081E091E0811190E090936E
S1130BA06702992341F31092C70580E008958130CC
S1130BB041F080F0823041F0833049F060E078E029
S1130BC00BC060E071E008C060E072E005C060E066
S1130BD073E002C060E070E0CB01A0E0B0E0662703
S1130BE0782F892F9A2F08958091D1039091D20361
S1130BF0892BC1F581E090E09093BC058093BB05FF
S1130C0082EF92E09093D2038093D1031092AC03CD
S1130C101092AB0381E08093AD038091C0008064A7
S1130C208093C0008091C10080648093C100809152
S1130C30AB039091AC039C012F5F3F4F3093AC0307
S1130C402093AB03FC01EE50FD4F80819FB7F894D5
S1130C508093C6008091C00080648093C0009FBFD1
S1130C6080E0089585E0089593E8980F923050F459
S1130C709091550291609093550290E29827909339
S1130C8097058DE78093F2020C94F4059FB7F894CE
S1130C90809155028E7F809355028EE78093F202F5
S1130CA09FBF0C94F4050F931F93CF93DF93EC0134
S1130CB08C010B5F1F4F80E090E069910E947704E4
S1130CC0C017D107D1F7DF91CF911F910F910895EC
S1130CD0CF93CFB7F8948091710281110BC081E05A
S1130CE080937102109210028CE00E94A402CFBF84
S1130CF080E01FC08091CD038F3FC9F481E090E074
S1130D00E0911102EE2311F080E090E0892B79F458
S1130D10809112028F3F19F41092120204C0F0E085
S1130D20E353FC4F10821092110280E001C085E071
S1130D30CFBFCF9108952091600230916102232B9F
S1130D40B1F52FB7F89435E030935E0210925D024E
S1130D50909363028093620282E090E09093610238
S1130D608093600210925B0210925C02645F609355
S1130D705F022FBF8FB7F89490918C059A3011F4CD
S1130D808FBF17C08FBF9FB7F8948091D60381118E
S1130D9006C081E08093D6031092D70301C080E09F
S1130DA09FBF882331F00E94CC0280E0089585E043
S1130DB00895109261021092600281E0089590916A
S1130DC05402913011F0963061F41092540225E7E8
S1130DD034E0232B31F041E050E060E070E00C940B
S1130DE05C2F08958F929F92AF92BF92CF92DF9221
S1130DF0EF92FF920F931F93E62FF0E09BE0699F21
S1130E00D0011124A35CBB4F9C91911146C0643066
S1130E1018F4A0E0B1E002C0A0E0B0E04D01A12CC4
S1130E20B12CBA2CA92C982C882482169306A406DB
S1130E30B506A8F1821A930AA40AB50A8C149D0473
S1130E40AE04BF0460F19BE09E9FD0019F9FB00D54
S1130E501124A35CBB4F8C9313962D933D934D9318
S1130E605C9316971796CD92DD92ED92FC921A97A9
S1130E7012961C930E931197613049F030F0623052
S1130E8041F0633071F483E005C080E003C081E089
S1130E9001C082E00E94130304C085E003C086E021
S1130EA001C080E01F910F91FF90EF90DF90CF90F1
S1130EB0BF90AF909F908F900895CF92DF92EF9262
S1130EC0FF920F931F93C12CD12C760100E010E008
S1130ED020E030E0A901682F83E00E94F2061F9110
S1130EE00F91FF90EF90DF90CF9008959091700252
S1130EF091111FC08931D8F4E82FF0E0E55DFD4F72
S1130F008081813049F030F0823041F0833079F4CF
S1130F1082E005C080E003C083E001C081E00E945C
S1130F205D07811107C091E090937002089581E0FC
S1130F30089585E00895823031F0833031F08130B6
S1130F4039F485E003C083E001C084E00C947607A3
S1130F5081E00895813049F030F0823041F08330EF
S1130F6049F487E105C085E103C088E101C086E159
S1130F700C94760781E0089590915402913011F415
S1130F800C94AA070895CF92DF92EF92FF920F93E9
S1130F901F93C12CD12C760100E010E020E030E05A
S1130FA0A901682F82E00E94F2061F910F91FF9021
S1130FB0EF90DF90CF900895CF93C82F8091700267
S1130FC0811121C0C931E8F4EC2FF0E0E55DFD4F5B
S1130FD09081913049F030F0923041F0933089F4AF
S1130FE082E005C080E003C083E001C081E00E948C
S1130FF0C307811109C091E090937002C093B606B3
S113100003C081E001C085E0CF910895309154027E
S1131010333081F4E5E7F4E0EF2B61F08657944038
S113102049F4109254024F5F5F4F6F4F7F4F822FEE
S11310300C945C2F0895E62F20915402223081F401
S11310408D5B964069F41092540225E734E0232B1B
S113105039F041E050E060E070E08E2F0C945C2F9A
S11310600895482F862F209154022430A9F4109219
S1131070540225E734E0611107C0232B69F0409343
S113108077049093760402C0232B31F043E050E0C0
S113109060E070E00C945C2F0895CF93CFB7F89480
S11310A090916D02923029F590910902981321C014
S11310B080910B028F3FB1F0E82FF0E0E557FC4F31
S11310C0908190930B029F3F11F490930A029FEF3B
S11310D090838093090281E080936D0282E10E94F3
S11310E0A40204C08093090210926D02CFBF80E075
S11310F002C0CFBF81E0CF910895CF93CFB7F894CA
S113110090916E02933041F590910C02981324C093
S113111080910E028F3FC1F0E82FF0E0EF51FA4FBB
S1131120908190930E029F3F11F490930D029FEFD4
S113113090838093AC0590930C0281E080936E02BF
S113114081E10E94A40205C084E080930C02109205
S11311506E02CFBF80E002C0CFBF81E0CF9108957F
S1131160CF93CFB7F89480917202823029F58091A1
S11311701302811121C0809115028F3FB1F0E82F35
S1131180F0E0E957FC4F9081909315029F3F11F4D2
S1131190909314029FEF90838093130281E08093D5
S11311A0720285E00E94A40204C08093130210928C
S11311B07202CFBF80E002C0CFBF81E0CF9108951B
S11311C0CF93CFB7F89480917102823041F580912A
S11311D01002811124C0809112028F3FB1F0E82FD8
S11311E0F0E0E353FC4F9081909312029F3F11F47F
S11311F0909311029FEF90838093100281E080937B
S113120071028CE00E94A40204C080931002109228
S113121071028CB58F7B8CBDCFBF80E002C0CFBF85
S113122081E0CF910895CF92DF92EF92FF920F93D6
S11312301F93CF93CFB7F8942091B3009091B2004D
S113124087B3291711F081FF02C0CFBF78C0809106
S1131250B003811102C086EE3AC00E94EE020091F2
S1131260C4021091C5022091C6023091C702C090F9
S1131270E605D090E705E090E805F090E905601BED
S1131280710B820B930B6C157D058E059F0528F061
S11312901092B00386EE31E01BC0D701C601800F67
S11312A0911FA21FB31F4091CE025091CF026091B3
S11312B0D0027091D102841B950BA60BB70B873E0D
S11312C09105A105B10538F6823008F482E030E0DA
S11312D02FEF280F9091B60093FDFCCF9091B200B0
S11312E0291301C0282F8091CE029091CF02A091A2
S11312F0D002B091D102AC01BD014F5F5F4F6F4F7F
S11313007F4F420F511D611D711D481759076A0710
S11313107B0710F4282F20958091B60083FDFCCF25
S11313202093B300CFBF332351F081E0CF911F91BD
S11313300F91FF90EF90DF90CF900C94A402CF9187
S11313401F910F91FF90EF90DF90CF90089585E06B
S113135080936F0280E10C94A402CF92DF92EF920B
S1131360FF920F931F938091B702882341F01F913E
S11313700F91FF90EF90DF90CF900C94A7094091CC
S1131380EB04242F30E0C901880F991F820F931FAB
S1131390FC01ED50FD4F20813181FC01EB50FD4FEC
S11313A0808182FF04C0442331F068E807C04423ED
S11313B021F063E803C069E801C066E8CC24C39463
S11313C0D12CE12CF12C00E010E040E089E00E94F7
S11313D0C6041F910F91FF90EF90DF90CF90089576
S11313E0CF92DF92EF92FF920F931F93CF93C82F68
S11313F08091B702882349F0CF911F910F91FF90FC
S1131400EF90DF90CF900C94A7092C2F30E0F901D6
S1131410EE0FFF1FE20FF31FED50FD4F20813181CE
S1131420CC2311F060E601C061E6CC24C394D12C36
S1131430E12CF12C00E010E040E08AE00E94C604B8
S1131440C093E804CF911F910F91FF90EF90DF902C
S1131450CF900895CF93DF931F92CDB7DEB78983E2
S11314600E946102898180688EBD80E00E945A02D8
S11314700E94550289830E94310289810F90DF9175
S1131480CF910895BC0181E08093D30380937F05BD
S113149080918400909185000C9431041F93CF9324
S11314A0DF931F92CDB7DEB7182F69830E946102C4
S11314B0912F906C9EBD89810E945A020E94550210
S11314C00F90DF91CF911F910C94310290915A02A9
S11314D02091650291112FC081112DC041E04093EC
S11314E05A028091080280935902822F817080935E
S11314F0CA02809102029091030290935802809351
S113150057028091640280935602322F317034273F
S1131510267EE32FF0E0EE0FFF1FEC5FFD4F80818E
S113152091819093030280930202232B20936502FE
S11315308BE10C94A40220FF02C02B7F01C02D7FFD
S1131540209365020895CF93DF93D82FC62F8091FF
S1131550AA03813061F028F0823099F0833019F1C8
S1131560E4C0DD2309F423C10E947502F5C0D11142
S11315701EC16093D3058CEB860F823008F0D5C072
S1131580EDC0D111D2C06093AF038091E404909177
S1131590E5040E9477049093E5048093E40483E0D7
S11315A08093AA0304C1809198058F3F09F4BDC0BC
S11315B0DD2309F455C0823008F4B7C0E091B305C7
S11315C0EE2311F0E15001C0E2E0AE2FB0E0AD54E3
S11315D0BA4F12964C9150E0542F4427EE2311F049
S11315E0E15001C0E2E0F0E0ED54FA4F8281482B73
S11315F02091E4043091E5044217530709F095C0A3
S113160080E00E94660A8091D3058434E1F420913D
S1131610AF03E09198043091990481E08E0F8630F5
S113162010F4982F01C090E0931769F0F0E0E856A9
S1131630FB4F2283863018F48093980402C01092E2
S113164098040E94CC020E947502809155028D7FFD
S11316508093550280916602882309F4A8C073C060
S1131660823008F44DC0E091B405F0E0ED54FA4F37
S1131670228130916502932F969596959695937055
S1131680892F90E08130910519F0029781F01FC0F5
S1131690832F877E806180936502211102C085E0DB
S11316A001C080E0809364022093080210C08091FE
S11316B064028F3260F4E0910202F0910302E80FB9
S11316C0F11D2083809164028F5F80936402809176
S11316D0B405E82FF0E0ED54FA4F62818F5F833058
S11316E018F48093B40502C01092B4058091E40408
S11316F09091E5040E9477049093E5048093E404B8
S11317008091B305E82FF0E0ED54FA4FC2838F5F68
S1131710833018F48093B30502C01092B30580910E
S113172098058F5F8093980542C00E94750280914E
S113173055028D7F8093550281E00E94660A809154
S11317406602882339F084E08093AA03DF91CF9165
S11317500C946403DD2359F181E022CF8091E404E9
S11317609091E5040E9477049093E5048093E40447
S1131770C43411F482E001C083E08093AA03809111
S1131780650280FF04C082FDD0CF846003C081FD68
S1131790CCCF82608093650280916502877E8860E9
S11317A080936502109264028FEF80930802DF91A8
S11317B0CF91089580912402813019F480E00C9433
S11317C0A4020895109270024091B60650E0FA0106
S11317D03397E631F10540F4EA59FF4F0C945C323B
S11317E00C94DA0B0C94DF060895CF93DF93FC017D
S11317F0828190E0982F88272181822B85FF14C055
S113180087749C7C8134984879F4C781D0E0DC2FBC
S1131810CC278681C82B0E94040421E0C817D9076D
S113182009F020E0822F01C080E0DF91CF9108957C
S11318308CB58F7B8CBD229A2398219A0E94330207
S11318408CB580618CBD8CB58F778CBD8CB5877F52
S11318508CBD8CB58B7F8CBD8CB580648CBD8DB5F7
S113186081608DBD8CB58C7F8CBD0895CF938FB76F
S1131870F89490911002911106C0909171029230E7
S113188011F48FBF13C08FBFCFB7F894809171024A
S113189081110EC082E080937102109210020E94A6
S11318A0180CCFBF0E9433020E94310281E004C0B1
S11318B0CFBF0E94680680E0CF910895CF92DF9257
S11318C0EF92FF92CF93C82F6A017B010E94EE0230
S11318D029E0C29FF0011124E251FB4F6083718320
S11318E082839383C482D582E682F7828085816075
S11318F08260808782E0CF91FF90EF90DF90CF905D
S11319000C94A4020F931F93CF93DF93C1E9D5E006
S113191020919505215081E090E0A0E0B0E004C062
S1131920880F991FAA1FBB1F2A95D2F78883998312
S1131930AA83BB830E9476038B019C0188819981D1
S1131940AA81BB81AC01BD014150510961097109F2
S1131950662777274023512362237323480F591F97
S11319606A1F7B1F488359836A837B83E6E9F5E01A
S113197080818E7F8083EFEFF4E080818D7F808390
S113198081E0DF91CF911F910F910C945E0C8091B7
S11319909505893029F089E0809395050C94820C93
S11319A008950F931F930E94EE028B019C01809176
S11319B0000590910105A0910205B09103054091A5
S11319C07A0250917B0260917C0270917D024115F4
S11319D051056105710509F442C0FFB7F894E0911F
S11319E08305E0FD33C0081B190B2A0B3B0B0417BE
S11319F0150726073707C8F4401B510B620B730BFE
S1131A0080917A0290917B02A0917C02B0917D0238
S1131A10801B910BA20BB30B80937A0290937B02F1
S1131A20A0937C02B0937D0214C081E090E0A0E01A
S1131A30B0E080937A0290937B02A0937C02B093EF
S1131A407D0241E050E060E070E003C0EE7FE0938F
S1131A508305FFBF82E01F910F910C945E0C80916F
S1131A6008058D7F809308051F910F910895CF93EA
S1131A7081E090E090937902809378021092820240
S1131A8080917A0290917B02A0917C02B0917D02B8
S1131A90892B8A2B8B2BE9F0CFB7F89480E090E068
S1131AA00E949B05CFBF10927A0210927B02109283
S1131AB07C0210927D0210927E0210927F0210929C
S1131AC080021092810280E00E942905CF910C943B
S1131AD0D10CCF91089581159E4D11F40C94370DBE
S1131AE00895882351F00E94760377278827992741
S1131AF0605F7F4F8F4F9F4F0AC00E9476036F77BE
S1131B0077278827992760587F4F8F4F9F4FAB01C6
S1131B10BC0180E00C945E0C8230D1F028F4882360
S1131B2041F0813049F00895833091F1843081F19E
S1131B30089510927602089580917502853051F5CA
S1131B408091BE0381508093BE0380E00C94710D9C
S1131B508FEA94E0892BF1F08091B404E82FE695A4
S1131B60E695E695F0E0EA57FA4F282F277081E0D2
S1131B7090E001C0880F2A95EAF780959081892327
S1131B80808342E050E060E070E080E00C945E0C02
S1131B901092A6030895CF92DF92EF92FF920F93D3
S1131BA01F93CF93C82F6701780180917002811130
S1131BB02EC0C93150F5EC2FF0E0E55DFD4F80817A
S1131BC0813079F048F0823089F08330F1F4890172
S1131BD09A01AB0162E00EC089019A01AB0160E099
S1131BE009C089019A01AB0163E004C089019A012B
S1131BF0AB0161E081E00E94F206811109C091E02D
S1131C0090937002C093B60603C081E001C085E0E2
S1131C10CF911F910F91FF90EF90DF90CF90089597
S1131C20EF92FF920F931F938091AE032CE1829F5A
S1131C30C00111249C012258394FFC01E358F94F8B
S1131C40E08146E1E49FF0011124DC01A458B94F7E
S1131C504C9150E060E070E0BAE0440F551F661FFD
S1131C60771FBA95D1F74E0F5F1F611D711D8091CB
S1131C707402823059F0833081F08130B9F416E176
S1131C80E12EF12C00E010E085E00DC016E1E12E1C
S1131C90F12C00E010E083E006C016E1E12EF12C07
S1131CA000E010E084E00E94CB0D81111092F1025B
S1131CB01F910F91FF90EF900895CF92DF92EF92D2
S1131CC0FF920F931F93CF93C82F680179018091DE
S1131CD07002811132C0C93170F5EC2FF0E0E55D7E
S1131CE0FD4F8081813089F050F08230A1F0833043
S1131CF011F500E010E09A01AB0162E011C000E0D0
S1131D0010E09A01AB0160E00BC000E010E09A0122
S1131D10AB0163E005C000E010E09A01AB0161E0B3
S1131D2085E00E94F206811109C091E0909370024F
S1131D30C093B60603C081E001C085E0CF911F9136
S1131D400F91FF90EF90DF90CF900895CF92DF92A4
S1131D50EF92FF920F931F93CF93C82F67017801DF
S1131D608091700281112EC0C93150F5EC2FF0E042
S1131D70E55DFD4F8081813079F048F0823089F053
S1131D808330F1F489019A01AB0162E00EC089014C
S1131D909A01AB0160E009C089019A01AB0163E0DB
S1131DA004C089019A01AB0161E084E00E94F2065B
S1131DB0811109C091E090937002C093B60603C0EC
S1131DC081E001C085E0CF911F910F91FF90EF90CA
S1131DD0DF90CF900895EF92FF920F931F9381307D
S1131DE049F030F0823041F0833051F488E005C08E
S1131DF086E003C089E001C087E00E94A60E01C00E
S1131E0081E01F910F91FF90EF90089510920102CD
S1131E10E091D805F091D9053097D1F08091CB03AA
S1131E2080FD16C080910102811116C02581868132
S1131E3061856D3118F08DE10C94A40290E0922B31
S1131E4086839583CF010E949B06882329F0F3CFD4
S1131E5081E080930102E6CF0895CF93DF93CDB75D
S1131E60DEB728970FB6F894DEBF0FBECDBF6B0167
S1131E707C018FB7F8948E010F5F1F4F80EF9FE0B6
S1131E805C012FEFA21AB20A0E94C132F8018193B9
S1131E908F01F8EFAF16FFE0BF0611F0C501F0CFD8
S1131EA0CB82DC82ED82FE828FEF8F831886809155
S1131EB0290290912A029A838983CE0101967C019A
S1131EC080EF9FE0F70161917F018C010F5F1F4F4D
S1131ED00E94C932083FFFE01F0711F0C801F2CF8A
S1131EE0F999FECF29E088E190E00FB6F894A8951F
S1131EF0809360000FBE20936000FFCF2F923F922B
S1131F004F925F927F928F929F92AF92BF92CF92A5
S1131F10DF92EF92FF920F931F93CF93DF93EC0125
S1131F208091830281113EC08091B2068530D1F543
S1131F308091B805811136C00E94360C882391F136
S1131F408CA582FF03C06EA56F7001C060E0809114
S1131F500704681731F060930704606885E00E9405
S1131F604E0A8A8190E0982F88272981822B8774D2
S1131F709C7C81349848C1F486E00E942A0A8F71BF
S1131F8090E04091C3032091880330E0240F311D79
S1131F9043E0359527954A95E1F72817390724F446
S1131FA00E94E00885E092C069E082E00E944E0A47
S1131FB00E940C044B015C017E018FEFE81AF80AC1
S1131FC018818CA50EEF702E710E84FF08C00BEFE4
S1131FD0010F9E012E193F09020F701A02C0072D2E
S1131FE0712C81E00E942A0A8F71893029F066E001
S1131FF082E00E944E0AD4CF8FB7F8942F9AC090F3
S11320008400D09085008FBF0E942F020E9461023D
S113201080E68EBD812F0E945A022701102F1E0DCB
S1132020F20181912F010E945A021411F9CF01503B
S113203010E0C701800F911F0F5F1F4F0E0D1F1D72
S1132040F2EACF0ED11CC818D908EE24D7FCE094CC
S1132050FE2CC80CD91CEA1CFB1C772009F15C017E
S11320602FEFA21AB20AC5010E943D021B012C01E6
S1132070AB01BC014C195D096E097F09C5010E94C1
S11320803502912CF801E90DF11D80810E945A025C
S113209093949710F7CFB201A101C5010E943502B4
S11320A00E9455020E94310266E082E00E944E0ABC
S11320B08CA582608CA7C8A6D9A6EAA6FBA686E052
S11320C08093B20684E08093830280E0DF91CF9115
S11320D01F910F91FF90EF90DF90CF90BF90AF9042
S11320E09F908F907F905F904F903F902F90089596
S11320F02F923F924F925F926F927F928F929F9214
S1132100AF92BF92CF92DF92EF92FF920F931F9301
S1132110CF93DF9300D01F92CDB7DEB749E0842E72
S113212055E0F52E64E0E62E72E0C72EDD24D3944C
S1132130E8E0BE2EF0E29F2EA0E8AA2E8091B8051A
S1132140882309F4CAC08091B206813009F4C5C05D
S11321500E94360C882309F4C0C08FB7F89400910C
S1132160C8031091C9038FBF1092B8058FE00E9475
S11321702A0A782E809183028B7F833021F4F09297
S1132180B206B092830272FE48C080918302863008
S113219011F4109283028091830281113EC024E0E5
S11321A0721232C086E00E942A0A8F7190918803CD
S11321B0292F26952695921B980F90938803E091DA
S11321C0C802F091C90294A59B7F986094A786A742
S11321D00E940C04A80147505109461B570B1A01D1
S11321E0442437FC4094542CE091C802F091C90275
S11321F024A5226024A7260E371E481E591E20A699
S113220031A642A653A607C0E091C802F091C902C4
S113221084A5857F84A7F092830273FE5EC08091BB
S11322208302843009F048C0F092B206109283020F
S11322308091CB02833019F41092CB024EC0E0910E
S1132240D906F091DA06828190E0982F88272181BF
S1132250822B85FF26C087749C7C8134984809F5BD
S1132260878190E0982F88272681822B21E030E017
S1132270019611F420E030E0232B99F080917F0542
S113228081110FC0C092D303D0927F058091840046
S11322909091850069E973E00E943104C092CB02F9
S11322A01CC01092CB021092A9031092EA05E0928E
S11322B0A8030E94C90211C0853079F486E00E9407
S11322C02A0A9091C303292F26952695921B8F7174
S11322D0980F9093C3038092830280918302882392
S11322E009F451C2893009F0BCC10E9461029EBC4C
S11322F00DB407FEFDCF8EB51EBC0DB407FEFDCF99
S11323008EB59DEF980F973208F073C01EBCE09114
S1132310C802F091C9023F015FEF651A750A808314
S11323209EEF492E480E86E0841518F487E0582E57
S113233001C0542C6A827B8200E010E0352C360CFC
S113234080E00E945A02AA81BB818D93BB83AA8339
S1132350682FC8010E9463028C01BA813B12F0CF3E
S11323608FEF850D90E00196860D971DE091C802D0
S1132370F091C90221812770223029F42091CB02E7
S11323802230A9F50BC03FB7F89421E04091AD0588
S1132390433008F020E03FBF222349F1742C751824
S11323A02C01780E80E0741459F00E945A02F20154
S11323B081932F01682FC8010E9463028C01F2CF20
S11323C00E945A02682FC8010E9463028C0180E0B7
S11323D00E945A02682FC8010E9463028C010E9465
S11323E05502E091C802F091C90285A704C00E9479
S11323F0550201E010E00E943102F092B206109200
S11324008302012B09F0B6C14090C8025090C90262
S1132410D20111968C91119787709091CB028230E2
S113242029F5923009F018C1E091D906F091DA0645
S113243013969C91838198130FC180916F008D7FB7
S113244080936F0010927F05E091D906F091DA062F
S113245084A5816084A71092CB021092A9031092E4
S1132460EA05E092A8030E94C902F6C0911118C0BF
S1132470C2010E94F50B882399F0F0920804C092DF
S1132480090410920A04F201838180930B0488E00A
S113249094E00E947E0F811103C083E08093CB02FD
S11324A00091840010918500C2010E94F50B8823DD
S11324B011F0045E1C4F1093D3040093D204809156
S11324C08400909185009801281B390BC9011816C6
S11324D0190684F42091A903211109C020917F05D4
S11324E0211108C00E94420AA092A90303C02068D7
S11324F02093A903D20119962C91199730E0322F19
S1132500222718968C91282B8091D202A82FB0E014
S1132510FD01EE0FFF1FE354FA4F4081518160919A
S113252082054217530759F4A954B94F9C91961741
S113253009F460C06F5F609382056C931BC0EDEB80
S1132540F5E0A7EBB6E080E090E000E010E0782F43
S1132550419151914217530779F48093D202FC01BF
S1132560E954F94F2081261709F444C06F5F609342
S11325708205608340E825C04D91562F541B452F9A
S1132580151710F0702F412F01968530910519F021
S1132590072F142FDCCF7093D202872F90E0FC0119
S11325A0EE0FFF1FE354FA4F318320836F5F609374
S11325B08205FC01E954F94F6083FC01E152F94FB3
S11325C0108280918205982F9F779F3719F0809110
S11325D0D20210C04F37D8F3E7EBF6E0282F20786B
S11325E090819F6798132083319696E0EC3BF9071E
S11325F0B9F7EDCFD20113969C91E82FF0E0DF01FB
S1132600A152B94F8C91E255FA4F80FF04C08081EA
S1132610981303C021C081608C9390831FB7F894F2
S11326208091AD058330B8F4E091DE05E80FE33026
S113263008F0E350F0E0EE0FFF1FE854FD4F708008
S11326400181518240828F5F8093AD0588E00E94B2
S1132650A402472C502E1FBF5092C9024092C802B8
S113266089C09FEF980F933008F06FC09EEF980FCA
S11326709230E8F51091B2061130B1F480917F05E3
S1132680811135C00E942F0283E08093D3031093FD
S11326907F0580918400909185006BE273E00E9435
S11326A03104C092B2063EC0833009F51330F9F408
S11326B00E94360C8823D9F08FE00E942A0A809168
S11326C0810080648093810096BA80916F0080625B
S11326D080936F0060918303606688E00E944E0AD5
S11326E066E082E00E944E0AE092B2061BC080912E
S11326F0830281508230B0F48091B206853091F427
S11327000E94360C882371F063E082E00E944E0A36
S113271080916F008F7D80936F001092B80583E0E5
S11327208093B20680918302813041F49091B20685
S1132730933001F52F9A8093B2061AC08230D1F4F7
S11327408091B2068330B1F413C0873099F40E94AB
S1132750360C882379F060918303606688E00E94D8
S11327604E0A8091B206853019F4E092B20602C096
S1132770B092830280918302883029F410928302FC
S113278086E00E94A4028091830281111CC0809182
S1132790B2068530C1F48091B805811114C08091CE
S11327A0CB02811110C08091A90381110CC08091CA
S11327B07F05811108C08091A803823021F4D09252
S11327C0A8030E94C90280918302811103C08AE098
S11327D00E94A40280917F05823009F089C0109282
S11327E07F052091D303223009F465C0233009F416
S11327F06DC0213009F07CC08091840090918500E7
S11328006090D2047090D304681A790A8091A90365
S1132810803851F41092A9038091A803823009F002
S113282067C02093A8034FC087FF03C01614170482
S1132830E4F00091890310918A038091CB02811105
S113284014C0C8010E947E0F282F81110FC0F80107
S113285084A58E7F84A7D092CB021093DA060093CE
S1132860D90683E08093A90343C025E08091A9039E
S1132870982F9F77913059F4807882608093A903D0
S113288080E198E00E9456040E94420A31C087FF0A
S11328900BC01614170444F4A092A903C30129839E
S11328A00E94420A298102C01092A9032093EA05DA
S11328B0D092A80308C01092CB021092A9031092E0
S11328C0EA05E092A8030E94C90212C08091B206F0
S11328D0823019F42093B20609C0809183028630B5
S11328E029F41092830281E00E942A0A0E949B1418
S11328F08FB7F894909182039130C9F410928203B7
S11329008FBF0F900F900F90DF91CF911F910F9178
S1132910FF90EF90DF90CF90BF90AF909F908F90FB
S11329207F906F905F904F903F902F900895D0923A
S113293082038FBF03CC8FB7F894909182039923BD
S113294029F09068909382038FBF089591E090934B
S113295082038FBF0C9478109FB7F8948091820300
S1132960815080938203803811F09FBF089581E0E5
S1132970809382039FBF0C9478100F931F93CF937F
S1132980DF931F92CDB7DEB78C018FE3F801828706
S1132990809177028F5F8093770283830E944C0239
S11329A08091A80381110DC010938E0500938D05AD
S11329B081E08093A803109284050E94C90280E0FC
S11329C001C085E089830E94AC1489810F90DF9156
S11329D0CF911F910F910895EF92FF921F93CF9380
S11329E0DF9300D0CDB7DEB7182F7A012D3108F070
S11329F078C0FA01428150E0542F44278181482B4A
S1132A00FA01E774FC7CE134F84841F0407355273F
S1132A1041645868F701418388E88283235FF701A2
S1132A20208369837A830E940404F7018087918755
S1132A309FB7F894809116029FBFF7018483158293
S1132A401387698166837A8177838FB7F89490912D
S1132A507202911110C092E09093720210921302CC
S1132A608FBFC7010E94BD14182F8823C1F00E9494
S1132A70B008812F37C08FBFF0928503E0928403A2
S1132A801FB7F8948091720281110BC081E080938A
S1132A9072021092130285E00E94A4021FBF80E01C
S1132AA021C0809187038F3FC9F481E090E0E091D9
S1132AB01402EE2311F080E090E0892B79F48091E8
S1132AC015028F3F19F41092150204C0F0E0E95783
S1132AD0FC4F10821092140280E001C085E01FBFF9
S1132AE001C086E00F900F90DF91CF911F91FF906E
S1132AF0EF900895CF93DF93FB01242FC82FD0E0EC
S1132B00CC0FDD1FCC52DB4F68817981672BF1F448
S1132B10F983E8839DE0920F908390911902953098
S1132B20B8F09385678170E0762F66273681632B32
S1132B3080931902AF01892F0E94EC14882341F07D
S1132B4095E0909319021982188203C085E001C0B0
S1132B5080E0DF91CF9108958FEA94E0892B09F406
S1132B6067C080917502843051F5809173028111A0
S1132B705FC081E08093730285E080937502909139
S1132B80EC048091ED049093B0048093AF04909191
S1132B90290280912A029093B2048093B104409157
S1132BA01B0250911C0260911D0270911E0283EB66
S1132BB094E00E94350280911A028093B7048091B8
S1132BC075028530A9F58091C905882331F080E02C
S1132BD00E94710D1092C90508958091BE03811160
S1132BE003C081E00C942616E7E3F4E0A8EBB4E01C
S1132BF081918D9384E0ED33F807D1F78091AF0490
S1132C0090E0982F88272091B004822B8093A90408
S1132C109093AA0481E58093AE044FE063EA74E0E4
S1132C2081E00E947A15882319F080E00C94710DDC
S1132C3008951092730280917502823019F08430E5
S1132C4019F008950C947F190C94AC15CF93DF936D
S1132C501F92CDB7DEB7823050F490917502933055
S1132C6011F0953021F489830E941916898180938B
S1132C7075020F90DF91CF9108950F931F932091C8
S1132C8075023EEF320F323030F500912002109180
S1132C9021022091220230912302601771078207DA
S1132CA093074CF0601771078207930781F58091B1
S1132CB01F02481760F581E00E94261610928605CF
S1132CC010928705109288051092890510928A0542
S1132CD010928B051CC024502230C8F400911B02B2
S1132CE010911C0220911D0230911E026017710781
S1132CF0820793074CF0601771078207930739F432
S1132D0080911A02841718F081E08093C9051F91FD
S1132D100F910895EFEFF4E080818D7F8083E6EFDB
S1132D20F4E080818D7F808380E00E9426168FEFFF
S1132D3090E0A0E0B0E080931B0290931C02A0936B
S1132D401D02B0931E028FEF80931A021092370473
S1132D50109238041092390410923A0410923B04F1
S1132D6010923C04109286051092870510928805F3
S1132D701092890510928A0510928B0595E0909324
S1132D802402E9E9F5E083831282118210828483AC
S1132D9087831092950580E0089581E10E944D0893
S1132DA080916802823021F48091B8030E94B705B3
S1132DB00E948A16109268020895CF92DF92EF92D1
S1132DC0FF920F931F938091A205813031F008F494
S1132DD04DC08350823020F049C00E94CD1646C0B9
S1132DE0809168028230B9F483EA95E00E943D0242
S1132DF06B017C0184EB93E00E943D02C616D7066A
S1132E00E806F90631F49091A7058091B803981764
S1132E1069F10E94CD1683EA95E00E943D0265386F
S1132E207C448B4F9B48E9F08091A7059091BE02AA
S1132E309330E1F41092C80514E5E12EF12C00E082
S1132E4010E02EE233E040E050E0BA010E94EB0EC5
S1132E50882319F08091BE0201C084E08093BE02F1
S1132E6005C081E0809368020E94BB048AE0E2EA24
S1132E70F5E0A3EBB3E001900D928A95E1F71F9181
S1132E800F91FF90EF90DF90CF900895CF92DF9253
S1132E90EF92FF92CF93DF931F92CDB7DEB76B0112
S1132EA07C0180917502811105C081E049830E94F3
S1132EB026164981C0921B02D0921C02E0921D0288
S1132EC0F0921E0240931A028FEF8093370480938E
S1132ED038048093390480933A0480933B048093AC
S1132EE03C0480E00F90DF91CF91FF90EF90DF9052
S1132EF0CF9008958F929F92AF92BF92CF92DF921C
S1132F00EF92FF921F93CF93DF9300D000D0CDB701
S1132F10DEB780916802813021F0823009F45DC00F
S1132F208FC01091B80389EB93E00E943D026B01BE
S1132F307C0184EB93E00E943D02AB01BC014C8315
S1132F4059836A837B830E948A1682E080932402D9
S1132F504C8159816A817B8189E995E00E9435021F
S1132F60D701C6010197A109B1097AE0B695A795E1
S1132F70979587957A95D1F78F5F80939D05809378
S1132F80A00589E995E00E94530680939F059093DC
S1132F909E0580912402823011F40E94C70C84E0C3
S1132FA0809324021093740240919D0589E995E071
S1132FB04C830E943D024C810F900F900F900F9014
S1132FC0DF91CF911F91FF90EF90DF90CF90BF9052
S1132FD0AF909F908F900C9446171091B80389EB93
S1132FE093E00E943D026B017C0184EB93E00E941C
S1132FF03D024B015C010E948A168092BF029092AE
S1133000C002A092C102B092C202C0927905D092CD
S11330107A05E0927B05F0927C051093B50212309C
S113302031F0133031F0113059F485E003C083E0FE
S113303001C084E00E94DC07811102C010922402C6
S11330400F900F900F900F90DF91CF911F91FF90F1
S1133050EF90DF90CF90BF90AF909F908F900895A6
S1133060CF93DF931F92CDB7DEB74091A005809137
S11330709D054817A0F489E995E049830E943D0223
S113308049810E94461780919605817084608E7FE5
S1133090809396050F90DF91CF910C94C70C4FEF5E
S11330A06FEF70E080E090E00E9446170E948A165D
S11330B081E0809324028091B5020F90DF91CF913B
S11330C00C949B078091240281113DC083E080937E
S11330D024024091BF025091C0026091C1027091DC
S11330E0C20289E995E00E943502809179059091A8
S11330F07A05A0917B05B0917C050197A109B109DE
S1133100EAE0B695A79597958795EA95D1F78F5FED
S113311080939D051092A00589E995E00E945306CD
S113312080939F0590939E0580912402833011F42F
S11331300E94C70C84E0809324028091B50280939E
S113314074020C9430180895CF92DF92EF92FF929C
S1133150CF93DF932091AE03422F50E07CE1279F71
S113316090011124F901E258F94FE817F90709F021
S1133170A3C0662371F08FEF8093370480933804E3
S11331808093390480933A0480933B0480933C04F5
S113319060C0F901E358F94F8081E82FE695E69580
S11331A0E695F0E0E95CFB4F877021E030E001C078
S11331B0220F8A95EAF72095808128232083CA016B
S11331C00196817099278093AE03F090F102FA94EE
S11331D0F092F1022FE230E080E090E0CFE2D0E024
S11331E0FC01A3E0F695E795AA95E1F7E95CFB4FAE
S11331F0408150E0BC016770772702C05595479520
S11332006A95E2F740FD28C00196BE010E94123281
S1133210215031092115310519F70E942D02C09161
S11332201A02C0901B02D0901C02E0901D02F09084
S11332301E0289E995E00E943D02C616D706E806FB
S1133240F90621F48091A005C81781F081E00E945D
S113325026161092F10230C0FF2071F1DF91CF9158
S1133260FF90EF90DF90CF900C94100ECF5FC0933F
S1133270A00589E995E00E94530680939F059093E9
S11332809E0580919D05C81718F40E943018DECF62
S113329089E995E00E943D024C2F0E94461781E087
S11332A0809324028091B5020E949B07882371F2C7
S11332B080E00E94A402CACFDF91CF91FF90EF90EB
S11332C0DF90CF9008950F931F9310927002409156
S11332D0B606042F10E0F8013397E631F10560F4E7
S11332E0E458FF4F0C945C321F910F910C94A41876
S11332F01F910F910C941B081F910F910895CF9269
S1133300DF92EF92FF920F931F93CF93DF93C091BD
S113331075028EEF8C0F823008F0A8C0C090200296
S1133320D0902102E0902202F090230289E995E0F6
S11333300E943D02C616D706E806F90629F48091D4
S11333409605816080939605C230B1F48091730232
S113335081118CC081E08093730283E080937502B5
S1133360B701A6018FEA94E00E94350280911F0202
S11333708093B3041092B404E090B404F12CC70118
S1133380CFE2D0E0FC0103E0F695E7950A95E1F77A
S1133390EA57FA4F208130E0AC014770552702C04C
S11333A0359527954A95E2F720FF29C08093B40408
S11333B046E1489F9001499F300D112440911F021E
S11333C050E060E070E01AE0440F551F661F771F5D
S11333D01A95D1F7420F531F611D711D809174021C
S11333E0823001F1833039F1813089F516E1E12E23
S11333F0F12C00E010E025EB34E082E024C00196DB
S1133400BE010E9412328E159F0509F0BBCF81E0E8
S1133410DF91CF911F910F91FF90EF90DF90CF90AC
S11334200C94261616E1E12EF12C00E010E025EBB9
S113343034E080E008C016E1E12EF12C00E010E059
S113344025EB34E081E00E94A60E882379F040E168
S113345050E060E070E080E0DF91CF911F910F9128
S1133460FF90EF90DF90CF900C945E0CDF91CF91A2
S11334701F910F91FF90EF90DF90CF9008954F929E
S11334805F926F927F92BF92CF92DF92EF92FF9200
S11334900F931F93CF93DF93CEEED4E0E0E0F0E000
S11334A0B884B1FED1C0488059806A807B800C8189
S11334B01D812E813F816B017C01C418D508E6086B
S11334C0F708C016D106E206F30608F4BDC0B0FE44
S11334D004C0E894B1F8B8860AC0D301C201800FD1
S11334E0911FA21FB31F88839983AA83BB83E130F2
S11334F069F038F0E23009F460C0E43009F491C0B6
S1133500A9C00E94AC150E947F19A4C080919605A1
S113351080FD31C085E093E0892B69F180917602CA
S1133520811129C09091290280912A029093060367
S11335308093050382E0809307031092080389E0D7
S1133540E9E9F5E0A9E0B3E001900D928A95E1F78D
S11335508FEF8093FF028093000380E58093040340
S11335604EE069EF72E080E00E947A15811103C099
S113357081E08093760280917502823028F08091F8
S113358096058170846009C080919605982F969560
S113359031F09158990F8170892B80939605809111
S11335A096058E7F39F480919505863118F48F5FE6
S11335B0809395050E94820C4DC040910405509162
S11335C00505609106057091070580917A02909136
S11335D07B02A0917C02B0917D020097A105B10508
S11335E0E9F084179507A607B707C1F48091820212
S11335F081110BC09FB7F8948091E9048160809396
S1133600E9049FBF84E10E94A40280E090E00E944C
S11336109B0580E00E942905109282020E94D10C31
S113362019C080915402811108C082E10E94DE0217
S1133630882319F082E10E944D088091540281117F
S113364009C00E942D0206C031962996E530F10585
S113365009F026CF82E0DF91CF911F910F91FF9067
S1133660EF90DF90CF90BF907F906F905F904F90DE
S11336700C94A402CF93DF93EC018091C3028823BE
S113368009F44FC08091A60381114BC082E992E0F6
S1133690892B09F446C081E08093A603C09393026A
S11336A0D0939202C1158EEDD80749F44091690276
S11336B050916A0260916B0270916C0203C040E009
S11336C050E0BA0184E992E00E94350284E992E074
S11336D00E943D02672B682B692B89F0C115DE4DD2
S11336E021F0C0E060E070E003C0CAE062EA75E087
S11336F04C2F50E088E992E00E94B13201C0C0E052
S11337008FEF80938C0280938D0280E680939102E8
S113371046E04C0F66E872E083E0DF91CF910C94B1
S11337207A15DF91CF910895855B944019F58091C6
S113373075028330F9F4662319F081E00C9426169F
S11337409091EC048091ED049093A9048093AA04D1
S113375082E58093AE044CE163EA74E082E00E9467
S11337607A15882339F040E150E060E070E080E0B1
S11337700C945E0C08951F93CF93DF9380911902EC
S113378090E0019665E070E00E94263215E0C5E005
S1133790D0E0482F50E0FA01EE0FFF1FEC52FB4F30
S11337A020813181232B91F0E82FE695E695E6956B
S11337B0F0E0EB51FA4F208130E0982F977002C06F
S11337C0359527959A95E2F720FF08C0CA0101961E
S11337D0BE010E9426321150E1F685E08093190261
S11337E0E0911902E530E0F4F0E0EE0FFF1FEC5237
S11337F0FB4F0190F081E02D20812D50678170E016
S1133800762F66278681682BAF0183850E94EC148E
S1133810882331F084E0DF91CF911F910C94A402AE
S1133820DF91CF911F910895CF93C0911902C530B4
S113383098F4EC2FF0E0EE0FFF1FEC52FB4F2081C9
S113384031812817390741F4118210820E94BB1B71
S11338508C2FCF910C948C0DCF910895EF92FF9201
S11338600F931F938091A004843088F41092BE02B9
S113387014E5E12EF12C00E010E02EE233E040E00C
S113388050E0BA018091BD030E94EB0E22C00E9459
S11338904C028091A803811117C080918302811189
S11338A013C08091B206813029F480917F05811183
S11338B00BC002C0853041F083E0809383020E94F4
S11338C09B1485E08093A8030E94AC1483E080934A
S11338D0BE021F910F91FF90EF9008958091BE0258
S11338E0823019F0833071F4FFCFE091A004EF5FD0
S11338F0E093A004F0E0EB5DFD4F80818093BD0375
S11339000C942E1C0895109270024091B60650E05B
S1133910FA013397E631F10548F5EE56FF4F0C9462
S11339205C320C946218682F80E002C0682F82E039
S11339300C946E1C682F83E0FBCF682F81E0F8CFD6
S1133940109267028EE007C0109267028FE003C0F6
S11339501092670280E10C944D0880E005C082E07B
S113396003C083E001C081E00C94BC070895CF92AA
S1133970DF92EF92FF920F931F93CF93C82F9091F2
S1133980BE02913009F464C078F1943009F092C019
S113399083E08093BE028091C80581118BC0CB0166
S11339A00E943D026B017C0184EB93E00E943D0286
S11339B0C616D706E806F90659F48091B303843095
S11339C029F48C2F0E94D7050E942D0F81E001C09D
S11339D082E080936802CF911F910F91FF90EF9046
S11339E0DF90CF900C94BB04411164C08EE293E04D
S11339F00E943D026F3F7F4F8F4F9F4FA9F010925F
S1133A00860381E08093BE0212E0E12EF12C00E0F7
S1133A1010E02CEC32E040E850E060E070E080918F
S1133A20BD030E94EB0E46C0E091A004EF5FE0935B
S1133A30A004F0E0EB5DFD4F80818093BD03CF9146
S1133A401F910F91FF90EF90DF90CF900C942E1C5C
S1133A5082E08093BE022091860330E0A0E5B4E0CA
S1133A600E946232AB01BC0140585E4F6F4F7F4FE2
S1133A708091BD03813089F050F08230A1F0833011
S1133A80C9F400E514E020E030E088E011C000E56E
S1133A9014E020E030E086E00BC000E514E020E014
S1133AA030E089E005C000E514E020E030E087E084
S1133AB00E945D0ECF911F910F91FF90EF90DF90C8
S1133AC0CF900895CF92DF92EF92FF920F931092CE
S1133AD070020091B606C02ED12C35E1C316D10474
S1133AE050F5F601E855FF4F0C945C32622F0F91AC
S1133AF0FF90EF90DF90CF900C94941B422FBC0169
S1133B0080E00BC0422FBC0182E007C0422FBC0101
S1133B1083E003C0422FBC0181E00F91FF90EF903E
S1133B20DF90CF900C94B71C0F91FF90EF90DF9033
S1133B30CF900C9406080F91FF90EF90DF90CF90F8
S1133B400895EF92FF920F931F932091BE022230AB
S1133B5009F051C02091CC0230E0322F222740914D
S1133B60CD02242B82179307B1F08091BD038130DD
S1133B7049F030F0823069F08330E9F58CE003C01D
S1133B808AE001C08DE01F910F91FF90EF900C949B
S1133B90DC078BE0F8CF409186034F5F40938603A8
S1133BA0809136034817B0F481E08093BE0250E060
S1133BB0405C5F4F440F551F60E070E012E0E12E5F
S1133BC0F12C00E010E02CEC32E08091BD030E9467
S1133BD0EB0E11C0E091A004EF5FE093A004F0E0CD
S1133BE0EB5DFD4F80818093BD031F910F91FF908A
S1133BF0EF900C942E1C1F910F91FF90EF9008955D
S1133C000F931F93109270024091B606042F10E098
S1133C10F8013697EF30F10560F4E354FF4F0C944C
S1133C205C321F910F910C94A11D1F910F910C9464
S1133C3031081F910F910895CF92DF92EF92FF9276
S1133C400F931F93CF93DF931F92CDB7DEB7282F27
S1133C506B0110910F02E12EF12C8BE0189FF00103
S1133C601124E35CFB4F00818FEF80930F021082DD
S1133C70113049F030F0123041F0133059F483E040
S1133C8005C080E003C081E001C082E029830E9476
S1133C907D082981033009F477C030F4013079F1CB
S1133CA0023009F44AC083C0043021F0053009F41D
S1133CB057C07DC0409128035091290360912A0385
S1133CC070912B038BE08E9DF0018F9DF00D1124DC
S1133CD0E35CFB4F81819281113031F028F0123086
S1133CE019F0133009F063C00F90DF91CF911F9149
S1133CF00F91FF90EF90DF90CF900C94621D8BE0BA
S1133D008E9DF0018F9DF00D1124E35CFB4F8181AA
S1133D109281113031F028F0123019F0133009F08B
S1133D2046C0622F0F90DF91CF911F910F91FF90AA
S1133D30EF90DF90CF900C946319113029F020F0AC
S1133D40123011F0133099F5822F0F90DF91CF913B
S1133D501F910F91FF90EF90DF90CF900C94831CF4
S1133D60113029F020F0123011F0133001F5622FD8
S1133D70C6010F90DF91CF911F910F91FF90EF90AB
S1133D80DF90CF900C94001E113029F020F01230F7
S1133D9011F0133061F4822F0F90DF91CF911F91B6
S1133DA00F91FF90EF90DF90CF900C94E20B0F9067
S1133DB0DF91CF911F910F91FF90EF90DF90CF9003
S1133DC008952F923F924F925F926F927F928F92BB
S1133DD09F92AF92BF92CF92DF92EF92FF920F9396
S1133DE01F93CF93DF9340910F028090280390900C
S1133DF02903A0902A03B0902B03E42FF0E02BE0DA
S1133E00429FD0011124A35CBB4F1796CD90DD9047
S1133E10ED90FC901A97C818D908EA08FB08119687
S1133E202D903C901297C114D104E104F104B1F433
S1133E30BC0180E0DF91CF911F910F91FF90EF9033
S1133E40DF90CF90BF90AF909F908F907F906F90B6
S1133E505F904F903F902F900C941C1E13964D90A2
S1133E605D906D907C901697480C591C6A1C7B1CC5
S1133E703327272D162D052DB801413041F078F058
S1133E80423041F0433049F060E070E008C0B801CE
S1133E907E5F05C0B8017D5F02C0B8017395A201C1
S1133EA05527C0E0D1E0C41BD50B2E01612C712C29
S1133EB0C414D504E604F70408F4E6011BE01E9FCD
S1133EC0D0011F9FB00D1124A35CBB4FEC91E430D3
S1133ED051F0E53071F0E13089F49101280D391D7C
S1133EE08E0183E009C09101280D391D8E0181E006
S1133EF003C08E019C0182E00E942E218091280340
S1133F0090912903A0912A03B0912B038C0F9D1F3C
S1133F10A11DB11D8093280390932903A0932A0324
S1133F20B0932B03DF91CF911F910F91FF90EF90EE
S1133F30DF90CF90BF90AF909F908F907F906F90C5
S1133F405F904F903F902F900895882321F060E078
S1133F5070E00C941C1ECB010C94E11E9091A703FD
S1133F604093A7039330C9F028F4913049F092307C
S1133F7071F008959430B1F09650923098F008950D
S1133F8090910F029F3FB1F060E070E004C0909107
S1133F900F029F3F79F00C94A51F90910F029F3F51
S1133FA099F7089590910F029F3F21F060E070E02F
S1133FB00C941C1E0895CF92DF92EF92FF920F9300
S1133FC01F93CF93DF932091B1033091B20380917B
S1133FD0EB04082F10E09091A703D801AA0FBB1F90
S1133FE0AD01400F511FEA01CD50DD4F4B505D4FE5
S1133FF0688179812617370709F0FBC0492F50E003
S1134000415051094930510508F01FC144535F4FD5
S1134010FA010C945C328091DF059091E0058130C7
S1134020910531F160F0029709F00FC1ED01C00F65
S1134030D11FCB50DD4F88818460888319C0809163
S1134040B702882351F0DF91CF911F910F91FF9018
S1134050EF90DF90CF900C94A709CC24C394D12C7B
S1134060E12CF12C00E010E040E061E88BE0EBC0D3
S1134070F801EA0FFB1FEB50FD4F808182608083C3
S113408040E060E070E080E0DF91CF911F910F91FC
S1134090FF90EF90DF90CF900C94AE1FF801EA0FE1
S11340A0FB1FEF01CB50DD4F888181FD0AC0DF91FA
S11340B0CF911F910F91FF90EF90DF90CF900C94D0
S11340C0AD09ED50FD4F8091DF059091E00591839E
S11340D0808388818D7F88831AC0ED01C00FD11F32
S11340E0CB50DD4F288121FF06C0269526952695C5
S11340F0237009F087C0F801EA0FFB1FEB50FD4F56
S1134100808181FFD4CF983011F0963059F48DE03E
S1134110DF91CF911F910F91FF90EF90DF90CF909F
S11341200C94A4021092A703892FDF91CF911F91C1
S11341300F91FF90EF90DF90CF900C947921F801CC
S1134140EA0FFB1FEB50FD4F908190FD7CCFC09098
S1134150E204D090E304E090C403F090C50300911E
S1134160DF051091E005882311F064ED01C066EDD0
S113417020E030E042E082E066C0F801EA0FFB1F75
S1134180EB50FD4F908190FD5ECFE090C403F09022
S1134190C503C090E204D090E3040091DF051091C0
S11341A0E005882311F064ED01C066ED20E030E005
S11341B042E083E048C0F801EA0FFB1FEB50FD4FDB
S11341C0908190FD40CFC090E204D090E304E09051
S11341D0C403F090C5030091DF051091E005882326
S11341E011F064E801C067E820E030E040E084E0DA
S11341F02AC0FA01608161FF5ACF6695669566957B
S1134200637051F0DF91CF911F910F91FF90EF9068
S1134210DF90CF900C94F009943019F439832883FB
S1134220E7CE9091B70291110ECF882311F063E588
S113423001C065E5CC24C394D12CE12CF12C00E021
S113424010E040E088E00E94C604DF91CF911F9106
S11342500F91FF90EF90DF90CF9008950F931F93ED
S11342608093A7031093E3040093E2043093C503FF
S11342702093C4037093B2036093B1035093E00599
S11342804093DF052091F3023091F4026217730723
S113429019F41092EB040EC02091F6023091F7024B
S11342A091E06217730721F02091EB04211190E053
S11342B09093EB046115784098F4093091E0190764
S11342C078F4853051F0483081E0580748F4400FC5
S11342D0511F4930514048F003C04115584028F05F
S11342E08EE01F910F910C94A4021F910F910C94D6
S11342F0DB1F8093A7038091F50281FD03C0109218
S1134300EB040BC08091F80281FD04C081E080932E
S1134310EB0403C08DE00C94A4028091EB0490E0C4
S1134320FC01EE0FFF1FE80FF91FEB50FD4F8081DA
S1134330877E80830C94DB1F0F931F9380910F0261
S11343409BE0899FF0011124E35CFB4F9081923044
S113435039F0933011F587E01F910F910C94792176
S1134360823039F0833041F0813049F060E070E010
S113437008C060E073E005C060E071E002C060E086
S113438072E000E010E020E030E040E050E084E043
S11343900E942E211F910F91089581819281109284
S11343A028031092290310922A0310922B031F91C1
S11343B00F910C94E11E4F925F926F927F928F92B5
S11343C09F92AF92BF92CF92DF92EF92FF920F93A0
S11343D01F93CF93DF931F92CDB7DEB790E08E315A
S11343E0910510F00C94A42BFC01EB52FF4F0C949C
S11343F05C328FB7F894129A119810988FBF10926C
S113440068028091B303833051F0843011F00C942E
S1134410A42B8091B8030E94D7050E942D0F81E040
S1134420809368020F90DF91CF911F910F91FF90BD
S1134430EF90DF90CF90BF90AF909F908F907F9040
S11344406F905F904F900C94BB0480912C0381116A
S113445041C04091D4055091D5056091D605709125
S1134460D705EFB7F8948091E6059091E705A09100
S1134470E805B091E9050091C4021091C5022091AC
S1134480C6023091C702800F911FA21FB31FEFBF56
S11344904093D4055093D5056093D6057093D70502
S11344A010922C032FB7F89431E03093B00380932B
S11344B0C4029093C502A093C602B093C70240936E
S11344C0E6055093E7056093E8057093E9052FBF6F
S11344D00E9413090E94EE023BC00E94EE022FB715
S11344E0F8941092B0032FBFEEEEF4E050E088246D
S11344F08A94982CA82C1FE7B12E408541FF1AC03E
S113450000811181228133816B017C01C01AD10A9F
S1134510E20AF30A04811581268137810C191D09E9
S11345202E093F09081519052A053B051CF4480105
S1134530590151E0399625E0EB31F207F1F65523A4
S113454011F40C94A42B181419041A041B049CF0E1
S11345500F90DF91CF911F910F91FF90EF90DF901B
S1134560CF90BF90AF909F908F907F906F905F900F
S11345704F900C943F1A8092D4059092D505A09246
S1134580D605B092D70541E040932C034FB7F89479
S113459051E05093B0036093C4027093C5028093BA
S11345A0C6029093C7028092E6059092E705A09216
S11345B0E805B092E9054FBF0F90DF91CF911F91AD
S11345C00F91FF90EF90DF90CF90BF90AF909F90AE
S11345D08F907F906F905F904F900C94130980910F
S11345E0E505882311F40C94A42BB4EDEB2EB4E070
S11345F0FB2E10E001E09091E505802F892359F00E
S1134600D7011D921C92802F809589238093E50504
S1134610812F0E948C0D000F1F5FB2E0EB0EF11C86
S1134620183049F70C94A42B80911902E82FF0E07C
S1134630EE0FFF1FEC52FB4F1182108289830E9400
S1134640BB1B89810F90DF91CF911F910F91FF9038
S1134650EF90DF90CF90BF90AF909F908F907F901E
S11346606F905F904F900C948C0D8FB7F89492E0FC
S1134670909372028FBF8091130281110C94A42B2A
S113468080918403909185030E94BD14882311F4C2
S11346900C94A42B0E94B00880918403909185030C
S11346A089C08091A8031092A803853089F5809170
S11346B07A0290917B02A0917C02B0917D02892BB9
S11346C08A2B8B2BC1F410927E0210927F021092DF
S11346D08002109281021092820280E00E942905D9
S11346E01FB7F89480E090E00E949B051FBF0E94D2
S11346F0D10C10E001C015E00E94370D111103C068
S113470081E08093B60281E08093C3020C94A42BD1
S11347109AEF980F923010F40C94A42B8093A80372
S11347200C94A42B0E944C022091A803213069F51B
S1134730809184058F5F80938405863030F5809165
S11347408D0590918E053091A903311112C03091DD
S11347507F0531110EC090938A03809389032093BF
S1134760A9038BED91E10E9456040E94420A80E065
S113477001C085E08093EA05811102C083E001C095
S113478082E08093A80310E003C01092A80311E014
S11347900E94AC14112311F40C94A42B00918D05E8
S11347A010918E05F80182858F3309F0CDC70E94E0
S11347B0B008C8010F90DF91CF911F910F91FF9026
S11347C0EF90DF90CF90BF90AF909F908F907F90AD
S11347D06F905F904F900C94141C52E0952E6CE1F6
S11347E0862E74E0772E0FEF1FEF8FB7F894909119
S11347F0AD05992309F458C2E091DE05F0E0EE0F0F
S1134800FF1FE854FD4F408051808FBFD2011A969C
S11348109C911A9717968C9117971696EC90169769
S11348209F3309F0FDC11B962C911B976C90F12CC2
S1134830F82A29830E9404042981E816F90651F014
S113484081E090E0EF20E09411F080E090E0892B8B
S113485009F4F3C1223509F4EBC030F4203559F0E2
S1134860213509F473C0E9C1203609F445C1213664
S113487009F4B4C1E2C15201E0E1AE0EB11CC501BC
S11348800E943D026B017C0189E995E00E943D0292
S1134890C616D706E806F90609F0CFC1D2011E965E
S11348A08C911E97823009F0C8C180912402843013
S11348B009F0C3C15596EC905597F12CFE2CEE24CB
S11348C056968C91E82AC5010E945306E816F9060B
S11348D009F0B3C181E090E0EF2811F480E090E0AA
S11348E0892B09F4AAC1F20197898091A00589173F
S11348F0F0F4809196058E7F09F021C7848590E0BD
S1134900982F88272585822B20917502213009F064
S113491016C7709275029093ED048093EC04209373
S1134920BE031092C90581E00E94710D08C7981753
S113493038F4809196058170846080939605FFC653
S11349408091960581608093960577C18091750268
S1134950882309F472C1C20140960E943D026B0192
S11349607C01D2015496BC904B2D0E943D16F2015D
S1134970848590E0982F88272585822B2091290211
S113498030912A028217930709F057C180911B02C4
S113499090911C02A0911D02B0911E02C816D90666
S11349A0EA06FB0609F049C180911A02B81608F01C
S11349B044C120917502213029F4D2015596E6E8CC
S11349C0F5E018C08EEF820F823008F036C1809176
S11349D0200290912102A0912202B0912302C816D4
S11349E0D906EA06FB0609F028C180911F02B81215
S11349F024C1E3CF9D918081892B819335E0EC38EC
S1134A00F307C1F7213009F018C190927502C092E2
S1134A102002D0922102E0922202F0922302B0926C
S1134A201F021093ED040093EC040E947F1905C14A
S1134A3080917502882309F400C172018CE0E80EAC
S1134A40F11CC7010E943D02D20150964C910E9474
S1134A503D16C7010E943D02C0901B02D0901C026B
S1134A60E0901D02F0901E026C157D058E059F05D9
S1134A7009F0E3C0F201908980911A029813DDC015
S1134A802189E22FE695E695E695F0E0E95CFB4F97
S1134A90808190E0277002C0959587952A95E2F76A
S1134AA080FFCBC08091F102823008F0C6C09FB76E
S1134AB0F89482B1892582B99FBF8091F102A091B7
S1134AC0AE03A8278A9ED0011124A858B94FF20139
S1134AD03C96982D01900D929A95E1F78F5F809303
S1134AE0F102813009F0A9C0D20118968C9180930B
S1134AF02D030E94100EA1C0F201A484B12CBA2C83
S1134B00AA248585A82AC2010E960E943D026B0143
S1134B107C01A114FEEDBF0649F4809169029091D5
S1134B206A02A0916B02B0916C0203C080E090E035
S1134B30DC012091C302222309F47FC00097A10560
S1134B40B10551F4C114D104E104F10451F0A114EC
S1134B502EEDB20671F514C0C114D104E104F104C0
S1134B6041F1B701A601481B590B6A0B7B0B1416C4
S1134B701506160617060CF5A1143EEDB306C9F486
S1134B804DEE460D4A3010F450E002C04AE050E0C9
S1134B90B2016E5E7F4F82EA95E00E94B132C0920C
S1134BA06902D0926A02E0926B02F0926C020E9457
S1134BB0DD16C5010E946B0D40C0C816D906EA0671
S1134BC0FB0651F4A1148EEDB806B9F5809182026A
S1134BD08F5F8093820231C0C5011FC08091C302E0
S1134BE0882359F1D2011C968C911C9790E0982F40
S1134BF088271D962C91822B81159E4DF1F480916E
S1134C00690290916A02A0916B02B0916C02892BA7
S1134C108A2B8B2B91F080E09EED0E943A1B0DC0F5
S1134C20F12CF82A0E940404E816F90619F0EF2082
S1134C30E09419F48FB7F8948FBF9FB7F8948091DC
S1134C40DE05E82FF0E0EE0FFF1FE854FD4F518220
S1134C5040828F5F833018F48093DE0502C0109287
S1134C60DE058091AD0581508093AD059FBFBDCD1C
S1134C700E9476032FB7F8947093900560938F0584
S1134C802FBF62C58FB7F89410927E0510927D05F0
S1134C901092B1061092B00610928502109284020E
S1134CA01092A2041092A1048FBF4EC51FB7F894AE
S1134CB082E0809371020E94180C1FBF8091100241
S1134CC0811142C50E9433020E9431028091B206D2
S1134CD0811144C08EEF91E00E94B20516980E94A3
S1134CE02F0286E090E00E94B205169A60E083E00D
S1134CF00E944E0A68E082E00E944E0A8EEF91E024
S1134D000E94B2056DE48EE00E944E0A67EC89E0D1
S1134D100E944E0A60E885E00E944E0A1092070441
S1134D208BE0809383036BE688E00E944E0A2F9AFF
S1134D3081E08093B2060F90DF91CF911F910F9184
S1134D40FF90EF90DF90CF90BF90AF909F908F90A7
S1134D507F906F905F904F900C94E0080F90DF91DC
S1134D60CF911F910F91FF90EF90DF90CF90BF9064
S1134D70AF909F908F907F906F905F904F900C9426
S1134D809B1440E060E070E081E00F90DF91CF91F0
S1134D901F910F91FF90EF90DF90CF90BF90AF9055
S1134DA09F908F907F906F905F904F900C94AE1F68
S1134DB080916F02863091F55D9A0E94290200006D
S1134DC0000019B10E942B028091F8028E7F80931B
S1134DD0F8028091F5028E7F8093F5021092B7025B
S1134DE08091E80490E0FC01EE0FFF1FE80FF91F2B
S1134DF0EB50FD4F12FD03C08081877E0BC02081E4
S1134E00822F869586958695837090E0029724F488
S1134E10822F8D7F808310C04AE0B4CF0E942B0282
S1134E208091F8028E7F8093F8028091F5028E7F44
S1134E308093F5021092B7020F90DF91CF911F91EA
S1134E400F91FF90EF90DF90CF90BF90AF909F9025
S1134E508F907F906F905F904F900C94DB1F8091A8
S1134E606F0285508230F8F40E942902139887ED6E
S1134E700E94F1040E94290282E090E00E94B2059F
S1134E804A990FC008E010E05D9A0E94290282E06E
S1134E9090E00E94B2050150110901151105A1F716
S1134EA0EFCF8FE07CC2E090CE03F090CF038091EF
S1134EB0800590918105892B09F459C0A090CA03FB
S1134EC0B12CF4E0AF0EB11C0E942902139841E00A
S1134ED00AEC15E0D12C80E0433071F4682FC7014F
S1134EE049830E9477047C0121E0A21AB108498118
S1134EF0A114B104A1F539C04130B1F4D801DC905A
S1134F00B1E0AB1AB108A114B10419F00F5F1F4F3F
S1134F1026C040916F020091CE031091CF03A09060
S1134F208005B09081051BC0423069F498012F5F61
S1134F303F4FF8018083F1E0AF1AB108A114B10426
S1134F40A1F089010CC0443081F4A114B10469F0CA
S1134F50D801DC90B1E0AB1AB1080F5F1F4F8D2D63
S1134F6049830E94F1044981B7CF0E942B024091EA
S1134F706F0210926F0250E0FA013297EA30F105A5
S1134F8008F0E2C3ED50FF4F0C945C3240E0B701EF
S1134F9080E0FBCE81E08093B7022091EB0430E007
S1134FA0C901880F991F820F931FFC01ED50FD4F1B
S1134FB02091B1033091B20331832083FC01EB5083
S1134FC0FD4F808183608B7F25CF81E08093B70282
S1134FD08091EB0490E0FC01EE0FFF1FE80FF91F36
S1134FE0EB50FD4F908191609260892F8695869554
S1134FF086958F5F8370880F880F880F977E982B14
S11350009B7F908319CF81E08093B7028091E8045D
S113501090E0FC01EE0FFF1FE80FF91FEB50FD4F6E
S11350208081816080838AE090E00E94B20586E0FE
S113503080936F0280E1B3C181E08093B702209135
S1135040EB0430E0C901880F991F820F931FFC0104
S1135050ED50FD4F2091B1033091B2033183208391
S1135060FC01EB50FD4F808182608460808340E0CE
S113507060E070E08DCF8091EB0490E0FC01EE0FD6
S1135080FF1FE80FF91FEB50FD4F8081857EEECFA7
S11350908FB7F8949091AC0590930C0293E09093A1
S11350A06E028FBF80910C02813049F028F082306B
S11350B031F0833021F048C310920F0202C0809374
S11350C00F020F90DF91CF911F910F91FF90EF90FE
S11350D0DF90CF90BF90AF909F908F907F906F9014
S11350E05F904F900C949C218FB7F89492E090932A
S11350F06D028FBF809109028F3061F028F48E30E9
S113510009F022C38EE009C0803131F0813109F405
S113511040C01AC38FE001C080E10F90DF91CF91AE
S11351201F910F91FF90EF90DF90CF90BF90AF90C1
S11351309F908F907F906F905F904F900C94DC07BE
S11351400F90DF91CF911F910F91FF90EF90DF901F
S1135150CF90BF90AF909F908F907F906F905F9013
S11351604F900C94DD169FB7F8948091E90480FF6A
S113517005C08E7F8093E90481E001C080E09FBF79
S1135180882309F4E1C280E09EED0E943A1B84E189
S113519006C10F90DF91CF911F910F91FF90EF9077
S11351A0DF90CF90BF90AF909F908F907F906F9043
S11351B05F904F900C947A172FB7F8941092B5061D
S11351C090918C0588EF890F823050F410928C05F1
S11351D0E091EA04F0E0EE0FFF1FEC52FC4F108266
S11351E02FBF823010F52FB7F8948091DD058F5FC3
S11351F08093DD058091D003833481F480919904F8
S113520090919804981739F08F5F809399048630B1
S113521010F01092990490E080E005C081E098308D
S113522009F480E091E02FBF03C091115AC080E0DF
S11352303FB7F894209166023FBF222339F02FB77D
S1135240F8943AE030938C052FBF3FC04FB7F894E1
S11352503091D4032091D6034FBF6FB7F894509187
S11352609804409199046FBF541709F131111FC07C
S11352703FB7F89422E02093D4035FB7F8944091A9
S11352809804209199045FBF421739F0E091990482
S1135290F0E0E856FB4F228101C020E02093D503C3
S11352A023E42093D0031092EA043FBF0CC02150A2
S11352B0223058F42FB7F89435E43093D00331E01A
S11352C03093EA042FBF11E001C010E0992351F09C
S11352D09FB7F89480935D029FBF8AE10E94A40265
S11352E001C010E00FB7F89480918C058A3021F446
S11352F00E9464030FBF28C20FBF112309F424C204
S11353008FB7F8941092DC061092DB061092CC034F
S113531091E090938C058FBF0E944606882309F480
S113532013C28FB7F89499E090938C058FBF0F90B8
S1135330DF91CF911F910F91FF90EF90DF90CF906D
S1135340BF90AF909F908F907F906F905F904F90A1
S11353500C94CC028091C1008F7B8093C10080911A
S1135360C1008F778093C100109285051092AD0320
S11353708091C10088608093C1008091C1008061E8
S11353808093C1008091C10080688093C1008FB771
S1135390F89410928C051092AA0386CC89E10F90A0
S11353A0DF91CF911F910F91FF90EF90DF90CF90FD
S11353B0BF90AF909F908F907F906F905F904F9031
S11353C00C94A4028091C100877F8093C1008091D6
S11353D0C1008F7E8093C100B7C110926102109208
S11353E060028FB7F8948FBF80916202909163023C
S11353F020915B022111A8C1209101022111A4C1B5
S11354002091D8053091D9052817390709F09CC196
S11354101092D9051092D8057FC19FB7F894809156
S113542059028090570290905802B090CA029FBFD0
S113543081113AC1F4018385833509F035C185E7CB
S113544094E0892B09F430C18091540281112CC15C
S1135450E585E43008F076C1F0E0EB5DFD4F1081A6
S11354601F3F09F46FC1D4011C968C918230A8F4BB
S113547082E10E94DE02811110C08FB7F8949091EE
S11354806D02911108C092E090936D0292E19093A5
S113549009028FBF02C08FBF55C1119840E058E088
S11354A060E070E084E00E945E0C10930002F4015E
S11354B08485823009F452C030F4882309F442C14F
S11354C0813059F0F1C0853009F4A7C0863009F461
S11354D0ABC0833009F0E8C074C082E0809354020A
S11354E0428950E0542F44278389482BB4016C5ED1
S11354F07F4F8DEB96E00E94B132F401C288D12C2B
S1135500DC2CCC248389C82AE12CF12CC4010E960E
S11355100E943D02AB01BC01113091F058F01230F1
S1135520A9F0133009F00EC1870176012DEB36E0A6
S113553087E111C0870176012DEB36E085E10BC0D0
S1135540870176012DEB36E088E105C087017601FD
S11355502DEB36E086E10E94CB0D9CC083E0809366
S11355605402C288D12CDC2CCC248389C82AE12C97
S1135570F12CC4010E960E943D02AB01BC01113016
S113558091F058F01230A9F0133009F0DBC0870114
S1135590760126E734E083E111C08701760126E72E
S11355A034E081E10BC08701760126E734E084E131
S11355B005C08701760126E734E082E10E94A60E49
S11355C069C084E080935402F401C288D12CDC2C9D
S11355D0CC248389C82AE12CF12CC4010E960E94A4
S11355E03D02AB01BC01113071F048F0123079F08A
S11355F0133009F0A7C09701860183E10BC097011E
S1135600860181E107C09701860184E103C0970107
S1135610860182E10E945D0E3DC086E080935402C3
S1135620812F0E94AA0736C08AE1E6E7F4E0DF0191
S11356301D928A95E9F780E1E4E4F2E0A6E7B4E09C
S113564001900D928A95E1F783EA8093890486E5B7
S11356508093880486EE8093870488E5809386048B
S113566085E880938D048CE480938C048BEF809385
S11356708B048BE880938A049091290280912A02FA
S113568090938F0480938E044BE150E060E070E0CF
S113569080E008C0882341F01092540241E050E0B9
S11356A060E070E00E945C2F9FB7F894EB2DF0E06F
S11356B0EE0FFF1FEC5FFD4F9182808280916502A7
S11356C0BB2011F08B7F01C08D7F80936502109207
S11356D05A029FBF39C08091CB038823A9F1E8ED1A
S11356E0F5E091E0282F292329F011821082292F37
S11356F020958223990F3296B5E0E83EFB0791F797
S11357008093CB0321C0E0910102F0E0EE0FFF1F74
S1135710E852FA4F118210820F90DF91CF911F91BE
S11357200F91FF90EF90DF90CF90BF90AF909F903C
S11357308F907F906F905F904F900C94060F0E9413
S1135740C70C7BCA81E0A8CF0F90DF91CF911F9146
S11357500F91FF90EF90DF90CF90BF90AF909F900C
S11357608F907F906F905F904F9008958FB7F894CB
S113577008958FBF08951F920F920FB60F921124B0
S11357800BB60F922F933F934F935F936F937F9337
S11357908F939F93AF93BF93EF93FF930E949B02CA
S11357A02091B30030E02F5F3F4F8091CE02909163
S11357B0CF02A091D002B091D102820F931FA11DFC
S11357C0B11D8093CE029093CF02A093D002B093E8
S11357D0D10278940E941309FF91EF91BF91AF9188
S11357E09F918F917F916F915F914F913F912F91F5
S11357F00F900BBE0F900FBE0F901F9018951F9225
S11358000F920FB60F9211240BB60F922F933F9362
S11358104F935F936F937F938F939F93AF93BF93B4
S1135820EF93FF930E949B02FF91EF91BF91AF9181
S11358309F918F917F916F915F914F913F912F91A4
S11358400F900BBE0F900FBE0F901F9018951F92D4
S11358500F920FB60F9211240BB60F922F933F9312
S11358604F935F936F937F938F939F93AF93BF9364
S1135870EF93FF932EB580917D0590917E0500975F
S113588039F0E091A104F091A204E80FF91F2083FC
S11358908091A1049091A20401969093A204809314
S11358A0A1048CB58F778CBD8091A1049091A20442
S11358B060918402709185028617970708F03FC0B3
S11358C02091B0063091B106E0917D05F0917E05FE
S11358D0AC01465F5F4F6417750708F4AB01415094
S11358E0510984179507C8F42115310549F0D901E8
S11358F0A80FB91F6C916EBD0DB407FEFDCF04C097
S11359001EBC0DB407FEFDCF6EB5309721F0DF014C
S1135910A80FB91F6C930196E4CF4CB540684CBDF9
S11359202115310531F0F901E80FF91F20812EBD51
S113593001C01EBC9093A2048093A10411C01092D4
S11359407E0510927D051092B1061092B006109259
S11359508502109284021092A2041092A1048EB5C2
S1135960FF91EF91BF91AF919F918F917F916F9133
S11359705F914F913F912F910F900BBE0F900FBEEF
S11359800F901F90189578941F920F920FB60F9254
S113599011240BB60F922F933F934F935F936F9302
S11359A07F938F939F93AF93BF93EF93FF938091D4
S11359B06F008D7F80936F0078948FB7F8949091E7
S11359C07F05913019F492E090937F058FBF0E9478
S11359D09B14FF91EF91BF91AF919F918F917F9114
S11359E06F915F914F913F912F910F900BBE0F904C
S11359F00FBE0F901F90189578941F920F920FB6B8
S1135A000F9211240F900FBE0F901F901895789449
S1135A101F920F920FB60F9211240F900FBE0F908A
S1135A201F90189578941F920F920FB60F9211241D
S1135A300BB60F922F933F934F935F936F937F9384
S1135A408F939F93AF93BF93EF93FF93E6E8F0E0B8
S1135A5080819181808191812FB7F8949093C903BB
S1135A608093C80381E08093B8052FBF0E949B14E4
S1135A70FF91EF91BF91AF919F918F917F916F9122
S1135A805F914F913F912F910F900BBE0F900FBEDE
S1135A900F901F90189578941F920F920FB60F9243
S1135AA011242F938F939F93AF93BF932FB7F894A1
S1135AB08091DE049091DF04A091E004B091E104B0
S1135AC00196A11DB11D8093DE049093DF04A09381
S1135AD0E004B093E1042FBFBF91AF919F918F91E8
S1135AE02F910F900FBE0F901F9018951F920F9239
S1135AF00FB60F9211240BB60F922F933F934F932F
S1135B005F936F937F938F939F93AF93BF93EF9321
S1135B10FF938091C00087FF4AC06091C600209126
S1135B20E6043091E7042115310551F18091B30663
S1135B309091B406AC014F5F5F4F5093B40640930D
S1135B40B306F901E80FF91F60832091B306309181
S1135B50B4068091DD069091DE062817390738F1E6
S1135B601092E7041092E604809185058330F9F0E1
S1135B708091C1008F778093C1001092850517C072
S1135B806E3719F460E081E010C0809155026D37E2
S1135B9021F48260809355020AC081FF05C08D7F85
S1135BA08093550280E2682780E00E94A30AFF9157
S1135BB0EF91BF91AF919F918F917F916F915F9181
S1135BC04F913F912F910F900BBE0F900FBE0F90EE
S1135BD01F90189578941F920F920FB60F9211246C
S1135BE00BB60F92FF920F931F932F933F934F93F4
S1135BF05F936F937F938F939F93AF93BF93CF9351
S1135C00DF93EF93FF938091AB039091AC032091CA
S1135C10BB053091BC0582179307C8F4E091D1030A
S1135C20F091D2039C012F5F3F4F3093AC0320933C
S1135C30AB03E80FF91F80819FB7F8948093C600E7
S1135C408091C00080648093C0009FBFB0C0109258
S1135C50D2031092D1031092AD038091C1008F7BC7
S1135C608093C1001FB7F8948091550280FF0AC049
S1135C708E7F80935502809197058093F2020E9453
S1135C80F40594C080918C0590E0FC013197E830D4
S1135C90F10508F086C0E350FF4F0C945C3280910C
S1135CA0D0030E943406082F83E080938C05609112
S1135CB0D0030AC08091DD050E943406082F83E0DA
S1135CC080938C056091DD058091DB069091DC0664
S1135CD00E9477049093DC068093DB0660C0E09119
S1135CE0EA04F0E0EE0FFF1FEB52FC4F80810E94AC
