S01700006275696C642F697269732F6D61696E2E7372656343
S11300000C9475000C9494000C9494000C9494003B
S11300100C9494000C9494000C9494000C9494000C
S11300200C9494000C9494000C9494000C949400FC
S11300300C9494000C947C0D0C9494000C94C00DBE
S11300400C94D30E0C94840E0C94BD0E0C94C80E18
S11300500C940C0F0C9494000C9494000C94940045
S11300600C94E80D0C9494000C9494000C9494005B
S11300700C9494000C9494000C9494000C949400AC
S11300800C9494000C9494000C9494000C9494009C
S11300900C9494000C9494000C9494000C9494008C
S11300A00C9494000C9494000C9494000C9494007C
S11300B00C9494000C9494000C9494000C9494006C
S11300C00C9494000C9494000C949400A60AEE0AE8
S11300D0710B8A0BA70BC10BCD0B4D0C690C3C0D9E
S11300E0DD0CF10C00020E060C0411241FBECFEF30
S11300F0D1E2DEBFCDBF12E0A0E0B2E0E4E3F2E281
S113010000E00BBF02C007900D92AC30B107D9F7E5
S113011023E0ACE0B2E001C01D92AF3BB207E1F7CF
S11301200E94370F0C9418110C9400002F98089516
S1130130289A0895209A08950DB407FEFDCF8EB530
S11301400895982F0DB407FEFDCF8EB59EBD08957A
S1130150289808958627082E8295807F8025092E69
S1130160982F82958F700826869598278927880F5F
S1130170880F880F802508959FB7F89480916202B4
S11301808F5F809362029FBF0895809118038F3F11
S113019071F0E82FF0E0EB5AFD4F90819093180333
S11301A09F3F11F49093B7039FEF908308958FEFCF
S11301B008958091B0008093B0008091B60081FDD5
S11301C0FCCF08959FB7F894E82FF0E0EB5AFD4F69
S11301D020812F3FC9F421E030E0E091B703E81714
S11301E011F020E030E0232B79F4209118032F3F05
S11301F019F48093180304C0F0E0EB5AFD4F808398
S11302008093B70380E001C085E09FBF089586E036
S11302100C94E2000F931F932FB7F8948091DB02A4
S11302209091DC02A091DD02B091DE020091840085
S113023010918500B09B07C00196A11DB11D0091CE
S11302408400109185002FBF7727662720E030E0D7
S1130250602B712B822B932B1F910F910895EFB775
S1130260F89420918400309185002D5F3F4FA901BF
S1130270481B590B4617570718F49C01260F371FC4
S11302802115310511F421E030E02150310930937A
S113029089002093880082E086BB80916F00826091
S11302A080936F00EFBF08952FB7F89480910702F1
S11302B0909108022FBF08950F931F93CF93DF935C
S11302C08C012FB7F894C0910103D0910203CE01A1
S11302D08F5E9E4F90930203809301032FBF88E0AB
S11302E00E94E200CE01B8010E94B7108A5D9E4FC1
S11302F0DF91CF911F910F9108952FB7F89430910A
S1130300B2008091500290915102A0915202B0919A
S11303105302B99B0FC04091B3003091B200BC01AD
S1130320CD016F5F7F4F8F4F9F4F640F711D811DF4
S1130330911D02C0BC01CD01630F711D811D911D72
S11303402FBF0895CF93CFB7F89480910C028111F9
S11303500BC081E080930C02109200028BE00E949B
S1130360E200CFBF80E01FC0809174028F3FC9F4C8
S113037081E090E0E0910102EE2311F080E090E052
S1130380892B79F4809102028F3F19F410920202B2
S113039004C0F0E0EC58FD4F10821092010280E09E
S11303A001C085E0CFBFCF910895CF93CFB7F89424
S11303B080910D02823029F580910302811121C0C0
S11303C0809105028F3FB1F0E82FF0E0EA59FD4F2C
S11303D09081909305029F3F11F4909304029FEF44
S11303E090838093030281E080930D0284E00E9455
S11303F0E20004C08093030210920D02CFBF80E09C
S113040002C0CFBF81E0CF910895CF93CFB7F894C6
S113041080910C02823041F580910002811124C048
S1130420809102028F3FB1F0E82FF0E0EC58FD4FCD
S11304309081909302029F3F11F4909301029FEFE9
S113044090838093000281E080930C028BE00E94F1
S1130450E20004C08093000210920C028CB58F7BE2
S11304608CBDCFBF80E002C0CFBF81E0CF910895A3
S1130470CF92DF92EF92FF920F931F93CF93CFB758
S1130480F8942091B3009091B20087B3291711F02A
S113049081FF02C0CFBF78C080916C02811102C07D
S11304A086EE3AC00E947D010091490210914A02F1
S11304B020914B0230914C02C0901D03D0901E033A
S11304C0E0901F03F0902003601B710B820B930BD1
S11304D06C157D058E059F0528F010926C0286EE42
S11304E031E01BC0D701C601800F911FA21FB31FAB
S11304F04091500250915102609152027091530206
S1130500841B950BA60BB70B873E9105A105B1057E
S113051038F6823008F482E030E02FEF280F909113
S1130520B60093FDFCCF9091B200291301C0282F8F
S11305308091500290915102A0915202B0915302C5
S1130540AC01BD014F5F5F4F6F4F7F4F420F511D95
S1130550611D711D481759076A077B0710F4282F7E
S113056020958091B60083FDFCCF2093B300CFBFCC
S1130570332351F080E0CF911F910F91FF90EF90C2
S1130580DF90CF900C94E200CF911F910F91FF90D8
S1130590EF90DF90CF900895CF93DF931F92CDB764
S11305A0DEB789830E94A800898180688EBD80E0BF
S11305B00E94A1000E949C0089830E949800898166
S11305C00F90DF91CF910895BC0181E08093750273
S11305D08093FC0280918400909185000C942F01FB
S11305E01F93CF93DF931F92CDB7DEB7182F698384
S11305F00E94A800912F906C9EBD89810E94A10049
S11306000E949C000F90DF91CF911F910C94980051
S1130610CF93DF93FC01828190E0982F882721817A
S1130620822B85FF14C087749C7C8134984879F4AC
S1130630C781D0E0DC2FCC278681C82B0E945401CF
S113064021E0C817D90709F020E0822F01C080E01B
S1130650DF91CF9108958CB58F7B8CBD229A23981E
S1130660219A0E949A008CB580618CBD8CB58F77DD
S11306708CBD8CB5877F8CBD8CB58B7F8CBD8CB5C8
S113068080648CBD8DB581608DBD8CB58C7F8CBD37
S11306900895CF92DF92EF92FF92CF93C82F6A0111
S11306A07B010E947D0129E0C29FF0011124E152E7
S11306B0FD4F6083718382839383C482D582E682F3
S11306C0F78280858E7F8260808781E0CF91FF9062
S11306D0EF90DF90CF900C94E200CF938FB7F89413
S11306E090910002911106C090910C02923011F485
S11306F08FBF13C08FBFCFB7F89480910C028111C4
S11307000EC082E080930C02109200020E942B0320
S1130710CFBF0E949A000E94980081E004C0CFBF1E
S11307200E94A20180E0CF9108953F924F925F9280
S11307306F927F928F929F92AF92BF92CF92DF92ED
S1130740EF92FF920F931F93CF93DF9300D000D0CB
S1130750CDB7DEB78C0180911102811140C0809128
S1130760B1038530E1F580910903811138C00E94FD
S11307706D038823A1F1F80184A582FF03C066A557
S11307806F7001C060E08091A502681731F060933A
S1130790A502606885E00E94F002F801828190E081
S11307A0982F88272181822B87749C7C81349848D8
S11307B0C1F486E00E94CC028F7190E040917102F6
S11307C02091670230E0240F311D43E035952795D1
S11307D04A95E1F72817390724F40E94050285E0B9
S11307E0A6C069E082E00E94F0020E940A012B0187
S11307F03C0178012FEFE21AF20AF801B08084A5D7
S11308009EEF992E9B0C84FF0AC0BBEFAB2EAB0C62
S113081098012E193F09A20E392C3A1802C0A92CAE
S1130820312C81E00E94CC028F71893029F066E07E
S113083082E00E94F002D1CF8FB7F8942F9AC09033
S11308408400D09085008FBF0E9496000E94A8006B
S113085080E68EBD8B2D0E94A1004701BA2CBE0CF0
S1130860F40181914F010E94A100B810F9CFAA941C
S1130870B12CB7016A0D7B1DA5014F5F5F4F4E0D73
S11308805F1D96012E553F4F241935094901AA24AD
S113089097FCA094BA2C840C951CA61CB71C33207E
S11308A079F1FB018181C280D12CE12CF12C7601FC
S11308B0DD24CC24F82A8481C82A8381D82AD7014C
S11308C0C60188199909AA09BB0984839383A28361
S11308D0B183712CFA01E70DF11D808149835A839C
S11308E06B837C830E94A100739449815A816B813C
S11308F07C817310EFCFFB01C482D382E282F18248
S11309000E949C000E94980066E082E00E94F0022F
S1130910F80184A5826084A780A691A6A2A6B3A6A6
S113092086E08093B10384E08093110280E00F900D
S11309300F900F900F90DF91CF911F910F91FF9027
S1130940EF90DF90CF90BF90AF909F908F907F906B
S11309506F905F904F903F9008952F923F924F92E7
S11309605F926F927F928F929F92AF92BF92CF923B
S1130970DF92EF92FF920F931F93CF93DF9300D0F8
S11309801F92CDB7DEB749E0842E55E0F52E64E022
S1130990E62E72E0C72EDD24D394E8E0BE2EF0E20A
S11309A09F2EA0E8AA2E80910903882309F4CAC0C7
S11309B08091B103813009F4C5C00E946D0388237E
S11309C009F4C0C08FB7F8940091720210917302B9
S11309D08FBF109209038FE00E94CC02782E809181
S11309E011028B7F833021F4F092B103B092110293
S11309F072FE48C080911102863011F410921102E7
S1130A008091110281113EC024E0721232C086E04E
S1130A100E94CC028F7190916702292F269526950A
S1130A20921B980F90936702E0914D02F0914E0251
S1130A3094A59B7F986094A786A70E940A01A801A9
S1130A4047505109461B570B1A01442437FC409464
S1130A50542CE0914D02F0914E0224A5226024A76B
S1130A60260E371E481E591E20A631A642A653A69E
S1130A7007C0E0914D02F0914E0284A5857F84A7C2
S1130A80F092110273FE5EC080911102843009F06D
S1130A9048C0F092B1031092110280914F0283304A
S1130AA019F410924F024EC0E091B803F091B903CB
S1130AB0828190E0982F88272181822B85FF26C090
S1130AC087749C7C8134984809F5878190E0982F3D
S1130AD088272681822B21E030E0019611F420E062
S1130AE030E0232B99F08091FC0281110FC0C09259
S1130AF07502D092FC02809184009091850069E98E
S1130B0073E00E942F01C0924F021CC010924F024A
S1130B1010926B0210922103E0926A020E94070174
S1130B2011C0853079F486E00E94CC029091710264
S1130B30292F26952695921B8F71980F90937102F9
S1130B408092110280911102882309F451C28930E4
S1130B5009F0BCC10E94A8009EBC0DB407FEFDCFE5
S1130B608EB51EBC0DB407FEFDCF8EB59DEF980F5C
S1130B70973208F073C01EBCE0914D02F0914E0212
S1130B803F015FEF651A750A80839EEF492E480E78
S1130B9086E0841518F487E0582E01C0542C6A822C
S1130BA07B8200E010E0352C360C80E00E94A1002E
S1130BB0AA81BB818D93BB83AA83682FC8010E943D
S1130BC0AA008C01BA813B12F0CF8FEF850D90E023
S1130BD00196860D971DE0914D02F0914E02218100
S1130BE02770223029F420914F022230A9F50BC03E
S1130BF03FB7F89421E040910303433008F020E02C
S1130C003FBF222349F1742C75182C01780E80E023
S1130C10741459F00E94A100F20181932F01682FEE
S1130C20C8010E94AA008C01F2CF0E94A100682F83
S1130C30C8010E94AA008C0180E00E94A100682FD4
S1130C40C8010E94AA008C010E949C00E0914D0200
S1130C50F0914E0285A704C00E949C0001E010E0C0
S1130C600E949800F092B10310921102012B09F036
S1130C70B6C140904D0250904E02D20111968C9113
S1130C801197877090914F02823029F5923009F0C4
S1130C9018C1E091B803F091B90313969C91838134
S1130CA098130FC180916F008D7F80936F00109215
S1130CB0FC02E091B803F091B90384A5816084A794
S1130CC010924F0210926B0210922103E0926A027A
S1130CD00E940701F6C0911118C0C2010E940803C6
S1130CE0882399F0F092A602C092A7021092A8025B
S1130CF0F20183818093A90286EA92E00E9495031F
S1130D00811103C083E080934F020091840010910D
S1130D108500C2010E940803882311F0045E1C4F61
S1130D201093D8020093D70280918400909185009B
S1130D309801281B390BC9011816190684F420914F
S1130D406B02211109C02091FC02211108C00E94EC
S1130D50E402A0926B0203C0206820936B02D201CC
S1130D6019962C91199730E0322F222718968C91DE
S1130D70282B80915402A82FB0E0FD01EE0FFF1F35
S1130D80E65FFC4F408151816091FD024217530799
S1130D9059F4AE54BC4F9C91961709F460C06F5F30
S1130DA06093FD026C931BC0EAE0F3E0A2EBB3E0B6
S1130DB080E090E000E010E0782F419151914217DB
S1130DC0530779F480935402FC01EE54FC4F2081C4
S1130DD0261709F444C06F5F6093FD02608340E806
S1130DE025C04D91562F541B452F151710F0702F09
S1130DF0412F01968530910519F0072F142FDCCF70
S1130E0070935402872F90E0FC01EE0FFF1FE65F02
S1130E10FC4F318320836F5F6093FD02FC01EE542D
S1130E20FC4F6083FC01E654FC4F10828091FD026C
S1130E30982F9F779F3719F08091540210C04F3735
S1130E40D8F3E2EBF3E0282F207890819F67981382
S1130E502083319693E0E73BF907B9F7EDCFD20150
S1130E6013969C91E82FF0E0DF01A654BC4F8C91BF
S1130E70EC5FFC4F80FF04C08081981303C021C045
S1130E8081608C9390831FB7F8948091030383301F
S1130E90B8F4E0911B03E80FE33008F0E350F0E00E
S1130EA0EE0FFF1FEC5EFD4F708001815182408286
S1130EB08F5F8093030387E00E94E200472C502E4B
S1130EC01FBF50924E0240924D0289C09FEF980F6F
S1130ED0933008F06FC09EEF980F9230E8F51091B0
S1130EE0B1031130B1F48091FC02811135C00E942C
S1130EF0960083E0809375021093FC028091840035
S1130F00909185006BE273E00E942F01C092B103BF
S1130F103EC0833009F51330F9F40E946D03882331
S1130F20D9F08FE00E94CC0280918100806480938C
S1130F30810096BA80916F00806280936F00609107
S1130F406302606688E00E94F00266E082E00E942C
S1130F50F002E092B1031BC08091110281508230F3
S1130F60B0F48091B103853091F40E946D0388231D
S1130F7071F063E082E00E94F00280916F008F7D47
S1130F8080936F001092090383E08093B1038091F2
S1130F901102813041F49091B103933001F52F9AFD
S1130FA08093B1031AC08230D1F48091B1038330AD
S1130FB0B1F413C0873099F40E946D03882379F04B
S1130FC060916302606688E00E94F0028091B10340
S1130FD0853019F4E092B10302C0B09211028091FD
S1130FE01102883029F41092110285E00E94E20077
S1130FF08091110281111CC08091B1038530C1F42C
S113100080910903811114C080914F02811110C095
S113101080916B0281110CC08091FC02811108C087
S113102080916A02823021F4D0926A020E94070100
S113103080911102811103C089E00E94E200809135
S1131040FC02823009F089C01092FC0220917502E2
S1131050223009F465C0233009F46DC0213009F051
S11310607CC080918400909185006090D70270903C
S1131070D802681A790A80916B02803851F4109270
S11310806B0280916A02823009F067C020936A0281
S11310904FC087FF03C016141704E4F000916802E0
S11310A01091690280914F02811114C0C8010E94FD
S11310B09503282F81110FC0F80184A58E7F84A782
S11310C0D0924F021093B9030093B80383E0809346
S11310D06B0243C025E080916B02982F9F7791307B
S11310E059F48078826080936B0280E198E00E94DA
S11310F05C010E94E40231C087FF0BC01614170480
S113110044F4A0926B02C30129830E94E402298162
S113111002C010926B0220932103D0926A0208C08D
S113112010924F0210926B0210922103E0926A0215
S11311300E94070112C08091B103823019F42093F8
S1131140B10309C080911102863029F41092110272
S113115081E00E94CC020E94D0088FB7F89490914D
S113116062029130C9F4109262028FBF0F900F9007
S11311700F90DF91CF911F910F91FF90EF90DF902F
S1131180CF90BF90AF909F908F907F906F905F9023
S11311904F903F902F900895D09262028FBF03CC5E
S11311A08FB7F89490916202992329F090689093F4
S11311B062028FBF089591E0909362028FBF0C94F6
S11311C0AD049FB7F89480916202815080936202CB
S11311D0803811F09FBF089581E0809362029FBF21
S11311E00C94AD040F931F93CF93DF931F92CDB74D
S11311F0DEB78C018FE3F8018287809110028F5F44
S11312008093100283830E94BC0080916A02811142
S11312100DC0109300030093FF0281E080936A02E3
S11312201092FE020E94070180E001C085E08983DC
S11312300E94E10889810F90DF91CF911F910F9156
S11312400895EF92FF921F93CF93DF9300D0CDB711
S1131250DEB7182F7A012D3108F078C0FA014281E7
S113126050E0542F44278181482BFA01E774FC7C19
S1131270E134F84841F04073552741645868F70158
S1131280418388E88283235FF701208369837A831B
S11312900E945401F701808791879FB7F894809149
S11312A006029FBFF70184831582138769816683D1
S11312B07A8177838FB7F89490910D02911110C0C1
S11312C092E090930D02109203028FBFC7010E9417
S11312D0F208182F8823C1F00E94D501812F37C04E
S11312E08FBFF0926502E09264021FB7F894809178
S11312F00D0281110BC081E080930D021092030254
S113130084E00E94E2001FBF80E021C08091660259
S11313108F3FC9F481E090E0E0910402EE2311F0E4
S113132080E090E0892B79F4809105028F3F19F4D5
S11313301092050204C0F0E0EA59FD4F10821092A9
S1131340040280E001C085E01FBF01C086E00F9069
S11313500F90DF91CF911F91FF90EF90089510921D
S11313600902E091D902F091DA023097C9F0809134
S11313701C0380FD15C080910902811115C02081D4
S11313802D50678170E0762F66278681682BAF0128
S113139083850E942109882339F083E00C94E200BC
S11313A081E080930902E7CF089520910902211179
S11313B00DC02091D9023091DA022817390731F48F
S11313C01092DA021092D9020C94AF0908958FEFAB
S11313D0809320028093210286E0809325028091ED
S11313E0D9029091DA02892B09F58AE192E090936F
S11313F0DA028093D9028FE080931A028091090265
S11314008823B1F01092090222E04AE152E06FEF22
S11314107FEF86E00E942109882351F091E09093A8
S113142009021092DA021092D902089585E0089513
S113143080E008954F925F926F927F92BF92CF9215
S1131440DF92EF92FF920F931F93CF93DF93EFED11
S1131450F2E0C0E0D0E0B084B1FE46C040805180EC
S11314606280738004811581268137816B017C0140
S1131470C418D508E608F708C016D106E206F30634
S113148098F1B0FE04C0E894B1F8B0860AC0D30164
S1131490C201800F911FA21FB31F80839183A28377
S11314A0B3839FB7C13031F0C23041F0F89482B1B8
S11314B024E007C0F89482B122E003C0F89482B11A
S11314C021E0822782B99FBF80910E0290910F0282
S11314D0019690930F0280930E02809327029093BB
S11314E026020E94E70906C021963996C330D10529
S11314F009F0B1CF81E0DF91CF911F910F91FF905F
S1131500EF90DF90CF90BF907F906F905F904F905F
S11315100C94E2002F923F924F925F926F927F92CF
S11315208F929F92AF92BF92CF92DF92EF92FF92EF
S11315300F931F93CF93DF9390E08C30910508F0C5
S1131540C3C2FC01EA59FF4F0C94CB108091610295
S1131550811141C040911403509115036091160309
S1131560709117032FB7F89480911D0390911E0377
S1131570A0911F03B0912003C0904902D0904A0269
S1131580E0904B02F0904C028C0D9D1DAE1DBF1DD2
S11315902FBF409314035093150360931603709365
S11315A01703109261022FB7F89431E030936C0264
S11315B08093490290934A02A0934B02B0934C0249
S11315C040931D0350931E0360931F0370932003E5
S11315D02FBF0E9438020E947D013AC00E947D0103
S11315E02FB7F89410926C022FBFEFEDF2E020E0D9
S11315F044244A94542C642CAFE77A2E308531FF6E
S11316001AC0C080D180E280F3804B015C018C1849
S11316109D08AE08BF08C480D580E680F780C8184E
S1131620D908EA08FB08C414D504E604F7041CF43A
S11316302601370121E0399632E0EA3FF307F1F65B
S1131640222309F441C21414150416041704A4F047
S1131650DF91CF911F910F91FF90EF90DF90CF908A
S1131660BF90AF909F908F907F906F905F904F90BE
S11316703F902F900C941A0A409214035092150331
S1131680609216037092170321E0209361022FB732
S1131690F89431E030936C026093490270934A02EB
S11316A080934B0290934C0240921D0350921E0370
S11316B060921F03709220032FBFDF91CF911F917F
S11316C00F91FF90EF90DF90CF90BF90AF909F90DD
S11316D08F907F906F905F904F903F902F900C94DD
S11316E0380280911C03882309F4EEC1E9EDF2E08D
S11316F091E0282F292329F011821082292F209587
S11317008223990F329622E0E93EF20791F7809303
S11317101C03DAC1E0910902F0E0EE0FFF1FE7526B
S1131720FD4F11821082DF91CF911F910F91FF9095
S1131730EF90DF90CF90BF90AF909F908F907F906D
S11317406F905F904F903F902F900C94AF098FB79C
S1131750F89492E090930D028FBF8091030281115F
S1131760B3C180916402909165020E94F2088823BB
S113177009F4AAC10E94D501809164029091650286
S113178052C080916A0210926A029BEF980F9330C4
S113179008F49AC180936A0297C10E94BC00209108
S11317A06A02213069F58091FE028F5F8093FE0208
S11317B0863030F58091FF029091000330916B02E6
S11317C0311112C03091FC0231110EC090936902A4
S11317D08093680220936B028BED91E10E945C017F
S11317E00E94E40280E001C085E08093210381111E
S11317F002C083E001C082E080936A02C0E003C0BB
S113180010926A02C1E00E94E108CC2309F45CC191
S1131810C091FF02D09100038A858F3309F054C12F
S11318200E94D501CE01DF91CF911F910F91FF90BE
S1131830EF90DF90CF90BF90AF909F908F907F906C
S11318406F905F904F903F902F900C94D509E0914A
S11318501B03F0E0EE0FFF1FEC5EFD4FC081D18152
S11318608FBF8A858F3301F50E9454019FB7F89486
S113187080911B03E82FF0E0EE0FFF1FEC5EFD4F9D
S1131880D183C0838F5F833008F580931B038091DD
S113189003038150809303039FBF8FB7F894909103
S11318A003039111D4CF9BC0EF80F12CFE2CEE24C6
S11318B08E81E82A0E945401E816F90619F0EF20F7
S11318C0E094A1F68FB7F8948FBFD0CF10921B038A
S11318D0DECFEFB7F89480916D0290916E02A091E3
S11318E06F02B09170021C012D019C01A20160E005
S11318F070E080E090E003E00E94D11051016201A9
S1131900E12CF12C00E010E00E94081159016A0159
S11319107B01F82F192F03E00E94D1100F2F0E9492
S1131920081159016A017B01F82F192F03E00E9465
S1131930D1100F2F0E94081159016A017B01F82F61
S1131940192F03E00E94D1100F2F0E940811590192
S11319506A017B01F82F192F03E00E94D1100F2F89
S11319600E94081101E00E94D11029013A0100E20D
S11319700E94EC1049015A01D301C201B695A79502
S113198097958795880D991DAA1DBB1DB7FF04C0A7
S1131990BF770196A11DB11D80936D0290936E02D5
S11319A0A0936F02B0937002EFBF2FB7F894909397
S11319B00203809301032FBF87C08FB7F89410925E
S11319C0FB021092FA021092B0031092AF0310922D
S11319D01302109212021092D6021092D5028FBFF7
S11319E073C0CFB7F89482E080930C020E942B035B
S11319F0CFBF80910002811167C00E949A000E94AB
S1131A0098008091B10381114BC08EEF91E0019752
S1131A1001960197E1F716980E94960086E090E0FF
S1131A20019701960197E1F7169A60E083E00E941E
S1131A30F00268E082E00E94F0028EEF91E00197EC
S1131A4001960197E1F76DE48EE00E94F00267ECE5
S1131A5089E00E94F00260E885E00E94F0021092A2
S1131A60A5028BE0809363026BE688E00E94F0029B
S1131A702F9A81E08093B103DF91CF911F910F9151
S1131A80FF90EF90DF90CF90BF90AF909F908F909A
S1131A907F906F905F904F903F902F900C94050231
S1131AA0DF91CF911F910F91FF90EF90DF90CF9036
S1131AB0BF90AF909F908F907F906F905F904F906A
S1131AC03F902F900C94D008DF91CF911F910F91EC
S1131AD0FF90EF90DF90CF90BF90AF909F908F904A
S1131AE07F906F905F904F903F902F9008958FB7A5
S1131AF0F89408958FBF08951F920F920FB60F9216
S1131B0011240BB60F922F933F934F935F936F93D0
S1131B107F938F939F93AF93BF93EF93FF930E9411
S1131B20D9002091B30030E02F5F3F4F80915002E5
S1131B3090915102A0915202B0915302820F931FCF
S1131B40A11DB11D8093500290935102A0935202A3
S1131B50B093530278940E943802FF91EF91BF91A1
S1131B60AF919F918F917F916F915F914F913F9131
S1131B702F910F900BBE0F900FBE0F901F901895D2
S1131B801F920F920FB60F9211240BB60F922F9340
S1131B903F934F935F936F937F938F939F93AF93F1
S1131BA0BF93EF93FF930E94D900FF91EF91BF91F0
S1131BB0AF919F918F917F916F915F914F913F91E1
S1131BC02F910F900BBE0F900FBE0F901F90189582
S1131BD01F920F920FB60F9211240BB60F922F93F0
S1131BE03F934F935F936F937F938F939F93AF93A1
S1131BF0BF93EF93FF932EB58091FA029091FB026D
S1131C00009739F0E091D502F091D602E80FF91F60
S1131C1020838091D5029091D60201969093D602AA
S1131C208093D5028CB58F778CBD8091D50290912D
S1131C30D60260911202709113028617970708F07A
S1131C403FC02091AF033091B003E091FA02F091CC
S1131C50FB02AC01465F5F4F6417750708F4AB01E4
S1131C604150510984179507C8F42115310549F0ED
S1131C70D901A80FB91F6C916EBD0DB407FEFDCF3D
S1131C8004C01EBC0DB407FEFDCF6EB5309721F025
S1131C90DF01A80FB91F6C930196E4CF4CB54068DF
S1131CA04CBD2115310531F0F901E80FF91F2081F0
S1131CB02EBD01C01EBC9093D6028093D50211C0E4
S1131CC01092FB021092FA021092B0031092AF032A
S1131CD010921302109212021092D6021092D502A0
S1131CE08EB5FF91EF91BF91AF919F918F917F91AD
S1131CF06F915F914F913F912F910F900BBE0F9079
S1131D000FBE0F901F90189578941F920F920FB6E4
S1131D100F9211240BB60F922F933F934F935F931F
S1131D206F937F938F939F93AF93BF93EF93FF939F
S1131D3080916F008D7F80936F0078948FB7F894B3
S1131D409091FC02913019F492E09093FC028FBFC1
S1131D500E94D008FF91EF91BF91AF919F918F9115
S1131D607F916F915F914F913F912F910F900BBE97
S1131D700F900FBE0F901F90189578941F920F929A
S1131D800FB60F9211240F900FBE0F901F9018954D
S1131D9078941F920F920FB60F9211240F900FBEDA
S1131DA00F901F90189578941F920F920FB60F9270
S1131DB011240BB60F922F933F934F935F936F931E
S1131DC07F938F939F93AF93BF93EF93FF93E6E833
S1131DD0F0E080819181808191812FB7F894909374
S1131DE073028093720281E0809309032FBF0E94E3
S1131DF0D008FF91EF91BF91AF919F918F917F9107
S1131E006F915F914F913F912F910F900BBE0F9067
S1131E100FBE0F901F90189578941F920F920FB6D3
S1131E200F9211242F938F939F93AF93BF932FB748
S1131E30F8948091DB029091DC02A091DD02B091D4
S1131E40DE020196A11DB11D8093DB029093DC029A
S1131E50A093DD02B093DE022FBFBF91AF919F919B
S1131E608F912F910F900FBE0F901F901895CFB7A1
S1131E70F89414BE88E10FB6F89480936000109231
S1131E8060000FBE4CE050E06FEF70E085E592E03B
S1131E900E9411118FEF809318038093B703569813
S1131EA05E9854985C9880916F008F7D80936F004A
S1131EB00E949A000E949800279A0E9496000E9A07
S1131EC0169A86E792E090934E0280934D02109208
S1131ED071028AE58093670281E08093810080E249
S1131EE08093B60083E08093B10080918400909148
S1131EF085004AE72091840030918500281739072E
S1131F0008F44150442311F0C901F4CF8091B20088
S1131F109091B2009817E1F32091840030918500EC
S1131F208091B2009091B2009817E1F380918400FF
S1131F30909185004096821B930BB5E0969587950A
S1131F40BA95E1F790931A03809319031092B100A4
S1131F50109281001092B6001092B2001092850087
S1131F60109284008FEF87BB86BB8091B600857189
S1131F70E1F70A9A099A089A129A119A109A18B8CB
S1131F808FEF87B90C9814981092850010928400F2
S1131F9080916F00816080936F0080918100887FC1
S1131FA08260809381000E94C500D82F8F3F19F072
S1131FB00E948A0AF8CF809374020E94A201E091E1
S1131FC00A02F0910B02AF014F5F5F4F60E070E0D7
S1131FD040936D0250936E0260936F02709370028F
S1131FE022E233E0309315022093140221E533E01A
S1131FF0309317022093160220E833E0309319023D
S1132000209318022FEF3FEF30930B0320930A0322
S113201030930D0320930C0330930F0320930E038E
S1132020309311032093100330931303209312036E
S1132030E295E07FE0931002D09366028091B600AF
S113204080628093B6008091B60081FDFCCF82E06F
S11320508093B0008091B60080FDFCCF83E0809334
S1132060B1008091B60083FDFCCF86EE8093B3006F
S1132070809170008260809370000E9438020E94F8
S1132080C5008F3F19F00E948A0AF9CFCFBF789418
S11320904AEF50E060E070E080E00E94490344EFC2
S11320A051E060E070E081E00E94490348EE53E0B3
S11320B060E070E082E00E944903CFB7F8940E9488
S11320C0C5008F3F09F04FC080917000837099F074
S11320D08091B6008A71E1F78091B3009091B200CB
S11320E0891B8C3010F492E007C08091B200853FC8
S11320F0D0F793E001C095E080916E008670E9F41A
S113210080916F008E72C9F4809171008E72A9F46F
S11321100CB407FC12C08091C100887171F48091E5
S1132120C900887151F48091BC0082FD06C0809181
S11321307A0087FF04C0E1E003C0E0E001C0E5E00D
S113214083B79E1708F4E92FF0E0EC51FF4FE491B8
S1132150807F81608E2B83BF78948895F89483B7B1
S11321608E7F83BFACCFCFBF0E948A0AA6CFAA1BA3
S1132170BB1B51E107C0AA1FBB1FA617B70710F06E
S1132180A61BB70B881F991F5A95A9F780959095A0
S1132190BC01CD010895EE0FFF1F0590F491E02DD1
S11321A009940F93083090F0982F872F762F652F7E
S11321B0542F432F322F22270850F4CF220F331FDE
S11321C0441F551F661F771F881F991F0A95B2F772
S11321D00F91089597FB10F8169400080F93083098
S11321E098F00850232F342F452F562F672F782F20
S11321F0892F902DF4CF05949795879577956795BA
S113220057954795379527950A95AAF70F910895FD
S11322102A193B094C095D096E097F09800B910B52
S11322200895DC0101C06D9341505040E0F70895DA
S1072230F894FFCF4C
S10F2234FFFFFFFFFFFF2201000101007B
S9030000FC
