S01700006275696C642F697269732F6D61696E2E7372656343
S11300000C94A3000C948E200C9498200C94A220A1
S11300100C94AC200C94B6200C94C0200C94CA20F0
S11300200C94D4200C94C2000C94C2000C94C20012
S11300300C94C2000C94C4210C94C2000C940822A9
S11300400C941B230C94CC220C9405230C941023A5
S11300500C9454230C94C2000C94C2000C94C2005F
S11300600C9430220C94C2000C94C2000C94C20074
S11300700C94C2000C94FE200C94C2000C94C20098
S11300800C94C2000C94C2000C94C2000C94C200E4
S11300900C94C2000C94C2000C94C2000C940F2067
S11300A00C94C2000C94C2000C94C2000C94C200C4
S11300B00C94C2000C94C2000C94C2000C94C200B4
S11300C00C94C2000C94C2000C94C200EE08F60812
S11300D0FC0804090C09220912091D09300A380A0E
S11300E0410A450A520A860A6D0A7E0A49156915AB
S11300F06F15CC15CE15E7159016F21611179F172C
S113010001182018481890193F1B681B6C1B711BA1
S1130110B91B3E1C7F1C911C0D1D121D161D531D69
S1130120651D6717B61D821DDA1DDC1DE21DFC1D51
S11301300F1E921EAF1E821F231F371FAC1FD31F1B
S113014000020E060C0411241FBECFEFD1E2DEBF65
S1130150CDBF12E0A0E0B2E0E2E8FBE400E00BBFB8
S113016002C007900D92A432B107D9F724E0A4E2AB
S1130170B2E001C01D92A739B207E1F70E947F23C4
S11301800C94BF250C9400002F980895289A089584
S1130190209A08959FB7F89480919C028F5F809372
S11301A09C029FBF08950DB407FEFDCF8EB5089540
S11301B0982F0DB407FEFDCF8EB59EBD08952898E7
S11301C008958627082E8295807F8025092E982FF2
S11301D082958F700826869598278927880F880F1F
S11301E0880F8025089580919F038093BC00089513
S11301F0779A08956F98089543980895439A0895B7
S11302006F9A0895779808955B9808955B9A089576
S11302108091D6038F3F71F0E82FF0E0E759FD4F4E
S113022090819093D6039F3F11F490938E049FEF97
S1130230908308958FEF08958091B0008093B0006B
S11302408091B60081FDFCCF08959FB7F894E82F04
S1130250F0E0E759FD4F20812F3FC9F421E030E061
S1130260E0918E04E81711F020E030E0232B79F4BC
S11302702091D6032F3F19F48093D60304C0F0E0F5
S1130280E759FD4F808380938E0480E001C085E0B0
S11302909FBF08959FB7F89420913F02211112C087
S11302A021E020933F028093B1039FBF80913E02DF
S11302B0811104C083E00E94250109C081E080937C
S11302C03D0205C02091B103281303C09FBF80E005
S11302D00895E82FF0E0EB55FD4F20812F3FC9F43E
S11302E021E030E0E0911F02E81711F020E030E057
S11302F0232B79F4209120022F3F19F480932002BC
S113030004C0F0E0EB55FD4F808380931F0280E032
S113031001C085E09FBF08958AE10C9425018CE01B
S11303200C94250182E20C9425019FB7F89482B1C4
S113033022E0822782B99FBF08952FB7F894809155
S11303400802909109022FBF08950F931F932FB7AE
S1130350F89480916A0390916B03A0916C03B0911F
S11303606D030091840010918500B09B07C0019635
S1130370A11DB11D00918400109185002FBF772726
S1130380662720E030E0602B712B822B932B1F918A
S11303900F910895EFB7F89420918400309185006F
S11303A02D5F3F4FA901481B590B4617570718F4F7
S11303B09C01260F371F2115310511F421E030E08F
S11303C021503109309389002093880082E086BB54
S11303D080916F00826080936F00EFBF08950F9348
S11303E01F93CF93DF938C012FB7F894C091A6038A
S11303F0D091A703CE018F5E9E4F9093A703809365
S1130400A6032FBF84E20E942501CE01B8010E94F9
S113041044258A5D9E4FDF91CF911F910F910895DE
S1130420CF939FB7F89420913C0221111FC021E083
S113043020933C028093B5029FBFCFB7F89480917C
S11304401B02843089F480913C02813021F485E0E0
S11304500E94250109C0823039F48091B50280934D
S11304601B0283E080933C02CFBF05C02091B502FC
S1130470281303C09FBF80E022C0E82FF0E0ED50B6
S1130480FD4F20812F3FC9F421E030E0E0911C02B0
S1130490E81711F020E030E0232B79F420911D02BD
S11304A02F3F19F480931D0204C0F0E0ED50FD4F7E
S11304B0808380931C0280E001C085E09FBFCF91C0
S11304C008958FB7F8949091BC0090939F038FBFC9
S11304D008959FB7F89420912802211112C021E0B9
S11304E0209328028093B0039FBF8091270281113B
S11304F004C08EE10E94250109C081E08093260298
S113050005C02091B003281303C09FBF80E0089565
S1130510E82FF0E0E252FC4F20812F3FC9F421E0A4
S113052030E0E0910B02E81711F020E030E0232BDB
S113053079F420910C022F3F19F480930C0204C02B
S1130540F0E0E252FC4F808380930B0280E001C014
S113055085E09FBF08952FB7F8943091B200809141
S1130560610290916202A0916302B0916402B99B0E
S11305700FC04091B3003091B200BC01CD016F5F58
S11305807F4F8F4F9F4F640F711D811D911D02C0BE
S1130590BC01CD01630F711D811D911D2FBF0895F5
S11305A0CF93DF93D82FC8E0D7FF03C00E94F80091
S11305B002C00E940201DD0F0E94FE000E94FC00A6
S11305C0C15091F7DF91CF910895CF93DF93D0E09D
S11305D0C0E00E94FE006799C160D73009F0CC0FDB
S11305E00E94FC00DF5FD830A1F70E9400010E9446
S11305F002010E94FE000E94FC000E94FA000E9478
S1130600F8008C2FDF91CF9108959FB7F894209133
S11306102C02211112C021E020932C028093490264
S11306209FBF80912B02811104C086E10E942501A5
S113063009C081E080932A0205C020914902281351
S113064003C09FBF80E00895E82FF0E0E25AFD4F19
S113065020812F3FC9F421E030E0E0910F02E81738
S113066011F020E030E0232B79F4209110022F3F89
S113067019F48093100204C0F0E0E25AFD4F808325
S113068080930F0280E001C085E09FBF0895EF9240
S1130690FF920F931F93CF93DF930000CFE0D0E03E
S11306A0E12CF12C0E9404015D9A0000000089B144
S11306B05D9882FB002700F910E00C2E02C0000FA9
S11306C0111F0A94E2F7E00EF11E219758F7C701B3
S11306D0DF91CF911F910F91FF90EF900895CF93E9
S11306E09FB7F89480913F02882349F020911E021D
S11306F0223011F080E004C081508230D8F781E0CC
S11307009FBF8823C1F0CFB7F89480911E02823036
S113071089F480913F02813021F482E00E94250116
S113072009C0823039F48091B10380931E0283E0C2
S113073080933F02CFBFCF910895CF939FB7F89492
S113074080913302882349F020911202213011F064
S113075080E004C081508230D8F781E09FBF8823B5
S1130760C1F0CFB7F89480911202813089F480915E
S11307703302813021F48EE00E94250109C08230C9
S113078039F4809157028093120283E080933302FC
S1130790CFBFCF910895CF939FB7F89480912C0247
S11307A0882349F020910E02223011F080E004C029
S11307B081508230D8F781E09FBF8823C1F0CFB742
S11307C0F89480910E02823089F480912C02813059
S11307D021F485E10E94250109C0823039F4809119
S11307E0490280930E0283E080932C02CFBFCF9105
S11307F00895CF939FB7F89480912802882349F0F5
S113080020910A02223011F080E004C0815082302D
S1130810D8F781E09FBF8823C1F0CFB7F8948091C7
S11308200A02823089F480912802813021F48DE11A
S11308300E94250109C0823039F48091B00380936D
S11308400A0283E080932802CFBFCF910895FC0170
S1130850208131813093B7022093B6028281938143
S11308609093B9028093B80280E00C94050390E061
S113087090939B0280939A0281E00E946902809186
S11308809A0290919B02883C910510F41098089567
S1130890109A08953FB7F894909199029E7F90938F
S11308A0990290917C00492F4F7192959695969557
S11308B0937011F421E0841320E09091990220FBBD
S11308C091F98F71282F220F220F9378922B9093F6
S11308D0990280937C002091990221708091D70322
S11308E09091D803863841E0940780F4833C9105C5
S11308F078F48136910570F48033910568F4883179
S1130900910560F40C9760F082E00BC087E009C0A9
S113091086E007C085E005C084E003C083E001C031
S113092080E08860806120FB85F980648068809322
S11309307A0080919902869581703FBF08959FB790
S1130940F894EF9880E88CBBEAE6F0E08081806858
S1130950808380818F7B8083EF9A9FBF80E008959E
S1130960CF939FB7F89420913B0221113EC021E020
S113097020933B02809393029FBFCFB7F89480915A
S11309803A02811118C0509851981092B90081E42C
S11309908093B8001092BA001092BC000E946102C9
S11309A080919F038E7F846080939F030E94F30055
S11309B081E080933A02CFBFCFB7F89480911802B8
S11309C0843089F480913B02813021F488E00E94D4
S11309D0250109C0823039F4809193028093180272
S11309E083E080933B02CFBF05C02091930228137C
S11309F003C09FBF80E022C0E82FF0E0EC51FC4F21
S1130A0020812F3FC9F421E030E0E0911902E8177A
S1130A1011F020E030E0232B79F420911A022F3FCB
S1130A2019F480931A0204C0F0E0EC51FC4F808367
S1130A308093190280E001C085E09FBFCF910895A3
S1130A409FEF980F9830E0F49091AE0291111AC084
S1130A5091E09093AE02909330038093B803815059
S1130A6021E030E001C0220F8A95EAF780918804E2
S1130A7082278093880481E00E94B00480E0089576
S1130A8082E0089585E008959FEF980F9830E0F490
S1130A909091EE0391111AC091E09093EE0390931C
S1130AA04E028093A503815021E030E001C0220F63
S1130AB08A95EAF78091F202822B8093F20280E019
S1130AC00E94B00480E0089582E0089585E00895CE
S1130AD02FB7F89480913302811113C081E0809381
S1130AE03302109257022FBF80913202811104C049
S1130AF08FE00E94250103C081E08093310280E0F1
S1130B000895809157028823F1F08091AA028F3FC3
S1130B10C9F481E090E0E0911302EE2311F080E04B
S1130B2090E0892B79F4809114028F3F19F410928C
S1130B30140204C0F0E0E655FD4F10821092130237
S1130B4080E001C085E02FBF0895CF93CFB7F8941C
S1130B508091240281110BC081E0809324021092C1
S1130B60010287E20E942501CFBF80E01FC080916F
S1130B7066028F3FC9F481E090E0E0910202EE2327
S1130B8011F080E090E0892B79F4809103028F3F8B
S1130B9019F41092030204C0F0E0EA59FD4F1082E8
S1130BA01092020280E001C085E0CFBFCF9108958A
S1130BB0CF939FB7F89480913702811128C081E0C8
S1130BC08093370210926E039FBF9FB7F894809171
S1130BD07A00806880937A009FBFCFB7F8948091A1
S1130BE01602813089F480913702813021F48BE040
S1130BF00E94250109C0823039F480916E038093EC
S1130C00160283E080933702CFBF80E00FC080914B
S1130C106E03882351F080916F0380FD05C08160CD
S1130C2080936F0380E001C085E09FBFCF9108955A
S1130C30CF93CFB7F89480912502823029F5809123
S1130C400402811121C0809106028F3FB1F0E82F88
S1130C50F0E0E356FD4F9081909306029F3F11F41C
S1130C60909305029FEF90838093040281E0809328
S1130C70250280E20E94250104C0809304021092A0
S1130C802502CFBF80E002C0CFBF81E0CF9108959D
S1130C90CF93CFB7F89490913C02933041F5909163
S1130CA01B02981324C080911D028F3FC1F0E82FCE
S1130CB0F0E0ED50FD4F908190931D029F3F11F4A1
S1130CC090931C029FEF90838093B50290931B0234
S1130CD081E080933C0285E00E94250105C084E008
S1130CE080931B0210923C02CFBF80E002C0CFBFB2
S1130CF081E0CF91089580E00C94480681E00C9443
S1130D00480682E00C94480683E00C944806CF938E
S1130D10CFB7F89480912402823041F5809101028A
S1130D20811124C0809103028F3FB1F0E82FF0E0DD
S1130D30EA59FD4F9081909303029F3F11F49093E1
S1130D4002029FEF90838093010281E0809324024A
S1130D5087E20E94250104C08093010210922402BC
S1130D608CB58F7B8CBDCFBF80E002C0CFBF81E04C
S1130D70CF910895CF93CFB7F89490913F029330D9
S1130D8061F590911E02981328C0809120028F3F34
S1130D90B1F0E82FF0E0EB55FD4F908190932002E5
S1130DA09F3F11F490931F029FEF90838093B103B0
S1130DB090931E0281E080933F0282E009C082E0AA
S1130DC080931E0210923F0281E080933E0284E0F1
S1130DD00E942501CFBF80E002C0CFBF81E0CF9148
S1130DE00895CF93CFB7F89490912802933061F58A
S1130DF090910A02981328C080910C028F3FB1F0A1
S1130E00E82FF0E0E252FC4F908190930C029F3F58
S1130E1011F490930B029FEF90838093B00390930F
S1130E200A0281E0809328028DE109C082E0809368
S1130E300A021092280281E0809327028FE10E9427
S1130E402501CFBF80E002C0CFBF81E0CF910895DC
S1130E50CF93CFB7F89490912C02933061F5909191
S1130E600E02981328C0809110028F3FB1F0E82F32
S1130E70F0E0E25AFD4F9081909310029F3F11F4ED
S1130E8090930F029FEF90838093490290930E02F8
S1130E9081E080932C0285E109C082E080930E02F8
S1130EA010922C0281E080932B0287E10E9425019D
S1130EB0CFBF80E002C0CFBF81E0CF910895CF9330
S1130EC0CFB7F89480913302833059F580911202A0
S1130ED0811127C0809114028F3FB1F0E82FF0E018
S1130EE0E655FD4F9081909314029F3F11F4909327
S1130EF013029FEF9083809357029093120281E034
S1130F00809333028EE008C081E080931202109235
S1130F1033028093320280E10E942501CFBF80E03A
S1130F2002C0CFBF81E0CF910895CF92DF92EF92BC
S1130F30FF920F931F93CF93CFB7F8942091B300F0
S1130F409091B20087B3291711F081FF02C0CFBF7F
S1130F5078C08091B002811102C086EE3AC00E942E
S1130F60AB02009158021091590220915A0230911B
S1130F705B02C090EA03D090EB03E090EC03F090A6
S1130F80ED03601B710B820B930B6C157D058E05B5
S1130F909F0528F01092B00286EE31E01BC0D70105
S1130FA0C601800F911FA21FB31F4091610250918F
S1130FB062026091630270916402841B950BA60B1C
S1130FC0B70B873E9105A105B10538F6823008F4C8
S1130FD082E030E02FEF280F9091B60093FDFCCF14
S1130FE09091B200291301C0282F80916102909141
S1130FF06202A0916302B0916402AC01BD014F5F33
S11310005F4F6F4F7F4F420F511D611D711D481778
S113101059076A077B0710F4282F20958091B600A2
S113102083FDFCCF2093B300CFBF332351F081E184
S1131030CF911F910F91FF90EF90DF90CF900C9480
S11310402501CF911F910F91FF90EF90DF90CF90EA
S1131050089580913102813021F4809334020E94FA
S113106010028FB7F89410923102109232028FBF9F
S1131070089580912A02813029F480932D0282E020
S11310800E9410028FB7F89410922A0210922B0239
S11310908FBF089580913D02813029F480934002EE
S11310A080E00E9410028FB7F89410923D021092D3
S11310B03E028FBF0895CF93CFB7F8940E94610288
S11310C080919F038E7F806980939F030E94F30029
S11310D0CFBFCF910895CF93DF931F92CDB7DEB7E3
S11310E089830E94DF00898180688EBD80E00E9430
S11310F0D8000E94D30089830E94C60089810F9082
S1131100DF91CF910895BC0181E08093FB0280932D
S1131110A00380918400909185000C94CA011F93D0
S1131120CF93DF931F92CDB7DEB7182F69830E9448
S1131130DF00912F906C9EBD89810E94D8000E948F
S1131140D3000F90DF91CF911F910C94C600000043
S113115000005D9A000000005D980895CF93C0E000
S1131160C03128F4C0FD03C00E94060102C00E94E1
S113117004010E94A708CF5FC53191F7CF9108956C
S11311809FEF980F9830E0F49091EE0391111AC0FC
S113119091E09093EE039093E9038093A50381502B
S11311A021E030E001C0220F8A95EAF78091F20233
S11311B082278093F20280E00E94B00480E00895C8
S11311C082E0089585E0089590E0FC013197E830CD
S11311D0F105C0F5EA59FF4F0C945825611106C07A
S11311E082E00E94C008811101C00895109240025B
S11311F00E947B060C944A0861110EC084E00E9490
S1131200C008811109C00895611106C085E00E94DB
S1131210C008811101C00895109234020E947E0614
S11312200C942908611103C088E00C94C008109242
S11312302D020E9481060C9439086111F8CF84E0D4
S11312400C9420050895843071F128F4813041F024
S11312508330D9F00895863061F1873091F1089593
S1131260109229020E94840680912602813029F47A
S11312708093290283E00E9410028FB7F8941092A1
S11312802602109227028FBF0895662331F0109230
S113129034020E947E060C94290883E00E94C00850
S11312A08111F5CF089510922D020E9481060C94AD
S11312B03908611108C081E00E94C008811103C08F
S11312C00895662331F0109240020E947B060C942C
S11312D04A0886E00E9420058111F5CF08959FEF0A
S11312E0980F9830E0F49091AE0291111AC091E0F9
S11312F09093AE02909341028093B803815021E011
S113130030E001C0220F8A95EAF780918804822B8D
S11313108093880481E00E94B00480E0089582E014
S1131320089585E00895CF93DF93FC01828190E0D6
S1131330982F88272181822B85FF14C087749C7C79
S11313408134984879F4C781D0E0DC2FCC2786819A
S1131350C82B0E949D0121E0C817D90709F020E09D
S1131360822F01C080E0DF91CF9108958CB58F7BEF
S11313708CBD229A2398219A0E94C8008CB5806162
S11313808CBD8CB58F778CBD8CB5877F8CBD8CB5AF
S11313908B7F8CBD8CB580648CBD8DB581608DBD1B
S11313A08CB58C7F8CBD0895CF938FB7F8949091B2
S11313B00102911106C090912402923011F48FBF62
S11313C013C08FBFCFB7F8948091240281110EC04F
S11313D082E080932402109201020E94B609CFBFDA
S11313E00E94C8000E94C60081E004C0CFBF0E94D2
S11313F0A50580E0CF910895CF92DF92EF92FF92FE
S1131400CF93C82F6A017B010E94AB0229E0C29FDF
S1131410F0011124E059FC4F60837183828393832C
S1131420C482D582E682F78280858160826080876B
S113143082E1CF91FF90EF90DF90CF900C94250143
S1131440CF93DF931F92CDB7DEB790E0FC013197C5
S1131450E830F10508F05AC0E259FF4F0C945825C2
S1131460611106C082E00E944405882309F44EC03D
S1131470109240020E947B060F90DF91CF910C9452
S11314806F03611104C084E008C0662329F0109240
S113149034020E947E061CC085E00E94440581112E
S11314A0F6CF34C01092340269830E947E066981AB
S11314B061110EC0559A52985A9A539A4CE251E0CF
S11314C060E070E080E00F90DF91CF910C94FC0914
S11314D00F90DF91CF910C949D03611106C088E0B9
S11314E00F90DF91CF910C94440510922D020E942D
S11314F081060F90DF91CF910C94CB036111F5CF4E
S113150084E00F90DF91CF910C946F090F90DF91DD
S1131510CF910895CF93DF931F92CDB7DEB7843078
S113152071F128F4813049F08330C1F055C0863020
S1131530E9F1873009F440C04FC0662349F01092A6
S113154029020E9484060F90DF91CF910C94F90335
S113155082E00E94B0048111F2CF3EC0662349F0BC
S1131560109234020E947E060F90DF91CF910C946A
S11315709D0383E00E9444058111F2CF2DC0109297
S11315802D0269830E948106698161110AC04BE0C2
S113159050E060E070E082E00F90DF91CF910C9416
S11315A0FC090F90DF91CF910C94CB03611106C01D
S11315B081E00E9444050EC0662349F01092400267
S11315C00E947B060F90DF91CF910C946F0386E00D
S11315D00E946F098111F2CF0F90DF91CF9108958E
S11315E04F925F926F927F92BF92CF92DF92EF926F
S11315F0FF920F931F93CF93DF93C0E7D3E0E0E014
S1131600F0E0B884B1FE93C0488059806A807B8042
S11316100C811D812E813F816B017C01C418D5088A
S1131620E608F708C016D106E206F30608F47FC000
S1131630B0FE04C0E894B1F8B8860AC0D301C20170
S1131640800F911FA21FB31F88839983AA83BB8332
S1131650E230B9F118F4E13049F005C0E330A1F10A
S1131660E43009F461C00E949D0367C04A9B25C011
S1131670809135028F5F809335028630B0F080917F
S11316803602833039F4109236020E945F0780EEEE
S113169093E008C0823049F4109236020E945F073A
S11316A080E090E00E94270448C044E150E060E0FC
S11316B070E081E00E94FC0940C08DE00E94250199
S11316C03CC00E94CB0339C080914F0290915002DC
S11316D085309105C9F08E31910519F0039769F5AC
S11316E003C01092300229C010923002809183040A
S11316F0811123C00E942807109269031092680385
S113170081E00E94050319C0109230028091830485
S1131710813099F40E9428071092D5031092D403C3
S113172080E00E94690209C00E94F90306C0319654
S11317302996E530F10509F064CF82E1DF91CF917C
S11317401F910F91FF90EF90DF90CF90BF907F900B
S11317506F905F904F900C942501811104C00E94FA
S11317604A010C9495010895CF93CFB7F8949091C2
S11317703B029330C9F590911802981335C08091BB
S11317801A028F3FC1F0E82FF0E0EC51FC4F90813A
S113179090931A029F3F11F4909319029FEF908344
S11317A0809393029093180281E080933B0288E037
S11317B00E94250116C084E08093180210923B0217
S11317C080913A02813069F40E94610280919F0302
S11317D08A7680939F030E94F30058985998109238
S11317E03A02CFBF80E002C0CFBF81E0CF9108951D
S11317F00E945B0883E00C94B40B811110C08091AB
S1131800BB009091C903E0919E02F0919F02E90F01
S1131810F11D80838091C9038F5F8093C903209158
S1131820C90380914D02281788F430E090E00197B5
S11318302817390749F48091910482FD05C08091ED
S11318409F038F7B80939F030C94F30080919F03ED
S1131850282F2E7F9091910491FF0AC09D7F909331
S11318609104822F806180939F038091B90003C00B
S11318708E7780939F030E94F30081E080933A0265
S113188080911702833029F40E94F80B89E10C94AB
S1131890250108950F931F93CF93C62F813009F12B
S11318A030F08230A9F1833009F441C04FC08091F7
S11318B08104909182044817590709F047C02130E8
S11318C009F044C0025F124009F040C00E945B0866
S11318D080E00E94B40BC11102C086E032C087E0F0
S11318E030C080914702909148024817590771F51A
S11318F0213061F50858144049F50E945B0881E0E5
S11319000E94B40BC11102C089E01BC08AE019C057
S1131910109229020E9484060E945B0882E00E94C1
S1131920B40BCC2311F08BE10CC08CE10AC066230C
S113193039F00E94F80BCF911F910F910C948C01F8
S113194088E1CF911F910F910C942501CF911F91A4
S11319500F9108950F931F938091C90390914D02A5
S1131960891790F4E0919E02F0919F02E80FF11D17
S113197080818093BB008091C9038F5F8093C903EA
S11319801F910F910C94F30080919F03282F2E7FB9
S11319909091910491FF06C09D7F90939104822FB2
S11319A0806101C08E7780939F030E94F30081E0E1
S11319B080933A0200919E0210919F024091BA02D4
S11319C05091BB0220914D0260E0809117020E9469
S11319D04A0C1F910F9108950F931F93CF93C82F13
S11319E00E94610290919F039A7F90939F030E94AB
S11319F0F3000E94610290919F03946090939F036F
S1131A000E94F30081E080933A0280913902882396
S1131A1099F0809117028330F1F40E94F80BCC23E3
S1131A2029F0CF911F910F910C948C0189E1CF91F2
S1131A301F910F910C94250100919E0210919F0219
S1131A404091BA025091BB0220914D026C2F8091BB
S1131A5017020E944A0CCF911F910F910895CF93C2
S1131A603B9A0E94FC000E94FA000E94F800EF9842
S1131A700E9400010E94F8000E94FC00C9E00E943C
S1131A80FE000E94FC00C150D1F70E9400010E9498
S1131A90F8000E94FC000E94FE000E9402010E94C5
S1131AA0FC000E94FE000E94F8000E94FC0080914D
S1131AB04F02909150028F71992790935002809316
S1131AC04F020E94D0020E94FA000E94F8000E9475
S1131AD0FE00679963C00E94FC0080914F029091C0
S1131AE050028630910509F442C068F483309105B0
S1131AF0A9F0059709F050C00E94FA000E94F8006E
S1131B000E949F0415C087309105F9F04E9709F0A3
S1131B1043C04BE050E060E070E013C00E94FA0064
S1131B200E94F8000E949F0480912F0280FF05C04C
S1131B304AEF50E060E070E004C04AE451E060E045
S1131B4070E083E00E94FC0927C00E94E502C82FD0
S1131B500E94E5020E9400010E94F8000E94FE001B
S1131B600E94FC00C0932F0284E10E942501809111
S1131B70BD030E94D0020E94FA000E94F8000E9455
S1131B80FE0067990FC00E94FC008091BD03809302
S1131B902F0284E10E94250180E008C010923002E7
S1131BA081E004C081E080932E02F3CFCF910895A9
S1131BB01F93CF93DF931F92CDB7DEB79FB7F894EF
S1131BC070911702781719F09FBF81E046C09FBF3C
S1131BD08FB7F89490913A02913081F592E0909306
S1131BE03A028FBF8FB7F8945093BB024093BA0266
S1131BF030939F0220939E0291E090934D02609354
S1131C0091041092C903109239028FBF69830E9414
S1131C1061021FB7F89480919F038F7E982F916C77
S1131C2090939F03698160FF11C0816E80939F032D
S1131C3084E080933A020E94F3000DC0911103C026
S1131C408FBF84E00AC08FBF85E007C083E0809324
S1131C503A020E94AA0C1FBF80E00F90DF91CF913F
S1131C601F9108953F924F925F926F927F928F924D
S1131C709F92AF92BF92CF92DF92EF92FF920F9317
S1131C801F93CF93DF9300D000D0CDB7DEB78C0184
S1131C9080914A02811140C0809180048530E1F531
S1131CA08091BE03811138C00E94D4098823A1F118
S1131CB0F80184A582FF03C066A56F7001C060E0CF
S1131CC080912F03681731F060932F03606885E0DB
S1131CD00E948F08F801828190E0982F8827218143
S1131CE0822B87749C7C81349848C1F486E00E94DE
S1131CF06B088F7190E04091EF022091A70230E0D1
S1131D00240F311D43E0359527954A95E1F72817AF
S1131D10390724F40E94870685E0A6C069E082E0C2
S1131D200E948F080E94A5012B013C0178012FEF2E
S1131D30E21AF20AF801B08084A59EEF992E9B0C5A
S1131D4084FF0AC0BBEFAB2EAB0C98012E193F09E0
S1131D50A20E392C3A1802C0A92C312C81E00E9421
S1131D606B088F71893029F066E082E00E948F0849
S1131D70D1CF8FB7F8942F9AC0908400D09085006B
S1131D808FBF0E94C4000E94DF0080E68EBD8B2DB1
S1131D900E94D8004701BA2CBE0CF40181914F0176
S1131DA00E94D800B810F9CFAA94B12CB7016A0DDB
S1131DB07B1DA5014F5F5F4F4E0D5F1D96012E5594
S1131DC03F4F241935094901AA2497FCA094BA2C41
S1131DD0840C951CA61CB71C332079F1FB0181816E
S1131DE0C280D12CE12CF12C7601DD24CC24F82AFC
S1131DF08481C82A8381D82AD701C6018819990900
S1131E00AA09BB0984839383A283B183712CFA0149
S1131E10E70DF11D808149835A836B837C830E9483
S1131E20D800739449815A816B817C817310EFCF00
S1131E30FB01C482D382E282F1820E94D3000E9419
S1131E40C60066E082E00E948F08F80184A58260E3
S1131E5084A780A691A6A2A6B3A686E08093800458
S1131E6084E080934A0280E00F900F900F900F90CF
S1131E70DF91CF911F910F91FF90EF90DF90CF9062
S1131E80BF90AF909F908F907F906F905F904F9096
S1131E903F9008952F923F924F925F926F927F925C
S1131EA08F929F92AF92BF92CF92DF92EF92FF9266
S1131EB00F931F93CF93DF9300D01F92CDB7DEB75C
S1131EC049E0842E55E0F52E64E0E62E72E0C72E3C
S1131ED0DD24D394E8E0BE2EF0E29F2EA0E8AA2EE3
S1131EE08091BE03882309F4CAC0809180048130A4
S1131EF009F4C5C00E94D409882309F4C0C08FB76F
S1131F00F8940091F0021091F1028FBF1092BE0379
S1131F108FE00E946B08782E80914A028B7F833079
S1131F2021F4F0928004B0924A0272FE48C080917B
S1131F304A02863011F410924A0280914A028111B9
S1131F403EC024E0721232C086E00E946B088F719A
S1131F509091A702292F26952695921B980F90936E
S1131F60A702E0915C02F0915D0294A59B7F9860CA
S1131F7094A786A70E94A501A80147505109461BB2
S1131F80570B1A01442437FC4094542CE0915C0212
S1131F90F0915D0224A5226024A7260E371E481E58
S1131FA0591E20A631A642A653A607C0E0915C02A2
S1131FB0F0915D0284A5857F84A7F0924A0273FEA6
S1131FC05EC080914A02843009F048C0F0928004D7
S1131FD010924A0280916002833019F410926002D8
S1131FE04EC0E0918F04F0919004828190E0982F8C
S1131FF088272181822B85FF26C087749C7C8134AD
S1132000984809F5878190E0982F88272681822BAC
S113201021E030E0019611F420E030E0232B99F028
S11320208091A00381110FC0C092FB02D092A00343
S1132030809184009091850069E973E00E94CA014F
S1132040C09260021CC0109260021092AD02109205
S1132050EF03E092AC020E94920111C0853079F442
S113206086E00E946B089091EF02292F2695269511
S1132070921B8F71980F9093EF0280924A02809185
S11320804A02882309F451C2893009F0BCC10E9474
S1132090DF009EBC0DB407FEFDCF8EB51EBC0DB493
S11320A007FEFDCF8EB59DEF980F973208F073C0F1
S11320B01EBCE0915C02F0915D023F015FEF651A86
S11320C0750A80839EEF492E480E86E0841518F425
S11320D087E0582E01C0542C6A827B8200E010E015
S11320E0352C360C80E00E94D800AA81BB818D93E8
S11320F0BB83AA83682FC8010E94E1008C01BA81C6
S11321003B12F0CF8FEF850D90E00196860D971D61
S1132110E0915C02F0915D0221812770223029F464
S1132120209160022230A9F50BC03FB7F89421E05A
S11321304091B203433008F020E03FBF222349F12D
S1132140742C75182C01780E80E0741459F00E94D8
S1132150D800F20181932F01682FC8010E94E10089
S11321608C01F2CF0E94D800682FC8010E94E100C0
S11321708C0180E00E94D800682FC8010E94E10011
S11321808C010E94D300E0915C02F0915D0285A76E
S113219004C00E94D30001E010E00E94C600F09247
S11321A0800410924A02012B09F0B6C140905C02EF
S11321B050905D02D20111968C9111978770909185
S11321C06002823029F5923009F018C1E0918F0441
S11321D0F091900413969C91838198130FC1809180
S11321E06F008D7F80936F001092A003E0918F04A5
S11321F0F091900484A5816084A7109260021092EB
S1132200AD021092EF03E092AC020E949201F6C07C
S1132210911118C0C2010E949309882399F0F09289
S11322203103C092320310923303F201838180930D
S1132230340381E393E00E94320E811103C083E0F2
S1132240809360020091840010918500C2010E9475
S11322509309882311F0045E1C4F109365030093C7
S1132260640380918400909185009801281B390BA8
S1132270C9011816190684F42091AD02211109C070
S11322802091A003211108C00E948308A092AD02EE
S113229003C020682093AD02D20119962C9119979E
S11322A030E0322F222718968C91282B80916502DA
S11322B0A82FB0E0FD01EE0FFF1FE154FC4F408159
S11322C051816091A1034217530759F4A757BB4F9B
S11322D09C91961709F460C06F5F6093A1036C939F
S11322E01BC0EFEBF3E0A9E8B4E080E090E000E08D
S11322F010E0782F419151914217530779F480935C
S11323006502FC01E757FB4F2081261709F444C0FE
S11323106F5F6093A103608340E825C04D91562F01
S1132320541B452F151710F0702F412F019685303F
S1132330910519F0072F142FDCCF70936502872FB6
S113234090E0FC01EE0FFF1FE154FC4F318320832A
S11323506F5F6093A103FC01E757FB4F6083FC01AF
S1132360EE56FB4F10828091A103982F9F779F37E1
S113237019F08091650210C04F37D8F3E9E8F4E012
S1132380282F207890819F6798132083319694E0BA
S1132390EE38F907B9F7EDCFD20113969C91E82FE7
S11323A0F0E0DF01AE56BB4F8C91ED54FC4F80FF43
S11323B004C08081981303C021C081608C939083F2
S11323C01FB7F8948091B2038330B8F4E091D90335
S11323D0E80FE33008F0E350F0E0EE0FFF1FEF5A90
S11323E0FD4F70800181518240828F5F8093B203E0
S11323F083E20E942501472C502E1FBF50925D029C
S113240040925C0289C09FEF980F933008F06FC030
S11324109EEF980F9230E8F5109180041130B1F4DA
S11324208091A003811135C00E94C40083E0809391
S1132430FB021093A00380918400909185006BE2CD
S113244073E00E94CA01C09280043EC0833009F543
S11324501330F9F40E94D4098823D9F08FE00E9444
S11324606B088091810080648093810096BA80918A
S11324706F00806280936F006091A002606688E0C4
S11324800E948F0866E082E00E948F08E092800438
S11324901BC080914A0281508230B0F48091800444
S11324A0853091F40E94D409882371F063E082E0BE
S11324B00E948F0880916F008F7D80936F0010922F
S11324C0BE0383E08093800480914A02813041F40A
S11324D090918004933001F52F9A809380041AC060
S11324E08230D1F4809180048330B1F413C08730FA
S11324F099F40E94D409882379F06091A00260665F
S113250088E00E948F0880918004853019F4E0925D
S1132510800402C0B0924A0280914A02883029F4B1
S113252010924A0281E20E94250180914A0281119F
S11325301CC0809180048530C1F48091BE03811158
S113254014C080916002811110C08091AD0281118C
S11325500CC08091A003811108C08091AC0282302C
S113256021F4D092AC020E94920180914A0281111E
S113257003C085E20E9425018091A003823009F006
S113258089C01092A0032091FB02223009F465C097
S1132590233009F46DC0213009F07CC0809184009F
S11325A0909185006090640370906503681A790ABD
S11325B08091AD02803851F41092AD028091AC024A
S11325C0823009F067C02093AC024FC087FF03C07C
S11325D016141704E4F00091A8021091A902809146
S11325E06002811114C0C8010E94320E282F81118B
S11325F00FC0F80184A58E7F84A7D0926002109347
S1132600900400938F0483E08093AD0243C025E0DF
S11326108091AD02982F9F77913059F48078826031
S11326208093AD0280E198E00E94EF010E9483084C
S113263031C087FF0BC01614170444F4A092AD02F6
S1132640C30129830E948308298102C01092AD022C
S11326502093EF03D092AC0208C010926002109253
S1132660AD021092EF03E092AC020E94920112C0FC
S113267080918004823019F42093800409C08091F1
S11326804A02863029F410924A0281E00E946B08C3
S11326900E946D138FB7F89490919C029130C9F405
S11326A010929C028FBF0F900F900F90DF91CF91EB
S11326B01F910F91FF90EF90DF90CF90BF90AF905C
S11326C09F908F907F906F905F904F903F902F904E
S11326D00895D0929C028FBF03CC8FB7F894909149
S11326E09C02992329F0906890939C028FBF0895CF
S11326F091E090939C028FBF0C944A0F9FB7F8947B
S113270080919C02815080939C02803811F09FBF7D
S1132710089581E080939C029FBF0C944A0F0F930D
S11327201F93CF93DF931F92CDB7DEB78C018FE356
S1132730F8018287809142028F5F809342028383F3
S11327400E94CA008091AC0281110DC01093A403B1
S11327500093A30381E08093AC021092A2030E9431
S1132760920180E001C085E089830E947E13898103
S11327700F90DF91CF911F910F910895EF92FF92E7
S11327801F93CF93DF9300D0CDB7DEB7182F7A0114
S11327902D3108F078C0FA01428150E0542F4427CB
S11327A08181482BFA01E774FC7CE134F84841F05C
S11327B04073552741645868F701418388E8828350
S11327C0235FF701208369837A830E949D01F701C7
S11327D0808791879FB7F894809107029FBFF70184
S11327E0848315821387698166837A8177838FB79F
S11327F0F89490912502911110C092E090932502D3
S1132800109204028FBFC7010E948F13182F8823D0
S1132810C1F00E941806812F37C08FBFF092A40226
S1132820E092A3021FB7F8948091250281110BC096
S113283081E0809325021092040280E20E94250127
S11328401FBF80E021C080919D028F3FC9F481E0C9
S113285090E0E0910502EE2311F080E090E0892BF6
S113286079F4809106028F3F19F41092060204C095
S1132870F0E0E356FD4F10821092050280E001C0A3
S113288085E01FBF01C086E00F900F90DF91CF91CC
S11328901F91FF90EF90089510920002E09166035B
S11328A0F09167033097C9F08091E80380FD15C06B
S11328B080910002811115C020812D50678170E044
S11328C0762F66278681682BAF0183850E94BE130D
S11328D0882339F089E20C94250181E08093000279
S11328E0E7CF089520910002211110C020916603C2
S11328F0309167032817390749F41092670310923F
S113290066030E944C1480E00C94AD0B0895CF93A1
S1132910C82F0E949D01309162032091630330937C
S1132920C9022093C8023091670220916802309353
S1132930CB022093CA023091B6022091B7023093A1
S1132940CD022093CC023091B8022091B902309389
S1132950CF022093CE023091680320916903309313
S1132960D1022093D0023091D4032091D503309327
S1132970D3022093D20230919A0220919B02309389
S1132980D5022093D402C093D7021092D60280932A
S1132990D9029093D8028FEF8093C2028093C3022E
S11329A0C1E0C093C7028091660390916703892BAD
S11329B0F9F48CEB92E090936703809366038FE1C4
S11329C08093BC0280910002882391F0109200024F
S11329D022E14CEB52E06FEF7FEF81E00E94BE13E7
S11329E0882331F0C09300021092670310926603AB
S11329F0CF910895CF93DF931F92CDB7DEB70E9496
S1132A00CA008091AC02811119C080914A028111DF
S1132A1015C080918004813029F48091A003811134
S1132A200DC002C0853099F083E080934A020E9471
S1132A306D1385E08093AC0280E001C085E089835A
S1132A400E947E1389810F90DF91CF91089589E0D0
S1132A50F6CF2F923F924F925F926F927F928F9216
S1132A609F92AF92BF92CF92DF92EF92FF920F9319
S1132A701F93CF93DF931F92CDB7DEB790E08A32D6
S1132A80910510F00C94F61FFC01EA58FF4F0C94CA
S1132A9058251FB7F8948091D303E090F003F12CEC
S1132AA0813061F480E00E94BA06F0926303E09200
S1132AB0620381E00E944A010C944F1D81E00E9450
S1132AC0BA06F0926802E09267020E9468050C94CC
S1132AD04F1D8091D303813009F042C01BC08FB7D2
S1132AE0F8949091B10390931E0293E090933F0267
S1132AF08FBF80911E02882321F0813041F10C9414
S1132B00F61F81E08093D3030E94D805882311F433
S1132B100C94F61F80E00E94BA0610926303109290
S1132B20620381E00F90DF91CF911F910F91FF908D
S1132B30EF90DF90CF90BF90AF909F908F907F9059
S1132B406F905F904F903F902F900C944A0182E0D9
S1132B508093D3030E94D805882311F40C94F61FA4
S1132B6081E00E94BA0610926802109267020F90E8
S1132B70DF91CF911F910F91FF90EF90DF90CF9055
S1132B80BF90AF909F908F907F906F905F904F9089
S1132B903F902F900C94680581E001C082E08093FF
S1132BA0400280E00F90DF91CF911F910F91FF9031
S1132BB0EF90DF90CF90BF90AF909F908F907F90D9
S1132BC06F905F904F903F902F900C9410028FB7AE
S1132BD0F8949091B50290931B0293E090933C0279
S1132BE08FBF80911B02813089F140F0823009F45B
S1132BF055C0833009F481C00C94F61F80914002C3
S1132C00813001F587E00E946F09882311F40C9448
S1132C10F61F109240020E947B060F90DF91CF9125
S1132C201F910F91FF90EF90DF90CF90BF90AF90E6
S1132C309F908F907F906F905F904F903F902F90D8
S1132C400C946F0387E00E942005DFCF809134024B
S1132C50813001F583E00E946F09882311F40C94FC
S1132C60F61F109234020E947E060F90DF91CF91DE
S1132C701F910F91FF90EF90DF90CF90BF90AF9096
S1132C809F908F907F906F905F904F903F902F9088
S1132C900C949D0383E00E942005DFCF80912D02D8
S1132CA0813001F587E00E944405882311F40C94D7
S1132CB0F61F10922D020E9481060F90DF91CF9192
S1132CC01F910F91FF90EF90DF90CF90BF90AF9046
S1132CD09F908F907F906F905F904F903F902F9038
S1132CE00C94CB033B980E94FC000E94FA000E94C3
S1132CF0020187E00E94C008D8CF80912902813068
S1132D0059F40E946F09882311F40C94F61F109251
S1132D1029020E948406DBC081E00E942005F3CFD3
S1132D208091EE03882311F40C94F61F1092EE03A5
S1132D3080914E02882341F110924E028091A503A6
S1132D402091F20230E09FEF980F02C0359527954D
S1132D509A95E2F720FF02C060E001C061E00F90A5
S1132D60DF91CF911F910F91FF90EF90DF90CF9063
S1132D70BF90AF909F908F907F906F905F904F9097
S1132D803F902F900C94200A8091E903882311F43A
S1132D900C94F61F1092E9038091A5032091F2028E
S1132DA030E09FEF980F02C0359527959A95E2F78A
S1132DB020FD02C060E001C061E00F90DF91CF917F
S1132DC01F910F91FF90EF90DF90CF90BF90AF9045
S1132DD09F908F907F906F905F904F903F902F9037
S1132DE00C94E4088091EE03882311F40C94F61FEC
S1132DF01092EE0380914E02882339F010924E0215
S1132E0061E08091A5030E94200A8091E903882350
S1132E1011F40C94F61F1092E90361E08091A5036C
S1132E20CCCF8FB7F894909193029093180293E0CB
S1132E3090933B028FBF809118029FB7F8948093C0
S1132E4017029FBF813089F038F0823059F1833006
S1132E5009F452C00C94F61F4091810450918204ED
S1132E6022EF32E063E080E008C0409147025091D5
S1132E70480228E834E063E081E00F90DF91CF91CD
S1132E801F910F91FF90EF90DF90CF90BF90AF9084
S1132E909F908F907F906F905F904F903F902F9076
S1132EA00C94D80D2DE032E049E350E067E082E075
S1132EB00E94D80D882311F40C94F61F1092290255
S1132EC00E9484060E945B0882E00E94B40B0F906B
S1132ED0DF91CF911F910F91FF90EF90DF90CF90F2
S1132EE0BF90AF909F908F907F906F905F904F9026
S1132EF03F902F900C94F9032FEA32E049E350E01D
S1132F0067E083E00E94D80D882311F40C94F61F27
S1132F100E94F80B0F90DF91CF911F910F91FF90BA
S1132F20EF90DF90CF90BF90AF909F908F907F9065
S1132F306F905F904F903F902F900C948C018091F4
S1132F40AE02882311F40C94F61F1092AE02809105
S1132F504102882341F1109241028091B8032091EB
S1132F60880430E09FEF980F02C0359527959A9515
S1132F70E2F720FF02C060E001C061E00F90DF9142
S1132F80CF911F910F91FF90EF90DF90CF90BF9062
S1132F90AF909F908F907F906F905F904F903F90F5
S1132FA02F900C948A0A80913003882311F40C9496
S1132FB0F61F109230038091B8032091880430E00A
S1132FC09FEF980F02C0359527959A95E2F720FD5B
S1132FD002C060E001C061E00F90DF91CF911F91CA
S1132FE00F91FF90EF90DF90CF90BF90AF909F90A4
S1132FF08F907F906F905F904F903F902F900C94A4
S113300023098091AE02882311F40C94F61F1092C8
S1133010AE0280914102882339F01092410261E0AE
S11330208091B8030E948A0A80913003882311F4A6
S11330300C94F61F1092300361E08091B803CCCF5A
S11330408FB7F89490916E039093160293E0909347
S113305037028FBF809116028111C8C78091D303B4
S1133060813009F082E00F90DF91CF911F910F9191
S1133070FF90EF90DF90CF90BF90AF909F908F9094
S11330807F906F905F904F903F902F900C944A04E4
S1133090809136020FB7813009F0FAC0F894E8EA5B
S11330A0EE2EE3E0FE2E10E00E94AE081F5F00004B
S11330B000000E9406010E94A7080E9406010E94C7
S11330C0A7080E9406010E94A7080E9404010E940A
S11330D0A7080E9406010E94A708113039F40E9433
S11330E004010E94A7080E94060112C0123039F49C
S11330F00E9404010E94A7080E940601C0C0133068
S113310009F0B7C00E9406010E94A7080E940401AA
S11331100E94A7080E9404010E94A7080E940601B9
S11331200E94A7080E9404010E94A7080E940401AB
S11331300E94A7080E9404010E94A7080E9404019B
S11331400E94A70800000E944703F701819391930E
S11331507F01143009F0A8CF0FBF8091A80390918C
S1133160A903AC015695479560E070E04093950241
S11331705093960260939702709398024091AC0327
S11331805091AD03C090AE03D090AF034A01FFE36A
S11331908F229924A6E0880C991CAA95E1F7960140
S11331A02F733327822A932AA12CB12C8092B10247
S11331B09092B202A092B302B092B402B6E0D69456
S11331C0C794BA95E1F7E12CF12CC0922B03D0926D
S11331D02C03E0922D03F0922E0316E056954795AA
S11331E01A95E1F760E070E04093CF035093D00369
S11331F06093D1037093D2032091AA033091AB035F
S113320081709927982F8827990F990FA90166E053
S1133210569547956A95E1F7842B952BA0E0B0E08D
S11332208093DA039093DB03A093DC03B093DD0374
S1133230A9014F73552760E070E04093B9035093A0
S1133240BA036093BB037093BC0373E0880F991FA8
S1133250AA1FBB1F7A95D1F7915BAF4FBF4F8093E5
S1133260F7029093F802A093F902B093FA0282E075
S113327000C10E9406010E94A7080E9404010E9446
S1133280A7080E9406010E94A7080E94040148CFD3
S1133290F8940E94AE08000000000E9406010E94FB
S11332A0A7080E9406010E94A7080E9406010E9426
S11332B0A70880913602833079F40E9406010E94A7
S11332C0A7080E9404010E94A7080E9406010E9408
S11332D0A7080E94040110C0823081F40E940601F4
S11332E00E94A7080E9404010E94A7080E940401EA
S11332F00E94A7080E9406010E94A70815E00E94E8
S113330004010E94A7081150D1F71092350244E23B
S113331050E060E070E081E00E94FC090FBF66C6E7
S11333201FB7F8940E9447039093A2028093A102CE
S11333301FBF0091A1021091A20280913602823037
S113334009F0AEC0980140E050E08091F7029091FE
S1133350F802A091F902B091FA02281B390B4A0B2A
S11333605B0B2093430230934402409345025093F5
S113337046028090B9039090BA03A090BB03B0902A
S1133380BC03C501B4016E5C7F4F8F4F9F4F0E94F9
S11333903425EAE09595879577956795EA95D1F771
S11333A0FB01E853FF4FE83CF105BCF4CF01AA2729
S11333B097FDA095BA2F78ECC72ED12CE12CF12CD7
S11333C0C81AD90AEA0AFB0AA5019401285E3F4FEC
S11333D04F4F5F4FABE0B0E01BC0E33C21E0F2078E
S11333E0ACF1CF01AA2797FDA095BA2F62ECC62EA7
S11333F0DD24D394E12CF12CC81AD90AEA0AFB0A79
S1133400A5019401285E3F4F4F4F5F4FA3E0B0E00A
S11334100E945E259B01AC01C701B6010E943425C0
S11334209B01AC01C701B6010E94342554E1959576
S11334308795779567955A95D1F76093840470932F
S11334408504809386049093870408C010928404B2
S1133450109285041092860410928704809184044B
S113346090918504E81BF90BF093E103E093E003EA
S113347083E0809336020F90DF91CF911F910F91DB
S1133480FF90EF90DF90CF90BF90AF909F908F9080
S11334907F906F905F904F903F902F900C948F018E
S11334A0833009F0A3C5109236020E945F07409052
S11334B0430250904402609045027090460260912D
S11334C02B0370912C0380912D0390912E03A30163
S11334D092010E9434259B01AC018AE055954795E1
S11334E0379527958A95D1F7809195029091960208
S11334F0A0919702B0919802280F391F4A1F5B1FB1
S1133500305A4F4F5F4FB80180E090E07C51810901
S113351091090E9434256B017C019EE0F594E794A7
S1133520D794C7949A95D1F78090B1029090B20243
S1133530A090B302B090B40222E0880C991CAA1C9B
S1133540BB1C2A95D1F72091CF033091D003409131
S1133550D1035091D203325041095109C301B20140
S11335600E9434253CE095958795779567953A9523
S1133570D1F7860E971EA81EB91EC818D908EA08E6
S1133580FB08AAE0B0E0A70196010E945E2545E091
S113359095958795779567954A95D1F79B012C5317
S11335A0364F3093E3032093E2038091E00390913C
S11335B0E103883C910544F54091840450918504CD
S11335C06DEF6403F001659FF00D1124C901AA2772
S11335D097FDA095BA2F8C5A9D40A109B1090EE020
S11335E0B595A795979587950A95D1F7E89FA0017A
S11335F0E99F500DF89F500D1124420F531F509313
S1133600E3034093E20324C0833C91400CF1C901DD
S1133610AA2797FDA095BA2F80519742A109B10915
S11336201DE0B595A795979587951A95D1F7E091E3
S11336308404F0918504E89FA001E99F500DF89F50
S1133640500D1124241B350B3093E3032093E20324
S113365080EE93E00F90DF91CF911F910F91FF9037
S1133660EF90DF90CF90BF90AF909F908F907F901E
S11336706F905F904F903F902F900C9427048FB7DA
S1133680F894909157029093120293E0909333022E
S11336908FBF809112028111A9C49091150280916B
S11336A03602992321F081110AC081E003C08111FF
S11336B006C082E0809336020E948F0106C00E94F9
S11336C05F0780E090E00E942704109215028EC4E8
S11336D081E08093340266CA82E08093340281E000
S11336E061CA80919402811141C04091CB035091F1
S11336F0CC036091CD037091CE032FB7F8948091E1
S1133700EA039091EB03A091EC03B091ED03C09018
S11337105802D0905902E0905A02F0905B028C0D4E
S11337209D1DAE1DBF1D2FBF4093CB035093CC03F3
S11337306093CD037093CE03109294022FB7F89444
S113374031E03093B0028093580290935902A093D1
S11337505A02B0935B024093EA035093EB036093E5
S1133760EC037093ED032FBF0E9495070E94AB02F8
S11337703AC00E94AB022FB7F8941092B0022FBF48
S1133780E0E7F3E020E044244A94542C642CAFE7AF
S11337907A2E308531FF1AC0C080D180E280F38058
S11337A04B015C018C189D08AE08BF08C480D5800D
S11337B0E680F780C818D908EA08FB08C414D504C1
S11337C0E604F7041CF42601370121E0399633E0BE
S11337D0ED39F307F1F6222309F408C4141415048F
S11337E016041704ACF00F90DF91CF911F910F9145
S11337F0FF90EF90DF90CF90BF90AF909F908F900D
S11338007F906F905F904F903F902F900C94F00AB0
S11338104092CB035092CC036092CD037092CE03BE
S113382021E0209394022FB7F89431E03093B00252
S1133830609358027093590280935A0290935B02EA
S11338404092EA035092EB036092EC037092ED0312
S11338502FBF0F90DF91CF911F910F91FF90EF90A9
S1133860DF90CF90BF90AF909F908F907F906F909C
S11338705F904F903F902F900C9495078091300269
S1133880882309F4B3C3809193038D7F80939303BA
S11338900E94E50290E0182F00270E94E502082B01
S11338A00E94E5020E9400010E94F8000E94FE00AE
S11338B00E94FC0080914F02909150028330910548
S11338C019F0059771F092C310923002809183042D
S11338D081118CC30E942807109369030093680325
S11338E03CC01092300280918304813009F07EC381
S11338F00E9428071093D5030093D40364C08091D9
S11339004F02909150028630910531F0079709F0EB
S11339106DC3109230026AC31092300210922E02CC
S113392065C38FB7F8949091490290930E0293E087
S113393090932C028FBF20910E02222319F0213084
S1133940B9F154C38091110281111DC080E00E941D
S11339502807109269031092680381E00F90DF91A9
S1133960CF911F910F91FF90EF90DF90CF90BF9078
S1133970AF909F908F907F906F905F904F903F900B
S11339802F900C940503809130028111DFCF81E0E8
S11339908093300283E090E09093500280934F0232
S11339A0109283040E942F0D882309F41FC3CECFE5
S11339B08091110281111DC081E00E94280710929C
S11339C0D5031092D40380E00F90DF91CF911F9123
S11339D00F91FF90EF90DF90CF90BF90AF909F90AA
S11339E08F907F906F905F904F903F902F900C94AA
S11339F06902809130028111DFCF2093300285E08B
S1133A0090E09093500280934F02209383040E948D
S1133A102F0D882309F4EAC2CFCF81E080932D02D1
S1133A2082E0C0C882E080932D02BCC88FB7F894AE
S1133A30909117029330A9F58FBF8FB7F8949091A6
S1133A403A02913071F592E090933A028FBF2FB70A
S1133A50F89489E390E09093BB028093BA028AECD5
S1133A6093E090939F0280939E0281E080934D02A5
S1133A7097E0909391041092C903809339022FBF69
S1133A800E9461021FB7F89480919F038F7A816A24
S1133A9080939F0384E080933A020E94F3001FBF47
S1133AA0A5C28FBF35CA9091AF028091CA03182F67
S1133AB01F77933429F480E00E94F106812F0DC012
S1133AC081E00E94F106812F3CC08091AF028334D3
S1133AD0A1F580E00E94F10680E00F90DF91CF9184
S1133AE01F910F91FF90EF90DF90CF90BF90AF9018
S1133AF09F908F907F906F905F904F903F902F900A
S1133B000C9437048FB7F8949091B00390930A0201
S1133B1093E0909328028FBF80910A02882309F4CE
S1133B203FC0813009F062C283E88093AF0283E032
S1133B300E94B004882309F459C281E00E94F1066E
S1133B4080E00F90DF91CF911F910F91FF90EF9044
S1133B50DF90CF90BF90AF909F908F907F906F90A9
S1133B605F904F903F902F900C94871448EE53E051
S1133B7060E070E084E00F90DF91CF911F910F918E
S1133B80FF90EF90DF90CF90BF90AF909F908F9079
S1133B907F906F905F904F903F902F900C94FC0912
S1133BA083E48093AF0283E00E94B004882309F485
S1133BB01DC28FCF81E001C082E08093290283E09F
S1133BC00C94D2158FB7F89492E0909325028FBF8E
S1133BD08091040281110AC28091A3029091A402EF
S1133BE00E948F13882309F401C20E941806809151
S1133BF0A3029091A4025AC08091AC021092AC022C
S1133C00853029F480E00E944A011298EFC19AEFAE
S1133C10980F923008F4EAC18093AC02E7C10E9485
S1133C20CA002091AC02213069F58091A2038F5F14
S1133C308093A203863030F58091A3039091A4036E
S1133C403091AD02311112C03091A00331110EC078
S1133C509093A9028093A8022093AD028BED91E189
S1133C600E94EF010E94830880E001C085E08093F8
S1133C70EF03811102C083E001C082E08093AC02B3
S1133C8010E003C01092AC0211E00E947E131123D5
S1133C9009F4ACC10091A3031091A403F801828537
S1133CA08F3309F0A3C10E941806C8010F90DF9159
S1133CB0CF911F910F91FF90EF90DF90CF90BF9025
S1133CC0AF909F908F907F906F905F904F903F90B8
S1133CD02F900C947214E091D903F0E0EE0FFF1FC3
S1133CE0EF5AFD4F008111818FBFF80182858F3318
S1133CF001F50E949D019FB7F8948091D903E82FA4
S1133D00F0E0EE0FFF1FEF5AFD4F118300838F5F2A
S1133D10833010F58093D9038091B203815080934E
S1133D20B2039FBF8FB7F8949091B2039111D3CF90
S1133D309CC0F801E780F12CFE2CEE248681E82A51
S1133D400E949D01E816F90619F0EF20E09499F617
S1133D508FB7F8948FBFCFCF1092D903DDCFEFB7D1
S1133D60F8948091EB029091EC02A091ED02B09155
S1133D70EE021C012D019C01A20160E070E080E0D4
S1133D8090E003E00E94692551016201E12CF12CCD
S1133D9000E010E00E94A02559016A017B01F82F80
S1133DA0192F03E00E9469250F2F0E94A0255901B5
S1133DB06A017B01F82F192F03E00E9469250F2F58
S1133DC00E94A02559016A017B01F82F192F03E0F5
S1133DD00E9469250F2F0E94A02559016A017B01C9
S1133DE0F82F192F03E00E9469250F2F0E94A025A8
S1133DF001E00E94692529013A0100E20E9484251C
S1133E0049015A01D301C201B695A79597958795A3
S1133E10880D991DAA1DBB1DB7FF04C0BF7701966D
S1133E20A11DB11D8093EB029093EC02A093ED02CF
S1133E30B093EE02EFBF2FB7F8949093A70380934B
S1133E40A6032FBFD3C08FB7F89410929E0310928D
S1133E509D0310927F0410927E0410924C021092E3
S1133E604B0210926103109260038FBFBFC01FB753
S1133E70F89482E0809324020E94B6091FBF8091C7
S1133E8001028111B3C00E94C8000E94C600809143
S1133E90800481114CC08EEF91E001970196019747
S1133EA0E1F716980E94C40086E090E0019701961D
S1133EB00197E1F7169A60E083E00E948F0868E0BA
S1133EC082E00E948F088EEF91E00197019601979E
S1133ED0E1F76DE48EE00E948F0867EC89E00E94B0
S1133EE08F0860E885E00E948F0810922F038BE012
S1133EF08093A0026BE688E00E948F082F9A81E0ED
S1133F00809380040F90DF91CF911F910F91FF90C8
S1133F10EF90DF90CF90BF90AF909F908F907F9065
S1133F206F905F904F903F902F900C9487060F9066
S1133F30DF91CF911F910F91FF90EF90DF90CF9081
S1133F40BF90AF909F908F907F906F905F904F90B5
S1133F503F902F900C946D138091E803882309F40B
S1133F6045C026E6E22E23E0F22E10E001E0909117
S1133F70E803802F892379F0F70111821082802FC2
S1133F80809589238093E803111105C080E00E9485
S1133F904A010E949501000F1F5FF2E0EF0EF11C31
S1133FA0183029F723C080910002E82FF0E0EE0FCB
S1133FB0FF1FEA59FC4F1182108289830E944C141E
S1133FC089810F90DF91CF911F910F91FF90EF9016
S1133FD0DF90CF90BF90AF909F908F907F906F9025
S1133FE05F904F903F902F900C94AD0B0F90DF910A
S1133FF0CF911F910F91FF90EF90DF90CF90BF90E2
S1134000AF909F908F907F906F905F904F903F9074
S11340102F9008958FB7F89408958FBF08951F9235
S11340200F920FB60F9211240BB60F922F933F935A
S11340304F935F936F937F938F939F93AF93BF93AC
S1134040EF93FF930E94610280913A02843039F128
S1134050863021F0833009F04EC016C08091B9003B
S1134060887F90913902913049F4803429F483E0B7
S113407080933A0281E00DC084E026C08831E1F7E4
S113408083E080933A0208C080913902813021F4A0
S113409080E00E94FD0B2FC00E94AA0C2CC08091CE
S11340A091048E7F8093910480919F038F7D8093F0
S11340B09F039091B900987F983049F09091B9008E
S11340C0987F903121F081E00E94EC0C14C0806450
S11340D080939F0391E080913902813009F090E050
S11340E08091BA02880F892B8093BB0086E080936D
S11340F03A020E94F300FF91EF91BF91AF919F911B
S11341008F917F916F915F914F913F912F910F907C
S11341100BBE0F900FBE0F901F9018951F920F9219
S11341200FB60F9211240F900FBE0F901F90189589
S11341301F920F920FB60F9211240F900FBE0F9083
S11341401F9018951F920F920FB60F9211240F9083
S11341500FBE0F901F9018951F920F920FB60F92DB
S113416011240F900FBE0F901F9018951F920F925D
S11341700FB60F9211240F900FBE0F901F90189539
S11341801F920F920FB60F9211240F900FBE0F9033
S11341901F9018951F920F920FB60F9211240F9033
S11341A00FBE0F901F9018951F920F920FB60F928B
S11341B011240BB60F922F933F934F935F936F93FA
S11341C07F938F939F93AF93BF93EF93FF93EF9856
S11341D083E10E942501FF91EF91BF91AF919F91DF
S11341E08F917F916F915F914F913F912F910F909C
S11341F00BBE0F900FBE0F901F9018951F920F9239
S11342000FB60F9211240BB60F92EF92FF920F93F9
S11342101F932F933F934F935F936F937F938F934A
S11342209F93AF93BF93CF93DF93EF93FF93C0918B
S11342307800D091790078949FB7F894809199028E
S113424081FB002700F981709FBF81115AC08091C2
S11342507A00877F80937A001FB7F89480913702A1
S1134260833009F040C08091160281113CC08091D6
S11342706F03882309F464C02091380230E0C90137
S1134280019661E070E08130910511F480E090E0E6
S1134290E82FE695E695E695F0E0E159FC4FA0811C
S11342A0482F47707B0102C0EE0CFF1C4A95E2F7D1
S11342B0A701BA2FBE2131F040954A234083809351
S11342C0380206C08217930711F00196DCCF8FEFF6
S11342D080936E038FEF8093160281E08093370200
S11342E08BE00E9425011FBF002339F08FB7F8949B
S11342F0C093F0038FBF80E001C081E00E942501DC
S11343002AC08FB7F8948FBF2FB7F89480917A00A2
S113431086FB992790F9877F806190FB86F98F77D8
S113432080937A00877F80618F7B8F7780937A0078
S1134330877F80618F7B806880937A002FBF0BC05A
S113434081E0809316021092370280917A008F7771
S113435080937A00C8CFFF91EF91DF91CF91BF9105
S1134360AF919F918F917F916F915F914F913F9109
S11343702F911F910F91FF90EF900F900BBE0F9014
S11343800FBE0F901F9018951F920F920FB60F92A9
S113439011240BB60F922F933F934F935F936F9318
S11343A07F938F939F93AF93BF93EF93FF930E9459
S11343B01C012091B30030E02F5F3F4F80916102D8
S11343C090916202A0916302B0916402820F931FE4
S11343D0A11DB11D8093610290936202A0936302B8
S11343E0B093640278940E949507FF91EF91BF9176
S11343F0AF919F918F917F916F915F914F913F9179
S11344002F910F900BBE0F900FBE0F901F90189519
S11344101F920F920FB60F9211240BB60F922F9387
S11344203F934F935F936F937F938F939F93AF9338
S1134430BF93EF93FF930E941C01FF91EF91BF91F3
S1134440AF919F918F917F916F915F914F913F9128
S11344502F910F900BBE0F900FBE0F901F901895C9
S11344601F920F920FB60F9211240BB60F922F9337
S11344703F934F935F936F937F938F939F93AF93E8
S1134480BF93EF93FF932EB580919D0390919E036C
S1134490009739F0E0916003F0916103E80FF91F90
S11344A0208380916003909161030196909361034E
S11344B0809360038CB58F778CBD8091600390915D
S11344C0610360914B0270914C028617970708F0C4
S11344D03FC020917E0430917F04E0919D03F091D0
S11344E09E03AC01465F5F4F6417750708F4AB0188
S11344F04150510984179507C8F42115310549F035
S1134500D901A80FB91F6C916EBD0DB407FEFDCF84
S113451004C01EBC0DB407FEFDCF6EB5309721F06C
S1134520DF01A80FB91F6C930196E4CF4CB5406826
S11345304CBD2115310531F0F901E80FF91F208137
S11345402EBD01C01EBC909361038093600311C013
S113455010929E0310929D0310927F0410927E0489
S113456010924C0210924B0210926103109260035D
S11345708EB5FF91EF91BF91AF919F918F917F91F4
S11345806F915F914F913F912F910F900BBE0F90C0
S11345900FBE0F901F90189578941F920F920FB62C
S11345A00F9211240BB60F922F933F934F935F9367
S11345B06F937F938F939F93AF93BF93EF93FF93E7
S11345C080916F008D7F80936F0078948FB7F894FB
S11345D09091A003913019F492E09093A0038FBFBF
S11345E00E946D13FF91EF91BF91AF919F918F91B5
S11345F07F916F915F914F913F912F910F900BBEDF
S11346000F900FBE0F901F90189578941F920F92E1
S11346100FB60F9211240F900FBE0F901F90189594
S113462078941F920F920FB60F9211240F900FBE21
S11346300F901F90189578941F920F920FB60F92B7
S113464011240BB60F922F933F934F935F936F9365
S11346507F938F939F93AF93BF93EF93FF93E6E87A
S1134660F0E080819181808191812FB7F8949093BB
S1134670F1028093F00281E08093BE032FBF0E9479
S11346806D13FF91EF91BF91AF919F918F917F91A6
S11346906F915F914F913F912F910F900BBE0F90AF
S11346A00FBE0F901F90189578941F920F920FB61B
S11346B00F9211242F938F939F93AF93BF932FB790
S11346C0F89480916A0390916B03A0916C03B0916C
S11346D06D030196A11DB11D80936A0390936B0332
S11346E0A0936C03B0936D032FBFBF91AF919F91C3
S11346F08F912F910F900FBE0F901F901895CFB7E9
S1134700F89414BE88E10FB6F89480936000109278
S113471060000FBE4AE250E06FEF70E089E692E07D
S11347200E94B8258FEF8093D60380938E04569809
S11347305E9854985C9880916F008F7D80936F0091
S11347400E94C8000E94C600279A0E94C4000E9AC4
S1134750169A8CEF92E090935D0280935C02109223
S1134760EF028AE58093A70281E08093810080E2D2
S11347708093B60083E08093B1008091840090918F
S113478085004AE720918400309185002817390775
S113479008F44150442311F0C901F4CF8091B200D0
S11347A09091B2009817E1F3209184003091850034
S11347B08091B2009091B2009817E1F38091840047
S11347C0909185004096821B930BF5E09695879512
S11347D0FA95E1F79093D8038093D7031092B10030
S11347E0109281001092B6001092B20010928500CF
S11347F0109284008FEF87BB86BB8091B6008571D1
S1134800E1F70A9A099A089A129A119A109A18B812
S11348108FEF87B90C981498109285001092840039
S113482080916F00816080936F0080918100887F08
S113483082608093810080E0877F8F7E8F7D8F7B75
S11348408F7780937A000E940801D82F8F3F19F048
S11348500E942915F8CF809366020E94A505E09175
S11348602102F0912202AF014F5F5F4F60E070E0E0
S11348704093EB025093EC026093ED027093EE02CE
S113488021EF33E0309352022093510220E234E0CE
S113489030935402209353022FE434E030935602B1
S11348A0209355022FEF3FEF3093C0032093BF03B3
S11348B03093C2032093C1033093C4032093C303F2
S11348C03093C6032093C5033093C8032093C703D2
S11348D0E295E07FE0934202D0939D023093DF03A0
S11348E02093DE0330935F0220935E028091B60032
S11348F080628093B6008091B60081FDFCCF82E097
S11349008093B0008091B60080FDFCCF83E080935B
S1134910B1008091B60083FDFCCF86EE8093B30096
S1134920809170008260809370000E9495078FEFE1
S11349308093AA0210926F0388E490E09093480257
S113494080934702109288041092AE0210924102A2
S1134950109230038FEF9FEFDC018093E403909378
S1134960E503A093E603B093E70329E430E0309332
S11349708204209381041092F2021092EE031092AA
S11349804E021092E9038093F3029093F402A093F1
S1134990F502B093F6029093A6028093A5020E94BA
S11349A008018F3F19F00E942915F9CFCFBF7894E1
S11349B00E94FA14CFB7F8940E9408018F3F09F0BF
S11349C04FC080917000837099F08091B6008A7115
S11349D0E1F78091B3009091B200891B8C3010F400
S11349E092E007C08091B200853FD0F793E001C008
S11349F095E080916E008670E9F480916F008E726C
S1134A00C9F4809171008E72A9F40CB407FC12C031
S1134A108091C100887171F48091C900887151F44A
S1134A208091BC0082FD06C080917A0087FF04C09B
S1134A30E1E003C0E0E001C0E5E083B79E1708F4BD
S1134A40E92FF0E0E05CFE4FE491807F81608E2BE3
S1134A5083BF78948895F89483B78E7F83BFACCF57
S1134A60CFBF0E942915A6CFDB018F939F930E948D
S1134A705E25BF91AF91A29F800D911DA39F900DC4
S1134A80B29F900D11240895AA1BBB1B51E107C0CE
S1134A90AA1FBB1FA617B70710F0A61BB70B881FCA
S1134AA0991F5A95A9F780959095BC01CD01089559
S1134AB0EE0FFF1F0590F491E02D09940E94A925A3
S1134AC0A59F900DB49F900DA49F800D911D11245E
S1134AD008950F93083090F0982F872F762F652F25
S1134AE0542F432F322F22270850F4CF220F331F85
S1134AF0441F551F661F771F881F991F0A95B2F719
S1134B000F91089597FB10F8169400080F9308303E
S1134B1098F00850232F342F452F562F672F782FC6
S1134B20892F902DF4CF0594979587957795679560
S1134B3057954795379527950A95AAF70F910895A4
S1134B402A193B094C095D096E097F09800B910BF9
S1134B500895A29FB001B39FC001A39F700D811D52
S1134B601124911DB29F700D811D1124911D089572
S1134B70DC0101C06D9341505040E0F70895F89472
S1054B80FFCF61
S1134B8201FFFFFFFFFFFF22010002FFFF0302FFFD
S1134B92FF0101FFFF0101FF04FFFF04FFFF02FF0A
S1074BA2FF0100000B
S9030000FC
