S01700006275696C642F697269732F6D61696E2E7372656343
S11300000C94AA010C94C9010C94C9010C94C90163
S11300100C94C9010C94C9010C94C9010C94C90134
S11300200C94C9010C94C9010C94C9010C94C90124
S11300300C94C9010C944D250C94C9010C94912580
S11300400C94A4260C9455260C948E260C94992674
S11300500C94DD260C94C9010C94C9010C94C901BB
S11300600C94B9250C94C9010C94C9010C94C901D0
S11300700C94C9010C94C9010C94C9010C94C901D4
S11300800C94C9010C94C9010C94C9010C94C901C4
S11300900C94C9010C94C9010C94C9010C94C901B4
S11300A00C94C9010C94C9010C94C9010C94C901A4
S11300B00C94C9010C94C9010C94C9010C94C90194
S11300C00C94C9010C94C9010C94C901271927196E
S11300D02719431943194319431929192C192F199D
S11300E0321936193A193E197F1A7F1A7F1A921A51
S11300F0921A921A831A861A891A8C1AFB1C191DD1
S1130100371D671CAA1CC91CC91CD71CD71C541E2C
S11301109C1E1D1F501F731F941FAE1FEC1F4620F3
S11301207E22E12288229C22892407231E23752310
S11301308E24BA24E624F924202589240C247C2442
S11301403625362536250F242A2448246124000226
S11301500E060C0400002110422063308440A55098
S1130160C660E770088129914AA16BB18CC1ADD1F9
S1130170CEE1EFF13112100273325222B5529442A1
S1130180F772D662399318837BB35AA3BDD39CC349
S1130190FFF3DEE36224433420040114E664C774ED
S11301A0A44485546AA54BB528850995EEE5CFF599
S11301B0ACC58DD55336722611163006D776F66641
S11301C09556B4465BB77AA719973887DFF7FEE7E9
S11301D09DD7BCC7C448E5588668A778400861180D
S11301E002282338CCC9EDD98EE9AFF94889699939
S11301F00AA92BB9F55AD44AB77A966A711A500AE1
S1130200333A122AFDDBDCCBBFFB9EEB799B588B88
S11302103BBB1AABA66C877CE44CC55C222C033C2C
S1130220600C411CAEED8FFDECCDCDDD2AAD0BBDD8
S1130230688D499D977EB66ED55EF44E133E322E80
S1130240511E700E9FFFBEEFDDDFFCCF1BBF3AAF28
S1130250599F788F8891A981CAB1EBA10CD12DC186
S11302604EF16FE18010A100C230E320045025401C
S113027046706760B9839893FBA3DAB33DC31CD37C
S11302807FE35EF3B1029012F322D232354214526C
S113029077625672EAB5CBA5A89589856EF54FE5C8
S11302A02CD50DC5E234C324A014810466744764BC
S11302B024540544DBA7FAB79987B8975FE77EF71C
S11302C01DC73CD7D326F2369106B016576676760C
S11302D0154634564CD96DC90EF92FE9C899E989E8
S11302E08AB9ABA94458654806782768C018E1085C
S11302F08238A3287DCB5CDB3FEB1EFBF98BD89BBC
S1130300BBAB9ABB754A545A376A167AF10AD01AAB
S1130310B32A923A2EFD0FED6CDD4DCDAABD8BAD07
S1130320E89DC98D267C076C645C454CA23C832CFB
S1130330E01CC10C1FEF3EFF5DCF7CDF9BAFBABF5B
S1130340D98FF89F176E367E554E745E932EB23E4B
S1130350D10EF01E11241FBECFEFD1E2DEBFCDBF00
S113036012E0A0E0B2E0E0EAF3E500E00BBF02C077
S113037007900D92A433B107D9F725E0A4E3B2E0C6
S113038001C01D92A03CB207E1F70E9408270C941B
S1130390CE290C9400005D980895139A08952F981F
S11303A00895289A0895209A0895FC012081618176
S11303B0862F90E0A0E0B0E077276627922B238178
S11303C0622B2281722B0895FC01CB01438352835B
S11303D061839083BA0108959FB7F894809145038F
S11303E08F5F809345039FBF08950DB407FEFDCF33
S11303F08EB50895982F0DB407FEFDCF8EB59EBD22
S11304000895289808958627082E8295807F802550
S1130410092E982F82958F7008268695982789270C
S1130420880F880F880F802508958091DA048F3F04
S113043071F0E82FF0E0E156FD4F90819093DA04DB
S11304409F3F11F49093B8059FEF908308958FEF29
S113045008958091B0008093B0008091B60081FD32
S1130460FCCF08959FB7F894E82FF0E0E156FD4FD4
S113047020812F3FC9F421E030E0E091B805E8176E
S113048011F020E030E0232B79F42091DA042F3F9F
S113049019F48093DA0404C0F0E0E156FD4F808340
S11304A08093B80580E001C085E09FBF089587E090
S11304B00C943202CF939FB7F89420913B02211100
S11304C01FC021E020933B028093B8049FBFCFB7A5
S11304D0F89480910302843089F480913B02813046
S11304E021F481E10E94320209C0823039F4809102
S11304F0B8048093030283E080933B02CFBF05C01E
S11305002091B804281303C09FBF80E022C0E82FC5
S1130510F0E0E052FB4F20812F3FC9F421E030E0AE
S1130520E0910402E81711F020E030E0232B79F485
S1130530209105022F3F19F48093050204C0F0E0D6
S1130540E052FB4F80838093040280E001C085E089
S11305509FBFCF9108952FB7F8943091B200809146
S11305609A0290919B02A0919C02B0919D02B99B2A
S11305700FC04091B3003091B200BC01CD016F5F58
S11305807F4F8F4F9F4F640F711D811D911D02C0BE
S1130590BC01CD01630F711D811D911D2FBF0895F5
S11305A02F923F924F925F926F927F928F929F927F
S11305B0AF92BF92CF92DF92EF92FF920F931F936D
S11305C0EFB7F8948091740390917503A09176032A
S11305D0B09177031C012D019C01A20160E070E041
S11305E080E090E003E00E94682951016201E12C5F
S11305F0F12C00E010E00E949F2959016A017B015F
S1130600F82F192F03E00E9468290F2F0E949F29B9
S113061059016A017B01F82F192F03E00E94682910
S11306200F2F0E949F2959016A017B01F82F192F6E
S113063003E00E9468290F2F0E949F2959016A0133
S11306407B01F82F192F03E00E9468290F2F0E94C5
S11306509F2901E00E94682929013A0100E20E94D1
S1130660832949015A01C301B2019695879577956B
S11306706795680D791D8A1D9B1D97FF05C09F779F
S11306806F5F7F4F8F4F9F4F609374037093750319
S11306908093760390937703EFBF1F910F91FF90A0
S11306A0EF90DF90CF90BF90AF909F908F907F900E
S11306B06F905F904F903F902F9008952FB7F894CC
S11306C080910E0290910F022FBF08950F931F93F4
S11306D02FB7F8948091510490915204A09153043F
S11306E0B09154040091840010918500B09B07C020
S11306F00196A11DB11D00918400109185002FBFAA
S11307007727662720E030E0602B712B822B932B18
S11307101F910F910895EFB7F894209184003091C0
S113072085002D5F3F4FA901481B590B46175707FA
S113073018F49C01260F371F2115310511F421E00F
S113074030E021503109309389002093880082E001
S113075086BB80916F00826080936F00EFBF089525
S11307600F931F93CF93DF938C012FB7F894C0910D
S11307709D04D0919E04CE018F5E9E4F90939E0463
S113078080939D042FBF89E00E943202CE01B801FC
S11307900E942B298A5D9E4FDF91CF911F910F916B
S11307A00895E4E5F1E06927660FF11DE60FF11DF8
S11307B0C895982F802D3196C89590250895CF938C
S11307C0CFB7F89490913A0291110BC091E09093B5
S11307D03A028093000282E10E943202CFBF80E09D
S11307E022C0E82FF0E0E25BFC4F90819F3FC9F408
S11307F021E030E0E0910102E81711F020E030E060
S1130800232B79F4909102029F3F19F48093020202
S113081004C0F0E0E25BFC4F80838093010280E03F
S113082001C085E0CFBFCF910895CF92DF92EF92C0
S1130830FF920F931F9380933C026093CD04C901F0
S1130840880F892F881F990B91958093CE04220FCE
S1130850212B2093CF040093D004D0929104C09212
S11308609004F0928003E0927F0340937D0380E143
S11308701F910F91FF90EF90DF90CF900C94320274
S1130880813041F080F0823041F0833049F080E0E3
S113089098E00895CB0193950895CB019E5F089548
S11308A0CB019D5F0895CB010895282F3FB7F8949D
S11308B09BB1977D9BB980E027FD5B9A5D9A4A992D
S11308C080689BB926FD5B9A5D9A4A9980649BB9BE
S11308D025FD5B9A5D9A4A9980629BB924FD5B9AD7
S11308E05D9A4A9980619BB923FD5B9A5D9A4A9906
S11308F088609BB922FD5B9A5D9A4A9984609BB992
S113090021FD5B9A5D9A4A9982609BB920FD5B9AAE
S11309105D9A4A9981603FBF0895CF92DF92EF922A
S1130920FF92CF93DF93282F30E04BE0849FF001B8
S11309301124EB5BFD4F4281538164817581452B0A
S1130940462B472B69F080819181880F991F9183F1
S113095080838130944020F080E094E09183808310
S11309608BE0829FE001839FD00D1124CB5BDD4F90
S11309708E819F81A885B9858A839B83AC83BD833F
S1130980C880D980E12CF12C79E0CC0CDD1CEE1C64
S1130990FF1C7A95D1F70E94D00228813981422F19
S11309A0440FCB0160E0742F0E942B29C80ED91E7E
S11309B0E11CF11CC901A0E0B0E0EAE0880F991F36
S11309C0AA1FBB1FEA95D1F78C199D09AE09BF096F
S11309D08E839F83A887B9878A819B81AC81BD81DF
S11309E08C0D9D1DAE1DBF1D8A839B83AC83BD836F
S11309F0DF91CF91FF90EF90DF90CF9008954FB7A4
S1130A00F894FC01B3E0F695E795BA95E1F7ED5655
S1130A10FB4F8770992721E030E001C0220F8A95AF
S1130A20EAF78081822B80834FBF0895CF92DF92B3
S1130A30EF92FF920F931F93CF93CFB7F894209127
S1130A40B3009091B20087B3291711F081FF02C05F
S1130A50CFBF78C080916503811102C086EE3AC091
S1130A600E94AB0200919102109192022091930294
S1130A7030919402C090E504D090E604E090E7043D
S1130A80F090E804601B710B820B930B6C157D05D1
S1130A908E059F0528F01092650386EE31E01BC099
S1130AA0D701C601800F911FA21FB31F40919A0264
S1130AB050919B0260919C0270919D02841B950B46
S1130AC0A60BB70B873E9105A105B10538F6823018
S1130AD008F482E030E02FEF280F9091B60093FDE8
S1130AE0FCCF9091B200291301C0282F80919A0263
S1130AF090919B02A0919C02B0919D02AC01BD011A
S1130B004F5F5F4F6F4F7F4F420F511D611D711D2E
S1130B10481759076A077B0710F4282F20958091FE
S1130B20B60083FDFCCF2093B300CFBF332351F035
S1130B3080E0CF911F910F91FF90EF90DF90CF90C5
S1130B400C943202CF911F910F91FF90EF90DF90A0
S1130B50CF900895019701960197E1F70895909138
S1130B603402992311F081E00895823031F083300A
S1130B7031F0813041F480E103C08EE001C08FE0A8
S1130B800E94DF0301C081E091E0811190E0909325
S1130B903402992341F31092CA0480E008958FB778
S1130BA0F89490910002913141F490913A0292307C
S1130BB021F48FBF85E10C9432028FBF81E10C9444
S1130BC0DF030F931F93CF93DF93EC018C010B5F33
S1130BD01F4F80E090E069910E94D103C017D107B4
S1130BE0D1F7DF91CF911F910F910895CF93CFB794
S1130BF0F89480913E0281110BC081E080933E0203
S1130C00109207028CE00E943202CFBF80E01FC026
S1130C1080917E038F3FC9F481E090E0E091080267
S1130C20EE2311F080E090E0892B79F480910902A1
S1130C308F3F19F41092090204C0F0E0E258FC4F0F
S1130C4010821092080280E001C085E0CFBFCF91EE
S1130C5008958F929F92AF92BF92CF92DF92EF92BC
S1130C60FF920F931F93E62FF0E09BE0699FD00162
S1130C701124A951BC4F9C91911146C0643018F4C1
S1130C80A0E0B1E002C0A0E0B0E04D01A12CB12C85
S1130C90BA2CA92C982C882482169306A406B5068F
S1130CA0A8F1821A930AA40AB50A8C149D04AE040E
S1130CB0BF0460F19BE09E9FD0019F9FB00D112463
S1130CC0A951BC4F8C9313962D933D934D935C93F4
S1130CD016971796CD92DD92ED92FC921A97129682
S1130CE01C930E931197613049F030F0623041F05B
S1130CF0633071F483E005C080E003C081E001C08B
S1130D0082E00E945A0204C085E003C086E001C06C
S1130D1080E01F910F91FF90EF90DF90CF90BF90F4
S1130D20AF909F908F900895CF92DF92EF92FF92B1
S1130D300F931F93C12CD12C760100E010E020E02A
S1130D4030E0A901682F83E00E9429061F910F91CA
S1130D50FF90EF90DF90CF9008958131D8F4E82F81
S1130D60F0E0EE5DFD4F8081813049F030F082305B
S1130D7041F0833079F482E005C080E003C083E071
S1130D8001C081E00E949406811105C091E0909316
S1130D903D02089581E00895CF92DF92EF92FF9291
S1130DA00F931F93C12CD12C760100E010E020E0BA
S1130DB030E0A901682F82E00E9429061F910F915B
S1130DC0FF90EF90DF90CF900895CF93C82F80913C
S1130DD03D02811121C0C131E8F4EC2FF0E0EE5D59
S1130DE0FD4F9081913049F030F0923041F09330D2
S1130DF089F482E005C080E003C083E001C081E0A3
S1130E000E94CC06811109C091E090933D02C093E9
S1130E10B20503C081E001C085E0CF910895CF936E
S1130E20CFB7F89490913B02933041F5909103022F
S1130E30981324C0809105028F3FC1F0E82FF0E0A1
S1130E40E052FB4F9081909305029F3F11F49093E1
S1130E5004029FEF90838093B8049093030281E08F
S1130E6080933B0281E10E94320205C084E08093BA
S1130E70030210923B02CFBF80E002C0CFBF81E0EB
S1130E80CF910895CF93CFB7F89490913A029230CE
S1130E9029F590910002981321C0809102028F3F9E
S1130EA0B1F0E82FF0E0E25BFC4F908190930202F6
S1130EB09F3F11F4909301029FEF9083809300026F
S1130EC081E080933A0282E10E94320204C080935E
S1130ED0000210923A02CFBF80E002C0CFBF81E08F
S1130EE0CF910895CF93CFB7F89480913F02823089
S1130EF029F580910A02811121C080910C028F3F53
S1130F00B1F0E82FF0E0E65BFC4F908190930C0287
S1130F109F3F11F490930B029FEF908380930A02FA
S1130F2081E080933F0285E00E94320204C08093F6
S1130F300A0210923F02CFBF80E002C0CFBF81E01F
S1130F40CF910895CF93CFB7F89480913E02823029
S1130F5041F580910702811124C0809109028F3FDD
S1130F60B1F0E82FF0E0E258FC4F90819093090231
S1130F709F3F11F4909308029FEF908380930702A0
S1130F8081E080933E028CE00E94320204C0809390
S1130F90070210923E028CB58F7B8CBDCFBF80E0E0
S1130FA002C0CFBF81E0CF91089585E080933C02D9
S1130FB080E10C943202CF92DF92EF92FF920F9372
S1130FC01F9380918402882341F01F910F91FF9019
S1130FD0EF90DF90CF900C94D50740915904242FC3
S1130FE030E0C901880F991F820F931FFC01EA5456
S1130FF0FD4F20813181FC01E854FD4F808182FF47
S113100004C0442331F068E807C0442321F063E8B6
S113101003C069E801C066E8CC24C394D12CE12C58
S1131020F12C00E010E040E089E00E9415041F91DB
S11310300F91FF90EF90DF90CF900895CF92DF92C1
S1131040EF92FF920F931F93CF93C82F8091840246
S1131050882349F0CF911F910F91FF90EF90DF907B
S1131060CF900C94D5072C2F30E0F901EE0FFF1F21
S1131070E20FF31FEA54FD4F20813181CC2311F09C
S113108060E601C061E6CC24C394D12CE12CF12CA0
S113109000E010E040E08AE00E941504C093570489
S11310A0CF911F910F91FF90EF90DF90CF90089513
S11310B0CF93DF931F92CDB7DEB789830E940102DD
S11310C0898180688EBD80E00E94FA010E94F5014A
S11310D089830E94D10189810F90DF91CF91089576
S11310E0BC0181E08093810380938F04809184000C
S11310F0909185000C948B031F93CF93DF931F92E1
S1131100CDB7DEB7182F69830E940102912F906C2E
S11311109EBD89810E94FA010E94F5010F90DF9122
S1131120CF911F910C94D10180911B02813019F44D
S113113082E00C943202089510923D028091B2052F
S1131140843021F0853011F0833011F40C9494082C
S11311500895CF93DF93FC01828190E0982F882734
S11311602181822B85FF14C087749C7C813498482C
S113117079F4C781D0E0DC2FCC278681C82B0E946C
S11311805E0321E0C817D90709F020E0822F01C0CF
S113119080E0DF91CF9108958CB58F7B8CBD229A2E
S11311A02398219A0E94D3018CB580618CBD8CB5A3
S11311B08F778CBD8CB5877F8CBD8CB58B7F8CBDB8
S11311C08CB580648CBD8DB581608DBD8CB58C7FF4
S11311D08CBD0895CF92DF92EF92FF92CF93C82FE8
S11311E06A017B010E94AB0229E0C29FF001112435
S11311F0E45AFB4F6083718382839383C482D582D4
S1131200E682F782808581608260808781E0CF9169
S1131210FF90EF90DF90CF900C9432020F931F93C6
S1131220CF93DF93CFE9D4E02091A304215081E050
S113123090E0A0E0B0E004C0880F991FAA1FBB1F74
S11312402A95D2F788839983AA83BB830E94D0020C
S11312508B019C0188819981AA81BB81AC01BD016C
S113126041505109610971096627772740235123A9
S113127062237323480F591F6A1F7B1F48835983B6
S11312806A837B83E4EAF4E080818E7F8083E6E7EF
S1131290F4E080818D7F808382E0DF91CF911F9184
S11312A00F910C94EA088091A304893029F089E015
S11312B08093A3040C940E0908950F931F930E9426
S11312C0AB028B019C018091770490917804A091EA
S11312D07904B0917A044091470250914802609198
S11312E0490270914A02411551056105710509F4DD
S11312F042C0FFB7F894E0919304E0FD33C0081BAB
S1131300190B2A0B3B0B0417150726073707C8F4DC
S1131310401B510B620B730B809147029091480262
S1131320A0914902B0914A02801B910BA20BB30B0E
S11313308093470290934802A0934902B0934A02D3
S113134014C081E090E0A0E0B0E080934702909365
S11313504802A0934902B0934A0241E050E060E0A1
S113136070E003C0EE7FE0939304FFBF83E01F911E
S11313700F910C94EA0880917F048D7F80937F0401
S11313801F910F910895CF9381E090E090934602CE
S11313908093450210924F02809147029091480237
S11313A0A0914902B0914A02892B8A2B8B2BE9F038
S11313B0CFB7F89480E090E00E94FF04CFBF109272
S11313C04702109248021092490210924A02109267
S11313D04B0210924C0210924D0210924E0280E089
S11313E00E948D04CF910C945D09CF9108958115CD
S11313F09E4D11F40C94C3090895882351F00E9462
S1131400D002772788279927605F7F4F8F4F9F4FA0
S11314100AC00E94D0026F777727882799276058DF
S11314207F4F8F4F9F4FAB01BC0181E00C94EA08C2
S11314308230D1F028F4882341F0813049F00895B6
S1131440833091F1843081F108951092430208951C
S113145080914202853051F58091730381508093CD
S1131460730380E00C94FD0982E294E0892BF1F08F
S113147080912704E82FE695E695E695F0E0EB5693
S1131480FB4F282F277081E090E001C0880F2A9538
S1131490EAF7809590818923808342E050E060E000
S11314A070E081E00C94EA08109260030895CF92F2
S11314B0DF92EF92FF920F931F93CF93C82F89016E
S11314C08131D0F5E82FF0E0EE5DFD4F9081913051
S11314D0B9F068F09230E9F0933071F586E1C82EE6
S11314E0D12CE12CF12C9A01AB0162E01AC036E157
S11314F0C32ED12CE12CF12C9A01AB0160E011C078
S113150026E1C22ED12CE12CF12C9A01AB0163E02F
S113151008C096E1C92ED12CE12CF12C9A01AB0123
S113152061E081E00E942906811107C091E0909357
S11315303D02C093B20501C081E0CF911F910F918C
S1131540FF90EF90DF90CF900895CF92DF92EF92CB
S1131550FF920F931F93CF93C82F67017801809157
S11315603D0281112EC0C13150F5EC2FF0E0EE5D4B
S1131570FD4F8081813079F048F0823089F08330EA
S1131580F1F489019A01AB0162E00EC089019A016C
S1131590AB0160E009C089019A01AB0163E004C0BA
S11315A089019A01AB0161E084E00E94290681115E
S11315B009C091E090933D02C093B20503C081E05D
S11315C001C085E0CF911F910F91FF90EF90DF90C4
S11315D0CF900895EF92FF920F931F93813049F0BB
S11315E030F0823041F0833051F488E005C086E069
S11315F003C089E001C087E00E94A50A01C081E020
S11316001F910F91FF90EF900895CF92DF92EF9288
S1131610FF920F931F93CF93C82F9A01AB0181318F
S1131620F0F5E82FF0E0EE5DFD4F90819130C9F0C8
S113163070F0923001F1933091F560E5C62E64E0CC
S1131640D62EE12CF12C00E010E062E01DC0F0E5A4
S1131650CF2EF4E0DF2EE12CF12C00E010E060E06E
S113166013C0E0E5CE2EE4E0DE2EE12CF12C00E008
S113167010E063E009C070E5C72E74E0D72EE12CBA
S1131680F12C00E010E061E085E00E942906811160
S113169007C091E090933D02C093B20501C081E080
S11316A0CF911F910F91FF90EF90DF90CF9008950D
S11316B0CF938FB7F89490910702911106C090913F
S11316C03E02923011F48FBF13C08FBFCFB7F8948E
S11316D080913E0281110EC082E080933E021092FE
S11316E007020E94CC08CFBF0E94D3010E94D101FF
S11316F081E004C0CFBF0E94F60580E0CF91089539
S1131700809164032CE1829FC00111249C01235821
S11317103A4FFC01E458FA4FE08146E1E49FF001BE
S11317201124DC01A558BA4F4C9150E060E070E000
S1131730AAE0440F551F661F771FAA95D1F74E0FD5
S11317405F1F611D711D80914102823051F0833011
S113175071F08130A1F480913D02811110C085E0C7
S11317600BC080913D0281110AC083E005C08091C5
S11317703D02811104C084E00E94570A8111109235
S1131780B5020895823051F0833071F08130A9F4AC
S113179080913D0281110FC085E00BC080913D0214
S11317A0811109C083E005C080913D02811103C00D
S11317B084E00C94AD0685E0089581E00895CF930C
S11317C0DF93CDB7DEB728970FB6F894DEBF0FBE10
S11317D0CDBF6B017C018FB7F8948E010F5F1F4F53
S11317E080EF9FE05C012FEFA21AB20A0E94B82991
S11317F0F80181938F01F8EFAF16FFE0BF0611F0F7
S1131800C501F0CFCB82DC82ED82FE828FEF8F8325
S1131810188680912002909121029A838983CE01B7
S113182001967C0180EF9FE0F70161917F018C01BB
S11318300F5F1F4F0E94C029083FFFE01F0711F0F0
S1131840C801F2CFF999FECF29E088E190E00FB604
S1131850F894A895809360000FBE20936000FFCF9A
S11318602F923F924F925F927F928F929F92AF926C
S1131870BF92CF92DF92EF92FF920F931F93CF9379
S1131880DF93EC018091500281113EC08091B1053B
S11318908530D1F58091BF04811136C00E94580B68
S11318A0882391F18CA582FF03C06EA56F7001C0DF
S11318B060E08091B103681731F06093B103606810
S11318C085E00E947C088A8190E0982F88272981EE
S11318D0822B87749C7C81349848C1F486E00E94F2
S11318E058088F7190E04091780320914B0330E0C9
S11318F0240F311D13E0359527951A95E1F7281724
S1131900390724F40E94A20785E092C069E082E0CE
S11319100E947C080E9466034B015C017E018FEFEC
S1131920E81AF80A18818CA5BEEF7B2E710E84FF8D
S113193008C00BEF010F9E012E193F09020F701A08
S113194002C0072D712C81E00E9458088F718930E4
S113195029F066E082E00E947C08D4CF8FB7F89427
S11319602F9AC0908400D09085008FBF0E94CF0131
S11319700E94010280E68EBD812F0E94FA01270198
S1131980102F1E0DF20181912F010E94FA011411F2
S1131990F9CF015010E0C701800F911F0F5F1F4F57
S11319A00E0D1F1DF2EACF0ED11CC818D908EE2463
S11319B0D7FCE094FE2CC80CD91CEA1CFB1C772035
S11319C009F15C012FEFA21AB20AC5010E94D501E8
S11319D01B012C01AB01BC014C195D096E097F0987
S11319E0C5010E94E401912CF801E90DF11D8081EB
S11319F00E94FA0193949710F7CFB201A101C50197
S1131A000E94E4010E94F5010E94D10166E082E097
S1131A100E947C088CA582608CA7C8A6D9A6EAA6D9
S1131A20FBA686E08093B10584E08093500280E0B9
S1131A30DF91CF911F910F91FF90EF90DF90CF90A6
S1131A40BF90AF909F908F907F905F904F903F900A
S1131A502F9008952F923F924F925F926F927F92B0
S1131A608F929F92AF92BF92CF92DF92EF92FF92AA
S1131A700F931F93CF93DF9300D01F92CDB7DEB7A0
S1131A8049E0842E55E0F52E64E0E62E72E0C72E80
S1131A90DD24D394E8E0BE2EF0E29F2EA0E8AA2E27
S1131AA08091BF04882309F4CAC08091B1058130B4
S1131AB009F4C5C00E94580B882309F4C0C08FB72D
S1131AC0F89400917B0310917C038FBF1092BF04A4
S1131AD08FE00E945808782E809150028B7F8330CB
S1131AE021F4F092B105B092500272FE48C0809188
S1131AF05002863011F410925002809150028111EC
S1131B003EC024E0721232C086E00E9458088F71F1
S1131B1090914B03292F26952695921B980F90930D
S1131B204B03E0919502F091960294A59B7F9860F7
S1131B3094A786A70E946603A80147505109461B33
S1131B40570B1A01442437FC4094542CE09195021D
S1131B50F091960224A5226024A7260E371E481E63
S1131B60591E20A631A642A653A607C0E0919502AD
S1131B70F091960284A5857F84A7F092500273FEAB
S1131B805EC080915002843009F048C0F092B105E3
S1131B901092500280919702833019F410929702A8
S1131BA04EC0E091B905F091BA05828190E0982F7A
S1131BB088272181822B85FF26C087749C7C8134F1
S1131BC0984809F5878190E0982F88272681822BF1
S1131BD021E030E0019611F420E030E0232B99F06D
S1131BE080918F0481110FC0C0928103D0928F0421
S1131BF0809184009091850069E973E00E948B03D1
S1131C00C09297021CC01092970210926303109224
S1131C10E904E09262030E94570211C0853079F40E
S1131C2086E00E94580890917803292F26952695DE
S1131C30921B8F71980F9093780380925002809139
S1131C405002882309F451C2893009F0BCC10E94B2
S1131C5001029EBC0DB407FEFDCF8EB51EBC0DB4B3
S1131C6007FEFDCF8EB59DEF980F973208F073C035
S1131C701EBCE0919502F09196023F015FEF651A58
S1131C80750A80839EEF492E480E86E0841518F469
S1131C9007E0502E01C0542C6A827B8200E010E0E1
S1131CA0352C360C80E00E94FA01AA81BB818D9309
S1131CB0BB83AA83682FC8010E9403028C01BA81E6
S1131CC03B12F0CF8FEF850D90E00196860D971DA6
S1131CD0E0919502F091960221812770223029F437
S1131CE0209197022230A9F50BC03FB7F89421E068
S1131CF04091B904433008F020E03FBF222349F16A
S1131D00742C75182C01780E80E0741459F00E941C
S1131D10FA01F20181932F01682FC8010E94030286
S1131D208C01F2CF0E94FA01682FC8010E940302BD
S1131D308C0180E00E94FA01682FC8010E9403020E
S1131D408C010E94F501E0919502F091960285A71D
S1131D5004C00E94F50101E010E00E94D101F0925C
S1131D60B10510925002012B09F0B6C140909502C2
S1131D7050909602D20111968C9111978770909190
S1131D809702823029F5923009F018C1E091B90523
S1131D90F091BA0513969C91838198130FC1809199
S1131DA06F008D7F80936F0010928F04E091B905CE
S1131DB0F091BA0584A5816084A7109297021092CD
S1131DC063031092E904E09262030E945702F6C092
S1131DD0911118C0C2010E94A908882399F0F092B9
S1131DE0B203C092B3031092B403F20183818093CF
S1131DF0B50382EB93E00E94300C811103C083E0B1
S1131E00809397020091840010918500C2010E9482
S1131E10A908882311F0045E1C4F10934604009314
S1131E20450480918400909185009801281B390B0A
S1131E30C9011816190684F420916303211109C0FD
S1131E4020918F04211108C00E947008A09263039E
S1131E5003C0206820936303D20119962C9119972B
S1131E6030E0322F222718968C91282B80919E02E5
S1131E70A82FB0E0FD01EE0FFF1FE054FB4F40819F
S1131E805181609192044217530759F4AD54BA4FEB
S1131E909C91961709F460C06F5F609392046C93F1
S1131EA01BC0E0ECF4E0A3EBB5E080E090E000E0E0
S1131EB010E0782F419151914217530779F48093A0
S1131EC09E02FC01ED54FA4F2081261709F444C008
S1131ED06F5F60939204608340E825C04D91562F54
S1131EE0541B452F151710F0702F412F0196853084
S1131EF0910519F0072F142FDCCF70939E02872FC2
S1131F0090E0FC01EE0FFF1FE054FB4F3183208370
S1131F106F5F60939204FC01ED54FA4F6083FC01FF
S1131F20E554FA4F108280919204982F9F779F373F
S1131F3019F080919E0210C04F37D8F3E3EBF5E01F
S1131F40282F207890819F6798132083319695E0FD
S1131F50E83BF907B9F7EDCFD20113969C91E82F2E
S1131F60F0E0DF01A554BA4F8C91E654FB4F80FF9B
S1131F7004C08081981303C021C081608C93908336
S1131F801FB7F8948091B9048330B8F4E091DD046C
S1131F90E80FE33008F0E350F0E0EE0FFF1FEB57DB
S1131FA0FD4F70800181518240828F5F8093B9041C
S1131FB088E00E943202472C502E1FBF5092960296
S1131FC04092950289C09FEF980F933008F06FC03C
S1131FD09EEF980F9230E8F51091B1051130B1F4ED
S1131FE080918F04811135C00E94CF0183E08093DA
S1131FF0810310938F0480918400909185006BE29B
S113200073E00E948B03C092B1053EC0833009F592
S11320101330F9F40E94580B8823D9F08FE00E9402
S113202058088091810080648093810096BA8091E1
S11320306F00806280936F0060914603606688E061
S11320400E947C0866E082E00E947C08E092B10570
S11320501BC08091500281508230B0F48091B10550
S1132060853091F40E94580B882371F063E082E07C
S11320700E947C0880916F008F7D80936F00109286
S1132080BF0483E08093B10580915002813041F414
S11320909091B105933001F52F9A8093B1051AC040
S11320A08230D1F48091B1058330B1F413C087300C
S11320B099F40E94580B882379F060914603606676
S11320C088E00E947C088091B105853019F4E09283
S11320D0B10502C0B092500280915002883029F4B8
S11320E01092500286E00E943202809150028111C7
S11320F01CC08091B1058530C1F48091BF04811169
S113210014C080919702811110C0809163038111E2
S11321100CC080918F04811108C0809162038230C9
S113212021F4D09262030E945702809150028111DF
S113213003C08AE00E94320280918F04823009F049
S113214089C010928F0420918103223009F465C064
S1132150233009F46DC0213009F07CC080918400E3
S1132160909185006090450470904604681A790A3D
S113217080916303803851F4109263038091620369
S1132180823009F067C0209362034FC087FF03C009
S113219016141704E4F000914C0310914D03809140
S11321A09702811114C0C8010E94300C282F81119C
S11321B00FC0F80184A58E7F84A7D0929702109354
S11321C0BA050093B90583E08093630343C025E017
S11321D080916303982F9F77913059F480788260BF
S11321E08093630380E198E00E94B0030E9470082A
S11321F031C087FF0BC01614170444F4A092630384
S1132200C30129830E947008298102C010926303CC
S11322102093E904D092620308C0109297021092AE
S113222063031092E904E09262030E94570212C011
S11322308091B105823019F42093B10509C08091D1
S11322405002863029F41092500281E00E9458080E
S11322500E944D118FB7F894909145039130C9F4C1
S1132260109245038FBF0F900F900F90DF91CF9185
S11322701F910F91FF90EF90DF90CF90BF90AF90A0
S11322809F908F907F906F905F904F903F902F9092
S11322900895D09245038FBF03CC8FB7F8949091E3
S11322A04503992329F09068909345038FBF0895BF
S11322B091E0909345038FBF0C942A0D9FB7F89437
S11322C080914503815080934503803811F09FBF6E
S11322D0089581E0809345039FBF0C942A0D0F93CA
S11322E01F93CF93DF931F92CDB7DEB78C018FE39B
S11322F0F8018287809144028F5F80934402838334
S11323000E94EC018091620381110DC010939C0422
S113231000939B0481E080936203109294040E94D2
S1132320570280E001C085E089830E945E118981A3
S11323300F90DF91CF911F910F910895EF92FF922B
S11323401F93CF93DF9300D0CDB7DEB7182F7A0158
S11323502D3108F078C0FA01428150E0542F44270F
S11323608181482BFA01E774FC7CE134F84841F0A0
S11323704073552741645868F701418388E8828394
S1132380235FF701208369837A830E945E03F70148
S1132390808791879FB7F89480910D029FBFF701C2
S11323A0848315821387698166837A8177838FB7E3
S11323B0F89490913F02911110C092E090933F02E3
S11323C010920A028FBFC7010E946F11182F882331
S11323D0C1F00E947207812F37C08FBFF09248036B
S11323E0E09247031FB7F89480913F0281110BC01C
S11323F081E080933F0210920A0285E00E9432023B
S11324001FBF80E021C080914A038F3FC9F481E05F
S113241090E0E0910B02EE2311F080E090E0892B34
S113242079F480910C028F3F19F410920C0204C0CD
S1132430F0E0E65BFC4F108210920B0280E001C0DA
S113244085E01FBF01C086E00F900F90DF91CF9110
S11324501F91FF90EF900895CF93DF93FB01242FFA
S1132460C82FD0E0CC0FDD1FC95BDB4F68817981B9
S1132470672BF1F4F983E8839DE0920F90839091A8
S113248010029530B8F09385678170E0762F662747
S11324903681632B80931002AF01892F0E949E1115
S11324A0882341F095E0909310021982188203C0AA
S11324B085E001C080E0DF91CF910895CF93DF9351
S11324C0EC0180919002882309F44FC0809160034D
S11324D081114BC08FE592E0892B09F446C081E05D
S11324E080936003C0936002D0935F02C1158EEDA8
S11324F0D80749F44091360250913702609138026E
S11325007091390203C040E050E0BA0181E692E0E4
S11325100E94E40181E692E00E94D501672B682BBA
S1132520692B89F0C115DE4D21F0C0E060E070E058
S113253003C0CAE06EEA74E04C2F50E085E692E0F6
S11325400E94A82901C0C0E08FEF809359028093B4
S11325505A0280E680935E0246E04C0F63E572E027
S113256083E0DF91CF910C942C12DF91CF910895E9
S113257082E294E0892B09F467C08091420284309E
S113258051F58091400281115FC081E08093400247
S113259085E08093420290915A0480915B04909369
S11325A0230480932204909120028091210290932D
S11325B025048093240440911202509113026091E7
S11325C014027091150286E294E00E94E401809165
S11325D0110280932A04809142028530A9F58091EA
S11325E0CC04882331F080E00E94FD091092CC04D1
S11325F0089580917303811103C081E00C94321318
S1132600E1EEF3E0ABE2B4E081918D9383E0E73E49
S1132610F807D1F78091220490E0982F8827209121
S11326202304822B80931C0490931D0481E58093E2
S113263021044FE066E174E081E00E942C128823BB
S113264019F080E00C94FD090895109240028091E5
S11326504202823019F0843019F008950C94A216C5
S11326600C94B812CF93DF931F92CDB7DEB78230AC
S113267050F490914202933011F0953021F4898303
S11326800E9425138981809342020F90DF91CF919C
S113269008950F931F93209142023EEF320F323080
S11326A030F500911702109118022091190230910F
S11326B01A0260177107820793074CF060177107BD
S11326C08207930781F580911602481760F581E02F
S11326D00E9432131092950410929604109297045B
S11326E0109298041092990410929A041CC02450D9
S11326F02230C8F4009112021091130220911402A6
S11327003091150260177107820793074CF0601728
S113271071078207930739F480911102841718F026
S113272081E08093CC041F910F910895E6E7F4E0D3
S113273080818D7F8083EDE6F4E080818D7F8083CE
S113274080E00E9432138FEF90E0A0E0B0E080932D
S1132750120290931302A0931402B09315028FEF08
S1132760809311021092E1031092E2031092E303AA
S11327701092E4031092E5031092E603109295047C
S1132780109296041092970410929804109299044F
S113279010929A0495E090931B02E5EAF4E0838397
S11327A0128211821082848387831092A30480E0B2
S11327B0089581E10E94420780913502823021F41C
S11327C080916D030E94AF050E949613109235020A
S11327D00895CF92DF92EF92FF920F931F9380910F
S11327E0AE04813031F008F44DC08350823020F0C3
S11327F049C00E94D91346C0809135028230B9F491
S11328008FEA94E00E94D5016B017C0189E693E094
S11328100E94D501C616D706E806F90631F4909150
S1132820B30480916D03981769F10E94D9138FEA5C
S113283094E00E94D501603F774989449641E9F0CC
S11328408091B30490918B029330E1F41092CB0405
S113285014E5E12EF12C00E010E021EF32E040E03D
S113286050E0BA010E94EA0A882319F080918B0291
S113287001C084E080938B0205C081E0809335021F
S11328800E94CF058AE0EEEAF4E0A8E6B3E0019006
S11328900D928A95E1F71F910F91FF90EF90DF90D1
S11328A0CF9008958852944019F580914202833064
S11328B0F9F4662319F081E00C94321390915A04D0
S11328C080915B0490931C0480931D0482E58093A3
S11328D021044CE166E174E082E00E942C1288231A
S11328E039F040E150E060E070E081E00C94EA08E7
S11328F00895CF92DF92EF92FF92CF93DF931F92CE
S1132900CDB7DEB76B017C0180914202811105C015
S113291081E049830E9432134981C0921202D0920D
S11329201302E0921402F0921502409311028FEF09
S11329308093E1038093E2038093E3038093E403B1
S11329408093E5038093E60380E00F90DF91CF91BD
S1132950FF90EF90DF90CF9008958F929F92AF9267
S1132960BF92CF92DF92EF92FF921F93CF93DF93A8
S113297000D000D0CDB7DEB780913502813021F090
S1132980823009F45DC08FC010916D038EE693E030
S11329900E94D5016B017C0189E693E00E94D50178
S11329A0AB01BC014C8359836A837B830E949613D9
S11329B082E080931B024C8159816A817B8185EA84
S11329C094E00E94E401D701C6010197A109B1096D
S11329D07AE0B695A795979587957A95D1F78F5F05
S11329E08093A9048093AC0485EA94E00E94E105F5
S11329F08093AB049093AA0480911B02823011F45B
S1132A000E94530984E080931B0210934102409179
S1132A10A90485EA94E04C830E94D5014C810F906F
S1132A200F900F900F90DF91CF911F91FF90EF9037
S1132A30DF90CF90BF90AF909F908F900C947914BB
S1132A4010916D038EE693E00E94D5016B017C0129
S1132A5089E693E00E94D5014B015C010E94961324
S1132A6080928C0290928D02A0928E02B0928F027C
S1132A70C0928904D0928A04E0928B04F0928C0470
S1132A8010938202123031F0133031F0113059F4C6
S1132A9085E003C083E001C084E00E94E506811163
S1132AA002C010921B020F900F900F900F90DF91B5
S1132AB0CF911F91FF90EF90DF90CF90BF90AF9098
S1132AC09F908F900895CF93DF931F92CDB7DEB779
S1132AD04091AC048091A9044817A0F485EA94E0DD
S1132AE049830E94D50149810E9479148091A404EC
S1132AF0817084608E7F8093A4040F90DF91CF91C6
S1132B000C9453094FEF6FEF70E080E090E00E9467
S1132B1079140E94961381E080931B0280918202B3
S1132B200F90DF91CF910C94C20B80911B02811105
S1132B303DC083E080931B0240918C0250918D0232
S1132B4060918E0270918F0285EA94E00E94E40104
S1132B508091890490918A04A0918B04B0918C0493
S1132B600197A109B109EAE0B695A79597958795CC
S1132B70EA95D1F78F5F8093A9041092AC0485EA9B
S1132B8094E00E94E1058093AB049093AA048091A1
S1132B901B02833011F40E94530984E080931B02CA
S1132BA080918202809341020C9463150895CF9220
S1132BB0DF92EF92FF92CF93DF9320916403422F31
S1132BC050E07CE1279F90011124F901E358FA4F6A
S1132BD0E817F90709F0A2C0662371F08FEF80931C
S1132BE0E1038093E2038093E3038093E4038093FF
S1132BF0E5038093E6035FC0F901E458FA4F80814E
S1132C00E82FE695E695E695F0E0EF51FC4F8770E6
S1132C1021E030E001C0220F8A95EAF720958081F7
S1132C2028232083CA010196817099278093640325
S1132C30F090B502FA94F092B5022FE230E080E011
S1132C4090E0CFE2D0E0FC01A3E0F695E795AA95E9
S1132C50E1F7EF51FC4F408150E0BC0167707727EA
S1132C6002C0559547956A95E2F740FD27C0019645
S1132C70BE010E942B29215031092115310519F774
S1132C80119AC0911102C0901202D0901302E090E8
S1132C901402F090150285EA94E00E94D501C6164C
S1132CA0D706E806F90621F48091AC04C81781F030
S1132CB081E00E9432131092B50230C0FF2071F1FE
S1132CC0DF91CF91FF90EF90DF90CF900C94800B29
S1132CD0CF5FC093AC0485EA94E00E94E105809341
S1132CE0AB049093AA048091A904C81718F40E9415
S1132CF06315DECF85EA94E00E94D5014C2F0E9433
S1132D00791481E080931B02809182020E94C20B9D
S1132D10882371F282E00E943202CACFDF91CF9100
S1132D20FF90EF90DF90CF90089510923D02209194
S1132D30B205243021F0253011F0233011F40C9425
S1132D40D7150895CF92DF92EF92FF920F931F93BE
S1132D50CF93DF93C09142028EEF8C0F823008F044
S1132D60A8C0C0901702D0901802E0901902F09009
S1132D701A0285EA94E00E94D501C616D706E80631
S1132D80F90629F48091A40481608093A404C230DC
S1132D90B1F48091400281118CC081E080934002A3
S1132DA083E080934202B701A60182E294E00E948C
S1132DB0E401809116028093260410922704E09087
S1132DC02704F12CC701CFE2D0E0FC0103E0F69523
S1132DD0E7950A95E1F7EB56FB4F208130E0AC0113
S1132DE04770552702C0359527954A95E2F720FF8D
S1132DF029C08093270446E1489F9001499F300DE4
S1132E0011244091160250E060E070E01AE0440F93
S1132E10551F661F771F1A95D1F7420F531F611D67
S1132E20711D80914102823001F1833039F181308A
S1132E3089F516E1E12EF12C00E010E028E234E0FF
S1132E4082E024C00196BE010E942B298E159F05A5
S1132E5009F0BBCF81E0DF91CF911F910F91FF90DB
S1132E60EF90DF90CF900C94321316E1E12EF12C09
S1132E7000E010E028E234E080E008C016E1E12E32
S1132E80F12C00E010E028E234E081E00E94A50A81
S1132E90882379F040E150E060E070E081E0DF9168
S1132EA0CF911F910F91FF90EF90DF90CF900C94F2
S1132EB0EA08DF91CF911F910F91FF90EF90DF907F
S1132EC0CF9008954F925F926F927F92BF92CF926C
S1132ED0DF92EF92FF920F931F93CF93DF93CCE592
S1132EE0D4E0E0E0F0E0B884B1FEC5C04880598089
S1132EF06A807B800C811D812E813F816B017C0166
S1132F00C418D508E608F708C016D106E206F30689
S1132F1008F4B1C0B0FE04C0E894B1F8B8860AC0A1
S1132F20D301C201800F911FA21FB31F888399830D
S1132F30AA83BB83E13079F030F0E23089F0E330EA
S1132F4009F465C09EC09FB7F89482B124E082273B
S1132F5082B99FBF96C00E94B8120E94A21691C067
S1132F608091A40480FD31C088EC92E0892B69F142
S1132F7080914302811129C0909120028091210205
S1132F809093C9028093C80282E08093CA0210928F
S1132F90CB0289E0E5EAF4E0ACECB2E001900D92FA
S1132FA08A95E1F78FEF8093C2028093C30280E594
S1132FB08093C7024EE06CEB72E080E00E942C121A
S1132FC0811103C081E080934302809142028230E8
S1132FD028F08091A4048170846009C08091A404C5
S1132FE0982F969531F09158990F8170892B809381
S1132FF0A4048091A4048E7F39F48091A3048631C3
S113300018F48F5F8093A3040E940E093AC0409184
S11330107B0450917C0460917D0470917E048091C6
S1133020470290914802A0914902B0914A02009748
S1133030A105B105E9F084179507A607B707C1F400
S113304080914F0281110BC09FB7F894809158046E
S11330508160809358049FBF84E10E94320280E023
S113306090E00E94FF0480E00E948D0410924F02C1
S11330700E945D0906C031962996E530F10509F0F4
S113308032CF81E0DF91CF911F910F91FF90EF90AC
S1133090DF90CF90BF907F906F905F904F900C9493
S11330A032021F93CF93DF938091100290E0019638
S11330B065E070E00E943F2915E0C5E0D0E0482FAC
S11330C050E0FA01EE0FFF1FE95BFB4F20813181D5
S11330D0232B91F0E82FE695E695E695F0E0EC5188
S11330E0FB4F208130E0982F977002C035952795CB
S11330F09A95E2F720FF08C0CA010196BE010E941A
S11331003F291150E1F685E080931002E09110020E
S1133110E530E0F4F0E0EE0FFF1FE95BFB4F0190B8
S1133120F081E02D20812D50678170E0762F662795
S11331308681682BAF0183850E949E11882331F01C
S113314084E0DF91CF911F910C943202DF91CF91F3
S11331501F910895CF93C0911002C53098F4EC2FBD
S1133160F0E0EE0FFF1FE95BFB4F20813181281750
S1133170390741F4118210820E9451188C2FCF918B
S11331800C94180ACF910895EF92FF920F931F9316
S113319080911304843088F410928B0214E5E12E9C
S11331A0F12C00E010E021EF32E040E050E0BA0101
S11331B0809172030E94EA0A22C00E94EC0180916D
S11331C06203811117C080915002811113C0809154
S11331D0B105813029F480918F0481110BC002C0A4
S11331E0853041F083E0809350020E944D1185E0C8
S11331F0809362030E945E1183E080938B021F918F
S11332000F91FF90EF90089580918B02823019F016
S1133210833071F4FFCFE0911304EF5FE093130464
S1133220F0E0E45EFD4F8081809372030C94C41837
S1133230089510923D024091B20550E0FA0133978F
S1133240EE30F10500F5EA59FF4F0C9453290C9424
S11332509515682F80E008C0682F82E005C0682FAC
S113326083E002C0682F81E00C94041910923402A8
S11332708EE007C0109234028FE003C01092340233
S113328080E10C9442070895EF92FF920F931F93ED
S113329020918B02223009F051C02091980230E035
S11332A0322F222740919902242B82179307B1F0E1
S11332B080917203813049F030F0823069F08330BC
S11332C0E9F58CE003C08AE001C08DE01F910F9105
S11332D0FF90EF900C94E5068BE0F8CF4091490302
S11332E04F5F409349038091F9024817B0F481E09D
S11332F080938B0250E0405C5F4F440F551F60E0A9
S113330070E012E0E12EF12C00E010E028E932E058
S1133310809172030E94EA0A11C0E0911304EF5FE6
S1133320E0931304F0E0E45EFD4F80818093720328
S11333301F910F91FF90EF900C94C4181F910F915F
S1133340FF90EF90089510923D022091B20527302E
S113335049F018F4263031F00895283019F0293056
S113336009F008950C944419CF92DF92EF92FF92E2
S11333700F931F93CF93C82F90918B02913009F430
S11333806CC0B8F1943009F0A2C083E080938B0242
S11333908091CB0481119BC0CB010E94D5016B01AC
S11333A07C0189E693E00E94D501C616D706E8069B
S11333B0F90699F480916803843069F460E070E060
S11333C08C2F0E944004A0E0B0E06627782F892F5C
S11333D09A2F0E94DF0B81E001C082E080933502C6
S11333E0CF911F910F91FF90EF90DF90CF900C94AD
S11333F0CF0541116CC081EF92E00E94D5016F3F6F
S11334007F4F8F4F9F4FA9F01092490381E0809323
S11334108B0212E0E12EF12C00E010E028E932E00A
S113342040E850E060E070E0809172030E94EA0A94
S11334304EC0E0911304EF5FE0931304F0E0E45E08
S1133440FD4F808180937203CF911F910F91FF9064
S1133450EF90DF90CF900C94C41882E080938B029D
S11334602091490330E0A0E5B4E00E945929AB0162
S1133470BC0140585E4F6F4F7F4F80917203813083
S113348061F028F0823079F0833099F020C0809187
S11334903D0281111CC086E011C080913D02811162
S11334A016C089E00BC080913D02811110C087E0F5
S11334B005C080913D0281110AC088E0CF911F911F
S11334C00F91FF90EF90DF90CF900C94050BCF916C
S11334D01F910F91FF90EF90DF90CF9008950F937D
S11334E01F93462F10923D020091B20510E00A305E
S11334F01105C0F4F801EC58FF4F0C9453291F91A7
S11335000F910C945214BC0180E008C0BC0182E00D
S113351005C0BC0183E002C0BC0181E01F910F9192
S11335200C94B4191F910F910895CF92DF92FF92DA
S11335300F931F93CF93DF93F82EEB0110910602A4
S1133540C12ED12C8BE0189FF0011124E951FC4FBE
S113355000818FEF809306021082113049F030F021
S1133560123041F0133049F483E005C080E003C019
S113357081E001C082E00E940F07033009F465C0B6
S113358028F4013029F10230F1F16FC0043021F048
S1133590053009F449C069C08BE08C9DF0018D9D14
S11335A0F00D1124E951FC4F81819281113031F0E9
S11335B028F0123019F0133009F057C06F2DDF9145
S11335C0CF911F910F91FF90DF90CF900C946F1AC1
S11335D08BE08C9DF0018D9DF00D1124E951FC4F81
S11335E081819281113029F020F0123011F01330D2
S11335F0E1F56F2DDF91CF911F910F91FF90DF9037
S1133600CF900C949516113029F020F0123011F05F
S1133610133059F58F2DDF91CF911F910F91FF90AA
S1133620DF90CF900C941919113029F020F012304A
S113363011F01330D1F4CE01DF91CF911F910F918E
S1133640FF90DF90CF900C94A319113029F020F053
S1133650123011F0133049F4DF91CF911F910F9183
S1133660FF90DF90CF900C949C08DF91CF911F9135
S11336700F91FF90DF90CF9008952F923F924F9239
S11336805F926F927F928F929F92AF92BF92CF92EE
S1133690DF92EF92FF920F931F93CF93DF934091AA
S11336A006028090EB029090EC02A090ED02B090A4
S11336B0EE02E42FF0E02BE0429FD0011124A95147
S11336C0BC4F1796CD90DD90ED90FC901A97C818DA
S11336D0D908EA08FB0811962D903C901297C11462
S11336E0D104E104F104B1F4BC0180E0DF91CF9195
S11336F01F910F91FF90EF90DF90CF90BF90AF900C
S11337009F908F907F906F905F904F903F902F90FD
S11337100C94951A13964D905D906D907C9016972D
S1133720480C591C6A1C7B1C3327272D162D052D8C
S1133730B801413041F078F0423041F0433049F073
S113374060E070E008C0B8017E5F05C0B8017D5F2D
S113375002C0B8017395A2015527C0E0D1E0C41B93
S1133760D50B2E01612C712CC414D504E604F70486
S113377008F4E6011BE01E9FD0011F9FB00D112429
S1133780A951BC4FEC91E43051F0E53071F0E130D7
S113379089F49101280D391D8E0183E009C091013E
S11337A0280D391D8E0181E003C08E019C0182E049
S11337B00E948A1D8091EB029091EC02A091ED028F
S11337C0B091EE028C0F9D1FA11DB11D8093EB02E1
S11337D09093EC02A093ED02B093EE02DF91CF91AF
S11337E01F910F91FF90EF90DF90CF90BF90AF901B
S11337F09F908F907F906F905F904F903F902F900D
S11338000895882321F060E070E00C94951ACB01B0
S11338100C943D1B90916103409361039330C9F074
S113382028F4913049F0923071F008959430B1F059
S11338309650923098F00895909106029F3FB1F00F
S113384060E070E004C0909106029F3F79F00C9410
S1133850011C909106029F3F99F7089590910602EA
S11338609F3F21F060E070E00C94951A0895CF9288
S1133870DF92EF92FF920F931F93CF93DF932091E8
S113388066033091670380915904082F10E09091EA
S11338906103D801AA0FBB1FAD01400F511FEA01FC
S11338A0CA54DD4F48545D4F688179812617370724
S11338B009F0FBC0492F50E04150510949305105EE
S11338C008F01FC142585F4FFA010C9453298091AC
S11338D0DE049091DF048130910531F160F00297AC
S11338E009F00FC1ED01C00FD11FC854DD4F88810D
S11338F08460888319C080918402882351F0DF9109
S1133900CF911F910F91FF90EF90DF90CF900C9487
S1133910D507CC24C394D12CE12CF12C00E010E089
S113392040E061E88BE0EBC0F801EA0FFB1FE854CC
S1133930FD4F80818260808340E060E070E080E041
S1133940DF91CF911F910F91FF90EF90DF90CF9077
S11339500C940A1CF801EA0FFB1FEF01C854DD4F59
S1133960888181FD0AC0DF91CF911F910F91FF9053
S1133970EF90DF90CF900C94DB07EA54FD4F8091D9
S1133980DE049091DF049183808388818D7F888316
S11339901AC0ED01C00FD11FC854DD4F288121FF8B
S11339A006C0269526952695237009F087C0F80150
S11339B0EA0FFB1FE854FD4F808181FFD4CF98307C
S11339C011F0963059F48DE0DF91CF911F910F9152
S11339D0FF90EF90DF90CF900C943202109261032D
S11339E0892FDF91CF911F910F91FF90EF90DF907E
S11339F0CF900C94D51DF801EA0FFB1FE854FD4F3E
S1133A00908190FD7CCFC0905504D0905604E090F6
S1133A107903F0907A030091DE041091DF04882387
S1133A2011F064ED01C066ED20E030E042E082E098
S1133A3066C0F801EA0FFB1FE854FD4F908190FD2A
S1133A405ECFE0907903F0907A03C0905504D09053
S1133A5056040091DE041091DF04882311F064ED14
S1133A6001C066ED20E030E042E083E048C0F801A8
S1133A70EA0FFB1FE854FD4F908190FD40CFC090AA
S1133A805504D0905604E0907903F0907A030091A5
S1133A90DE041091DF04882311F064E801C067E8B4
S1133AA020E030E040E084E02AC0FA01608161FF58
S1133AB05ACF669566956695637051F0DF91CF9104
S1133AC01F910F91FF90EF90DF90CF900C941E0800
S1133AD0943019F439832883E7CE909184029111AC
S1133AE00ECF882311F063E501C065E5CC24C394AF
S1133AF0D12CE12CF12C00E010E040E088E00E94A1
S1133B001504DF91CF911F910F91FF90EF90DF90FB
S1133B10CF9008950F931F938093610310935604DD
S1133B200093550430937A032093790370936703C9
S1133B30609366035093DF044093DE042091B60241
S1133B403091B7026217730719F4109259040EC02A
S1133B502091B9023091BA0291E06217730721F003
S1133B6020915904211190E09093590461157840F3
S1133B7098F4093091E0190778F4853051F0483011
S1133B8081E0580748F4400F511F4930514048F034
S1133B9003C04115584028F08EE01F910F910C94FA
S1133BA032021F910F910C94371C80936103809112
S1133BB0B80281FD03C0109259040BC08091BB026E
S1133BC081FD04C081E08093590403C08DE00C940E
S1133BD032028091590490E0FC01EE0FFF1FE80FC0
S1133BE0F91FE854FD4F8081877E80830C94371C35
S1133BF00F931F93809106029BE0899FF00111248B
S1133C00E951FC4F9081923039F0933011F587E0FF
S1133C101F910F910C94D51D823039F0833041F0FF
S1133C20813049F060E070E008C060E073E005C0F6
S1133C3060E071E002C060E072E000E010E020E0CB
S1133C4030E040E050E084E00E948A1D1F910F9113
S1133C500895818192811092EB021092EC021092ED
S1133C60ED021092EE021F910F910C943D1B4F92A6
S1133C705F926F927F928F929F92AF92BF92CF92F8
S1133C80DF92EF92FF920F931F93CF93DF931F92D4
S1133C90CDB7DEB790E08631910508F0E7C6FC01A8
S1133CA0E957FF4F0C9453298091EF02811141C0D1
S1133CB04091D6045091D7046091D8047091D904EE
S1133CC0EFB7F8948091E5049091E604A091E7049D
S1133CD0B091E80400919102109192022091930214
S1133CE030919402800F911FA21FB31FEFBF409326
S1133CF0D6045093D7046093D8047093D9041092D7
S1133D00EF022FB7F89431E030936503809391026A
S1133D1090939202A0939302B09394024093E5048B
S1133D205093E6046093E7047093E8042FBF0E9465
S1133D3016050E94AB023AC00E94AB022FB7F8945A
S1133D40109265032FBFECE5F4E050E088248A94D8
S1133D50982CA82C4FE7B42E408541FF1AC000814F
S1133D601181228133816B017C01C01AD10AE20ADC
S1133D70F30A04811581268137810C191D092E0946
S1133D803F09081519052A053B051CF4480159018A
S1133D9051E0399624E0E938F207F1F6552309F4A5
S1133DA065C6181419041A041B049CF00F90DF91C3
S1133DB0CF911F910F91FF90EF90DF90CF90BF9024
S1133DC0AF909F908F907F906F905F904F900C94E6
S1133DD062178092D6049092D704A092D804B0922D
S1133DE0D90441E04093EF024FB7F89451E0509367
S1133DF0650360939102709392028093930290936F
S1133E0094028092E5049092E604A092E704B092B2
S1133E10E8044FBF0F90DF91CF911F910F91FF9056
S1133E20EF90DF90CF90BF90AF909F908F907F9056
S1133E306F905F904F900C9416058FB7F894129A78
S1133E40119810988FBF10923502809168038330C7
S1133E5089F0843009F00AC660E070E080916D0357
S1133E600E944004A0E0B0E06627782F892F9A2FA3
S1133E700E94DF0B81E0809335020F90DF91CF9198
S1133E801F910F91FF90EF90DF90CF90BF90AF9074
S1133E909F908F907F906F905F904F900C94CF0580
S1133EA08091E404882309F4E1C527E4E22E24E0A8
S1133EB0F22E10E001E09091E404802F892359F060
S1133EC0F70111821082802F809589238093E40466
S1133ED0812F0E94180A000F1F5FF2E0EF0EF11C01
S1133EE0183049F7C3C580911002E82FF0E0EE0FB7
S1133EF0FF1FE95BFB4F1182108289830E945118D6
S1133F0089810F90DF91CF911F910F91FF90EF90D6
S1133F10DF90CF90BF90AF909F908F907F906F90E5
S1133F205F904F900C94180A8FB7F89492E0909396
S1133F303F028FBF80910A02811198C58091470387
S1133F40909148030E946F11882309F48FC50E9441
S1133F507207809147039091480385C08091620362
S1133F6010926203853081F5809147029091480256
S1133F70A0914902B0914A02892B8A2B8B2BC1F460
S1133F8010924B0210924C0210924D0210924E026B
S1133F9010924F0280E00E948D041FB7F89480E0D5
S1133FA090E00E94FF041FBF0E945D0910E001C061
S1133FB015E00E94C309111103C081E080938302BC
S1133FC081E08093900252C59AEF980F923008F4E2
S1133FD04DC5809362034AC50E94EC01209162039F
S1133FE0213069F5809194048F5F80939404863026
S1133FF030F580919B0490919C04309163033111BE
S113400012C030918F0431110EC090934D038093F0
S11340104C03209363038BED91E10E94B0030E9453
S1134020700880E001C085E08093E904811102C03A
S113403083E001C082E08093620310E003C0109229
S1134040620311E00E945E11112309F40FC500916F
S11340509B0410919C04F80182858F3309F006C5F6
S11340600E947207C8010F90DF91CF911F910F91A9
S1134070FF90EF90DF90CF90BF90AF909F908F9084
S11340807F906F905F904F900C94AA18B2E09B2E93
S11340901CE1812E04E0702E0FEF1FEF8FB7F89410
S11340A09091B904992309F445C2E091DD04F0E04C
S11340B0EE0FFF1FEB57FD4F408051808FBFF20181
S11340C092858781E6809F3309F0F0C12385608063
S11340D0F12CF82A29830E945E032981E816F90647
S11340E051F081E090E0EF20E09411F080E090E066
S11340F0892B09F4E8C1223509F4E5C030F42035F0
S113410059F0213509F46EC0DEC1203609F43DC1F1
S1134110213609F4ACC1D7C1520120E1A20EB11C71
S1134120C5010E94D5016B017C0185EA94E00E94DF
S1134130D501C616D706E806F90609F0C4C1F2018E
S11341408685823009F0BFC180911B02843009F05A
S1134150BAC1E588F12CFE2CEE248689E82AC50133
S11341600E94E105E816F90609F0ADC181E090E08E
S1134170EF2811F480E090E0892B09F4A4C1F20146
S113418097898091AC048917F0F48091A4048E7F00
S113419009F069C4848590E0982F88272585822BAF
S11341A020914202213009F05EC470924202909341
S11341B05B0480935A04209373031092CC0481E02F
S11341C00E94FD0950C4981738F48091A4048170AA
S11341D084608093A40447C48091A4048160809384
S11341E0A40471C180914202882309F46CC1C20104
S11341F040960E94D5016B017C01F201B4884B2DDD
S11342000E944913F201848590E0982F8827258520
S1134210822B20912002309121028217930709F00A
S113422052C18091120290911302A0911402B09194
S11342301502C816D906EA06FB0609F044C18091A6
S11342401102B81608F03FC120914202213029F42E
S1134250D2015596E5E9F4E018C08EEF820F823062
S113426008F031C18091170290911802A0911902AF
S1134270B0911A02C816D906EA06FB0609F023C152
S113428080911602B8121FC1E3CF9D918081892BC2
S1134290819334E0EB39F307C1F7213009F013C1FE
S11342A090924202C0921702D0921802E092190230
S11342B0F0921A02B092160210935B0400935A040F
S11342C00E94A21600C180914202882309F4FBC017
S11342D072018CE0E80EF11CC7010E94D501F201C5
S11342E040890E944913C7010E94D501C09012025F
S11342F0D0901302E0901402F09015026C157D0525
S11343008E059F0509F0DFC0F201908980911102AA
S11343109813D9C02189E22FE695E695E695F0E059
S1134320EF51FC4F808190E0277002C095958795EE
S11343302A95E2F780FFC7C08091B502823008F069
S1134340C2C09FB7F89482B1892582B99FBF80917A
S1134350B502A0916403A8278A9ED0011124A9580C
S1134360BA4FF2013C96982D01900D929A95E1F77F
S11343708F5F8093B502813009F0A5C0F20180857A
S11343808093F0020E94800B9EC0F201A484B12CA1
S1134390BA2CAA248585A82AC2010E960E94D501AA
S11343A06B017C01A114FEEDBF0649F48091360235
S11343B090913702A0913802B091390203C080E095
S11343C090E0DC0120919002222309F47CC0009744
S11343D0A105B10551F4C114D104E104F10451F073
S11343E0A1142EEDB20671F514C0C114D104E10478
S11343F0F10441F1B701A601481B590B6A0B7B0B71
S113440014161506160617060CF5A1143EEDB30690
S1134410C9F44DEE460D4A3010F450E002C04AE0B3
S113442050E0B2016E5E7F4F8EEA94E00E94A829AC
S1134430C0923602D0923702E0923802F0923902EA
S11344400E94E913C5010E94F7093DC0C816D906A8
S1134450EA06FB0651F4A1148EEDB806A1F580918D
S11344604F028F5F80934F022EC0C5011CC0809104
S11344709002882341F1F201848590E0982F8827E7
S11344802585822B81159E4DF1F480913602909101
S11344903702A0913802B0913902892B8A2B8B2BD9
S11344A091F080E09EED0E945E120DC0F12CF82A7E
S11344B00E945E03E816F90619F0EF20E09419F45F
S11344C08FB7F8948FBF9FB7F8948091DD04E82FDD
S11344D0F0E0EE0FFF1FEB57FD4F518240828F5FDC
S11344E0833018F48093DD0402C01092DD048091BF
S11344F0B90481508093B9049FBFD0CD0E94D002EB
S11345002FB7F89470939E0460939D042FBFAEC29E
S11345108FB7F89410928E0410928D041092B00507
S11345201092AF051092520210925102109215048B
S1134530109214048FBF9AC21FB7F89482E080933C
S11345403E020E94CC081FBF8091070281118EC2D7
S11345500E94D3010E94D1018091B105811144C010
S11345608EEF91E00E94AA0516980E94CF0186E082
S113457090E00E94AA05169A60E083E00E947C08FD
S113458068E082E00E947C088EEF91E00E94AA0518
S11345906DE48EE00E947C0867EC89E00E947C0850
S11345A060E885E00E947C081092B1038BE0809360
S11345B046036BE688E00E947C082F9A81E0809392
S11345C0B1050F90DF91CF911F910F91FF90EF9064
S11345D0DF90CF90BF90AF909F908F907F906F901F
S11345E05F904F900C94A2070F90DF91CF911F9191
S11345F00F91FF90EF90DF90CF90BF90AF909F907E
S11346008F907F906F905F904F900C944D1140E08D
S113461060E070E081E00F90DF91CF911F910F91E6
S1134620FF90EF90DF90CF90BF90AF909F908F90CE
S11346307F906F905F904F900C940A1C80913C0285
S1134640863091F55D9A0E94CB010000000019B1FB
S11346500E94CD018091BB028E7F8093BB0280912A
S1134660B8028E7F8093B80210928402809157041E
S113467090E0FC01EE0FFF1FE80FF91FE854FD4F17
S113468012FD03C08081877E0BC02081822F869516
S113469086958695837090E0029724F4822F8D7F0F
S11346A0808310C04AE0B4CF0E94CD018091BB0248
S11346B08E7F8093BB028091B8028E7F8093B80274
S11346C0109284020F90DF91CF911F910F91FF9070
S11346D0EF90DF90CF90BF90AF909F908F907F909E
S11346E06F905F904F900C94371C80913C028550E2
S11346F08230F8F40E94CB01139887ED0E94550490
S11347000E94CB0182E090E00E94AA054A990FC062
S113471008E010E05D9A0E94CB0182E090E00E94E4
S1134720AA050150110901151105A1F7EFCF8FE07A
S113473074C1E0907F03F090800380919004909185
S11347409104892B09F459C0A0907D03B12C34E065
S1134750A30EB11C0E94CB01139841E00DEC14E0B0
S1134760D12C80E0433071F4682FC70149830E9443
S1134770D1037C0181E0A81AB1084981A114B104D4
S1134780A1F539C04130B1F4F801D080F1E0AF1A9D
S1134790B108A114B10419F00F5F1F4F26C0409156
S11347A03C0200917F0310918003A0909004B0908C
S11347B091041BC0423069F498012F5F3F4FF80108
S11347C08083F1E0AF1AB108A114B104A1F089010A
S11347D00CC0443081F4A114B10469F0F801D08014
S11347E0F1E0AF1AB1080F5F1F4F8D2D49830E946E
S11347F055044981B7CF0E94CD0140913C021092EB
S11348003C0250E0FA013297EA30F10508F02EC17B
S1134810E356FF4F0C94532940E0B7017DC081E07B
S1134820809384022091590430E0C901880F991FB4
S1134830820F931FFC01EA54FD4F209166033091CF
S1134840670331832083FC01E854FD4F808183603A
S11348508B7F26CF81E0809384028091590490E07D
S1134860FC01EE0FFF1FE80FF91FE854FD4F908184
S113487091609260892F8695869586958F5F837067
S1134880880F880F880F977E982B9B7F90831ACF71
S113489081E0809384028091570490E0FC01EE0F44
S11348A0FF1FE80FF91FE854FD4F8081816080836A
S11348B08AE090E00E94AA0586E080933C0280E1B1
S11348C0ACC081E0809384022091590430E0C90196
S11348D0880F991F820F931FFC01EA54FD4F20910A
S11348E066033091670331832083FC01E854FD4F54
S11348F08081826084600CC08091590490E0FC0146
S1134900EE0FFF1FE80FF91FE854FD4F8081857EED
S1134910808340E060E070E080E07DCE8FB7F89463
S11349209091B8049093030293E090933B028FBF5D
S113493080910302813049F028F0823031F08330D5
S113494021F094C01092060202C0809306020F90D8
S1134950DF91CF911F910F91FF90EF90DF90CF9057
S1134960BF90AF909F908F907F906F905F904F908B
S11349700C94F81D8FB7F89492E090933A028FBF8D
S1134980809100028F3061F028F48E3009F06EC0FF
S11349908EE009C0803131F0813109F451C066C024
S11349A08FE001C080E10F90DF91CF911F910F91B3
S11349B0FF90EF90DF90CF90BF90AF909F908F903B
S11349C07F906F905F904F900C94E5060F90DF916D
S11349D0CF911F910F91FF90EF90DF90CF90BF90F8
S11349E0AF909F908F907F906F905F904F900C94BA
S11349F0E9139FB7F8948091580480FF05C08E7F17
S1134A008093580481E001C080E09FBF882371F146
S1134A1080E09EED0E945E1284E10F90DF91CF91C1
S1134A201F910F91FF90EF90DF90CF90BF90AF90C8
S1134A309F908F907F906F905F904F900C94320274
S1134A400F90DF91CF911F910F91FF90EF90DF9026
S1134A50CF90BF90AF909F908F907F906F905F901A
S1134A604F900C94AD140E9453092DCD0F90DF91FB
S1134A70CF911F910F91FF90EF90DF90CF90BF9057
S1134A80AF909F908F907F906F905F904F9008951C
S1134A908FB7F89408958FBF08951F920F920FB6A1
S1134AA00F9211240BB60F922F933F934F935F9362
S1134AB06F937F938F939F93AF93BF93EF93FF93E2
S1134AC00E9429022091B30030E02F5F3F4F809174
S1134AD09A0290919B02A0919C02B0919D02820F38
S1134AE0931FA11DB11D80939A0290939B02A093E2
S1134AF09C02B0939D0278940E941605FF91EF9159
S1134B00BF91AF919F918F917F916F915F914F91E1
S1134B103F912F910F900BBE0F900FBE0F901F90DF
S1134B2018951F920F920FB60F9211240BB60F9285
S1134B302F933F934F935F936F937F938F939F93A1
S1134B40AF93BF93EF93FF930E942902FF91EF91DC
S1134B50BF91AF919F918F917F916F915F914F9191
S1134B603F912F910F900BBE0F900FBE0F901F908F
S1134B7018951F920F920FB60F9211240BB60F9235
S1134B802F933F934F935F936F937F938F939F9351
S1134B90AF93BF93EF93FF932EB580918D049091C3
S1134BA08E04009739F0E0911404F0911504E80F95
S1134BB0F91F208380911404909115040196909319
S1134BC01504809314048CB58F778CBD80911404E4
S1134BD090911504609151027091520286179707C3
S1134BE008F03FC02091AF053091B005E0918D04ED
S1134BF0F0918E04AC01465F5F4F6417750708F4AB
S1134C00AB014150510984179507C8F421153105AA
S1134C1049F0D901A80FB91F6C916EBD0DB407FE00
S1134C20FDCF04C01EBC0DB407FEFDCF6EB530979A
S1134C3021F0DF01A80FB91F6C930196E4CF4CB5A6
S1134C4040684CBD2115310531F0F901E80FF91F19
S1134C5020812EBD01C01EBC9093150480931404C2
S1134C6011C010928E0410928D041092B00510920F
S1134C70AF05109252021092510210921504109234
S1134C8014048EB5FF91EF91BF91AF919F918F91D5
S1134C907F916F915F914F913F912F910F900BBE38
S1134CA00F900FBE0F901F90189578941F920F923B
S1134CB00FB60F9211240BB60F922F933F934F937D
S1134CC05F936F937F938F939F93AF93BF93EF9370
S1134CD0FF9380916F008D7F80936F0078948FB7DE
S1134CE0F89490918F04913019F492E090938F048A
S1134CF08FBF0E944D11FF91EF91BF91AF919F9192
S1134D008F917F916F915F914F913F912F910F9070
S1134D100BBE0F900FBE0F901F90189578941F92A2
S1134D200F920FB60F9211240F900FBE0F901F9089
S1134D30189578941F920F920FB60F9211240F902A
S1134D400FBE0F901F90189578941F920F920FB674
S1134D500F9211240BB60F922F933F934F935F93AF
S1134D606F937F938F939F93AF93BF93EF93FF932F
S1134D70E6E8F0E080819181808191812FB7F894F9
S1134D8090937C0380937B0381E08093BF042FBFC7
S1134D900E944D11FF91EF91BF91AF919F918F911F
S1134DA07F916F915F914F913F912F910F900BBE27
S1134DB00F900FBE0F901F90189578941F920F922A
S1134DC00FB60F9211242F938F939F93AF93BF939A
S1134DD02FB7F8948091510490915204A0915304F8
S1134DE0B09154040196A11DB11D80935104909378
S1134DF05204A0935304B09354042FBFBF91AF91B6
S1134E009F918F912F910F900FBE0F901F90189527
S1134E10CF93DF93CDB7DEB728970FB6F894DEBFF4
S1134E200FBECDBF1FB7F89414BE88E10FB6F89437
S1134E3080936000109260000FBE46E150E06FEF77
S1134E4070E08FE992E00E94B1298FEF8093DA0439
S1134E508093B80556985E9854985C9880916F003A
S1134E608F7D80936F000E94D3010E94D101279A05
S1134E700E94CF010E9A169A82E893E090939602CC
S1134E8080939502109278038AE580934B0381E026
S1134E908093810080E28093B60083E08093B10028
S1134EA080918400909185004AE72091840030919C
S1134EB085002817390708F44150442311F0C9012B
S1134EC0F4CF8091B2009091B2009817E1F3209151
S1134ED08400309185008091B2009091B2009817BF
S1134EE0E1F380918400909185004096821B930B9E
S1134EF055E0969587955A95E1F79093DC04809355
S1134F00DB041092B100109281001092B60010924E
S1134F10B20010928500109284008FEF87BB86BB8D
S1134F208091B6008571E1F70A9A099A089A129A53
S1134F30119A109A18B88FEF87B90C9814980B9A95
S1134F400E94CD010E94CB01559A5B9A539A5A98BC
S1134F505298109285001092840080916F008160B5
S1134F6080936F0080918100887F826080938100AC
S1134F700E9415028F3F19F00E94371EF9CFCE010F
S1134F8001967C0180EF9FE06C01EFEFCE1ADE0A00
S1134F900E94B829F70181937F01F8EFCF16FFE053
S1134FA0DF0611F0C601F0CF89819A818F3F2FEF80
S1134FB0920759F0909321028093200290930F025C
S1134FC080930E0282E280930D0280E094E090933D
S1134FD046028093450210924F02109247021092AB
S1134FE048021092490210924A0210924B02109207
S1134FF04C0210924D0210924E02109258041092DC
S1135000930442E150E06FEF70E08EE493E00E947D
S1135010B1298FEF9FEFDC018093E0049093E104CA
S1135020A093E204B093E3041092610381E08093BF
S1135030840280E098E09093BA028093B90290933E
S1135040B7028093B6029091BB028091B802947E1D
S1135050847E92609B7F9093BB0282608B7F80935F
S1135060B8020FEF00937E030E94F6058AEE94E0E7
S1135070909386028093850289E195E0909388025B
S11350808093870288E495E090938A028093890252
S11350908FEF9FEF9093C1048093C0049093C30457
S11350A08093C2049093C5048093C4049093C7046E
S11350B08093C6049093C9048093C804209120026D
S11350C030912102822F8295807F80934402009345
S11350D04A03C9010196A0E0B0E080937403909361
S11350E07503A0937603B09377038091B600806232
S11350F08093B6008091B60081FDFCCF82E080935E
S1135100B0008091B60080FDFCCF83E08093B100B5
S11351108091B60083FDFCCF86EE8093B30080912E
S113512070008260809370000E9416050E94150230
S11351308F3F19F00E94371EF9CF1FBF7894109249
S11351408B021092130480911C02809372030E94BC
S1135150C4188FEF80936C0380936B0380936A036E
S1135160809369030E94AB0260935C0470935D04B6
S113517080935E0490935F0484EF91E0A0E0B0E03C
S11351808093600490936104A0936204B0936304D9
S1135190809164048E7F82608093640481E00E9425
S11351A032021FB7F8940E9415028F3F09F04FC0D6
S11351B080917000837099F08091B6008A71E1F754
S11351C08091B3009091B200891B8C3010F492E06E
S11351D007C08091B200853FD0F793E001C095E00D
S11351E080916E008670E9F480916F008E72C9F42C
S11351F0809171008E72A9F40CB407FC12C08091E6
S1135200C100887171F48091C900887151F4809152
S1135210BC0082FD06C080917A0087FF04C0E1E0F3
S113522003C0E0E001C0E5E083B79E1708F4E92F6E
S1135230F0E0E25BFE4FE491807F81608E2B83BFC0
S113524078948895F89483B78E7F83BFACCF1FBFC3
S11352500E94371EA6CFAA1BBB1B51E107C0AA1F81
S1135260BB1FA617B70710F0A61BB70B881F991F03
S11352705A95A9F780959095BC01CD01089597FBA7
S1135280072E16F4009407D077FD09D00E942B292D
S113529007FC05D03EF4909581959F4F0895709535
S11352A061957F4F0895EE0FFF1F0590F491E02D57
S11352B00994A29FB001B39FC001A39F700D811DEB
S11352C01124911DB29F700D811D1124911D08950B
S11352D00F93083090F0982F872F762F652F542F37
S11352E0432F322F22270850F4CF220F331F441F9D
S11352F0551F661F771F881F991F0A95B2F70F91D4
S1135300089597FB10F8169400080F93083098F04E
S11353100850232F342F452F562F672F782F892F8E
S1135320902DF4CF05949795879577956795579524
S11353304795379527950A95AAF70F9108952A1945
S11353403B094C095D096E097F09800B910B089597
S1135350FB01DC0102C001900D9241505040D8F78E
S11353600895DC0101C06D9341505040E0F7089569
S1135370F999FECF92BD81BDF89A992780B5089519
S1135380262FF999FECF1FBA92BD81BD20BD0FB65D
S1135390F894FA9AF99A0FBE01960895F894FFCFFB
S11353A0FFFFFF04FFFFFFFFFFFFFFFFFF220100DE
S11353B005FFFF000000FFFF0000000500020301DD
S11353C001000203010203010002030100020301C0
S10753D002030100CF
S9030000FC
