:100000000C9408020C9427020C9427020C942702EB
:100010000C9427020C9427020C9427020C942702BC
:100020000C9427020C9427020C9427020C942702AC
:100030000C9427020C94F12C0C9427020C94352D6F
:100040000C94482E0C94F92D0C94322E0C943D2EC9
:100050000C94812E0C9427020C9427020C942702F6
:100060000C945D2D0C94AC2E0C9427020C94202F34
:100070000C9427020C9427020C9427020C946230F3
:100080000C9441300C944C300C9457300C947530D7
:100090000C9425300C9427020C9436300C942702D3
:1000A0000C9427020C9427020C9427020C9427022C
:1000B0000C9427020C9427020C9427020C9427021C
:1000C0000C9427020C9427020C942702480C480C2D
:1000D000480C4C0C4C0C4C0C4C0C4C0C4C0C4C0C64
:1000E0004C0C4C0C4C0C4C0C4C0C4C0C4C0C4C0C50
:1000F0004A0C4A0C4A0C4A0CEC19EC19EC19F4198C
:10010000F419F419F419F419F419F419F419F41987
:10011000F419F419F419F419F419F419F019F0197F
:10012000F019F019F11CF11CF11C161D161D161DFD
:10013000161DF31CF61CFA1CFD1C001D041D081DD9
:10014000161D161D161D161D0D1D0F1D111D131D2F
:10015000871D871D871D871D8F1D8F1D8F1D8F1D5F
:100160008F1D8F1D8F1D8B1D8B1D8B1D8B1DB11E1C
:10017000B11EB11ED61ED61ED61EB91EBD1EC11E74
:10018000C51ED61ED61ED61ED61ED61ED61ED61EE0
:10019000CF1ECF1ECF1ECF1E5F217D219B21CB20E6
:1001A0000E212D212D213B213B21B922E7222F2396
:1001B000B123D623F72313245424B024F026532745
:1001C000FA260E27EF2879279027E72700292C29E0
:1001D000DA2C57296D2980294E2A722A862A912ADB
:1001E000B12AA12CB92CEF287E28F328DA2CDA2C9E
:1001F000DA2C82289D28BB28D428852F902FA52F64
:10020000EE2FF52FFC2F03300A3000020E060C04EF
:1002100000002110422063308440A550C660E77082
:10022000088129914AA16BB18CC1ADD1CEE1EFF12A
:100230003112100273325222B5529442F772D662D2
:10024000399318837BB35AA3BDD39CC3FFF3DEE37A
:100250006224433420040114E664C774A444855422
:100260006AA54BB528850995EEE5CFF5ACC58DD5CA
:100270005336722611163006D776F6669556B44672
:100280005BB77AA719973887DFF7FEE79DD7BCC71A
:10029000C448E5588668A7784008611802282338C2
:1002A000CCC9EDD98EE9AFF9488969990AA92BB96A
:1002B000F55AD44AB77A966A711A500A333A122A12
:1002C000FDDBDCCBBFFB9EEB799B588B3BBB1AABBA
:1002D000A66C877CE44CC55C222C033C600C411C62
:1002E000AEED8FFDECCDCDDD2AAD0BBD688D499D0A
:1002F000977EB66ED55EF44E133E322E511E700EB2
:100300009FFFBEEFDDDFFCCF1BBF3AAF599F788F59
:100310008891A981CAB1EBA10CD12DC14EF16FE139
:100320008010A100C230E320045025404670676071
:10033000B9839893FBA3DAB33DC31CD37FE35EF389
:10034000B1029012F322D2323542145277625672C1
:10035000EAB5CBA5A89589856EF54FE52CD50DC5D9
:10036000E234C324A0148104667447642454054411
:10037000DBA7FAB79987B8975FE77EF71DC73CD729
:10038000D326F2369106B016576676761546345661
:100390004CD96DC90EF92FE9C899E9898AB9ABA979
:1003A0004458654806782768C018E1088238A328B1
:1003B0007DCB5CDB3FEB1EFBF98BD89BBBAB9ABBC9
:1003C000754A545A376A167AF10AD01AB32A923A01
:1003D0002EFD0FED6CDD4DCDAABD8BADE89DC98D19
:1003E000267C076C645C454CA23C832CE01CC10C51
:1003F0001FEF3EFF5DCF7CDF9BAFBABFD98FF89F69
:10040000176E367E554E745E932EB23ED10EF01EA0
:1004100011241FBECFEFD1E2DEBFCDBF12E0A0E0BE
:10042000B2E0EEE4F8E600E00BBF02C007900D92E8
:10043000A435B107D9F727E0A4E5B2E001C01D92C9
:10044000A932B207E1F70E94DB300C9425340C94FA
:1004500000005D980895139A08952F980895289A9A
:100460000895209A0895FC01CB0143835283618350
:100470009083BA010895FC0120816181862F90E06C
:10048000A0E0B0E077276627922B2381622B2281A0
:10049000722B08959FB7F8948091B1038F5F80937A
:1004A000B1039FBF08950DB407FEFDCF8EB508952B
:1004B000982F0DB407FEFDCF8EB59EBD08952898E8
:1004C00008958627082E8295807F8025092E982FF3
:1004D00082958F700826869598278927880F880F20
:1004E000880F8025089529E088E190E00FB6F89400
:1004F000A895809360000FBE20936000FFCF1092FC
:10050000F7051092F60584E08093DA031092D10586
:10051000109216061092DF03109215051092140522
:10052000089580911F068F3F71F0E82FF0E0ED52A3
:10053000FD4F908190931F069F3F11F49093010708
:100540009FEF908308958FEF08958091B00080937E
:10055000B0008091B60081FDFCCF08959FB7F8945C
:10056000E82FF0E0ED52FD4F20812F3FC9F421E04C
:1005700030E0E0910107E81711F020E030E0232B94
:1005800079F420911F062F3F19F480931F0604C0B1
:10059000F0E0ED52FD4F80838093010780E001C0C1
:1005A00085E09FBF089587E00C94AE02CF93CFB74C
:1005B000F8948091FA06811108C086E10E94AE028B
:1005C000811103C081E08093FA06CFBFCF910895D7
:1005D000CF93CFB7F89490916D0291110BC091E039
:1005E00090936D028093090282E10E94AE02CFBF18
:1005F00080E022C0E82FF0E0E654FC4F90819F3F5E
:10060000C9F421E030E0E0910A02E81711F020E09F
:1006100030E0232B79F490910B029F3F19F48093E3
:100620000B0204C0F0E0E654FC4F808380930A0282
:1006300080E001C085E0CFBFCF910895CF939FB7F1
:10064000F89420916E0221111FC021E020936E02C8
:100650008093EF059FBFCFB7F89480910C02843050
:1006600089F480916E02813021F481E10E94AE0212
:1006700009C0823039F48091EF0580930C0283E049
:1006800080936E02CFBF05C02091EF05281303C0F1
:100690009FBF80E022C0E82FF0E0EA5DF94F2081A3
:1006A0002F3FC9F421E030E0E0910D02E81711F08E
:1006B00020E030E0232B79F420910E022F3F19F433
:1006C00080930E0204C0F0E0EA5DF94F80838093CE
:1006D0000D0280E001C085E09FBFCF9108952FB744
:1006E000F8943091B2008091CE029091CF02A09107
:1006F000D002B091D102B99B0FC04091B3003091AC
:10070000B200BC01CD016F5F7F4F8F4F9F4F640FD1
:10071000711D811D911D02C0BC01CD01630F711DB2
:10072000811D911D2FBF08952F923F924F925F928E
:100730006F927F928F929F92AF92BF92CF92DF92F1
:10074000EF92FF920F931F93EFB7F8948091EF030E
:100750009091F003A091F103B091F2031C012D01DF
:100760009C01A20160E070E080E090E003E00E9464
:10077000BF3351016201E12CF12C00E010E00E9436
:10078000F63359016A017B01F82F192F03E00E940B
:10079000BF330F2F0E94F63359016A017B01F82FF6
:1007A000192F03E00E94BF330F2F0E94F633590127
:1007B0006A017B01F82F192F03E00E94BF330F2F2E
:1007C0000E94F63359016A017B01F82F192F03E0CB
:1007D0000E94BF330F2F0E94F63301E00E94BF3307
:1007E00029013A0100E20E94DA3349015A01C301AA
:1007F000B2019695879577956795680D791D8A1D45
:100800009B1D97FF05C09F776F5F7F4F8F4F9F4F57
:100810006093EF037093F0038093F1039093F203DE
:10082000EFBF1F910F91FF90EF90DF90CF90BF909F
:10083000AF909F908F907F906F905F904F903F9080
:100840002F9008952FB7F894809117029091180275
:100850002FBF08950F931F932FB7F89480910E0523
:1008600090910F05A0911005B091110500918400A1
:1008700010918500B09B07C00196A11DB11D00918C
:100880008400109185002FBF7727662720E030E095
:10089000602B712B822B932B1F910F910895EFB733
:1008A000F89420918400309185002D5F3F4FA9017D
:1008B000481B590B4617570718F49C01260F371F82
:1008C0002115310511F421E030E021503109309338
:1008D00089002093880082E086BB80916F0082604F
:1008E00080936F00EFBF08950F931F93CF93DF9313
:1008F0008C012FB7F894C091C805D091C905CE01DD
:100900008F5E9E4F9093C9058093C8052FBF89E0E5
:100910000E94AE02CE01B8010E9460338A5D9E4FF4
:10092000DF91CF911F910F9108954FB7F894FC017B
:1009300063E0F695E7956A95E1F7E454FA4F87701E
:10094000992721E030E001C0220F8A95EAF78081E3
:10095000822B80834FBF0895CF92DF92EF92FF9258
:10096000CF93DF93282F30E04BE0849FF0011124D8
:10097000E858FD4F4281538164817581452B462B98
:10098000472B69F080819181880F991F9183808323
:100990008130944020F080E094E0918380838BE06C
:1009A000829FE001839FD00D1124C858DD4F8E81B6
:1009B0009F81A885B9858A839B83AC83BD83C880CA
:1009C000D980E12CF12C79E0CC0CDD1CEE1CFF1C55
:1009D0007A95D1F70E94940328813981422F440FE0
:1009E000CB0160E0742F0E946033C80ED91EE11C59
:1009F000F11CC901A0E0B0E0EAE0880F991FAA1F2E
:100A0000BB1FEA95D1F78C199D09AE09BF098E83EA
:100A10009F83A887B9878A819B81AC81BD818C0D1A
:100A20009D1DAE1DBF1D8A839B83AC83BD83DF915B
:100A3000CF91FF90EF90DF90CF9008959FB7F894FB
:100A400020910902281307C080916D02823019F4A9
:100A50009FBF81E008959FBF80E008958091C50504
:100A60008A3021F48091DA03843021F081E0809390
:100A70006602089588E10E94AE021092660208950F
:100A8000E0E1F2E06927660FF11DE60FF11DC89560
:100A9000982F802D3196C89590250895CF92DF929A
:100AA000EF92FF920F931F9380936F0260930D0656
:100AB000C901880F892F881F990B919580930E0685
:100AC000220F212B20930F0600931006D092BA0517
:100AD000C092B905F092FF03E092FE034093FA033F
:100AE00080E11F910F91FF90EF90DF90CF900C94D9
:100AF000AE02813041F080F0823041F0833049F025
:100B000080E098E00895CB0193950895CB019E5F16
:100B10000895CB019D5F0895CB01089581E10E9466
:100B20001E05882319F085E10C94AE0281E10C9436
:100B3000E802282F3FB7F8949BB1977D9BB980E0DE
:100B400027FD5B9A5D9A4A9980689BB926FD5B9A5E
:100B50005D9A4A9980649BB925FD5B9A5D9A4A9992
:100B600080629BB924FD5B9A5D9A4A9980619BB92A
:100B700023FD5B9A5D9A4A9988609BB922FD5B9A36
:100B80005D9A4A9984609BB921FD5B9A5D9A4A9966
:100B900082609BB920FD5B9A5D9A4A9981603FBF54
:100BA0000895CF92DF92EF92FF920F931F93CF930E
:100BB000CFB7F8942091B3009091B20087B3291772
:100BC00011F081FF02C0CFBF78C08091E003811196
:100BD00002C086EE3AC00E946F030091C4021091D9
:100BE000C5022091C6023091C702C0902B06D0905A
:100BF0002C06E0902D06F0902E06601B710B820BE8
:100C0000930B6C157D058E059F0528F01092E0036F
:100C100086EE31E01BC0D701C601800F911FA21FD5
:100C2000B31F4091CE025091CF026091D0027091DB
:100C3000D102841B950BA60BB70B873E9105A1052E
:100C4000B10538F6823008F482E030E02FEF280F4B
:100C50009091B60093FDFCCF9091B200291301C092
:100C6000282F8091CE029091CF02A091D002B09116
:100C7000D102AC01BD014F5F5F4F6F4F7F4F420FFD
:100C8000511D611D711D481759076A077B0710F434
:100C9000282F20958091B60083FDFCCF2093B300D0
:100CA000CFBF332351F081E0CF911F910F91FF907F
:100CB000EF90DF90CF900C94AE02CF911F910F91E7
:100CC000FF90EF90DF90CF90089590915A0220917D
:100CD000650291112FC081112DC041E040935A024D
:100CE0008091080280935902822F81708093CA02FA
:100CF00080910202909103029093580280935702D0
:100D00008091640280935602322F31703427267E00
:100D1000E32FF0E0EE0FFF1FEC5FFD4F808191812C
:100D20009093030280930202232B209365028BE1B0
:100D30000C94AE0220FF02C02B7F01C02D7F2093B8
:100D400065020895CF93DF93D82FC62F8091DA03E1
:100D5000813061F028F0823099F0833019F1E4C0DD
:100D6000DD2309F423C10E947F02F5C0D1111EC109
:100D7000609316068CEB860F823008F0D5C0EDC06C
:100D8000D111D2C06093DF038091140590911505B5
:100D90000E944005909315058093140583E080938D
:100DA000DA0304C18091D1058F3F09F4BDC0DD2372
:100DB00009F455C0823008F4B7C0E091F605EE237F
:100DC00011F0E15001C0E2E0AE2FB0E0AA50BA4FFE
:100DD00012964C9150E0542F4427EE2311F0E1502D
:100DE00001C0E2E0F0E0EA50FA4F8281482B209106
:100DF0001405309115054217530709F095C080E09E
:100E00000E946506809116068434E1F42091DF0388
:100E1000E091C8043091C90481E08E0F863010F44F
:100E2000982F01C090E0931769F0F0E0E853FB4F72
:100E30002283863018F48093C80402C01092C8043C
:100E40000E94D6020E947F02809155028D7F80937E
:100E5000550280916602882309F4A8C073C08230CD
:100E600008F44DC0E091F705F0E0EA50FA4F228116
:100E700030916502932F9695969596959370892F4C
:100E800090E08130910519F0029781F01FC0832F07
:100E9000877E806180936502211102C085E001C0D8
:100EA00080E0809364022093080210C08091640265
:100EB0008F3260F4E0910202F0910302E80FF11D1D
:100EC0002083809164028F5F809364028091F70594
:100ED000E82FF0E0EA50FA4F62818F5F833018F418
:100EE0008093F70502C01092F70580911405909148
:100EF00015050E9440059093150580931405809177
:100F0000F605E82FF0E0EA50FA4FC2838F5F833096
:100F100018F48093F60502C01092F6058091D10571
:100F20008F5F8093D10542C00E947F02809155025D
:100F30008D7F8093550281E00E9465068091660254
:100F4000882339F084E08093DA03DF91CF910C9409
:100F50002E05DD2359F181E022CF80911405909177
:100F600015050E9440059093150580931405C4341F
:100F700011F482E001C083E08093DA03809165027E
:100F800080FF04C082FDD0CF846003C081FDCCCF40
:100F900082608093650280916502877E886080937D
:100FA0006502109264028FEF80930802DF91CF9167
:100FB0000895019701960197E1F708958091010442
:100FC00090910204892BC1F581E090E09093FF0598
:100FD0008093FE0582EF92E09093020480930104D7
:100FE0001092DC031092DB0381E08093DD0380919B
:100FF000C00080648093C0008091C10080648093B1
:10100000C1008091DB039091DC039C012F5F3F4F77
:101010003093DC032093DB03FC01EE50FD4F808115
:101020009FB7F8948093C6008091C000806480933D
:10103000C0009FBF80E0089585E0089593E8980F71
:10104000923050F49091550291609093550290E245
:1010500098279093D0058DE78093F2020C94DE07D9
:101060009FB7F894809155028E7F809355028EE74A
:101070008093F2029FBF0C94DE0790916702992340
:1010800011F081E00895823031F0833031F0813009
:1010900041F480E103C08EE001C08FE00E94E802CD
:1010A00001C081E091E0811190E090936702992363
:1010B00041F310920A0680E008950F931F93CF9397
:1010C000DF93EC018C010B5F1F4F80E090E0699192
:1010D0000E944005C017D107D1F7DF91CF911F9132
:1010E0000F910895CF93CFB7F89480917102811139
:1010F0000BC081E080937102109210028CE00E947C
:10110000AE02CFBF80E01FC08091FD038F3FC9F4C6
:1011100081E090E0E0911102EE2311F080E090E098
:10112000892B79F4809112028F3F19F410921202E8
:1011300004C0F0E0E350FC4F10821092110280E0F6
:1011400001C085E0CFBFCF910895FA012D3108F09D
:1011500042C0668375838387218780916002909166
:101160006102892BB1F53FB7F89485E080935E0268
:1011700010925D02509363024093620282E090E01D
:10118000909361028093600210925B0210925C0265
:10119000245F20935F023FBF8FB7F8949091C505FD
:1011A0009A3011F48FBF19C08FBF9FB7F894809108
:1011B0000604811106C081E08093060410920704A2
:1011C00001C080E09FBF882341F00E94D60280E0EA
:1011D000089585E0089582E00895109261021092CA
:1011E000600281E00895409101024F5F417052E03A
:1011F000842F90E0FC01EE0FFF1FE55EF94F208188
:101200003181232B91F0E42FE695E695E695F0E009
:10121000E550FC4F208130E0642F677002C03595A7
:1012200027956A95E2F720FF07C0019681709927FC
:10123000515001F1482FDCCF40930102E0910102AF
:10124000E230E0F4F0E0EE0FFF1FE55EF94F0190B1
:10125000F081E02D658170E0762F66278681682B0E
:101260002185AF0183850E94A508882339F08DE18F
:101270000C94AE0282E080930102E0CF08958F9239
:101280009F92AF92BF92CF92DF92EF92FF920F9315
:101290001F93E62FF0E09BE0699FD0011124A35932
:1012A000BB4F9C91911146C0643018F4A0E0B1E0AE
:1012B00002C0A0E0B0E04D01A12CB12CBA2CA92CA9
:1012C000982C882482169306A406B506A8F1821AE3
:1012D000930AA40AB50A8C149D04AE04BF0460F1FD
:1012E0009BE09E9FD0019F9FB00D1124A359BB4F3F
:1012F0008C9313962D933D934D935C93169717966D
:10130000CD92DD92ED92FC921A9712961C930E9359
:101310001197613049F030F0623041F0633071F480
:1013200083E005C080E003C081E001C082E00E944C
:101330001E0304C085E003C086E001C080E01F9169
:101340000F91FF90EF90DF90CF90BF90AF909F9064
:101350008F900895CF92DF92EF92FF920F931F9399
:10136000C12CD12C760100E010E020E030E0A90192
:10137000682F83E00E943F091F910F91FF90EF902B
:10138000DF90CF9008959091700291111FC0893124
:10139000D8F4E82FF0E0E55DFD4F8081813049F021
:1013A00030F0823041F0833079F482E005C080E093
:1013B00003C083E001C081E00E94AA09811107C037
:1013C00091E090937002089581E0089585E008957A
:1013D000823031F0833031F0813039F485E003C060
:1013E00083E001C084E00C94C30981E0089581305A
:1013F00049F030F0823041F0833049F487E105C094
:1014000085E103C088E101C086E10C94C30981E055
:10141000089590915402913011F40C94F7090895B5
:10142000CF92DF92EF92FF920F931F93C12CD12C9A
:10143000760100E010E020E030E0A901682F82E0B2
:101440000E943F091F910F91FF90EF90DF90CF9086
:101450000895CF93C82F80917002811121C0C931A6
:10146000E8F4EC2FF0E0E55DFD4F9081913049F01C
:1014700030F0923041F0933089F482E005C080E092
:1014800003C083E001C081E00E94100A811109C0FD
:1014900091E090937002C093FB0603C081E001C00D
:1014A00085E0CF910895E62F20915402223081F4F7
:1014B0008250974069F41092540225EA34E0232BBD
:1014C00039F041E050E060E070E08E2F0C94C230C3
:1014D0000895482F862F209154022430A9F41092A9
:1014E000540225EA34E0611107C0232B69F04093D0
:1014F000A7049093A60402C0232B31F043E050E0F0
:1015000060E070E00C94C2300895309154023330A2
:1015100081F4E5EAF4E0EF2B61F0865A944049F457
:10152000109254024F5F5F4F6F4F7F4F822F0C948A
:10153000C230089590915402913011F0963061F4C8
:101540001092540225EA34E0232B31F041E050E0C0
:1015500060E070E00C94C2300895CF93CFB7F89458
:1015600090916D02923029F590910902981321C053
:1015700080910B028F3FB1F0E82FF0E0E654FC4F72
:10158000908190930B029F3F11F490930A029FEF7A
:1015900090838093090281E080936D0282E10E9432
:1015A000AE0204C08093090210926D02CFBF80E0AA
:1015B00002C0CFBF81E0CF910895CF93CFB7F89409
:1015C00090916E02933041F590910C02981324C0D3
:1015D00080910E028F3FC1F0E82FF0E0EA5DF94FF5
:1015E000908190930E029F3F11F490930D029FEF14
:1015F00090838093EF0590930C0281E080936E02BC
:1016000081E10E94AE0205C084E080930C0210923A
:101610006E02CFBF80E002C0CFBF81E0CF910895BE
:10162000CF93CFB7F89480917202823029F58091E0
:101630001302811121C0809115028F3FB1F0E82F74
:10164000F0E0EA54FC4F9081909315029F3F11F413
:10165000909314029FEF90838093130281E0809314
:10166000720285E00E94AE0204C0809313021092C1
:101670007202CFBF80E002C0CFBF81E0CF9108955A
:10168000CF93CFB7F89480917102823041F5809169
:101690001002811124C0809112028F3FB1F0E82F17
:1016A000F0E0E350FC4F9081909312029F3F11F4C1
:1016B000909311029FEF90838093100281E08093BA
:1016C00071028CE00E94AE0204C08093100210925E
:1016D00071028CB58F7B8CBDCFBF80E002C0CFBFC5
:1016E00081E0CF910895BC0181E080930304809351
:1016F000B80580918400909185000C944F0485E09A
:1017000080936F0280E10C94AE02CF92DF92EF9251
:10171000FF920F931F938091B702882341F01F918E
:101720000F91FF90EF90DF90CF900C947F0B409142
:101730001B05242F30E0C901880F991F820F931FCA
:10174000FC01ED50FD4F20813181FC01EB50FD4F3C
:10175000808182FF04C0442331F068E807C044233D
:1017600021F063E803C069E801C066E8CC24C394B3
:10177000D12CE12CF12C00E010E040E089E00E9447
:101780004E051F910F91FF90EF90DF90CF9008953D
:10179000CF92DF92EF92FF920F931F93CF93C82FB8
:1017A0008091B702882349F0CF911F910F91FF904C
:1017B000EF90DF90CF900C947F0B2C2F30E0F9014D
:1017C000EE0FFF1FE20FF31FED50FD4F208131811F
:1017D000CC2311F060E601C061E6CC24C394D12C87
:1017E000E12CF12C00E010E040E08AE00E944E0580
:1017F000C0931805CF911F910F91FF90EF90DF904C
:10180000CF900895CF93DF931F92CDB7DEB7898332
:101810000E945F02898180688EBD80E00E9458022C
:101820000E94530289830E942F0289810F90DF91C9
:10183000CF9108951F93CF93DF931F92CDB7DEB75B
:10184000182F69830E945F02912F906C9EBD898141
:101850000E9458020E9453020F90DF91CF911F9176
:101860000C942F0280912402813019F480E00C94B2
:10187000AE020895109270024091FB0650E0FA010A
:101880003397E631F10540F4EA59FF4F0C94AA333F
:101890000C94320C0C949A0A0895CF93DF93FC01B8
:1018A000828190E0982F88272181822B85FF14C0A8
:1018B00087749C7C8134984879F4C781D0E0DC2F10
:1018C000CC278681C82B0E94220421E0C817D907A3
:1018D00009F020E0822F01C080E0DF91CF910895D0
:1018E0008CB58F7B8CBD229A2398219A0E9431025D
:1018F0008CB580618CBD8CB58F778CBD8CB5877FA6
:101900008CBD8CB58B7F8CBD8CB580648CBD8DB54A
:1019100081608DBD8CB58C7F8CBD0895CF938FB7C2
:10192000F89490911002911106C09091710292303A
:1019300011F48FBF13C08FBFCFB7F894809171029D
:1019400081110EC082E080937102109210020E94F9
:10195000700CCFBF0E9431020E942F0281E004C0B0
:10196000CFBF0E94720880E0CF910895CF92DF929E
:10197000EF92FF92CF93C82F6A017B010E946F0301
:1019800029E0C29FF0011124E25EFA4F6083718367
:1019900082839383C482D582E682F78280858160C8
:1019A0008260808782E0CF91FF90EF90DF90CF90B0
:1019B0000C94AE020F931F93CF93DF93CAECD5E044
:1019C0002091CE05215081E090E0A0E0B0E004C07D
:1019D000880F991FAA1FBB1F2A95D2F78883998366
:1019E000AA83BB830E9494038B019C018881998107
:1019F000AA81BB81AC01BD01415051096109710946
:101A0000662777274023512362237323480F591FEA
:101A10006A1F7B1F488359836A837B83EFECF5E061
:101A200080818E7F8083EFE2F5E080818D7F8083EF
:101A300081E0DF91CF911F910F910C94B60C8091B2
:101A4000CE05893029F089E08093CE050C94DA0C1C
:101A500008950F931F930E946F038B019C01809147
:101A6000300590913105A0913205B0913305409138
:101A70007A0250917B0260917C0270917D02411547
:101A800051056105710509F442C0FFB7F894E09172
:101A9000BC05E0FD33C0081B190B2A0B3B0B0417D8
:101AA000150726073707C8F4401B510B620B730B51
:101AB00080917A0290917B02A0917C02B0917D028C
:101AC000801B910BA20BB30B80937A0290937B0245
:101AD000A0937C02B0937D0214C081E090E0A0E06E
:101AE000B0E080937A0290937B02A0937C02B09343
:101AF0007D0241E050E060E070E003C0EE7FE093E3
:101B0000BC05FFBF82E01F910F910C94B60C809131
:101B100038058D7F809338051F910F910895CF93DD
:101B200081E090E090937902809378021092820293
:101B300080917A0290917B02A0917C02B0917D020B
:101B4000892B8A2B8B2BE9F0CFB7F89480E090E0BB
:101B50000E949504CFBF10927A0210927B021092DD
:101B60007C0210927D0210927E0210927F021092EF
:101B700080021092810280E00E94AC04CF910C940C
:101B8000290DCF91089581159E4D11F40C948F0D60
:101B90000895882351F00E94940377278827992776
:101BA000605F7F4F8F4F9F4F0AC00E9494036F77F3
:101BB00077278827992760587F4F8F4F9F4FAB011A
:101BC000BC0180E00C94B60C8230D1F028F488235C
:101BD00041F0813049F00895833091F1843081F1F2
:101BE000089510927602089580917502853051F51E
:101BF0008091EE0381508093EE0380E00C94C90D38
:101C00008FED94E0892BF1F08091E404E82FE695C4
:101C1000E695E695F0E0E154FA4F282F277081E031
:101C200090E001C0880F2A95EAF78095908189237A
:101C3000808342E050E060E070E080E00C94B60CFD
:101C40001092D6030895CF92DF92EF92FF920F93F6
:101C50001F93CF93C82F6801790180917002811181
:101C600032C0C93170F5EC2FF0E0E55DFD4F8081A9
:101C7000813089F050F08230A1F0833011F500E01E
:101C800010E09A01AB0162E011C000E010E09A019F
:101C9000AB0160E00BC000E010E09A01AB0163E033
:101CA00005C000E010E09A01AB0161E085E00E9410
:101CB0003F09811109C091E090937002C093FB0627
:101CC00003C081E001C085E0CF911F910F91FF908B
:101CD000EF90DF90CF900895CF92DF92EF92FF9236
:101CE0000F931F93CF93C82F6701780180917002E3
:101CF00081112EC0C93150F5EC2FF0E0E55DFD4FAC
:101D00008081813079F048F0823089F08330F1F4BD
:101D100089019A01AB0162E00EC089019A01AB0111
:101D200060E009C089019A01AB0163E004C0890148
:101D30009A01AB0161E081E00E943F09811109C075
:101D400091E090937002C093FB0603C081E001C054
:101D500085E0CF911F910F91FF90EF90DF90CF9092
:101D60000895EF92FF920F931F938091DE032CE171
:101D7000829FC00111249C012D53394FFC01EE5369
:101D8000F94FE08146E1E49FF0011124DC01AF53FB
:101D9000B94F4C9150E060E070E0AAE0440F551F4D
:101DA000661F771FAA95D1F74E0F5F1F611D711D2A
:101DB00080917402823059F0833081F08130B9F41F
:101DC00016E1E12EF12C00E010E085E00DC016E1F7
:101DD000E12EF12C00E010E083E006C016E1E12ED8
:101DE000F12C00E010E084E00E946C0E8111109252
:101DF000F1021F910F91FF90EF900895CF92DF9223
:101E0000EF92FF920F931F93CF93C82F6701780132
:101E10008091700281112EC0C93150F5EC2FF0E095
:101E2000E55DFD4F8081813079F048F0823089F0A6
:101E30008330F1F489019A01AB0162E00EC089019F
:101E40009A01AB0160E009C089019A01AB0163E02E
:101E500004C089019A01AB0161E084E00E943F095E
:101E6000811109C091E090937002C093FB0603C0FA
:101E700081E001C085E0CF911F910F91FF90EF901D
:101E8000DF90CF900895EF92FF920F931F938130D0
:101E900049F030F0823041F0833051F488E005C0E1
:101EA00086E003C089E001C087E00E94FE0E01C009
:101EB00081E01F910F91FF90EF900895CF93DF93F2
:101EC000CDB7DEB728970FB6F894DEBF0FBECDBFF3
:101ED0006B017C018FB7F8948E010F5F1F4F80EF6D
:101EE0009FE05C012FEFA21AB20A0E940F34F801A2
:101EF00081938F01F8EFAF16FFE0BF0611F0C50127
:101F0000F0CFCB82DC82ED82FE828FEF8F8318864A
:101F10008091290290912A029A838983CE010196A9
:101F20007C0180EF9FE0F70161917F018C010F5FE1
:101F30001F4F0E941734083FFFE01F0711F0C80130
:101F4000F2CFF999FECF0E9473022F923F924F92E7
:101F50005F927F928F929F92AF92BF92CF92DF92C9
:101F6000EF92FF920F931F93CF93DF93EC01809139
:101F7000830281113EC08091F7068530D1F58091B2
:101F8000FB05811136C00E948E0C882391F18CA52F
:101F900082FF03C06EA56F7001C060E080913704BE
:101FA000681731F060933704606885E00E941A0C6E
:101FB0008A8190E0982F88272981822B87749C7CC6
:101FC00081349848C1F486E00E94020C8F7190E041
:101FD0004091F3032091B70330E0240F311D13E04B
:101FE000359527951A95E1F72817390724F40E94AB
:101FF000400B85E092C069E082E00E941A0C0E94CA
:102000002A044B015C017E018FEFE81AF80A18815F
:102010008CA5BEEF7B2E710E84FF08C00BEF010F65
:102020009E012E193F09020F701A02C0072D712C54
:1020300081E00E94020C8F71893029F066E082E015
:102040000E941A0CD4CF8FB7F8942F9AC0908400B6
:10205000D09085008FBF0E942D020E945F0280E613
:102060008EBD812F0E9458022701102F1E0DF201F4
:1020700081912F010E9458021411F9CF015010E0F4
:10208000C701800F911F0F5F1F4F0E0D1F1DF2EA3A
:10209000CF0ED11CC818D908EE24D7FCE094FE2C32
:1020A000C80CD91CEA1CFB1C772009F15C012FEF3E
:1020B000A21AB20AC5010E943B021B012C01AB010E
:1020C000BC014C195D096E097F09C5010E943302EC
:1020D000912CF801E90DF11D80810E945802939422
:1020E0009710F7CFB201A101C5010E9433020E94EF
:1020F00053020E942F0266E082E00E941A0C8CA517
:1021000082608CA7C8A6D9A6EAA6FBA686E0809323
:10211000F70684E08093830280E0DF91CF911F91E6
:102120000F91FF90EF90DF90CF90BF90AF909F9076
:102130008F907F905F904F903F902F9008952F92B7
:102140003F924F925F926F927F928F929F92AF9247
:10215000BF92CF92DF92EF92FF920F931F93CF9394
:10216000DF9300D01F92CDB7DEB749E0842E55E053
:10217000F52E64E0E62E72E0C72EDD24D394E8E06D
:10218000BE2EF0E29F2EA0E8AA2E8091FB058823A8
:1021900009F4CAC08091F706813009F4C5C00E94D5
:1021A0008E0C882309F4C0C08FB7F8940091F8030F
:1021B0001091F9038FBF1092FB058FE00E94020C73
:1021C000782E809183028B7F833021F4F092F70682
:1021D000B092830272FE48C080918302863011F46F
:1021E000109283028091830281113EC024E072121A
:1021F00032C086E00E94020C8F719091B703292FA4
:1022000026952695921B980F9093B703E091C802EC
:10221000F091C90294A59B7F986094A786A70E941D
:102220002A04A80147505109461B570B1A014424A0
:1022300037FC4094542CE091C802F091C90224A5C7
:10224000226024A7260E371E481E591E20A631A63E
:1022500042A653A607C0E091C802F091C90284A526
:10226000857F84A7F092830273FE5EC08091830213
:10227000843009F048C0F092F706109283028091F2
:10228000CB02833019F41092CB024EC0E0911E07AE
:10229000F0911F07828190E0982F88272181822B5F
:1022A00085FF26C087749C7C8134984809F5878116
:1022B00090E0982F88272681822B21E030E001963C
:1022C00011F420E030E0232B99F08091B8058111C2
:1022D0000FC0C0920304D092B80580918400909101
:1022E000850069E973E00E944F04C092CB021CC0D4
:1022F0001092CB021092D90310922F06E092D803CD
:102300000E94D30211C0853079F486E00E94020C4D
:102310009091F303292F26952695921B8F71980F84
:102320009093F3038092830280918302882309F4BF
:1023300051C2893009F0BCC10E945F029EBC0DB43D
:1023400007FEFDCF8EB51EBC0DB407FEFDCF8EB5CA
:102350009DEF980F973208F073C01EBCE091C80241
:10236000F091C9023F015FEF651A750A80839EEF05
:10237000492E480E86E0841518F407E0502E01C05F
:10238000542C6A827B8200E010E0352C360C80E011
:102390000E945802AA81BB818D93BB83AA83682FB8
:1023A000C8010E9461028C01BA813B12F0CF8FEF0D
:1023B000850D90E00196860D971DE091C802F09181
:1023C000C90221812770223029F42091CB022230CA
:1023D000A9F50BC03FB7F89421E04091F0054330D8
:1023E00008F020E03FBF222349F1742C75182C011E
:1023F000780E80E0741459F00E945802F201819323
:102400002F01682FC8010E9461028C01F2CF0E9447
:102410005802682FC8010E9461028C0180E00E946E
:102420005802682FC8010E9461028C010E94530269
:10243000E091C802F091C90285A704C00E9453022E
:1024400001E010E00E942F02F092F7061092830242
:10245000012B09F0B6C14090C8025090C902D201C8
:1024600011968C91119787709091CB02823029F54B
:10247000923009F018C1E0911E07F0911F071396E2
:102480009C91838198130FC180916F008D7F809301
:102490006F001092B805E0911E07F0911F0784A508
:1024A000816084A71092CB021092D90310922F065C
:1024B000E092D8030E94D302F6C0911118C0C20165
:1024C0000E944D0C882399F0F0923804C092390490
:1024D00010923A04F201838180933B0488E394E0F4
:1024E0000E94A50F811103C083E08093CB0200916D
:1024F000840010918500C2010E944D0C882311F0C8
:10250000045E1C4F10930305009302058091840024
:10251000909185009801281B390BC90118161906DE
:1025200084F42091D903211109C02091B80521110B
:1025300008C00E94730BA092D90303C020682093A7
:10254000D903D20119962C91199730E0322F222706
:1025500018968C91282B8091D202A82FB0E0FD0113
:10256000EE0FFF1FE050FA4F408151816091BB0593
:102570004217530759F4A450B94F9C91961709F488
:1025800060C06F5F6093BB056C931BC0E0E0F6E03A
:10259000ACEFB6E080E090E000E010E0782F4191F1
:1025A00051914217530779F48093D202FC01E45011
:1025B000F94F2081261709F444C06F5F6093BB0573
:1025C000608340E825C04D91562F541B452F1517A9
:1025D00010F0702F412F01968530910519F0072FCB
:1025E000142FDCCF7093D202872F90E0FC01EE0F06
:1025F000FF1FE050FA4F318320836F5F6093BB056C
:10260000FC01E450F94F6083FC01EC5DF84F10824F
:102610008091BB05982F9F779F3719F08091D20248
:1026200010C04F37D8F3ECEFF6E0282F20789081D8
:102630009F6798132083319697E0E130F907B9F747
:10264000EDCFD20113969C91E82FF0E0DF01AC5D55
:10265000B84F8C91EF50FA4F80FF04C080819813DF
:1026600003C021C081608C9390831FB7F894809140
:10267000F0058330B8F4E0912306E80FE33008F06A
:10268000E350F0E0EE0FFF1FE854FD4F7080018132
:10269000518240828F5F8093F00588E00E94AE02F5
:1026A000472C502E1FBF5092C9024092C80289C0C9
:1026B0009FEF980F933008F06FC09EEF980F923005
:1026C000E8F51091F7061130B1F48091B805811149
:1026D00035C00E942D0283E0809303041093B80557
:1026E00080918400909185006BE273E00E944F041A
:1026F000C092F7063EC0833009F51330F9F40E940A
:102700008E0C8823D9F08FE00E94020C809181000A
:1027100080648093810096BA80916F00806280937C
:102720006F006091B203606688E00E941A0C66E058
:1027300082E00E941A0CE092F7061BC0809183028F
:1027400081508230B0F48091F706853091F40E9478
:102750008E0C882371F063E082E00E941A0C809155
:102760006F008F7D80936F001092FB0583E0809354
:10277000F70680918302813041F49091F7069330FF
:1027800001F52F9A8093F7061AC08230D1F4809118
:10279000F7068330B1F413C0873099F40E948E0C91
:1027A000882379F06091B203606688E00E941A0C79
:1027B0008091F706853019F4E092F70602C0B092D6
:1027C000830280918302883029F41092830286E08C
:1027D0000E94AE028091830281111CC08091F70695
:1027E0008530C1F48091FB05811114C08091CB022A
:1027F000811110C08091D90381110CC08091B8055E
:10280000811108C08091D803823021F4D092D8037E
:102810000E94D30280918302811103C08AE00E944A
:10282000AE028091B805823009F089C01092B805D7
:1028300020910304223009F465C0233009F46DC0EF
:10284000213009F07CC080918400909185006090D7
:10285000020570900305681A790A8091D9038038BF
:1028600051F41092D9038091D803823009F067C0E7
:102870002093D8034FC087FF03C016141704E4F059
:102880000091B8031091B9038091CB02811114C05B
:10289000C8010E94A50F282F81110FC0F80184A53F
:1028A0008E7F84A7D092CB0210931F0700931E0740
:1028B00083E08093D90343C025E08091D903982F0A
:1028C0009F77913059F4807882608093D90380E1BA
:1028D00098E00E9474040E94730B31C087FF0BC004
:1028E0001614170444F4A092D903C30129830E944B
:1028F000730B298102C01092D90320932F06D09226
:10290000D80308C01092CB021092D90310922F0660
:10291000E092D8030E94D30212C08091F706823061
:1029200019F42093F70609C080918302863029F4B8
:102930001092830281E00E94020C0E94C2148FB7A1
:10294000F8949091B1039130C9F41092B1038FBF04
:102950000F900F900F90DF91CF911F910F91FF90EB
:10296000EF90DF90CF90BF90AF909F908F907F902F
:102970006F905F904F903F902F900895D092B10349
:102980008FBF03CC8FB7F8949091B103992329F0AE
:1029900090689093B1038FBF089591E09093B10335
:1029A0008FBF0C949F109FB7F8948091B103815012
:1029B0008093B103803811F09FBF089581E0809328
:1029C000B1039FBF0C949F100F931F93CF93DF937E
:1029D0001F92CDB7DEB78C018FE3F801828780911B
:1029E00077028F5F8093770283830E944A028091EF
:1029F000D80381110DC01093C7050093C60581E06F
:102A00008093D8031092BD050E94D30280E001C0DC
:102A100085E089830E94D31489810F90DF91CF9143
:102A20001F910F910895EF92FF921F93CF93DF9321
:102A300000D0CDB7DEB7182F7A012D3108F078C05D
:102A4000FA01428150E0542F44278181482BFA013A
:102A5000E774FC7CE134F84841F040735527416449
:102A60005868F701418388E88283235FF701208358
:102A700069837A830E942204F701808791879FB738
:102A8000F894809116029FBFF70184831582138703
:102A9000698166837A8177838FB7F8949091720207
:102AA000911110C092E090937202109213028FBFA6
:102AB000C7010E94E414182F8823C1F00E94100B54
:102AC000812F37C08FBFF092B403E092B3031FB7DA
:102AD000F8948091720281110BC081E080937202A0
:102AE0001092130285E00E94AE021FBF80E021C059
:102AF0008091B6038F3FC9F481E090E0E091140229
:102B0000EE2311F080E090E0892B79F4809115029A
:102B10008F3F19F41092150204C0F0E0EA54FC4F04
:102B200010821092140280E001C085E01FBF01C036
:102B300086E00F900F90DF91CF911F91FF90EF9063
:102B40000895CF93DF93FB01242FC82FD0E0CC0F43
:102B5000DD1FCC5FDA4F68817981672BF1F4F9834F
:102B6000E8839DE0920F9083909119029530B8F020
:102B70009385678170E0762F66273681632B80937B
:102B80001902AF01892F0E941315882341F095E0A7
:102B9000909319021982188203C085E001C080E079
:102BA000DF91CF910895CF93DF93EC018091C30221
:102BB000882309F44FC08091D60381114BC082E96C
:102BC00092E0892B09F446C081E08093D603C0933C
:102BD0009302D0939202C1158EEDD80749F440912B
:102BE000690250916A0260916B0270916C0203C09D
:102BF00040E050E0BA0184E992E00E94330284E9A7
:102C000092E00E943B02672B682B692B89F0C1156B
:102C1000DE4D21F0C0E060E070E003C0CAE06BED83
:102C200075E04C2F50E088E992E00E94FF3301C02C
:102C3000C0E08FEF80938C0280938D0280E68093BA
:102C4000910246E04C0F66E872E083E0DF91CF919D
:102C50000C94A115DF91CF9108958091B60288233D
:102C600099F18AE0E5EEF5E0ABEDB5E001900D926B
:102C70008A95E1F78091690290916A02A0916B02B6
:102C8000B0916C02CD01AA27BB270196A11DB11DF1
:102C90002091290230912A02DC0199278827820F8E
:102CA000931FA11DB11D8093690290936A02A093A6
:102CB0006B02B0936C0280E09EED0E94D3150E94DF
:102CC0008F0D83E10C94AE0208958FED94E0892B73
:102CD00009F467C080917502843051F580917302C8
:102CE00081115FC081E08093730285E0809375025B
:102CF00090911C0580911D059093E0048093DF0462
:102D00009091290280912A029093E2048093E10439
:102D100040911B0250911C0260911D0270911E0295
:102D200083EE94E00E94330280911A028093E704BC
:102D3000809175028530A9F580910C06882331F0C9
:102D400080E00E94C90D10920C0608958091EE0358
:102D5000811103C081E00C94DF16E7E6F4E0A8EEF1
:102D6000B4E081918D9384E0ED36F807D1F780913E
:102D7000DF0490E0982F88272091E004822B809335
:102D8000D9049093DA0481E58093DE044FE063ED8B
:102D900074E081E00E94A115882319F080E00C9472
:102DA000C90D08951092730280917502823019F056
:102DB000843019F008950C94F7190C946516CF938C
:102DC000DF931F92CDB7DEB7823050F49091750239
:102DD000933011F0953021F489830E94D2168981B5
:102DE000809375020F90DF91CF9108950F931F93F9
:102DF000209175023EEF320F323030F50091200203
:102E00001091210220912202309123026017710754
:102E1000820793074CF0601771078207930781F5CB
:102E200080911F02481760F581E00E94DF16109222
:102E3000BF051092C0051092C1051092C2051092F4
:102E4000C3051092C4051CC024502230C8F4009160
:102E50001B0210911C0220911D0230911E0260176E
:102E60007107820793074CF0601771078207930779
:102E700039F480911A02841718F081E080930C06CF
:102E80001F910F910895855E944019F58091750208
:102E90008330F9F4662319F081E00C94DF169091E9
:102EA0001C0580911D059093D9048093DA0482E576
:102EB0008093DE044CE163ED74E082E00E94A11592
:102EC000882339F040E150E060E070E080E00C944D
:102ED000B60C0895EFE2F5E080818D7F8083E6E215
:102EE000F5E080818D7F808380E00E94DF168FEF88
:102EF00090E0A0E0B0E080931B0290931C02A093AE
:102F00001D02B0931E028FEF80931A021092670485
:102F1000109268041092690410926A0410926B0473
:102F200010926C041092BF051092C0051092C1055A
:102F30001092C2051092C3051092C40595E09093BB
:102F40002402E2EDF5E083831282118210828483F1
:102F500087831092CE0580E00895CF92DF92EF92A2
:102F6000FF92CF93DF931F92CDB7DEB76B017C0149
:102F700080917502811105C081E049830E94DF16AE
:102F80004981C0921B02D0921C02E0921D02F09275
:102F90001E0240931A028FEF8093670480936804A7
:102FA0008093690480936A0480936B0480936C041B
:102FB00080E00F90DF91CF91FF90EF90DF90CF9066
:102FC00008958F929F92AF92BF92CF92DF92EF922D
:102FD000FF920F93CF93DF931F92CDB7DEB74B01D4
:102FE0005C0169017A010E946A1782E080932402E1
:102FF000B501A40182ED95E00E943302D701C6011C
:103000000197A109B109EAE0B695A795979587952B
:10301000EA95D1F78F5F8093D6058093D90582ED2D
:1030200095E00E945D088093D8059093D705809124
:103030002402823011F40E941F0D84E08093240248
:10304000009374024091D60582ED95E049830E9479
:103050003B0249810E94AD1780E00F90DF91CF9134
:103060000F91FF90EF90DF90CF90BF90AF909F9027
:103070008F9008958F929F92AF92BF92CF92DF92DE
:10308000EF92FF920F93CF93DF9300D000D0CDB794
:10309000DEB780916802813019F08230C1F04AC0F9
:1030A0000091E80389EE93E00E943B029B01AC0192
:1030B00084EE93E029833A834B835C830E943B0236
:1030C00029813A814B815C810E94E11733C00091D4
:1030D000E80389EE93E00E943B026B017C0184EEE1
:1030E00093E00E943B024B015C010E946A178092B0
:1030F000BF029092C002A092C102B092C202C092DE
:10310000B205D092B305E092B405F092B5050093F4
:10311000B502023031F0033031F0013059F485E06E
:1031200003C083E001C084E00E94290A811102C02B
:10313000109224020F900F900F900F90DF91CF917B
:103140000F91FF90EF90DF90CF90BF90AF909F9046
:103150008F900895CF93DF931F92CDB7DEB7409144
:10316000D9058091D6054817A0F482ED95E04983F2
:103170000E943B0249810E94AD178091CF0581706A
:1031800084608E7F8093CF050F90DF91CF910C9458
:103190001F0D4FEF6FEF70E080E090E00E94AD17E1
:1031A0000E946A1781E0809324028091B5020F90FB
:1031B000DF91CF910C94E8098091240281113DC0E8
:1031C00083E0809324024091BF025091C00260913D
:1031D000C1027091C20282ED95E00E94330280919B
:1031E000B2059091B305A091B405B091B5050197D2
:1031F000A109B109FAE0B695A79597958795FA9533
:10320000D1F78F5F8093D6051092D90582ED95E0B6
:103210000E945D088093D8059093D7058091240281
:10322000833011F40E941F0D84E08093240280916A
:10323000B502809374020C94AA180895CF92DF927D
:10324000EF92FF92CF93DF932091DE03422F50E065
:103250007CE1279F90011124F901ED53F94FE81704
:10326000F90709F0A1C0662371F08FEF809367041E
:10327000809368048093690480936A0480936B044C
:1032800080936C045EC0F901EE53F94F8081E82F02
:10329000E695E695E695F0E0E959FB4F877021E069
:1032A00030E001C0220F8A95EAF72095808128231B
:1032B0002083CA010196817099278093DE03F090E4
:1032C000F102FA94F092F1022FE230E080E090E017
:1032D000CFE2D0E0FC01A3E0F695E795AA95E1F7EF
:1032E000E959FB4F408150E0BC016770772702C06D
:1032F000559547956A95E2F740FD26C00196BE01B7
:103300000E946033215031092115310519F7C09110
:103310001A02C0901B02D0901C02E0901D02F09097
:103320001E0282ED95E00E943B02C616D706E80613
:10333000F90621F48091D905C81781F081E00E9437
:10334000DF161092F10230C0FF2071F1DF91CF91B2
:10335000FF90EF90DF90CF900C94B10ECF5FC093B1
:10336000D90582ED95E00E945D088093D805909381
:10337000D7058091D605C81718F40E94AA18DECF89
:1033800082ED95E00E943B024C2F0E94AD1781E038
:10339000809324028091B5020E94E809882371F28B
:1033A00080E00E94AE02CACFDF91CF91FF90EF90F4
:1033B000DF90CF9008950F931F9310927002409169
:1033C000FB06042F10E0F8013397E631F10560F4B5
:1033D000E458FF4F0C94AA331F910F910C941E19BF
:1033E0001F910F910C94530A1F910F910895CF9242
:1033F000DF92EF92FF920F931F93CF93DF93C091D1
:1034000075028EEF8C0F823008F0A8C0C0902002A9
:10341000D0902102E0902202F090230282ED95E00C
:103420000E943B02C616D706E806F90629F48091E9
:10343000CF0581608093CF05C230B1F480917302D3
:1034400081118CC081E08093730283E080937502C8
:10345000B701A6018FED94E00E94330280911F0214
:103460008093E3041092E404E090E404F12CC7019B
:10347000CFE2D0E0FC0103E0F695E7950A95E1F78D
:10348000E154FA4F208130E0AC014770552702C06B
:10349000359527954A95E2F720FF29C08093E404EB
:1034A00046E1489F9001499F300D112440911F0231
:1034B00050E060E070E01AE0440F551F661F771F70
:1034C0001A95D1F7420F531F611D711D809174022F
:1034D000823001F1833039F1813089F516E1E12E36
:1034E000F12C00E010E025EE34E082E024C00196EB
:1034F000BE010E9460338E159F0509F0BBCF81E0AD
:10350000DF91CF911F910F91FF90EF90DF90CF90BF
:103510000C94DF1616E1E12EF12C00E010E025EE10
:1035200034E080E008C016E1E12EF12C00E010E06C
:1035300025EE34E081E00E94FE0E882379F040E120
:1035400050E060E070E080E0DF91CF911F910F913B
:10355000FF90EF90DF90CF900C94B60CDF91CF915D
:103560001F910F91FF90EF90DF90CF9008954F92B1
:103570005F926F927F928F929F92AF92BF92CF9203
:10358000DF92EF92FF921F93CF93DF93CDB7DEB719
:1035900028970FB6F894DEBF0FBECDBFEEE1F5E081
:1035A00020E030E0108511FF27C14080518062800B
:1035B0007380C480D580E680F7804B015C0184185D
:1035C0009508A608B7088C149D04AE04BF0408F43F
:1035D00013C110FF03C01D7F10870AC0D301C201B1
:1035E0008C0D9D1DAE1DBF1D80839183A283B3836F
:1035F000223009F469C028F4222351F0213069F007
:1036000002C1243009F494C0253009F4A3C0FBC0E2
:103610000E9465160E94F719F6C08091CF0580FDC3
:1036200031C085E093E0892B69F1809176028111A8
:1036300029C09091290280912A02909306038093D9
:10364000050382E0809307031092080389E0E2ED0E
:10365000F5E0A9E0B3E001900D928A95E1F78FEFD4
:103660008093FF028093000380E5809304034EE083
:1036700069EF72E080E00E94A115811103C081E032
:103680008093760280917502823028F08091CF0578
:103690008170846009C08091CF05982F969531F094
:1036A0009158990F8170892B8093CF058091CF0518
:1036B0008E7F39F48091CE05863118F48F5F809328
:1036C000CE050E94DA0C9FC040913405509135051B
:1036D000609136057091370580917A0290917B0256
:1036E000A0917C02B0917D020097A105B105E9F09F
:1036F00084179507A607B707C1F48091820281114C
:103700000BC09FB7F89480911905816080931905CB
:103710009FBF84E10E94AE0280E090E00E94950489
:1037200080E00E94AC04109282020E94290D6BC0BE
:1037300080915402811108C082E10E941E058823F5
:1037400019F082E10E94AD0A8091540281115BC0A0
:10375000119A59C08091E505853059F0863009F0FD
:1037600052C08FB7F894CE0101967C0180EF9FE0A4
:103770000EC060E070E08091EA050E947905A0E04B
:10378000B0E06627782F892F9A2F0E945E0F6C0178
:10379000EFEFCE1ADE0A0E940F34F70181937F010A
:1037A000F8EFCF16FFE0DF0611F0C601F0CF8091F1
:1037B000290290912A0229813A812817390711F4A8
:1037C0000E9473029A838983CE0101967C0180EF67
:1037D0009FE0F70161917F016C01FFEFCF1ADF0AD3
:1037E0000E94173428EFC2162FE0D20611F0C6014E
:1037F000F0CFF999FECFE4CF2F5F3F4F39962630B7
:10380000310509F0CFCE82E028960FB6F894DEBFDE
:103810000FBECDBFDF91CF911F91FF90EF90DF9052
:10382000CF90BF90AF909F908F907F906F905F9060
:103830004F900C94AE021F93CF93DF9380911902A7
:1038400090E0019665E070E00E94743315E0C5E0F9
:10385000D0E0482F50E0FA01EE0FFF1FEC5FFA4F67
:1038600020813181232B91F0E82FE695E695E695AE
:10387000F0E0E65DF94F208130E0982F977002C0AC
:10388000359527959A95E2F720FF08C0CA01019661
:10389000BE010E9474331150E1F685E08093190255
:1038A000E0911902E530E0F4F0E0EE0FFF1FEC5F6D
:1038B000FA4F0190F081E02D20812D50678170E05A
:1038C000762F66278681682BAF0183850E941315AA
:1038D000882331F084E0DF91CF911F910C94AE02E8
:1038E000DF91CF911F910895CF93C0911902C530F8
:1038F00098F4EC2FF0E0EE0FFF1FEC5FFA4F208101
:1039000031812817390741F4118210820E941B1C53
:103910008C2FCF910C94E40DCF910895EF92FF92EC
:103920000F931F938091D004843088F41092BE02CC
:1039300014E5E12EF12C00E010E02DE533E040E04D
:1039400050E0BA018091ED030E94430F22C00E9413
:103950004A028091D803811117C08091830281119E
:1039600013C08091F706813029F48091B805811148
:103970000BC002C0853041F083E0809383020E9437
:10398000C21485E08093D8030E94D31483E080930F
:10399000BE021F910F91FF90EF9008958091BE029B
:1039A000823019F0833071F4FFCFE091D004EF5FE3
:1039B000E093D004F0E0EB5DFD4F80818093ED0358
:1039C0000C948E1C0895109270024091FB0650E0FA
:1039D000FA013397E631F10548F5EE56FF4F0C94A6
:1039E000AA330C94DC18682F80E002C0682F82E0B4
:1039F0000C94CE1C682F83E0FBCF682F81E0F8CFBA
:103A0000109267028EE007C0109267028FE003C039
:103A10001092670280E10C94AD0A80E005C082E05C
:103A200003C083E001C081E00C94090A0895EF927D
:103A3000FF920F931F932091BE02223009F051C0D4
:103A40002091CC0230E0322F22274091CD02242B4E
:103A500082179307B1F08091ED03813049F030F087
:103A6000823069F08330E9F58CE003C08AE001C060
:103A70008DE01F910F91FF90EF900C94290A8BE03D
:103A8000F8CF4091B5034F5F4093B5038091650334
:103A90004817B0F481E08093BE0250E0405C5F4F75
:103AA000440F551F60E070E012E0E12EF12C00E0C1
:103AB00010E02CEC32E08091ED030E94430F11C026
:103AC000E091D004EF5FE093D004F0E0EB5DFD4FB8
:103AD00080818093ED031F910F91FF90EF900C94E4
:103AE0008E1C1F910F91FF90EF9008950F931F93DD
:103AF000109270024091FB06042F10E0F8013697F7
:103B0000EF30F10560F4E855FF4F0C94AA331F9194
:103B10000F910C94171D1F910F910C94690A1F911E
:103B20000F910895CF92DF92EF92FF920F931F9320
:103B3000CF93DF9300D000D0CDB7DEB7082F7B0145
:103B40009091BE02913009F4B9C008F47EC094305F
:103B500009F0E6C083E08093BE0280910B068823C3
:103B600019F0813099F1DCC0CB010E943B026B015E
:103B70007C0184EE93E00E943B02C616D706E8065D
:103B8000F90699F48091E303843069F460E070E011
:103B9000802F0E947905A0E0B0E06627782F892F5A
:103BA0009A2F0E945E0F81E001C082E0809368023C
:103BB0000F900F900F900F90DF91CF911F910F9169
:103BC000FF90EF90DF90CF900C948E050093EA0564
:103BD00029E333E0232B29F0842F4C830E94CE303D
:103BE0004C8141119DC08091E5058350823008F0E1
:103BF00097C0C7010E943B02AB01BC0186EE95E075
:103C00000E943302C70104960E943B02AB01BC0133
:103C10008BEE95E00E9433020E942D160091EA057A
:103C20008BEE95E00E943B029B01AC0186EE95E095
:103C300029833A834C835B830E943B0229813A812A
:103C40004C815B810E94E1176BC0411169C08DE519
:103C500093E00E943B026F3F7F4F8F4F9F4FA9F031
:103C60001092B50381E08093BE0212E0E12EF12CA8
:103C700000E010E02CEC32E040E850E060E070E062
:103C80008091ED030E94430F4BC0E091D004EF5FA1
:103C9000E093D004F0E0EB5DFD4F80818093ED0375
:103CA0000F900F900F900F90DF91CF911F910F9178
:103CB000FF90EF90DF90CF900C948E1C82E0809369
:103CC000BE022091B50330E0A0E5B4E00E94B0331D
:103CD000AB01BC0140585E4F6F4F7F4F8091ED03A9
:103CE000813089F050F08230A1F08330C9F400E5D2
:103CF00014E020E030E088E011C000E514E020E0AE
:103D000030E086E00BC000E514E020E030E089E020
:103D100005C000E514E020E030E087E00E94230EBB
:103D20000F900F900F900F90DF91CF911F910F91F7
:103D3000FF90EF90DF90CF900895CF92DF92EF92B7
:103D4000FF920F93109270020091FB06C02ED12CAF
:103D500035E1C316D10450F5F601E954FF4F0C9438
:103D6000AA33622F0F91FF90EF90DF90CF900C94C9
:103D70004317422FBC0180E00BC0422FBC0182E000
:103D800007C0422FBC0183E003C0422FBC0181E089
:103D90000F91FF90EF90DF90CF900C94921D0F91B8
:103DA000FF90EF90DF90CF900C94850A0F91FF90D9
:103DB000EF90DF90CF900895CF92DF92EF92FF9235
:103DC0000F931F93CF93DF931F92CDB7DEB7282FAA
:103DD0006B0110910F02E12EF12C8BE0189FF00186
:103DE0001124E359FB4F00818FEF80930F02108263
:103DF000113049F030F0123041F0133059F483E0C3
:103E000005C080E003C081E001C082E029830E94F8
:103E1000DD0A2981033009F477C030F4013079F1EB
:103E2000023009F44AC083C0043021F0053009F49F
:103E300057C07DC0409128035091290360912A0307
:103E400070912B038BE08E9DF0018F9DF00D11245E
:103E5000E359FB4F81819281113031F028F012300B
:103E600019F0133009F063C00F90DF91CF911F91CB
:103E70000F91FF90EF90DF90CF900C949D1E8BE000
:103E80008E9DF0018F9DF00D1124E359FB4F818130
:103E90009281113031F028F0123019F0133009F00E
:103EA00046C0622F0F90DF91CF911F910F91FF902D
:103EB000EF90DF90CF900C94DB19113029F020F0B7
:103EC000123011F0133099F5822F0F90DF91CF91BE
:103ED0001F910F91FF90EF90DF90CF900C94E31C17
:103EE000113029F020F0123011F0133001F5622F5B
:103EF000C6010F90DF91CF911F910F91FF90EF902E
:103F0000DF90CF900C94761D113029F020F0123004
:103F100011F0133061F4822F0F90DF91CF911F9138
:103F20000F91FF90EF90DF90CF900C943A0C0F9090
:103F3000DF91CF911F910F91FF90EF90DF90CF9085
:103F400008952F923F924F925F926F927F928F923D
:103F50009F92AF92BF92CF92DF92EF92FF920F9318
:103F60001F93CF93DF9340910F028090280390908E
:103F70002903A0902A03B0902B03E42FF0E02BE05C
:103F8000429FD0011124A359BB4F1796CD90DD90CD
:103F9000ED90FC901A97C818D908EA08FB0811960A
:103FA0002D903C901297C114D104E104F104B1F4B6
:103FB000BC0180E0DF91CF911F910F91FF90EF90B6
:103FC000DF90CF90BF90AF909F908F907F906F9039
:103FD0005F904F903F902F900C94DC1E13964D9065
:103FE0005D906D907C901697480C591C6A1C7B1C48
:103FF0003327272D162D052DB801413041F078F0DB
:10400000423041F0433049F060E070E008C0B80150
:104010007E5F05C0B8017D5F02C0B8017395A20143
:104020005527C0E0D1E0C41BD50B2E01612C712CAB
:10403000C414D504E604F70408F4E6011BE01E9F4F
:10404000D0011F9FB00D1124A359BB4FEC91E43058
:1040500051F0E53071F0E13089F49101280D391DFE
:104060008E0183E009C09101280D391D8E0181E088
:1040700003C08E019C0182E00E94EE218091280302
:1040800090912903A0912A03B0912B038C0F9D1FBF
:10409000A11DB11D8093280390932903A0932A03A7
:1040A000B0932B03DF91CF911F910F91FF90EF9071
:1040B000DF90CF90BF90AF909F908F907F906F9048
:1040C0005F904F903F902F900895882321F060E0FB
:1040D00070E00C94DC1ECB010C94A11F9091D703CF
:1040E0004093D7039330C9F028F4913049F09230CF
:1040F00071F008959430B1F09650923098F0089590
:1041000090910F029F3FB1F060E070E004C0909189
:104110000F029F3F79F00C94652090910F029F3F12
:1041200099F7089590910F029F3F21F060E070E0B1
:104130000C94DC1E0895CF92DF92EF92FF920F93C2
:104140001F93CF93DF932091E1033091E20380919D
:104150001B05082F10E09091D703D801AA0FBB1FB1
:10416000AD01400F511FEA01CD50DD4F4B505D4F67
:10417000688179812617370709F0FBC0492F50E085
:10418000415051094930510508F01FC144535F4F58
:10419000FA010C94AA33809124069091250681306F
:1041A000910531F160F0029709F00FC1ED01C00FE8
:1041B000D11FCB50DD4F88818460888319C08091E6
:1041C000B702882351F0DF91CF911F910F91FF909B
:1041D000EF90DF90CF900C947F0BCC24C394D12C24
:1041E000E12CF12C00E010E040E061E88BE0EBC056
:1041F000F801EA0FFB1FEB50FD4F80818260808346
:1042000040E060E070E080E0DF91CF911F910F917E
:10421000FF90EF90DF90CF900C946E20F801EA0FA2
:10422000FB1FEF01CB50DD4F888181FD0AC0DF917C
:10423000CF911F910F91FF90EF90DF90CF900C9452
:10424000850BED50FD4F80912406909125069183BA
:10425000808388818D7F88831AC0ED01C00FD11FB4
:10426000CB50DD4F288121FF06C026952695269547
:10427000237009F087C0F801EA0FFB1FEB50FD4FD8
:10428000808181FFD4CF983011F0963059F48DE0C1
:10429000DF91CF911F910F91FF90EF90DF90CF9022
:1042A0000C94AE021092D703892FDF91CF911F910A
:1042B0000F91FF90EF90DF90CF900C943922F8018E
:1042C000EA0FFB1FEB50FD4F908190FD7CCFC0901B
:1042D0001205D0901305E090F403F090F5030091DF
:1042E000240610912506882311F064ED01C066EDC7
:1042F00020E030E042E082E066C0F801EA0FFB1FF8
:10430000EB50FD4F908190FD5ECFE090F403F09074
:10431000F503C0901205D09013050091240610916A
:104320002506882311F064ED01C066ED20E030E041
:1043300042E083E048C0F801EA0FFB1FEB50FD4F5D
:10434000908190FD40CFC0901205D0901305E09071
:10435000F403F090F50300912406109125068823BC
:1043600011F064E801C067E820E030E040E084E05C
:104370002AC0FA01608161FF5ACF669566956695FD
:10438000637051F0DF91CF911F910F91FF90EF90EB
:10439000DF90CF900C94C80B943019F439832883A4
:1043A000E7CE9091B70291110ECF882311F063E50B
:1043B00001C065E5CC24C394D12CE12CF12C00E0A4
:1043C00010E040E088E00E944E05DF91CF911F9100
:1043D0000F91FF90EF90DF90CF9008950F931F9370
:1043E0008093D70310931305009312053093F503C0
:1043F0002093F4037093E2036093E1035093250646
:10440000409324062091F3023091F402621773075F
:1044100019F410921B050EC02091F6023091F7029C
:1044200091E06217730721F020911B05211190E0A4
:1044300090931B056115784098F4093091E01907B5
:1044400078F4853051F0483081E0580748F4400F47
:10445000511F4930514048F003C04115584028F0E1
:104460008EE01F910F910C94AE021F910F910C944E
:104470009B208093D7038091F50281FD03C01092A9
:104480001B050BC08091F80281FD04C081E0809380
:104490001B0503C08DE00C94AE0280911B0590E0DB
:1044A000FC01EE0FFF1FE80FF91FEB50FD4F80815D
:1044B000877E80830C949B200F931F9380910F0223
:1044C0009BE0899FF0011124E359FB4F90819230CA
:1044D00039F0933011F587E01F910F910C94392238
:1044E000823039F0833041F0813049F060E070E093
:1044F00008C060E073E005C060E071E002C060E009
:1045000072E000E010E020E030E040E050E084E0C5
:104510000E94EE211F910F91089581819281109246
:1045200028031092290310922A0310922B031F9143
:104530000F910C94A11F4F925F926F927F928F9276
:104540009F92AF92BF92CF92DF92EF92FF920F9322
:104550001F93CF93DF931F92CDB7DEB790E08E31DC
:10456000910510F00C94DA2CFC01EB52FF4F0C94E7
:10457000AA33109268028091E303833091F0843073
:1045800011F00C94DA2C60E070E08091E8030E9456
:104590007905A0E0B0E06627782F892F9A2F0E9436
:1045A0005E0F81E0809368020F90DF91CF911F91A1
:1045B0000F91FF90EF90DF90CF90BF90AF909F90C2
:1045C0008F907F906F905F904F900C948E058091AC
:1045D0002C03811141C0409117065091180660913B
:1045E000190670911A06EFB7F89480912B069091F6
:1045F0002C06A0912D06B0912E060091C4021091B8
:10460000C5022091C6023091C702800F911FA21FE0
:10461000B31FEFBF40931706509318066093190617
:1046200070931A0610922C032FB7F89431E0309350
:10463000E0038093C4029093C502A093C602B09396
:10464000C70240932B0650932C0660932D0670935F
:104650002E062FBF0E94D1050E946F033BC00E940F
:104660006F032FB7F8941092E0032FBFEEE1F5E04F
:1046700050E088248A94982CA82C1FE7B12E4085FE
:1046800041FF1AC000811181228133816B017C01BD
:10469000C01AD10AE20AF30A048115812681378102
:1046A0000C191D092E093F09081519052A053B0596
:1046B0001CF44801590151E0399625E0E435F20730
:1046C000F1F6552311F40C94DA2C181419041A0479
:1046D0001B049CF00F90DF91CF911F910F91FF90E1
:1046E000EF90DF90CF90BF90AF909F908F907F9092
:1046F0006F905F904F900C94B71A8092170690922B
:104700001806A0921906B0921A0641E040932C03B5
:104710004FB7F89451E05093E0036093C402709354
:10472000C5028093C6029093C70280922B06909296
:104730002C06A0922D06B0922E064FBF0F90DF914F
:10474000CF911F910F91FF90EF90DF90CF90BF908E
:10475000AF909F908F907F906F905F904F900C9450
:10476000D10580912A06882311F40C94DA2CB4E048
:10477000EB2EB5E0FB2E10E001E090912A06802F91
:10478000892359F0D7011D921C92802F809589238F
:1047900080932A06812F0E94E40D000F1F5FB2E074
:1047A000EB0EF11C183049F70C94DA2C80911902A9
:1047B000E82FF0E0EE0FFF1FEC5FFA4F118210823E
:1047C00089830E941B1C89810F90DF91CF911F91DB
:1047D0000F91FF90EF90DF90CF90BF90AF909F90A0
:1047E0008F907F906F905F904F900C94E40D8FB7F7
:1047F000F89492E0909372028FBF8091130281111E
:104800000C94DA2C8091B3039091B4030E94E414C9
:10481000882311F40C94DA2C0E94100B8091B303BE
:104820009091B4038AC08091D8031092D803853048
:1048300089F580917A0290917B02A0917C02B091DF
:104840007D02892B8A2B8B2BC1F410927E02109251
:104850007F0210928002109281021092820280E008
:104860000E94AC041FB7F89480E090E00E94950489
:104870001FBF0E94290D10E001C015E00E948F0D9E
:10488000111103C081E08093B60281E08093C302DE
:104890000C94DA2C9AEF980F923010F40C94DA2CD6
:1048A0008093D8030C94DA2C0E944A022091D803FA
:1048B000213069F58091BD058F5F8093BD058630FD
:1048C00030F58091C6059091C7053091D90331111B
:1048D00012C03091B80531110EC09093B903809386
:1048E000B8032093D9038BED91E10E9474040E94D8
:1048F000730B80E001C085E080932F06811102C018
:1049000083E001C082E08093D80310E003C01092DE
:10491000D80311E00E94D314112311F40C94DA2C63
:104920000091C6051091C705F80182858F3311F0FB
:104930000C94DA2C0E94100BC8010F90DF91CF91DC
:104940001F910F91FF90EF90DF90CF90BF90AF90AD
:104950009F908F907F906F905F904F900C94741CFD
:104960005CE1952E64E0862E72E0772E0FEF1FEF4C
:104970008FB7F8949091F005992309F44DC2E09116
:104980002306F0E0EE0FFF1FE854FD4F40805180FA
:104990008FBFD2011A969C911A9717968C911797F0
:1049A0001696EC9016979F3309F0F2C11B962C9146
:1049B0001B976C90F12CF82A29830E9422042981EC
:1049C000E816F90651F081E090E0EF20E09411F054
:1049D00080E090E0892B09F4E8C1223509F4EBC0AE
:1049E00030F4203559F0213509F473C0DEC120368A
:1049F00009F43CC1213609F4A9C1D7C15201E0E153
:104A0000AE0EB11CC5010E943B026B017C0182ED20
:104A100095E00E943B02C616D706E806F90609F0A3
:104A2000C4C1D2011E968C911E97823009F0BDC17F
:104A300080912402843009F0B8C15596EC905597C6
:104A4000F12CFE2CEE2456968C91E82AC5010E948A
:104A50005D08E816F90609F0A8C181E090E0EF28AA
:104A600011F480E090E0892B09F49FC1F20197894D
:104A70008091D9058917F0F48091CF058E7F09F0D8
:104A800094C7848590E0982F88272585822B2091D4
:104A90007502213009F089C78092750290931D0537
:104AA00080931C052093EE0310920C0681E00E9477
:104AB000C90D7BC7981738F48091CF058170846049
:104AC0008093CF0572C78091CF0581608093CF0519
:104AD0006CC180917502882309F467C1C2014096B8
:104AE0000E943B026B017C01D2015496BC904B2D7D
:104AF0000E94F616F201848590E0982F882725857C
:104B0000822B2091290230912A028217930709F003
:104B10004CC180911B0290911C02A0911D02B0918A
:104B20001E02C816D906EA06FB0609F03EC18091AE
:104B30001A02B81608F039C120917502213029F403
:104B4000D2015596EFEBF5E018C08EEF820F823060
:104B500008F02BC18091200290912102A0912202A5
:104B6000B0912302C816D906EA06FB0609F01DC15A
:104B700080911F02B81219C1E3CF9D918081892BCA
:104B8000819335E0E53CF307C1F7213009F00DC111
:104B900070927502C0922002D0922102E09222020D
:104BA000F0922302B0921F0210931D0500931C0582
:104BB0000E94F719FAC080917502882309F4F5C0A4
:104BC00072018CE0E80EF11CC7010E943B02D20189
:104BD00050964C910E94F616C7010E943B0220910C
:104BE0001B0230911C0240911D0250911E0262175F
:104BF00073078407950709F0D8C0F2019089809166
:104C00001A029813D2C02189E22FE695E695E6951F
:104C1000F0E0E959FB4F808190E0277002C0959544
:104C200087952A95E2F780FFC0C08091F10282301B
:104C300008F0BBC0A091DE03A8279A9ED0011124E2
:104C4000A354B94FF701992D01900D929A95E1F770
:104C50008F5F8093F102813009F0A7C0D2011896CE
:104C60008C9180935C030E94B10E9FC0F201A484DA
:104C7000B12CBA2CAA248585A82AC2010E960E94BE
:104C80003B026B017C01A114FEEDBF0649F480914B
:104C9000690290916A02A0916B02B0916C0203C00C
:104CA00080E090E0DC012091C302222309F47DC062
:104CB0000097A105B10551F4C114D104E104F10438
:104CC00051F0A1142EEDB20661F514C0C114D10447
:104CD000E104F10431F1B701A601481B590B6A0B3D
:104CE0007B0B1416150616061706FCF4A1143EEDF0
:104CF000B306B9F44DEE460D4A3010F450E002C050
:104D00004AE050E0B2016E5E7F4F8BED95E00E946D
:104D1000FF33C0926902D0926A02E0926B02F09275
:104D20006C02C5010E94C30D40C0C816D906EA0630
:104D3000FB0651F4A1148EEDB806B9F580918202FC
:104D40008F5F8093820231C0C5011FC08091C30272
:104D5000882359F1D2011C968C911C9790E0982FD2
:104D600088271D962C91822B81159E4DF1F4809100
:104D7000690290916A02A0916B02B0916C02892B3A
:104D80008A2B8B2B91F080E09EED0E94D3150DC0F5
:104D9000F12CF82A0E942204E816F90619F0EF20F7
:104DA000E09419F48FB7F8948FBF9FB7F89480916F
:104DB0002306E82FF0E0EE0FFF1FE854FD4F51826D
:104DC00040828F5F833018F48093230602C01092D4
:104DD00023068091F00581508093F0059FBFC8CDD8
:104DE0000E9494032FB7F8947093C9056093C80587
:104DF0002FBFE0C58FB7F8941092B7051092B60593
:104E00001092F6061092F506109285021092840216
:104E10001092D2041092D1048FBFCCC51FB7F89462
:104E200082E0809371020E94700C1FBF809110027B
:104E30008111C0C50E9431020E942F028091F706A5
:104E4000811144C08EEF91E00E94D90716980E940C
:104E50002D0286E090E00E94D907169A60E083E078
:104E60000E941A0C68E082E00E941A0C8EEF91E01A
:104E70000E94D9076DE48EE00E941A0C67EC89E06D
:104E80000E941A0C60E885E00E941A0C1092370408
:104E90008BE08093B2036BE688E00E941A0C2F9A95
:104EA00081E08093F7060F90DF91CF911F910F91D2
:104EB000FF90EF90DF90CF90BF90AF909F908F903A
:104EC0007F906F905F904F900C94400B0F90DF910C
:104ED000CF911F910F91FF90EF90DF90CF90BF90F7
:104EE000AF909F908F907F906F905F904F900C94B9
:104EF000C21440E060E070E081E00F90DF91CF915C
:104F00001F910F91FF90EF90DF90CF90BF90AF90E7
:104F10009F908F907F906F905F904F900C946E2039
:104F200080916F02863091F55D9A0E9429020000FF
:104F3000000019B10E942B028091F8028E7F8093AD
:104F4000F8028091F5028E7F8093F5021092B702ED
:104F50008091180590E0FC01EE0FFF1FE80FF91F8C
:104F6000EB50FD4F12FD03C08081877E0BC0208176
:104F7000822F869586958695837090E0029724F41B
:104F8000822F8D7F808310C04AE0B4CF0E942B0215
:104F90008091F8028E7F8093F8028091F5028E7FD7
:104FA0008093F5021092B7020F90DF91CF911F917D
:104FB0000F91FF90EF90DF90CF90BF90AF909F90B8
:104FC0008F907F906F905F904F900C949B2080917A
:104FD0006F0285508230F8F40E942902139887ED01
:104FE0000E9499050E94290282E090E00E94D90760
:104FF0004A990FC008E010E05D9A0E94290282E001
:1050000090E00E94D9070150110901151105A1F77F
:10501000EFCF8FE068C2E090FE03F090FF03809135
:10502000B9059091BA05892B09F459C0A090FA03EB
:10503000B12CF4E0AF0EB11C0E942902139841E09C
:105040000DE016E0D12C80E0433071F4682FC701E9
:1050500049830E9440057C0121E0A21AB1084981E0
:10506000A114B104A1F539C04130B1F4D801DC90EC
:10507000B1E0AB1AB108A114B10419F00F5F1F4FD2
:1050800026C040916F020091FE031091FF03A09093
:10509000B905B090BA051BC0423069F498012F5F82
:1050A0003F4FF8018083F1E0AF1AB108A114B104B9
:1050B000A1F089010CC0443081F4A114B10469F05D
:1050C000D801DC90B1E0AB1AB1080F5F1F4F8D2DF6
:1050D00049830E9499054981B7CF0E942B024091D4
:1050E0006F0210926F0250E0FA013297EA30F10538
:1050F00008F060C4ED50FF4F0C94AA3340E0B701B4
:1051000080E0FBCE81E08093B70220911B0530E068
:10511000C901880F991F820F931FFC01ED50FD4FAD
:105120002091E1033091E20331832083FC01EB50B5
:10513000FD4F808183608B7F25CF81E08093B70214
:1051400080911B0590E0FC01EE0FFF1FE80FF91F97
:10515000EB50FD4F908191609260892F86958695E6
:1051600086958F5F8370880F880F880F977E982BA6
:105170009B7F908319CF81E08093B70280911805BF
:1051800090E0FC01EE0FFF1FE80FF91FEB50FD4F01
:105190008081816080838AE090E00E94D90786E068
:1051A00080936F0280E19FC181E08093B7022091DC
:1051B0001B0530E0C901880F991F820F931FFC0166
:1051C000ED50FD4F2091E1033091E20331832083C4
:1051D000FC01EB50FD4F808182608460808340E061
:1051E00060E070E08DCF80911B0590E0FC01EE0F38
:1051F000FF1FE80FF91FEB50FD4F8081857EEECF3A
:105200008FB7F8949091EF0590930C0293E09093F0
:105210006E028FBF80910C02813049F028F08230FD
:1052200031F0833021F0C6C310920F0202C0809388
:105230000F020F90DF91CF911F910F91FF90EF9090
:10524000DF90CF90BF90AF909F908F907F906F90A6
:105250005F904F900C945C228FB7F89492E09093FB
:105260006D028FBF809109028F3059F028F48E3083
:1052700009F0A0C38EE008C0803129F0813169F1C6
:1052800099C38FE001C080E10F90DF91CF911F9112
:105290000F91FF90EF90DF90CF90BF90AF909F90D5
:1052A0008F907F906F905F904F900C94290A9FB7DA
:1052B000F8948091190580FF05C08E7F80931905B1
:1052C00081E001C080E09FBF882309F473C380E0C0
:1052D0009EED0E94D31584E106C10F90DF91CF911E
:1052E0001F910F91FF90EF90DF90CF90BF90AF9004
:1052F0009F908F907F906F905F904F900C943A1892
:105300002FB7F8941092FA069091C50588EF890F8F
:10531000823050F41092C505E0911A05F0E0EE0FCE
:10532000FF1FEC5FFB4F10822FBF823010F52FB7AD
:10533000F894809122068F5F80932206809100046A
:10534000833481F48091C9049091C804981739F08E
:105350008F5F8093C904863010F01092C90490E0EA
:1053600080E005C081E0983009F480E091E02FBF33
:1053700003C091115AC080E03FB7F89420916602B3
:105380003FBF222339F02FB7F8943AE03093C50598
:105390002FBF3FC04FB7F89430910404209106040A
:1053A0004FBF6FB7F8945091C8044091C9046FBFC4
:1053B000541709F131111FC03FB7F89422E0209330
:1053C00004045FB7F8944091C8042091C9045FBFFA
:1053D000421739F0E091C904F0E0E853FB4F228115
:1053E00001C020E02093050423E4209300041092E0
:1053F0001A053FBF0CC02150223058F42FB7F89443
:1054000035E43093000431E030931A052FBF11E0EA
:1054100001C010E0992351F09FB7F89480935D028A
:105420009FBF8AE10E94AE0201C010E00FB7F8945E
:105430008091C5058A3021F40E942E050FBFBAC2A3
:105440000FBF112309F4B6C28FB7F8941092210749
:10545000109220071092FC0391E09093C5058FBF36
:105460000E943008882309F4A5C28FB7F89499E008
:105470009093C5058FBF0F90DF91CF911F910F9132
:10548000FF90EF90DF90CF90BF90AF909F908F9064
:105490007F906F905F904F900C94D6028091C100E6
:1054A0008F7B8093C1008091C1008F778093C10072
:1054B0001092BE051092DD038091C1008860809338
:1054C000C1008091C10080618093C1008091C100C2
:1054D00080688093C1008FB7F8941092C505109230
:1054E000DA039ACC89E10F90DF91CF911F910F9150
:1054F000FF90EF90DF90CF90BF90AF909F908F90F4
:105500007F906F905F904F900C94AE028091C1009D
:10551000877F8093C1008091C1008F7E8093C100FE
:1055200049C210926102109260028FB7F8948FBF47
:10553000809162029091630220915B0221113AC234
:10554000E0910102E23008F035C2F0E0EE0FFF1FFB
:10555000E55EF94F208131812817390709F02AC209
:105560000FC29FB7F8948091590280905702909093
:105570005802B090CA029FBF8111CCC1F40183854B
:10558000833521F0843509F438C1C4C185EA94E03B
:10559000892B09F4BFC1809154028111BBC1D40190
:1055A000E585E43008F004C2F0E0EB5DFD4F1081CA
:1055B0001F3F09F4FDC11C968C918230A8F482E152
:1055C0000E941E05811110C08FB7F89490916D0252
:1055D000911108C092E090936D0292E190930902BC
:1055E0008FBF02C08FBFE4C1119840E058E060E077
:1055F00070E084E00E94B60C10930002F4018485F0
:10560000823009F452C030F4882309F4D1C18130CA
:1056100059F080C1853009F4A7C0863009F4ABC0C9
:10562000833009F077C174C082E0809354024289CC
:1056300050E0542F44278389482BB4016C5E7F4F80
:1056400082E097E00E94FF33F401C288D12CDC2C69
:10565000CC248389C82AE12CF12CC4010E960E9427
:105660003B02AB01BC01113091F058F01230A9F0AF
:10567000133009F09DC18701760122E037E087E110
:1056800011C08701760122E037E085E10BC0870178
:10569000760122E037E088E105C08701760122E04B
:1056A00037E086E10E946C0E9CC083E08093540238
:1056B000C288D12CDC2CCC248389C82AE12CF12C83
:1056C000C4010E960E943B02AB01BC01113091F067
:1056D00058F01230A9F0133009F06AC18701760141
:1056E00026EA34E083E111C08701760126EA34E03E
:1056F00081E10BC08701760126EA34E084E105C030
:105700008701760126EA34E082E10E94FE0E69C03C
:1057100084E080935402F401C288D12CDC2CCC2488
:105720008389C82AE12CF12CC4010E960E943B0209
:10573000AB01BC01113071F048F0123079F0133038
:1057400009F036C19701860183E10BC097018601FC
:1057500081E107C09701860184E103C097018601BA
:1057600082E10E94230E3DC086E080935402812F87
:105770000E94F70936C08AE1E6EAF4E0DF01282F4B
:105780001D922A95E9F790E1E4E4F2E0A6EAB4E09C
:1057900001900D929A95E1F798E79093B9049DE4F2
:1057A0009093B80496EE9093B70498E59093B6045E
:1057B0009FEF9093BD0493E79093BC048093BB0448
:1057C0008BEC8093BA049091290280912A029093E5
:1057D000BF048093BE044BE150E060E070E080E0E5
:1057E00009C0882309F496C01092540241E050E0A9
:1057F00060E070E00E94C2308DC08AE0E5EEF5E026
:10580000DF011D928A95E9F781E10E94AD0A80913E
:105810006802823021F48091E8030E943D080E94D2
:105820006A1710926802F40184858093E505E58586
:10583000E43028F4F0E0EB5DFD4F908101C09FEF74
:10584000D4011D969C93853038F48330B0F48130B8
:1058500039F0823039F05EC0873008F443C05AC056
:105860000E942D1689E393E0892B19F080E00E94B5
:10587000CE308BE10E94AD0A4DC09F3FA9F18BE174
:105880000E941E05811110C08FB7F89490916D028F
:10589000911108C092E090936D029BE190930902F0
:1058A0008FBF02C08FBF20C0F40185859091BE02DA
:1058B000933081F591E090930B0614E5E12EF12CE5
:1058C00000E010E02DE533E040E050E0BA010E9436
:1058D000430F882319F08091BE0201C084E08093B9
:1058E000BE0218C09F3F31F489E393E0892B91F009
:1058F00081E00EC09093EA0540E054E060E070E083
:1059000085E00E94B60C89E393E0892B19F080E0D2
:105910000E94CE309FB7F894EB2DF0E0EE0FFF1F02
:10592000EC5FFD4F9182808280916502BB2011F077
:105930008B7F01C08D7F8093650210925A029FBFBA
:1059400039C08091FB038823A9F1EBE1F6E091E0F7
:10595000282F292329F011821082292F20958223B4
:10596000990F329626E0EB32F20791F78093FB0312
:1059700021C0E0910102F0E0EE0FFF1FE55EF94F5C
:10598000118210820F90DF91CF911F910F91FF90A4
:10599000EF90DF90CF90BF90AF909F908F907F90CF
:1059A0006F905F904F900C94F3080E941F0DFDC9FB
:1059B00081E01ACF0F90DF91CF911F910F91FF904F
:1059C000EF90DF90CF90BF90AF909F908F907F909F
:1059D0006F905F904F9008958FB7F89408958FBFA0
:1059E00008951F920F920FB60F9211240BB60F92CB
:1059F0002F933F934F935F936F937F938F939F93D7
:105A0000AF93BF93EF93FF930E94A5022091B30041
:105A100030E02F5F3F4F8091CE029091CF02A09156
:105A2000D002B091D102820F931FA11DB11D8093AE
:105A3000CE029093CF02A093D002B093D10278947B
:105A40000E94D105FF91EF91BF91AF919F918F91EE
:105A50007F916F915F914F913F912F910F900BBE6E
:105A60000F900FBE0F901F9018951F920F920FB6B8
:105A70000F9211240BB60F922F933F934F935F9386
:105A80006F937F938F939F93AF93BF93EF93FF9306
:105A90000E94A502FF91EF91BF91AF919F918F91CD
:105AA0007F916F915F914F913F912F910F900BBE1E
:105AB0000F900FBE0F901F9018951F920F920FB668
:105AC0000F9211240BB60F922F933F934F935F9336
:105AD0006F937F938F939F93AF93BF93EF93FF93B6
